H01235202311270010123500000000859113457000000000000000000000000123500000000859113457000000000000000000000000000000000000000000000000000000000000000000000000000000000000000000000000000000000000
D11000016006720828540144830202311272024012700000004065910000NRODRIGUEZ JORGE ARMANDO                           MXP000000000000000000000000000000000000000000000000000000000000000000000000000000
D11000026006720828540144831202311272024012700000002791200000NCANTU FONSECA MARICRUZ                            MXP000000000000000000000000000000000000000000000000000000000000000000000000000000
D11000036006720828540144832202311272024012700000003616930000NFIGUEROA GUADARRAMA ROBERTO                       MXP000000000000000000000000000000000000000000000000000000000000000000000000000000
D11000046006720828540144833202311272024012700000002919800000NJIMENEZ ALVAREZ BARTOLO                           MXP000000000000000000000000000000000000000000000000000000000000000000000000000000
D11000056006720828540144834202311272024012700000002919800000NMERCADO CANTUA LUZ ESTHER                         MXP000000000000000000000000000000000000000000000000000000000000000000000000000000
D11000066006720828540144835202311272024012700000004633600000NGARZA SOTO DANNA XIMENA                           MXP000000000000000000000000000000000000000000000000000000000000000000000000000000
D11000076006720828540144836202311272024012700000003568030000NLANGARICA VALENZUELA ABDIEL ORLANDO               MXP000000000000000000000000000000000000000000000000000000000000000000000000000000
D11000086006720828540144837202311272024012700000003288180000NCASTRO RODRIGUEZ ESMERALDA BERENICE               MXP000000000000000000000000000000000000000000000000000000000000000000000000000000
D11000096006720828540144838202311272024012700000004127570000NROBLES GUERRERO LAURA                             MXP000000000000000000000000000000000000000000000000000000000000000000000000000000
D11000106006720828540144839202311272024012700000001950940000NBELTRAN MARTINEZ MARIA GUADALUPE                  MXP000000000000000000000000000000000000000000000000000000000000000000000000000000
D11000116006720828540144840202311272024012700000004501520000NCRUZ NUNEZ MARIEL MELISSA                         MXP000000000000000000000000000000000000000000000000000000000000000000000000000000
D11000126006720828540144841202311272024012700000004501520000NOCHOA FELIX FLOR DE MARIA                         MXP000000000000000000000000000000000000000000000000000000000000000000000000000000
D11000136006720828540144842202311272024012700000007245700000NTREVEDAN NICOLS EDGAR JESUS                       MXP000000000000000000000000000000000000000000000000000000000000000000000000000000
D11000146006720828540144843202311272024012700000004280590000NLOPEZ CORONADO CARLOS DANIEL                      MXP000000000000000000000000000000000000000000000000000000000000000000000000000000
D11000156006720828540144844202311272024012700000006102600000NMARTINEZ ROBLES HECTOR OSWALDO                    MXP000000000000000000000000000000000000000000000000000000000000000000000000000000
D11000166006720828540144845202311272024012700000004501520000NARMENTA CASTRO GUILLERMO ANTONIO                  MXP000000000000000000000000000000000000000000000000000000000000000000000000000000
D11000176006720828540144846202311272024012700000004081680000NLOPEZ ORDUNO JUAN FRANCISCO                       MXP000000000000000000000000000000000000000000000000000000000000000000000000000000
D11000186006720828540144847202311272024012700000004936030000NALCARAZ VERDUZCO BRAULIO                          MXP000000000000000000000000000000000000000000000000000000000000000000000000000000
D11000196006720828540144848202311272024012700000005096620000NLEON VELAZQUEZ LAURA KARINA                       MXP000000000000000000000000000000000000000000000000000000000000000000000000000000
D11000206006720828540144849202311272024012700000002264410000NMONTIEL SOLIS FRANCISCA                           MXP000000000000000000000000000000000000000000000000000000000000000000000000000000
D11000216006720828540144850202311272024012700000002762670000NPABALAIS VALENZUELA MARICRUZ                      MXP000000000000000000000000000000000000000000000000000000000000000000000000000000
D11000226006720828540144851202311272024012700000007008890000NRONAO TORRES FRANCISCO JAVIER                     MXP000000000000000000000000000000000000000000000000000000000000000000000000000000
D11000236006720828540144852202311272024012700000004244490000NRUIZ PUENTE OMAR JASIEL                           MXP000000000000000000000000000000000000000000000000000000000000000000000000000000
D11000246006720828540144853202311272024012700000003003490000NSANCHEZ HERNANDEZ MANUEL                          MXP000000000000000000000000000000000000000000000000000000000000000000000000000000
D11000256006720828540144854202311272024012700000002142810000NVALENZUELA PABALAY MAYRA GEORGINA                 MXP000000000000000000000000000000000000000000000000000000000000000000000000000000
D11000266006720828540144855202311272024012700000005124240000NVELAZQUEZ PABALAY MARICRUZ                        MXP000000000000000000000000000000000000000000000000000000000000000000000000000000
D11000276006720828540144856202311272024012700000003500640000NMENDEZ MALACON JESUS MANUEL                       MXP000000000000000000000000000000000000000000000000000000000000000000000000000000
D11000286006720828540144857202311272024012700000004149640000NRUIZ PORTILLO HECTOR RAUL                         MXP000000000000000000000000000000000000000000000000000000000000000000000000000000
D11000296006720828540144858202311272024012700000004275600000NGIL LEYVA ANA BELEM                               MXP000000000000000000000000000000000000000000000000000000000000000000000000000000
D11000306006720828540144859202311272024012700000004214670000NSANUDO BERNAL ANIBAL URIEL                        MXP000000000000000000000000000000000000000000000000000000000000000000000000000000
D11000316006720828540144860202311272024012700000002960400000NSOTO ROMAN MIRTA ISABEL                           MXP000000000000000000000000000000000000000000000000000000000000000000000000000000
D11000326006720828540144861202311272024012700000004065910000NVARGAS FIERRO LUIS FERNANDO                       MXP000000000000000000000000000000000000000000000000000000000000000000000000000000
D11000336006720828540144862202311272024012700000006319720000NVARGAS LANDEROS GABRIEL ALFREDO                   MXP000000000000000000000000000000000000000000000000000000000000000000000000000000
D11000346006720828540144863202311272024012700000004149640000NFELIX CALLEJAS ROSA LUZ                           MXP000000000000000000000000000000000000000000000000000000000000000000000000000000
D11000356006720828540144864202311272024012700000005147260000NFLORES MEDINA FRANCISCO JAVIER                    MXP000000000000000000000000000000000000000000000000000000000000000000000000000000
D11000366006720828540144865202311272024012700000005627780000NGAMEZ ROBLES ISMAEL                               MXP000000000000000000000000000000000000000000000000000000000000000000000000000000
D11000376006720828540144866202311272024012700000004501520000NHERNANDEZ FLORES MARIA ALEJANDRINA                MXP000000000000000000000000000000000000000000000000000000000000000000000000000000
D11000386006720828540144867202311272024012700000003610380000NMONTOYA VERDUGO JOSE LUIS                         MXP000000000000000000000000000000000000000000000000000000000000000000000000000000
D11000396006720828540144868202311272024012700000004291930000NSALAZAR ANTELO DAAN                               MXP000000000000000000000000000000000000000000000000000000000000000000000000000000
D11000406006720828540144869202311272024012700000007111520000NCAMACHO PALAFOX PAULINA                           MXP000000000000000000000000000000000000000000000000000000000000000000000000000000
D11000416006720828540144870202311272024012700000003538710000NGARCIA QUEZADA DIEGO FERNANDO                     MXP000000000000000000000000000000000000000000000000000000000000000000000000000000
D11000426006720828540144871202311272024012700000001889140000NGASTELUM VALLE PATRICIA                           MXP000000000000000000000000000000000000000000000000000000000000000000000000000000
D11000436006720828540144872202311272024012700000005755590000NGONZALEZ IBARRA ALEXA CRISTINA                    MXP000000000000000000000000000000000000000000000000000000000000000000000000000000
D11000446006720828540144873202311272024012700000003716840000NHIGUERA URIAS CELSO                               MXP000000000000000000000000000000000000000000000000000000000000000000000000000000
D11000456006720828540144874202311272024012700000005755590000NIBARRA GUERRERO MARIA CRISTINA                    MXP000000000000000000000000000000000000000000000000000000000000000000000000000000
D11000466006720828540144875202311272024012700000007678360000NJIMENEZ ACOSTA SIMON                              MXP000000000000000000000000000000000000000000000000000000000000000000000000000000
D11000476006720828540144876202311272024012700000025261120000NLEYVA CASTRO ROSARIO                              MXP000000000000000000000000000000000000000000000000000000000000000000000000000000
D11000486006720828540144877202311272024012700000008181740000NVALENZUELA CAMARGO JUANA                          MXP000000000000000000000000000000000000000000000000000000000000000000000000000000
D11000496006720828540144878202311272024012700000005627780000NBERNAL RODRIGUEZ CHRISTIAN UBALDO                 MXP000000000000000000000000000000000000000000000000000000000000000000000000000000
D11000506006720828540144879202311272024012700000005627780000NCANEDO ESCALANTE JOSE LORENZO                     MXP000000000000000000000000000000000000000000000000000000000000000000000000000000
D11000516006720828540144880202311272024012700000004734040000NLEYVA CAMARGO JOSE IVAN                           MXP000000000000000000000000000000000000000000000000000000000000000000000000000000
D11000526006720828540144881202311272024012700000004065910000NLOPEZ CARDENAS PAMELA GUADALUPE                   MXP000000000000000000000000000000000000000000000000000000000000000000000000000000
D11000536006720828540144882202311272024012700000002684410000NURIARTE URQUIDEZ ALEX ISRAEL                      MXP000000000000000000000000000000000000000000000000000000000000000000000000000000
D11000546006720828540144883202311272024012700000004065910000NARDIZONI MARTINEZ JESUS                           MXP000000000000000000000000000000000000000000000000000000000000000000000000000000
D11000556006720828540144884202311272024012700000003993760000NGONZALEZ CEBALLOS GLADYS                          MXP000000000000000000000000000000000000000000000000000000000000000000000000000000
D11000566006720828540144885202311272024012700000005300610000NIBARRA BELTRAN BLANCA GUADALUPE                   MXP000000000000000000000000000000000000000000000000000000000000000000000000000000
D11000576006720828540144886202311272024012700000005300610000NIBARRA LUGO VANESSA ALEJANDRA                     MXP000000000000000000000000000000000000000000000000000000000000000000000000000000
D11000586006720828540144887202311272024012700000004081680000NPEREZ CAMIADE RICARDO                             MXP000000000000000000000000000000000000000000000000000000000000000000000000000000
D11000596006720828540144888202311272024012700000005404530000NRIOS BELTRAN CUTBERTO                             MXP000000000000000000000000000000000000000000000000000000000000000000000000000000
D11000606006720828540144889202311272024012700000005300610000NIBARRA VAZQUEZ BEATRIZ GUADALUPE                  MXP000000000000000000000000000000000000000000000000000000000000000000000000000000
D11000616006720828540144890202311272024012700000004149640000NPENUELAS NAVARRO KARLA PAOLA                      MXP000000000000000000000000000000000000000000000000000000000000000000000000000000
D11000626006720828540144891202311272024012700000005300610000NSOTO LUGO MARIA LIBERTAD                          MXP000000000000000000000000000000000000000000000000000000000000000000000000000000
D11000636006720828540144892202311272024012700000004499810000NGARCIA BALCAZAR CECILIA                           MXP000000000000000000000000000000000000000000000000000000000000000000000000000000
D11000646006720828540144893202311272024012700000004605010000NCOTA SOTO IRMA                                    MXP000000000000000000000000000000000000000000000000000000000000000000000000000000
D11000656006720828540144894202311272024012700000002772920000NVELIZ SANDOVAL NINFA ARMIDA                       MXP000000000000000000000000000000000000000000000000000000000000000000000000000000
D11000666006720828540144895202311272024012700000006561880000NURIAS MASCARENO ROBERTO                           MXP000000000000000000000000000000000000000000000000000000000000000000000000000000
D11000676006720828540144896202311272024012700000002302240000NVISAIZ FELIX DIANA LAURA                          MXP000000000000000000000000000000000000000000000000000000000000000000000000000000
D11000686006720828540144897202311272024012700000004501520000NCARDENAS RUIZ PAOLA VANESSA                       MXP000000000000000000000000000000000000000000000000000000000000000000000000000000
D11000696006720828540144898202311272024012700000002853680000NALVAREZ IBARRA ERNESTO                            MXP000000000000000000000000000000000000000000000000000000000000000000000000000000
D11000706006720828540144899202311272024012700000004417370000NRIVERA DIMAS ROSARIO MARIBEL                      MXP000000000000000000000000000000000000000000000000000000000000000000000000000000
D11000716006720828540144900202311272024012700000007730230000NBENITEZ ROMERO JUAN CARLOS                        MXP000000000000000000000000000000000000000000000000000000000000000000000000000000
D11000726006720828540144901202311272024012700000001932600000NCORRALES LOPEZ CAMILA                             MXP000000000000000000000000000000000000000000000000000000000000000000000000000000
D11000736006720828540144902202311272024012700000001932600000NCORRALES LOPEZ VICTORIA RUBI                      MXP000000000000000000000000000000000000000000000000000000000000000000000000000000
D11000746006720828540144903202311272024012700000001932600000NLOPEZ ANGULO ARACELI GUADALUPE                    MXP000000000000000000000000000000000000000000000000000000000000000000000000000000
D11000756006720828540144904202311272024012700000002499020000NROBLES PACHECO CARMEN ALICIA                      MXP000000000000000000000000000000000000000000000000000000000000000000000000000000
D11000766006720828540144905202311272024012700000004047980000NZACARIAS BUITIMEA EVELYN MAYTE                    MXP000000000000000000000000000000000000000000000000000000000000000000000000000000
D11000776006720828540144906202311272024012700000004047980000NZACARIAS BUITIMEA MAGALY NOEMI                    MXP000000000000000000000000000000000000000000000000000000000000000000000000000000
D11000786006720828540144907202311272024012700000001891420000NRUIZ PORTILLO CHRISTIAN URIEL                     MXP000000000000000000000000000000000000000000000000000000000000000000000000000000
D11000796006720828540144908202311272024012700000005057330000NLUQUE COTA ANNEL                                  MXP000000000000000000000000000000000000000000000000000000000000000000000000000000
D11000806006720828540144909202311272024012700000004280590000NCALVO ARAUJO MARIA JOSE                           MXP000000000000000000000000000000000000000000000000000000000000000000000000000000
D11000816006720828540144910202311272024012700000004280590000NFLORES HERNANDEZ VALERIA YARELY                   MXP000000000000000000000000000000000000000000000000000000000000000000000000000000
D11000826006720828540144911202311272024012700000002706300000NVERDUGO HEREDIA HUMBERTO                          MXP000000000000000000000000000000000000000000000000000000000000000000000000000000
D11000836006720828540144912202311272024012700000002395680000NVERDUGO HEREDIA RAMON                             MXP000000000000000000000000000000000000000000000000000000000000000000000000000000
D11000846006720828540144913202311272024012700000004073950000NFRANCO VALENZUELA EDUARDO IGNACIO                 MXP000000000000000000000000000000000000000000000000000000000000000000000000000000
D11000856006720828540144914202311272024012700000005627780000NARMENTA COTA GUILLERMINA                          MXP000000000000000000000000000000000000000000000000000000000000000000000000000000
D11000866006720828540144915202311272024012700000004372830000NMONDACA BRICENO LAURA                             MXP000000000000000000000000000000000000000000000000000000000000000000000000000000
D11000876006720828540144916202311272024012700000004501520000NLIRA LOPEZ Y BAJO PALOMA TERESA                   MXP000000000000000000000000000000000000000000000000000000000000000000000000000000
D11000886006720828540144917202311272024012700000004073950000NVEGA MIRANDA ALFONSO                              MXP000000000000000000000000000000000000000000000000000000000000000000000000000000
D11000896006720828540144918202311272024012700000005627780000NLEON LOPEZ RAMON CANDELARIO                       MXP000000000000000000000000000000000000000000000000000000000000000000000000000000
D11000906006720828540144919202311272024012700000004485640000NFLORES VERDUZCO ADRIAN EDUARDO                    MXP000000000000000000000000000000000000000000000000000000000000000000000000000000
D11000916006720828540144920202311272024012700000006883920000NLOPEZ ARMENTA JUAN CARLOS                         MXP000000000000000000000000000000000000000000000000000000000000000000000000000000
D11000926006720828540144921202311272024012700000005404530000NPACHECO RUIZ JOSE DE JESUS                        MXP000000000000000000000000000000000000000000000000000000000000000000000000000000
D11000936006720828540144922202311272024012700000005380610000NVALENZUELA LUGO FRANCISCO JAVIER                  MXP000000000000000000000000000000000000000000000000000000000000000000000000000000
D11000946006720828540144923202311272024012700000003215150000NGOMEZ VALENZUELA FRANCISCA CECILIA                MXP000000000000000000000000000000000000000000000000000000000000000000000000000000
D11000956006720828540144924202311272024012700000004073950000NHERRAN GAXIOLA SATURNINO EDUARDO                  MXP000000000000000000000000000000000000000000000000000000000000000000000000000000
D11000966006720828540144925202311272024012700000002806410000NIBANEZ TIRADO CRISANTA                            MXP000000000000000000000000000000000000000000000000000000000000000000000000000000
D11000976006720828540144926202311272024012700000004214670000NCORRALES COTA VIRGINIA ISABEL                     MXP000000000000000000000000000000000000000000000000000000000000000000000000000000
D11000986006720828540144927202311272024012700000004073950000NOSORNIO VALENZUELA MACARIO                        MXP000000000000000000000000000000000000000000000000000000000000000000000000000000
D11000996006720828540144928202311272024012700000008202260000NCAMARGO COTA GRACIANO                             MXP000000000000000000000000000000000000000000000000000000000000000000000000000000
D11001006006720828540144929202311272024012700000007068690000NGARCIA COLIN JOSE DE JESUS                        MXP000000000000000000000000000000000000000000000000000000000000000000000000000000
D11001016006720828540144930202311272024012700000004065910000NACOSTA SANTOS PERLA LIZETH                        MXP000000000000000000000000000000000000000000000000000000000000000000000000000000
D11001026006720828540144931202311272024012700000007489600000NSANDOVAL RAMIREZ FRANCISCO JAVIER                 MXP000000000000000000000000000000000000000000000000000000000000000000000000000000
D11001036006720828540144932202311272024012700000004501520000NROCHA GUTIERREZ GUADALUPE                         MXP000000000000000000000000000000000000000000000000000000000000000000000000000000
D11001046006720828540144933202311272024012700000004817370000NBLANCARTE BERNAL PAULINA                          MXP000000000000000000000000000000000000000000000000000000000000000000000000000000
D11001056006720828540144934202311272024012700000005057330000NESPINOZA VILLEGAS RAMON IVAN                      MXP000000000000000000000000000000000000000000000000000000000000000000000000000000
D11001066006720828540144935202311272024012700000005057330000NFLORES LOPEZ LUIS ENRIQUE                         MXP000000000000000000000000000000000000000000000000000000000000000000000000000000
D11001076006720828540144936202311272024012700000004149650000NMONTOYA ESPINOZA JOSE DE JESUS                    MXP000000000000000000000000000000000000000000000000000000000000000000000000000000
D11001086006720828540144937202311272024012700000006319720000NVILLA ROMERO JUAN CARLOS                          MXP000000000000000000000000000000000000000000000000000000000000000000000000000000
D11001096006720828540144938202311272024012700000005627780000NALVAREZ AHUMADA JESUS FRANCISCO                   MXP000000000000000000000000000000000000000000000000000000000000000000000000000000
D11001106006720828540144939202311272024012700000003315590000NCERVANTES BUENO LUIS ALBERTO                      MXP000000000000000000000000000000000000000000000000000000000000000000000000000000
D11001116006720828540144940202311272024012700000004501520000NURIAS ALARCON RUTH ALEXIA                         MXP000000000000000000000000000000000000000000000000000000000000000000000000000000
D11001126006720828540144941202311272024012700000003782220000NBACASEGUA JOCOBI ESTHELA LUCIA                    MXP000000000000000000000000000000000000000000000000000000000000000000000000000000
D11001136006720828540144942202311272024012700000003412200000NESPARZA RODRIGUEZ ORLANDO                         MXP000000000000000000000000000000000000000000000000000000000000000000000000000000
D11001146006720828540144943202311272024012700000003412200000NESPINOZA VILLANUEVA ROBERTO                       MXP000000000000000000000000000000000000000000000000000000000000000000000000000000
D11001156006720828540144944202311272024012700000004099240000NGUERRERO MARTINEZ ANGEL GABRIEL                   MXP000000000000000000000000000000000000000000000000000000000000000000000000000000
D11001166006720828540144945202311272024012700000001893360000NGUERRERO RODRIGUEZ HECTOR MANUEL                  MXP000000000000000000000000000000000000000000000000000000000000000000000000000000
D11001176006720828540144946202311272024012700000005688000000NGUTIERREZ GARCIA JAIME SAUL                       MXP000000000000000000000000000000000000000000000000000000000000000000000000000000
D11001186006720828540144947202311272024012700000005265000000NLEAL LEYVA SERGIO                                 MXP000000000000000000000000000000000000000000000000000000000000000000000000000000
D11001196006720828540144948202311272024012700000007922360000NLOPEZ ARMENTA EVERARDO                            MXP000000000000000000000000000000000000000000000000000000000000000000000000000000
D11001206006720828540144949202311272024012700000003404880000NROBLES DOMINGUEZ GRISELDA                         MXP000000000000000000000000000000000000000000000000000000000000000000000000000000
D11001216006720828540144950202311272024012700000002020340000NVALENCIA PALMA EDBERT ALBERTO                     MXP000000000000000000000000000000000000000000000000000000000000000000000000000000
D11001226006720828540144951202311272024012700000004126630000NVALENZUELA PALMA BALDOMERO                        MXP000000000000000000000000000000000000000000000000000000000000000000000000000000
D11001236006720828540144952202311272024012700000004280590000NAHUMADA CASTRO CESAR PAUL                         MXP000000000000000000000000000000000000000000000000000000000000000000000000000000
D11001246006720828540144953202311272024012700000003941220000NCASTRO LOPEZ FABIAN                               MXP000000000000000000000000000000000000000000000000000000000000000000000000000000
D11001256006720828540144954202311272024012700000004280590000NGRIJALVA BELTRAN VERONICA GUADALUPE               MXP000000000000000000000000000000000000000000000000000000000000000000000000000000
D11001266006720828540144955202311272024012700000002919800000NMILLAN CHAVEZ LUIS MANUEL                         MXP000000000000000000000000000000000000000000000000000000000000000000000000000000
D11001276006720828540144956202311272024012700000004065910000NVIDRIO ORDORICA ANA KAREN                         MXP000000000000000000000000000000000000000000000000000000000000000000000000000000
D11001286006720828540144957202311272024012700000001981850000NCERVANTES FIERRO ALFREDO ERNESTO                  MXP000000000000000000000000000000000000000000000000000000000000000000000000000000
D11001296006720828540144958202311272024012700000004073950000NZAMBADA CORONEL MANUEL                            MXP000000000000000000000000000000000000000000000000000000000000000000000000000000
D11001306006720828540144959202311272024012700000005556660000NGARCIA LOPEZ FERNANDO                             MXP000000000000000000000000000000000000000000000000000000000000000000000000000000
D11001316006720828540144960202311272024012700000004280590000NANAYA SOTO JESUS ARIANA                           MXP000000000000000000000000000000000000000000000000000000000000000000000000000000
D11001326006720828540144961202311272024012700000004149640000NCOTA EGUINO TONATHIU                              MXP000000000000000000000000000000000000000000000000000000000000000000000000000000
D11001336006720828540144962202311272024012700000004214670000NARK LOPEZ NAGID AMADO                             MXP000000000000000000000000000000000000000000000000000000000000000000000000000000
D11001346006720828540144963202311272024012700000003082630000NLEYVA PADILLA FRANCISCO MIGUEL                    MXP000000000000000000000000000000000000000000000000000000000000000000000000000000
D11001356006720828540144964202311272024012700000004216090000NLOPEZ HIGUERA RAUL ANTONIO                        MXP000000000000000000000000000000000000000000000000000000000000000000000000000000
D11001366006720828540144965202311272024012700000001942750000NSOTO HERRERA ANA CECILIA                          MXP000000000000000000000000000000000000000000000000000000000000000000000000000000
D11001376006720828540144966202311272024012700000005869720000NVIZCARRA FLORES FLORENTINO                        MXP000000000000000000000000000000000000000000000000000000000000000000000000000000
D11001386006720828540144967202311272024012700000005627780000NCOTA VILLA MARCOS ARTURO                          MXP000000000000000000000000000000000000000000000000000000000000000000000000000000
D11001396006720828540144968202311272024012700000004273000000NMERCADO ENG IVAN GILBERTO                         MXP000000000000000000000000000000000000000000000000000000000000000000000000000000
D11001406006720828540144969202311272024012700000007545950000NREYES LUQUE CARLOS                                MXP000000000000000000000000000000000000000000000000000000000000000000000000000000
D11001416006720828540144970202311272024012700000002146790000NCEBREROS LOPEZ MARLA JANETH                       MXP000000000000000000000000000000000000000000000000000000000000000000000000000000
D11001426006720828540144971202311272024012700000003350800000NLEYVA LOPEZ MARIA DOLORES                         MXP000000000000000000000000000000000000000000000000000000000000000000000000000000
D11001436006720828540144972202311272024012700000004585230000NMORENO LOPEZ FABIAN                               MXP000000000000000000000000000000000000000000000000000000000000000000000000000000
D11001446006720828540144973202311272024012700000005404520000NROBLES RIVERA LETICIA                             MXP000000000000000000000000000000000000000000000000000000000000000000000000000000
D11001456006720828540144974202311272024012700000003349890000NZAMORANO FONSECA DEVORA DEL ROSARIO               MXP000000000000000000000000000000000000000000000000000000000000000000000000000000
D11001466006720828540144975202311272024012700000004578190000NORNELAS FELIX PATRICIO                            MXP000000000000000000000000000000000000000000000000000000000000000000000000000000
D11001476006720828540144976202311272024012700000000325310000NORTIZ GONZALEZ MARTHA ELENA                       MXP000000000000000000000000000000000000000000000000000000000000000000000000000000
D11001486006720828540144977202311272024012700000004594280000NARAUJO BOJORQUEZ ROSARIO ELIANETH                 MXP000000000000000000000000000000000000000000000000000000000000000000000000000000
D11001496006720828540144978202311272024012700000004594280000NRANGEL ARAUJO GERARDO                             MXP000000000000000000000000000000000000000000000000000000000000000000000000000000
D11001506006720828540144979202311272024012700000004594280000NRANGEL ARAUJO PEDRO SEBASTIAN                     MXP000000000000000000000000000000000000000000000000000000000000000000000000000000
D11001516006720828540144980202311272024012700000004149640000NFELIX CARDENAS OSBALDO                            MXP000000000000000000000000000000000000000000000000000000000000000000000000000000
D11001526006720828540144981202311272024012700000004073950000NROMAN LOPEZ RODRIGO ALONSO                        MXP000000000000000000000000000000000000000000000000000000000000000000000000000000
D11001536006720828540144982202311272024012700000005627780000NPARRA MELECIO ISMAEL                              MXP000000000000000000000000000000000000000000000000000000000000000000000000000000
D11001546006720828540144983202311272024012700000006765250000NESCOBAR HERNANDEZ MARTIN                          MXP000000000000000000000000000000000000000000000000000000000000000000000000000000
D11001556006720828540144984202311272024012700000005404530000NLOPEZ CERVANTES EMILIA HAYDEE                     MXP000000000000000000000000000000000000000000000000000000000000000000000000000000
D11001566006720828540144985202311272024012700000004248800000NMENDEZ LLANES AIME NOELIA                         MXP000000000000000000000000000000000000000000000000000000000000000000000000000000
D11001576006720828540144986202311272024012700000004633600000NRUBIO PEREZ EVERARDO                              MXP000000000000000000000000000000000000000000000000000000000000000000000000000000
D11001586006720828540144987202311272024012700000001871410000NIRIZAR LOPEZ ALBA IRENE                           MXP000000000000000000000000000000000000000000000000000000000000000000000000000000
D11001596006720828540144988202311272024012700000004223910000NARMENTA IRIZAR JULIAN ANTONIO                     MXP000000000000000000000000000000000000000000000000000000000000000000000000000000
D11001606006720828540144989202311272024012700000004073950000NPEIRO RIVERA JESUS AMARAN                         MXP000000000000000000000000000000000000000000000000000000000000000000000000000000
D11001616006720828540144990202311272024012700000003113120000NSANDOVAL LOPEZ SILVIA SOLANGEL                    MXP000000000000000000000000000000000000000000000000000000000000000000000000000000
D11001626006720828540144991202311272024012700000005890430000NGONZALEZ CASTRO HERNAN                            MXP000000000000000000000000000000000000000000000000000000000000000000000000000000
D11001636006720828540144992202311272024012700000005057330000NGODOY SANCHEZ JOSE ABEL                           MXP000000000000000000000000000000000000000000000000000000000000000000000000000000
D11001646006720828540144993202311272024012700000004073950000NMONTOYA MONTOYA FAVIO URIEL                       MXP000000000000000000000000000000000000000000000000000000000000000000000000000000
D11001656006720828540144994202311272024012700000006942530000NPADILLA ELIZALDE DIEGO                            MXP000000000000000000000000000000000000000000000000000000000000000000000000000000
D11001666006720828540144995202311272024012700000005300610000NGARCIA LOPEZ ISSIS MELISSA                        MXP000000000000000000000000000000000000000000000000000000000000000000000000000000
D11001676006720828540144996202311272024012700000002919800000NMONTOYA LOPEZ MYRNA                               MXP000000000000000000000000000000000000000000000000000000000000000000000000000000
D11001686006720828540144997202311272024012700000002249520000NTUASON VALDEZ AURORA                              MXP000000000000000000000000000000000000000000000000000000000000000000000000000000
D11001696006720828540144998202311272024012700000004487500000NZAZUETA ANGULO ELOY                               MXP000000000000000000000000000000000000000000000000000000000000000000000000000000
D11001706006720828540144999202311272024012700000000325310000NLOPEZ GUTIERREZ MYRNA                             MXP000000000000000000000000000000000000000000000000000000000000000000000000000000
D11001716006720828540145000202311272024012700000000325310000NAGUILAR OSUNA DANIA GUADALUPE                     MXP000000000000000000000000000000000000000000000000000000000000000000000000000000
D11001726006720828540145001202311272024012700000002684810000NANGULO ANGULO WILFREDO                            MXP000000000000000000000000000000000000000000000000000000000000000000000000000000
D11001736006720828540145002202311272024012700000014558870000NINZUNZA SAINZ KARELY                              MXP000000000000000000000000000000000000000000000000000000000000000000000000000000
D11001746006720828540145003202311272024012700000014542200000NMAGANA JUAREZ ALAN EDUARDO                        MXP000000000000000000000000000000000000000000000000000000000000000000000000000000
D11001756006720828540145004202311272024012700000006319720000NFELIX MEZA HUGO ERNESTO                           MXP000000000000000000000000000000000000000000000000000000000000000000000000000000
D11001766006720828540145005202311272024012700000002684410000NVELAZQUEZ ACOSTA JESUS ABRAHAM                    MXP000000000000000000000000000000000000000000000000000000000000000000000000000000
D11001776006720828540145006202311272024012700000004873530000NURIAS CARRILLO ROBERTO                            MXP000000000000000000000000000000000000000000000000000000000000000000000000000000
D11001786006720828540145007202311272024012700000005404520000NSANTOS MONTES ANASTACIO                           MXP000000000000000000000000000000000000000000000000000000000000000000000000000000
D11001796006720828540145008202311272024012700000006017600000NMIRANDA AGUILAR LUIS ANTONIO                      MXP000000000000000000000000000000000000000000000000000000000000000000000000000000
D11001806006720828540145009202311272024012700000004383000000NSOTO AGUILAR SERGIO                               MXP000000000000000000000000000000000000000000000000000000000000000000000000000000
D11001816006720828540145010202311272024012700000004149640000NMACHADO ABITIA GABRIEL ALONSO                     MXP000000000000000000000000000000000000000000000000000000000000000000000000000000
D11001826006720828540145011202311272024012700000003706010000NBELTRAN ANGULO ANA AURORA                         MXP000000000000000000000000000000000000000000000000000000000000000000000000000000
D11001836006720828540145012202311272024012700000004457200000NLARA PEREZ SAUL ENRIQUE                           MXP000000000000000000000000000000000000000000000000000000000000000000000000000000
D11001846006720828540145013202311272024012700000005404530000NVILLALBA MORALES IRENE                            MXP000000000000000000000000000000000000000000000000000000000000000000000000000000
D11001856006720828540145014202311272024012700000006135360000NALARCON CERDA IVAN VICENTE                        MXP000000000000000000000000000000000000000000000000000000000000000000000000000000
D11001866006720828540145015202311272024012700000004081680000NCABRERA RUIZ ALONDRA VANESSA                      MXP000000000000000000000000000000000000000000000000000000000000000000000000000000
D11001876006720828540145016202311272024012700000011427100000NCASTRO BARRAZA JORGE                              MXP000000000000000000000000000000000000000000000000000000000000000000000000000000
D11001886006720828540145017202311272024012700000006135360000NCONTRERAS NUNEZ ELENA YESABEL                     MXP000000000000000000000000000000000000000000000000000000000000000000000000000000
D11001896006720828540145018202311272024012700000006135360000NCRESPO RINCONES ANGEL GUADALUPE                   MXP000000000000000000000000000000000000000000000000000000000000000000000000000000
D11001906006720828540145019202311272024012700000005627780000NGARCIA MORAN ERIKA GUADALUPE                      MXP000000000000000000000000000000000000000000000000000000000000000000000000000000
D11001916006720828540145020202311272024012700000007772780000NGONZALEZ APOLINAR ELENA                           MXP000000000000000000000000000000000000000000000000000000000000000000000000000000
D11001926006720828540145021202311272024012700000005218210000NGUTIERREZ ZAZUETA TERESA DE JESUS                 MXP000000000000000000000000000000000000000000000000000000000000000000000000000000
D11001936006720828540145022202311272024012700000021060990000NNATERAS CORONA ARTURO DANIEL                      MXP000000000000000000000000000000000000000000000000000000000000000000000000000000
D11001946006720828540145023202311272024012700000005555300000NPEREZ GOMEZ JUAN CARLOS                           MXP000000000000000000000000000000000000000000000000000000000000000000000000000000
D11001956006720828540145024202311272024012700000012288580000NRUBIO RUELAS BALDEMAR                             MXP000000000000000000000000000000000000000000000000000000000000000000000000000000
D11001966006720828540145025202311272024012700000004522160000NSALCEDO CASTREJON MACARIO ALBERTO                 MXP000000000000000000000000000000000000000000000000000000000000000000000000000000
D11001976006720828540145026202311272024012700000004920840000NGARCIA OSUA JESUS                                 MXP000000000000000000000000000000000000000000000000000000000000000000000000000000
D11001986006720828540145027202311272024012700000005002230000NLOPEZ TORRES FERMIN ANGEL                         MXP000000000000000000000000000000000000000000000000000000000000000000000000000000
D11001996006720828540145028202311272024012700000003794850000NGUTIERREZ VELAZQUEZ CYNTHIA KARINA                MXP000000000000000000000000000000000000000000000000000000000000000000000000000000
D11002006006720828540145029202311272024012700000004065910000NLEON DE LA ROSA ANA GUADALUPE                     MXP000000000000000000000000000000000000000000000000000000000000000000000000000000
D11002016006720828540145030202311272024012700000002732070000NANCONA GASTELUM GREASE LIZBETH                    MXP000000000000000000000000000000000000000000000000000000000000000000000000000000
D11002026006720828540145031202311272024012700000016373850000NCISNEROS DIAZ VICTOR ANTONIO                      MXP000000000000000000000000000000000000000000000000000000000000000000000000000000
D11002036006720828540145032202311272024012700000002919800000NESQUERRA ARTEAGA SELENE                           MXP000000000000000000000000000000000000000000000000000000000000000000000000000000
D11002046006720828540145033202311272024012700000001969800000NFELIX LOPEZ MIGUEL ANGEL                          MXP000000000000000000000000000000000000000000000000000000000000000000000000000000
D11002056006720828540145034202311272024012700000002955310000NLOPEZ PLATA EVELYN LIZETH                         MXP000000000000000000000000000000000000000000000000000000000000000000000000000000
D11002066006720828540145035202311272024012700000002919800000NMACHADO SANDOVAL KASSANDRA GUADALUPE              MXP000000000000000000000000000000000000000000000000000000000000000000000000000000
D11002076006720828540145036202311272024012700000002919800000NMORALES INZUNZA MARIBEL DE MARIA                  MXP000000000000000000000000000000000000000000000000000000000000000000000000000000
D11002086006720828540145037202311272024012700000004836460000NRANGEL FIGUEROA JULIO CESAR                       MXP000000000000000000000000000000000000000000000000000000000000000000000000000000
D11002096006720828540145038202311272024012700000003195820000NRENDON RODRIGUEZ MARISOL                          MXP000000000000000000000000000000000000000000000000000000000000000000000000000000
D11002106006720828540145039202311272024012700000003616930000NRODELO LOPEZ JATXIRY NICOLE                       MXP000000000000000000000000000000000000000000000000000000000000000000000000000000
D11002116006720828540145040202311272024012700000003022400000NSANCHEZ SALAS CARLOS                              MXP000000000000000000000000000000000000000000000000000000000000000000000000000000
D11002126006720828540145041202311272024012700000002919800000NURIBE BELTRAN CARLOS                              MXP000000000000000000000000000000000000000000000000000000000000000000000000000000
D11002136006720828540145042202311272024012700000003941220000NVILLARREAL MARTINEZ MIGUEL ANGEL                  MXP000000000000000000000000000000000000000000000000000000000000000000000000000000
D11002146006720828540145043202311272024012700000004260430000NPERAZA ZAZUETA JESUS ENDIR                        MXP000000000000000000000000000000000000000000000000000000000000000000000000000000
D11002156006720828540145044202311272024012700000003987840000NMARTINEZ AMARILLAS DEVANY BRITNEY                 MXP000000000000000000000000000000000000000000000000000000000000000000000000000000
D11002166006720828540145045202311272024012700000002857180000NOSUNA CASTANOS ANGELICA MARIA                     MXP000000000000000000000000000000000000000000000000000000000000000000000000000000
D11002176006720828540145046202311272024012700000005629330000NMENDOZA ORTIZ JESUS EMILIO                        MXP000000000000000000000000000000000000000000000000000000000000000000000000000000
D11002186006720828540145047202311272024012700000005629330000NSOBERANES ROJAS JESUS ALBERTO                     MXP000000000000000000000000000000000000000000000000000000000000000000000000000000
D11002196006720828540145048202311272024012700000003555250000NCAZAREZ GAMEZ RAMSES IGNACIO                      MXP000000000000000000000000000000000000000000000000000000000000000000000000000000
D11002206006720828540145049202311272024012700000008141880000NESCALANTE RUIZ REYNA DOLORES                      MXP000000000000000000000000000000000000000000000000000000000000000000000000000000
D11002216006720828540145050202311272024012700000003315590000NBARAJAS DIAZ EARVING                              MXP000000000000000000000000000000000000000000000000000000000000000000000000000000
D11002226006720828540145051202311272024012700000006135360000NCALDERON GASTELUM ANGELICA GUADALUPE              MXP000000000000000000000000000000000000000000000000000000000000000000000000000000
D11002236006720828540145052202311272024012700000005627780000NDIARTE FAVELA CHRISTINE                           MXP000000000000000000000000000000000000000000000000000000000000000000000000000000
D11002246006720828540145053202311272024012700000002596850000NGAMBOA IBARRA NADIA MARISOL                       MXP000000000000000000000000000000000000000000000000000000000000000000000000000000
D11002256006720828540145054202311272024012700000011427130000NGUTIERREZ PONCE OMAR ANTONIO                      MXP000000000000000000000000000000000000000000000000000000000000000000000000000000
D11002266006720828540145055202311272024012700000003941220000NLOPEZ ROCHA MARIA DE LOS ANGELES                  MXP000000000000000000000000000000000000000000000000000000000000000000000000000000
D11002276006720828540145056202311272024012700000004501520000NMAGALLANES ZAZUETA JUAN CARLOS                    MXP000000000000000000000000000000000000000000000000000000000000000000000000000000
D11002286006720828540145057202311272024012700000004501520000NNUNEZ BELTRAN MARTIN OMAR                         MXP000000000000000000000000000000000000000000000000000000000000000000000000000000
D11002296006720828540145058202311272024012700000004280590000NPARRA VILLALBA MELINA                             MXP000000000000000000000000000000000000000000000000000000000000000000000000000000
D11002306006720828540145059202311272024012700000004561440000NJIMENEZ CORONEL ALEJANDRO                         MXP000000000000000000000000000000000000000000000000000000000000000000000000000000
D11002316006720828540145060202311272024012700000002691940000NBELTRAN ACEVES JOSE ANGEL                         MXP000000000000000000000000000000000000000000000000000000000000000000000000000000
D11002326006720828540145061202311272024012700000001719440000NCASTRO GUERRERO OSWALDO BENITO                    MXP000000000000000000000000000000000000000000000000000000000000000000000000000000
D11002336006720828540145062202311272024012700000002684810000NCASTRO LOPEZ RAUL ERNESTO                         MXP000000000000000000000000000000000000000000000000000000000000000000000000000000
D11002346006720828540145063202311272024012700000002684810000NCAZARES ROCHA JOEL ALONZO                         MXP000000000000000000000000000000000000000000000000000000000000000000000000000000
D11002356006720828540145064202311272024012700000002211900000NCONTRERAS IBARRA JUAN MANUEL                      MXP000000000000000000000000000000000000000000000000000000000000000000000000000000
D11002366006720828540145065202311272024012700000007068690000NFERNANDEZ ZAZUETA VICTOR MANUEL                   MXP000000000000000000000000000000000000000000000000000000000000000000000000000000
D11002376006720828540145066202311272024012700000004214670000NGONZALEZ LERMA EDITH FERNANDA                     MXP000000000000000000000000000000000000000000000000000000000000000000000000000000
D11002386006720828540145067202311272024012700000002774560000NLEYVA LOPEZ GERARDO                               MXP000000000000000000000000000000000000000000000000000000000000000000000000000000
D11002396006720828540145068202311272024012700000002684810000NORTIZ BOJORQUEZ OMAR JAVIER                       MXP000000000000000000000000000000000000000000000000000000000000000000000000000000
D11002406006720828540145069202311272024012700000006846390000NPALMA LUIS ANGEL                                  MXP000000000000000000000000000000000000000000000000000000000000000000000000000000
D11002416006720828540145070202311272024012700000002684810000NROBLES NEVAREZ BLANCA LUCIA                       MXP000000000000000000000000000000000000000000000000000000000000000000000000000000
D11002426006720828540145071202311272024012700000001719440000NROMERO ESPINOZA RAMON ALFONSO                     MXP000000000000000000000000000000000000000000000000000000000000000000000000000000
D11002436006720828540145072202311272024012700000002684810000NSALAZAR FELIX ARDUL ALFONSO                       MXP000000000000000000000000000000000000000000000000000000000000000000000000000000
D11002446006720828540145073202311272024012700000001719440000NSALAZAR OLMEDA JOSE JUAN                          MXP000000000000000000000000000000000000000000000000000000000000000000000000000000
D11002456006720828540145074202311272024012700000002774560000NSANCHEZ MENDOZA COSME MANUEL                      MXP000000000000000000000000000000000000000000000000000000000000000000000000000000
D11002466006720828540145075202311272024012700000002691940000NTORRES LOPEZ REYES                                MXP000000000000000000000000000000000000000000000000000000000000000000000000000000
D11002476006720828540145076202311272024012700000004280590000NACOSTA MADRID BRENDA ANABEL                       MXP000000000000000000000000000000000000000000000000000000000000000000000000000000
D11002486006720828540145077202311272024012700000004706060000NBARRANCAS URIARTE LOURDES GUADALUPE               MXP000000000000000000000000000000000000000000000000000000000000000000000000000000
D11002496006720828540145078202311272024012700000005509730000NCASTRO IBARRA EDNA ROCIO                          MXP000000000000000000000000000000000000000000000000000000000000000000000000000000
D11002506006720828540145079202311272024012700000004214670000NCORREA GUERRERO MARTHA GABRIELA                   MXP000000000000000000000000000000000000000000000000000000000000000000000000000000
D11002516006720828540145080202311272024012700000007799270000NDORADO CAMACHO EDGAR                              MXP000000000000000000000000000000000000000000000000000000000000000000000000000000
D11002526006720828540145081202311272024012700000008117360000NGAXIOLA PAREDES NORMA ANGELICA                    MXP000000000000000000000000000000000000000000000000000000000000000000000000000000
D11002536006720828540145082202311272024012700000005890430000NLOBO GUTIERREZ JESUS ELVIRA                       MXP000000000000000000000000000000000000000000000000000000000000000000000000000000
D11002546006720828540145083202311272024012700000004365130000NMURGUIA CARRILLO BRYAN EDMUNDO                    MXP000000000000000000000000000000000000000000000000000000000000000000000000000000
D11002556006720828540145084202311272024012700000004293720000NOLIVAS RAMIREZ DIEGO ARTURO                       MXP000000000000000000000000000000000000000000000000000000000000000000000000000000
D11002566006720828540145085202311272024012700000004149640000NPALAZUELOS ERAMI JOEL                             MXP000000000000000000000000000000000000000000000000000000000000000000000000000000
D11002576006720828540145086202311272024012700000004149650000NRAMIREZ AMADOR GLORIA ELVIA                       MXP000000000000000000000000000000000000000000000000000000000000000000000000000000
D11002586006720828540145087202311272024012700000003541250000NRAMOS CAMACHO MONICA DEL CARMEN                   MXP000000000000000000000000000000000000000000000000000000000000000000000000000000
D11002596006720828540145088202311272024012700000005890430000NSOTO GONZALEZ MARTHA GABRIELA                     MXP000000000000000000000000000000000000000000000000000000000000000000000000000000
D11002606006720828540145089202311272024012700000004170580000NUZETA MOLINA MARIA                                MXP000000000000000000000000000000000000000000000000000000000000000000000000000000
D11002616006720828540145090202311272024012700000009713450000NVILLAESCUSA ROJO MARGARITA                        MXP000000000000000000000000000000000000000000000000000000000000000000000000000000
D11002626006720828540145091202311272024012700000008899750000NPALAZUELOS INZUNZA ENRIQUE                        MXP000000000000000000000000000000000000000000000000000000000000000000000000000000
D11002636006720828540145092202311272024012700000005629330000NPLATA LOPEZ JOSE LEONZO                           MXP000000000000000000000000000000000000000000000000000000000000000000000000000000
D11002646006720828540145093202311272024012700000004501520000NAVENDANO ROMERO JUAN PABLO                        MXP000000000000000000000000000000000000000000000000000000000000000000000000000000
D11002656006720828540145094202311272024012700000004501520000NBOJORQUEZ MONTOYA FAVIO                           MXP000000000000000000000000000000000000000000000000000000000000000000000000000000
D11002666006720828540145095202311272024012700000004814330000NCALDERON BURGUENO MARIO ALBERTO                   MXP000000000000000000000000000000000000000000000000000000000000000000000000000000
D11002676006720828540145096202311272024012700000005171830000NGARCIA FELIX JORGE                                MXP000000000000000000000000000000000000000000000000000000000000000000000000000000
D11002686006720828540145097202311272024012700000003596870000NLOPEZ MATZUMOTO KARLA EMIKO                       MXP000000000000000000000000000000000000000000000000000000000000000000000000000000
D11002696006720828540145098202311272024012700000005842140000NMENDOZA LOPEZ LUIS ROBERTO                        MXP000000000000000000000000000000000000000000000000000000000000000000000000000000
D11002706006720828540145099202311272024012700000004814330000NPETRIZ SOTO LUIS                                  MXP000000000000000000000000000000000000000000000000000000000000000000000000000000
D11002716006720828540145100202311272024012700000004814330000NROMAN PEREZ MARIA MAYANIN                         MXP000000000000000000000000000000000000000000000000000000000000000000000000000000
D11002726006720828540145101202311272024012700000005180910000NSANCHEZ MORENO JOSE OSWALDO                       MXP000000000000000000000000000000000000000000000000000000000000000000000000000000
D11002736006720828540145102202311272024012700000008451500000NSERRANO ZAMORA ARIEL IVAN                         MXP000000000000000000000000000000000000000000000000000000000000000000000000000000
D11002746006720828540145103202311272024012700000004501520000NVALENZUELA LUNA CARLOS                            MXP000000000000000000000000000000000000000000000000000000000000000000000000000000
D11002756006720828540145104202311272024012700000015033220000NARGUELLES PACHECO EDUARDO                         MXP000000000000000000000000000000000000000000000000000000000000000000000000000000
D11002766006720828540145105202311272024012700000015033220000NASTORGA OSUNA JOSE IVAN                           MXP000000000000000000000000000000000000000000000000000000000000000000000000000000
D11002776006720828540145106202311272024012700000007556630000NIRIBE ROCHA DICNORA                               MXP000000000000000000000000000000000000000000000000000000000000000000000000000000
D11002786006720828540145107202311272024012700000004365130000NLABRADA DOMINGUEZ BRAYAN JESE                     MXP000000000000000000000000000000000000000000000000000000000000000000000000000000
D11002796006720828540145108202311272024012700000005949880000NLOPEZ ZAVALA SARA ISELA                           MXP000000000000000000000000000000000000000000000000000000000000000000000000000000
D11002806006720828540145109202311272024012700000007935480000NMARTINEZ REYES JOSE FRANCISCO                     MXP000000000000000000000000000000000000000000000000000000000000000000000000000000
D11002816006720828540145110202311272024012700000009506130000NMIRAMONTES RAMIREZ EVELIA ESTHER                  MXP000000000000000000000000000000000000000000000000000000000000000000000000000000
D11002826006720828540145111202311272024012700000005498860000NMORALES GAXIOLA KAREM PATRICIA                    MXP000000000000000000000000000000000000000000000000000000000000000000000000000000
D11002836006720828540145112202311272024012700000004561440000NREGALADO ESPARZA YURIANA ELIZABETH                MXP000000000000000000000000000000000000000000000000000000000000000000000000000000
D11002846006720828540145113202311272024012700000004081680000NARCE MELENDREZ EMIGDIO                            MXP000000000000000000000000000000000000000000000000000000000000000000000000000000
D11002856006720828540145114202311272024012700000004280590000NARREOLA HIGUERA GUADALUPE                         MXP000000000000000000000000000000000000000000000000000000000000000000000000000000
D11002866006720828540145115202311272024012700000004633600000NBELTRAN MORENO DULCE GUADALUPE                    MXP000000000000000000000000000000000000000000000000000000000000000000000000000000
D11002876006720828540145116202311272024012700000004065910000NGAXIOLA GARCIA ALEXIS                             MXP000000000000000000000000000000000000000000000000000000000000000000000000000000
D11002886006720828540145117202311272024012700000003941220000NLOPEZ MONZON DANIEL                               MXP000000000000000000000000000000000000000000000000000000000000000000000000000000
D11002896006720828540145118202311272024012700000004660470000NMARQUEZ BERNAL GUILLERMO FRANCISCO                MXP000000000000000000000000000000000000000000000000000000000000000000000000000000
D11002906006720828540145119202311272024012700000002866570000NMARTINEZ QUINTERO ARBE MINERVA                    MXP000000000000000000000000000000000000000000000000000000000000000000000000000000
D11002916006720828540145120202311272024012700000007320540000NMEDINA BELTRAN RUBEN                              MXP000000000000000000000000000000000000000000000000000000000000000000000000000000
D11002926006720828540145121202311272024012700000002400820000NMEJIA LIMAS NORMA ANGELICA                        MXP000000000000000000000000000000000000000000000000000000000000000000000000000000
D11002936006720828540145122202311272024012700000003844240000NMORALES SILVA JOSE EDGAR                          MXP000000000000000000000000000000000000000000000000000000000000000000000000000000
D11002946006720828540145123202311272024012700000004706260000NNUNEZ VALENZUELA CARLOS ALFREDO                   MXP000000000000000000000000000000000000000000000000000000000000000000000000000000
D11002956006720828540145124202311272024012700000001576470000NORTIZ PEREGRINA MARIA DE LOS ANGELES              MXP000000000000000000000000000000000000000000000000000000000000000000000000000000
D11002966006720828540145125202311272024012700000002100720000NRENDON GUZMAN ALAIN DE JESUS                      MXP000000000000000000000000000000000000000000000000000000000000000000000000000000
D11002976006720828540145126202311272024012700000004065910000NVILLA MEDINA ILDEFONSO                            MXP000000000000000000000000000000000000000000000000000000000000000000000000000000
D11002986006720828540145127202311272024012700000004280590000NARREDONDO SANDOVAL ABIGAIL                        MXP000000000000000000000000000000000000000000000000000000000000000000000000000000
D11002996006720828540145128202311272024012700000008169890000NGAMEZ RIVERA LUZ NEREIDA                          MXP000000000000000000000000000000000000000000000000000000000000000000000000000000
D11003006006720828540145129202311272024012700000008104590000NACOSTA BERRELLEZA ERIK MICHEL                     MXP000000000000000000000000000000000000000000000000000000000000000000000000000000
D11003016006720828540145130202311272024012700000005050990000NAGUILAR VILLARREAL XOCHILTH GRICELDA              MXP000000000000000000000000000000000000000000000000000000000000000000000000000000
D11003026006720828540145131202311272024012700000008217480000NBON VILLARREAL TANIA JUDITH                       MXP000000000000000000000000000000000000000000000000000000000000000000000000000000
D11003036006720828540145132202311272024012700000006767070000NBUELNA LOPEZ ROSABEL                              MXP000000000000000000000000000000000000000000000000000000000000000000000000000000
D11003046006720828540145133202311272024012700000003315590000NCAZARES SOLORIO DIANA PAOLA                       MXP000000000000000000000000000000000000000000000000000000000000000000000000000000
D11003056006720828540145134202311272024012700000007074150000NCRUZ VEGA RAMIRO                                  MXP000000000000000000000000000000000000000000000000000000000000000000000000000000
D11003066006720828540145135202311272024012700000005236540000NDE LOS REYES ESPARZA SUSANA                       MXP000000000000000000000000000000000000000000000000000000000000000000000000000000
D11003076006720828540145136202311272024012700000004839720000NGOMEZ MORENO JAIME                                MXP000000000000000000000000000000000000000000000000000000000000000000000000000000
D11003086006720828540145137202311272024012700000003029030000NINZUNZA SOTO MANUEL                               MXP000000000000000000000000000000000000000000000000000000000000000000000000000000
D11003096006720828540145138202311272024012700000004214670000NLOPEZ BOJORQUEZ FRIDA JHASIVE                     MXP000000000000000000000000000000000000000000000000000000000000000000000000000000
D11003106006720828540145139202311272024012700000007074160000NLOPEZ MURILLO ADRIANA                             MXP000000000000000000000000000000000000000000000000000000000000000000000000000000
D11003116006720828540145140202311272024012700000004365130000NMANRIQUEZ ACOSTA ARIELA DE JESUS                  MXP000000000000000000000000000000000000000000000000000000000000000000000000000000
D11003126006720828540145141202311272024012700000003829970000NMENDOZA VIELMAS OSCAR                             MXP000000000000000000000000000000000000000000000000000000000000000000000000000000
D11003136006720828540145143202311272024012700000006294540000NVALENZUELA LOPEZ ITZEL GUADALUPE                  MXP000000000000000000000000000000000000000000000000000000000000000000000000000000
D11003146006720828540145144202311272024012700000001789650000NVILLEGAS VERDUZCO MIRNA ARACELI                   MXP000000000000000000000000000000000000000000000000000000000000000000000000000000
D11003156006720828540145145202311272024012700000006280780000NIZABAL GASTELUM OSCAR FERNANDO                    MXP000000000000000000000000000000000000000000000000000000000000000000000000000000
D11003166006720828540145146202311272024012700000003987840000NMONTANO SANCHEZ CECILIA RENEE                     MXP000000000000000000000000000000000000000000000000000000000000000000000000000000
D11003176006720828540145147202311272024012700000004660610000NAISPURO BELTRAN BARTOLO                           MXP000000000000000000000000000000000000000000000000000000000000000000000000000000
D11003186006720828540145148202311272024012700000011989970000NALDANA JACOBO NANCY                               MXP000000000000000000000000000000000000000000000000000000000000000000000000000000
D11003196006720828540145149202311272024012700000011026850000NBARRAZA FELIX JAIME                               MXP000000000000000000000000000000000000000000000000000000000000000000000000000000
D11003206006720828540145150202311272024012700000006795540000NBOJORQUEZ GALVEZ AURELIO                          MXP000000000000000000000000000000000000000000000000000000000000000000000000000000
D11003216006720828540145151202311272024012700000009711900000NCARDENAS CARRASCO BRYAN MANUEL                    MXP000000000000000000000000000000000000000000000000000000000000000000000000000000
D11003226006720828540145152202311272024012700000005052920000NGONZALEZ ESTRADA ADELA                            MXP000000000000000000000000000000000000000000000000000000000000000000000000000000
D11003236006720828540145153202311272024012700000005396860000NMARQUEZ RODRIGUEZ LAURA ANGELICA                  MXP000000000000000000000000000000000000000000000000000000000000000000000000000000
D11003246006720828540145154202311272024012700000009990610000NSANCHEZ VERDUGO MARIA DE LOS ANGELES              MXP000000000000000000000000000000000000000000000000000000000000000000000000000000
D11003256006720828540145155202311272024012700000007098380000NVALDEZ CASTRO JUPITER                             MXP000000000000000000000000000000000000000000000000000000000000000000000000000000
D11003266006720828540145156202311272024012700000007068690000NLEAL JIMENEZ CLAUDIA                              MXP000000000000000000000000000000000000000000000000000000000000000000000000000000
D11003276006720828540145157202311272024012700000008950630000NPADILLA PADILLA ALBERTO                           MXP000000000000000000000000000000000000000000000000000000000000000000000000000000
D11003286006720828540145158202311272024012700000006242520000NREYES ZAMORA FRANCISCA                            MXP000000000000000000000000000000000000000000000000000000000000000000000000000000
D11003296006720828540145159202311272024012700000004096550000NCASTRO SANTOS ITZEL BRISEYDA                      MXP000000000000000000000000000000000000000000000000000000000000000000000000000000
D11003306006720828540145160202311272024012700000004081680000NESPINOZA VERDUGO DINORA                           MXP000000000000000000000000000000000000000000000000000000000000000000000000000000
D11003316006720828540145161202311272024012700000007720130000NLIZARRAGA GARCIA CARLOS ALBERTO                   MXP000000000000000000000000000000000000000000000000000000000000000000000000000000
D11003326006720828540145162202311272024012700000004633600000NMEDINA GUEVARA KARLA BEATRIZ                      MXP000000000000000000000000000000000000000000000000000000000000000000000000000000
D11003336006720828540145163202311272024012700000008524680000NMEDINA LIMON MARCIA JANETH                        MXP000000000000000000000000000000000000000000000000000000000000000000000000000000
D11003346006720828540145164202311272024012700000004501520000NMILLAN MORALES EDGAR OCTAVIO                      MXP000000000000000000000000000000000000000000000000000000000000000000000000000000
D11003356006720828540145165202311272024012700000004280590000NSANZ MORALES FILIBERTO                            MXP000000000000000000000000000000000000000000000000000000000000000000000000000000
D11003366006720828540145166202311272024012700000011560470000NCARREON RUELAS ISMAEL                             MXP000000000000000000000000000000000000000000000000000000000000000000000000000000
D11003376006720828540145167202311272024012700000005770500000NSANCHEZ IBARRA ISMAEL                             MXP000000000000000000000000000000000000000000000000000000000000000000000000000000
D11003386006720828540145168202311272024012700000005700610000NFRANCO URIAS RAMSES ADRIAN                        MXP000000000000000000000000000000000000000000000000000000000000000000000000000000
D11003396006720828540145169202311272024012700000004017080000NBELTRAN COTA RICARDO                              MXP000000000000000000000000000000000000000000000000000000000000000000000000000000
D11003406006720828540145170202311272024012700000006564320000NOSUNA MONTANO SABINO                              MXP000000000000000000000000000000000000000000000000000000000000000000000000000000
D11003416006720828540145171202311272024012700000003140020000NACUNA ORTEGA NADIA SARAHI                         MXP000000000000000000000000000000000000000000000000000000000000000000000000000000
D11003426006720828540145172202311272024012700000004214670000NRAMIREZ VENEGAS WENDY JANETH                      MXP000000000000000000000000000000000000000000000000000000000000000000000000000000
D11003436006720828540145173202311272024012700000000979770000NBENITEZ GONZALEZ MANUEL OCTAVIO                   MXP000000000000000000000000000000000000000000000000000000000000000000000000000000
D11003446006720828540145174202311272024012700000004501520000NCASTILLO FELIX JUAN DE LA CRUZ                    MXP000000000000000000000000000000000000000000000000000000000000000000000000000000
D11003456006720828540145175202311272024012700000002774270000NFLORES QUIROZ CARLA NOHEMI                        MXP000000000000000000000000000000000000000000000000000000000000000000000000000000
D11003466006720828540145176202311272024012700000001802770000NFRANCO TORRES RAMON ENRIQUE                       MXP000000000000000000000000000000000000000000000000000000000000000000000000000000
D11003476006720828540145177202311272024012700000004065910000NGARCIA BARRAZA VICTOR ADRIAN                      MXP000000000000000000000000000000000000000000000000000000000000000000000000000000
D11003486006720828540145178202311272024012700000001430630000NMORALES HERNANDEZ CARLOS RAMON                    MXP000000000000000000000000000000000000000000000000000000000000000000000000000000
D11003496006720828540145179202311272024012700000004065910000NOCHOA OLIVAS BRANDON ERNESTO                      MXP000000000000000000000000000000000000000000000000000000000000000000000000000000
D11003506006720828540145180202311272024012700000004280590000NSERRANO AVILES CLAUDIO RAMON                      MXP000000000000000000000000000000000000000000000000000000000000000000000000000000
D11003516006720828540145181202311272024012700000003074110000NSAINZ RUVALCABA RAMON ALFONSO                     MXP000000000000000000000000000000000000000000000000000000000000000000000000000000
D11003526006720828540145182202311272024012700000003315590000NAGUIRRE OSUNA MAYRA GUADALUPE                     MXP000000000000000000000000000000000000000000000000000000000000000000000000000000
D11003536006720828540145183202311272024012700000005057330000NCEDANO SANCHEZ MIGUEL ALEXIS                      MXP000000000000000000000000000000000000000000000000000000000000000000000000000000
D11003546006720828540145184202311272024012700000002960400000NESTOLANO BARREDA VLADIMIR JAIRCINIO               MXP000000000000000000000000000000000000000000000000000000000000000000000000000000
D11003556006720828540145185202311272024012700000008596610000NFELIX FLORES XAVIER ERNESTO                       MXP000000000000000000000000000000000000000000000000000000000000000000000000000000
D11003566006720828540145186202311272024012700000003277960000NFLORES OCHOA VICTOR ALFONSO                       MXP000000000000000000000000000000000000000000000000000000000000000000000000000000
D11003576006720828540145187202311272024012700000006053020000NIBARRA IBARRA PEDRO LUIS                          MXP000000000000000000000000000000000000000000000000000000000000000000000000000000
D11003586006720828540145188202311272024012700000004149640000NJACOBO VALENZUELA SEIDY JISELLE                   MXP000000000000000000000000000000000000000000000000000000000000000000000000000000
D11003596006720828540145189202311272024012700000004365130000NLIZARRAGA LIZARRAGA HECTOR DAVID                  MXP000000000000000000000000000000000000000000000000000000000000000000000000000000
D11003606006720828540145190202311272024012700000004280590000NMILLAN OCHOA OSCAR EDUARDO                        MXP000000000000000000000000000000000000000000000000000000000000000000000000000000
D11003616006720828540145191202311272024012700000009019810000NNEVAREZ ARMENTA JOSE IVAN                         MXP000000000000000000000000000000000000000000000000000000000000000000000000000000
D11003626006720828540145192202311272024012700000005813920000NOSUNA CASTRO SOCRATES ASCARIS NOEL                MXP000000000000000000000000000000000000000000000000000000000000000000000000000000
D11003636006720828540145193202311272024012700000005813920000NQUINTERO MARTINEZ MAOMAR                          MXP000000000000000000000000000000000000000000000000000000000000000000000000000000
D11003646006720828540145194202311272024012700000005805670000NSANCHEZ BOBADILLA CESAR                           MXP000000000000000000000000000000000000000000000000000000000000000000000000000000
D11003656006720828540145195202311272024012700000002939510000NVERDUGO MENDEZ LAURA MICAELA                      MXP000000000000000000000000000000000000000000000000000000000000000000000000000000
D11003666006720828540145196202311272024012700000004078100000NFLORES LINARES EDITH ELENA                        MXP000000000000000000000000000000000000000000000000000000000000000000000000000000
D11003676006720828540145197202311272024012700000006334210000NMARTINEZ TIRADO VILMA DORA                        MXP000000000000000000000000000000000000000000000000000000000000000000000000000000
D11003686006720828540145198202311272024012700000003616930000NBUSTAMANTE CHAVEZ SERGIO RAFAEL                   MXP000000000000000000000000000000000000000000000000000000000000000000000000000000
D11003696006720828540145199202311272024012700000003315590000NGASTELUM MURILLO RIGOBERTO                        MXP000000000000000000000000000000000000000000000000000000000000000000000000000000
D11003706006720828540145200202311272024012700000002861410000NAVENDANO ZAZUETA FILIBERTO                        MXP000000000000000000000000000000000000000000000000000000000000000000000000000000
D11003716006720828540145201202311272024012700000005026350000NBAYLISS AYALA LETICIA SELENE                      MXP000000000000000000000000000000000000000000000000000000000000000000000000000000
D11003726006720828540145202202311272024012700000005988440000NCAMACHO RAMIREZ ERNESTO YUSEF                     MXP000000000000000000000000000000000000000000000000000000000000000000000000000000
D11003736006720828540145203202311272024012700000015058530000NNAVARRETE CUEVAS AURELIO ROY                      MXP000000000000000000000000000000000000000000000000000000000000000000000000000000
D11003746006720828540145204202311272024012700000009303040000NESCOPPINICHI FERNANDEZ RICARDO                    MXP000000000000000000000000000000000000000000000000000000000000000000000000000000
D11003756006720828540145205202311272024012700000015875680000NTORRES REYES MARTHA ALICIA                        MXP000000000000000000000000000000000000000000000000000000000000000000000000000000
D11003766006720828540145206202311272024012700000007202880000NVERDUGO CASTANEDA JESUS DANIEL                    MXP000000000000000000000000000000000000000000000000000000000000000000000000000000
D11003776006720828540145207202311272024012700000008596610000NAGUILAR ZAZUETA ROCIO YOLANDA                     MXP000000000000000000000000000000000000000000000000000000000000000000000000000000
D11003786006720828540145208202311272024012700000004501520000NDE LA CRUZ MENDOZA VIANKA GUADALUPE               MXP000000000000000000000000000000000000000000000000000000000000000000000000000000
D11003796006720828540145209202311272024012700000004149640000NPEREGRINA MEDINA MARTIN ALONSO                    MXP000000000000000000000000000000000000000000000000000000000000000000000000000000
D11003806006720828540145210202311272024012700000002791200000NRIVERA CARDENAS ALEJANDRO                         MXP000000000000000000000000000000000000000000000000000000000000000000000000000000
D11003816006720828540145211202311272024012700000003111600000NAGUILAR MARIN MARIA LEONOR                        MXP000000000000000000000000000000000000000000000000000000000000000000000000000000
D11003826006720828540145212202311272024012700000031581060000NALMANZA AVILES MARCO ANTONIO                      MXP000000000000000000000000000000000000000000000000000000000000000000000000000000
D11003836006720828540145213202311272024012700000012100220000NANAYA CASTRO HERNAN EDUARDO                       MXP000000000000000000000000000000000000000000000000000000000000000000000000000000
D11003846006720828540145214202311272024012700000007127660000NARREDONDO ELENES MIGUEL ANGEL                     MXP000000000000000000000000000000000000000000000000000000000000000000000000000000
D11003856006720828540145215202311272024012700000003111600000NAVALOS CHONG MARIA OLGA                           MXP000000000000000000000000000000000000000000000000000000000000000000000000000000
D11003866006720828540145216202311272024012700000006272770000NAYALA HERNANDEZ NORA PATRICIA                     MXP000000000000000000000000000000000000000000000000000000000000000000000000000000
D11003876006720828540145217202311272024012700000003376080000NAYALA MARTINEZ MARIA DE JESUS                     MXP000000000000000000000000000000000000000000000000000000000000000000000000000000
D11003886006720828540145218202311272024012700000003806700000NBARRAZA BELTRAN ALICIA                            MXP000000000000000000000000000000000000000000000000000000000000000000000000000000
D11003896006720828540145219202311272024012700000004267040000NBELTRAN HEREDIA DEICY MARISELA                    MXP000000000000000000000000000000000000000000000000000000000000000000000000000000
D11003906006720828540145220202311272024012700000003111600000NBELTRAN OJEDA RUTH NOEMI DEL PILAR                MXP000000000000000000000000000000000000000000000000000000000000000000000000000000
D11003916006720828540145221202311272024012700000005436270000NBERNAL SOTO ANA ELISA                             MXP000000000000000000000000000000000000000000000000000000000000000000000000000000
D11003926006720828540145222202311272024012700000010321370000NBOJORQUEZ PEREA OSCAR JAVIER                      MXP000000000000000000000000000000000000000000000000000000000000000000000000000000
D11003936006720828540145223202311272024012700000005805090000NBONIFACIO GARCIA ADELA                            MXP000000000000000000000000000000000000000000000000000000000000000000000000000000
D11003946006720828540145224202311272024012700000009322250000NCACHO SALAZAR ERIKA JOSEFINA                      MXP000000000000000000000000000000000000000000000000000000000000000000000000000000
D11003956006720828540145225202311272024012700000001867050000NCARRILLO MORA JESUS OCTAVIO                       MXP000000000000000000000000000000000000000000000000000000000000000000000000000000
D11003966006720828540145226202311272024012700000004267040000NCARRILLO TORRES JOSEFINA                          MXP000000000000000000000000000000000000000000000000000000000000000000000000000000
D11003976006720828540145227202311272024012700000004165520000NCASTANEDA RIOS EVERARDO                           MXP000000000000000000000000000000000000000000000000000000000000000000000000000000
D11003986006720828540145228202311272024012700000007006000000NCASTANEDA VALENZUELA FLOR MARIA                   MXP000000000000000000000000000000000000000000000000000000000000000000000000000000
D11003996006720828540145229202311272024012700000009019720000NCASTRO GONZALEZ DANIEL                            MXP000000000000000000000000000000000000000000000000000000000000000000000000000000
D11004006006720828540145230202311272024012700000001987890000NCASTRO LOPEZ MICHELLE JHOANA                      MXP000000000000000000000000000000000000000000000000000000000000000000000000000000
D11004016006720828540145231202311272024012700000001987890000NCASTRO MEDINA ARANZA                              MXP000000000000000000000000000000000000000000000000000000000000000000000000000000
D11004026006720828540145232202311272024012700000001987890000NCASTRO MEDINA MELANIE                             MXP000000000000000000000000000000000000000000000000000000000000000000000000000000
D11004036006720828540145233202311272024012700000002274480000NCASTRO SOTO ELIZABETH                             MXP000000000000000000000000000000000000000000000000000000000000000000000000000000
D11004046006720828540145234202311272024012700000003376080000NCEBREROS MEZA MARIA DEL CARMEN                    MXP000000000000000000000000000000000000000000000000000000000000000000000000000000
D11004056006720828540145235202311272024012700000002274480000NCERRILLO CASTRO ARACELI ELIZABETH                 MXP000000000000000000000000000000000000000000000000000000000000000000000000000000
D11004066006720828540145236202311272024012700000002274480000NCERRILLO CASTRO XIOMARA GUADALUPE                 MXP000000000000000000000000000000000000000000000000000000000000000000000000000000
D11004076006720828540145237202311272024012700000007582280000NCERVANTES VALENZUELA ODILON                       MXP000000000000000000000000000000000000000000000000000000000000000000000000000000
D11004086006720828540145238202311272024012700000047302350000NCERVANTES VALENZUELA ODILON                       MXP000000000000000000000000000000000000000000000000000000000000000000000000000000
D11004096006720828540145239202311272024012700000011511170000NCORTEZ CASTRO MARCO EDGAR                         MXP000000000000000000000000000000000000000000000000000000000000000000000000000000
D11004106006720828540145240202311272024012700000002893970000NCHAVEZ VALENZUELA MARIA GUADALUPE                 MXP000000000000000000000000000000000000000000000000000000000000000000000000000000
D11004116006720828540145241202311272024012700000003376080000NDELGADO CORONA LUZ ELENA                          MXP000000000000000000000000000000000000000000000000000000000000000000000000000000
D11004126006720828540145242202311272024012700000007947030000NDELGADO LOPEZ HECTOR GUADALUPE                    MXP000000000000000000000000000000000000000000000000000000000000000000000000000000
D11004136006720828540145243202311272024012700000010800680000NDELGADO ORTIZ EMIGDIA                             MXP000000000000000000000000000000000000000000000000000000000000000000000000000000
D11004146006720828540145244202311272024012700000003055400000NDOMINGUEZ SALAZAR JUANA                           MXP000000000000000000000000000000000000000000000000000000000000000000000000000000
D11004156006720828540145245202311272024012700000012230220000NFLORES CASTRO JESUS ALBERTO                       MXP000000000000000000000000000000000000000000000000000000000000000000000000000000
D11004166006720828540145246202311272024012700000003538710000NFLORES GONZALEZ PAOLA LETICIA                     MXP000000000000000000000000000000000000000000000000000000000000000000000000000000
D11004176006720828540145247202311272024012700000003249720000NFLORES MORENO MARIA MAGDALENA                     MXP000000000000000000000000000000000000000000000000000000000000000000000000000000
D11004186006720828540145248202311272024012700000002623860000NFLORES SALAZAR MAURA                              MXP000000000000000000000000000000000000000000000000000000000000000000000000000000
D11004196006720828540145249202311272024012700000003376080000NGAMEZ GASTELUM GRACIELA                           MXP000000000000000000000000000000000000000000000000000000000000000000000000000000
D11004206006720828540145250202311272024012700000006532760000NGAMEZ MALDONADO MARIA EMILIA                      MXP000000000000000000000000000000000000000000000000000000000000000000000000000000
D11004216006720828540145251202311272024012700000003538710000NGARCIA FLORES JORGE RAUL                          MXP000000000000000000000000000000000000000000000000000000000000000000000000000000
D11004226006720828540145252202311272024012700000005469770000NGARCIA PEREA LUNA ISABELLA                        MXP000000000000000000000000000000000000000000000000000000000000000000000000000000
D11004236006720828540145253202311272024012700000003376080000NGONZALEZ ARENAS MA CRUZ ESTHER                    MXP000000000000000000000000000000000000000000000000000000000000000000000000000000
D11004246006720828540145254202311272024012700000005179010000NGONZALEZ HERNANDEZ BARDO BALTAZAR                 MXP000000000000000000000000000000000000000000000000000000000000000000000000000000
D11004256006720828540145255202311272024012700000003110360000NGONZALEZ MARTINEZ GUILLERMO                       MXP000000000000000000000000000000000000000000000000000000000000000000000000000000
D11004266006720828540145256202311272024012700000009504990000NGUZMAN CHAMORRO JOEL                              MXP000000000000000000000000000000000000000000000000000000000000000000000000000000
D11004276006720828540145257202311272024012700000047302350000NGUZMAN CHAMORRO JOEL                              MXP000000000000000000000000000000000000000000000000000000000000000000000000000000
D11004286006720828540145258202311272024012700000007492010000NGUZMAN MEDINA DIANA NAYLEA                        MXP000000000000000000000000000000000000000000000000000000000000000000000000000000
D11004296006720828540145259202311272024012700000012520440000NHOLGUIN ESQUIVEL MARIA ELENA                      MXP000000000000000000000000000000000000000000000000000000000000000000000000000000
D11004306006720828540145260202311272024012700000007974950000NIBARRA HIGUERA MARIA DEL ROSARIO                  MXP000000000000000000000000000000000000000000000000000000000000000000000000000000
D11004316006720828540145261202311272024012700000001362900000NLAFARGA MARTINEZ ALEJANDRO DEL PIERO              MXP000000000000000000000000000000000000000000000000000000000000000000000000000000
D11004326006720828540145262202311272024012700000001362900000NLAFARGA MARTINEZ ALEXA                            MXP000000000000000000000000000000000000000000000000000000000000000000000000000000
D11004336006720828540145263202311272024012700000009448810000NLEON JOSE ANGEL                                   MXP000000000000000000000000000000000000000000000000000000000000000000000000000000
D11004346006720828540145264202311272024012700000004727070000NLIZARRAGA LANDEROS ENRIQUE                        MXP000000000000000000000000000000000000000000000000000000000000000000000000000000
D11004356006720828540145265202311272024012700000008821160000NLOBILLO GARCIA RAMON                              MXP000000000000000000000000000000000000000000000000000000000000000000000000000000
D11004366006720828540145266202311272024012700000004238280000NLOPEZ BEJARANO MARIA MARISELA                     MXP000000000000000000000000000000000000000000000000000000000000000000000000000000
D11004376006720828540145267202311272024012700000002305550000NLOPEZ CASTILLO GLORIA AIDEE                       MXP000000000000000000000000000000000000000000000000000000000000000000000000000000
D11004386006720828540145268202311272024012700000010186080000NLOPEZ FELIX MARIA                                 MXP000000000000000000000000000000000000000000000000000000000000000000000000000000
D11004396006720828540145269202311272024012700000011513410000NLOPEZ FUENTES DULCE MARIA                         MXP000000000000000000000000000000000000000000000000000000000000000000000000000000
D11004406006720828540145270202311272024012700000003421920000NLOPEZ MENDIVIL DAMASO                             MXP000000000000000000000000000000000000000000000000000000000000000000000000000000
D11004416006720828540145271202311272024012700000002219440000NLOPEZ MONTES EVA DELIA                            MXP000000000000000000000000000000000000000000000000000000000000000000000000000000
D11004426006720828540145272202311272024012700000003160000000NMARIN BELTRAN NANCY CITLALY                       MXP000000000000000000000000000000000000000000000000000000000000000000000000000000
D11004436006720828540145273202311272024012700000000716980000NMARISCAL LOPEZ MARGARITA                          MXP000000000000000000000000000000000000000000000000000000000000000000000000000000
D11004446006720828540145274202311272024012700000007494680000NMARTINEZ BARRAZA MARTHA PATRICIA                  MXP000000000000000000000000000000000000000000000000000000000000000000000000000000
D11004456006720828540145275202311272024012700000005263920000NMARTINEZ BOCANEGRA MA GENOVEVA                    MXP000000000000000000000000000000000000000000000000000000000000000000000000000000
D11004466006720828540145276202311272024012700000001362900000NMARTINEZ HERMOSILLO ERIKA JANETH                  MXP000000000000000000000000000000000000000000000000000000000000000000000000000000
D11004476006720828540145277202311272024012700000004277720000NMATA TORRES FERNANDA                              MXP000000000000000000000000000000000000000000000000000000000000000000000000000000
D11004486006720828540145278202311272024012700000012336000000NMEDINA RIOS KEVIN GERARDO                         MXP000000000000000000000000000000000000000000000000000000000000000000000000000000
D11004496006720828540145279202311272024012700000001987890000NMEDINA RODRIGUEZ ALEXIS ABIGAIL                   MXP000000000000000000000000000000000000000000000000000000000000000000000000000000
D11004506006720828540145280202311272024012700000003421920000NMENDIVIL BELTRAN FRANCISCA                        MXP000000000000000000000000000000000000000000000000000000000000000000000000000000
D11004516006720828540145281202311272024012700000003160000000NMENDOZA MARIN CESAR ALBERTO                       MXP000000000000000000000000000000000000000000000000000000000000000000000000000000
D11004526006720828540145282202311272024012700000003477150000NMENDOZA RAMIREZ JAIME                             MXP000000000000000000000000000000000000000000000000000000000000000000000000000000
D11004536006720828540145283202311272024012700000011008100000NMEZA GARCIA NORMA SILVIA                          MXP000000000000000000000000000000000000000000000000000000000000000000000000000000
D11004546006720828540145284202311272024012700000005620430000NMILLAN SANDOVAL BLANCA ESTHELA                    MXP000000000000000000000000000000000000000000000000000000000000000000000000000000
D11004556006720828540145285202311272024012700000005598050000NMORALES VALDEZ ELEIDA                             MXP000000000000000000000000000000000000000000000000000000000000000000000000000000
D11004566006720828540145286202311272024012700000012662290000NMORANO SEGURA LUIS GUSTAVO                        MXP000000000000000000000000000000000000000000000000000000000000000000000000000000
D11004576006720828540145287202311272024012700000003376080000NMORGA AISPURO MARIA DE LA PAZ                     MXP000000000000000000000000000000000000000000000000000000000000000000000000000000
D11004586006720828540145288202311272024012700000009193010000NMURILLO GUEVARA JESUS ALBERTO                     MXP000000000000000000000000000000000000000000000000000000000000000000000000000000
D11004596006720828540145289202311272024012700000011511170000NNEVAREZ ACOSTA MARIO ANTONIO                      MXP000000000000000000000000000000000000000000000000000000000000000000000000000000
D11004606006720828540145290202311272024012700000007943690000NNIEBLA CAMACHO ISABEL ESPERANZA                   MXP000000000000000000000000000000000000000000000000000000000000000000000000000000
D11004616006720828540145291202311272024012700000011207600000NNIEBLAS QUINONEZ IRMA CANDELARIA                  MXP000000000000000000000000000000000000000000000000000000000000000000000000000000
D11004626006720828540145292202311272024012700000013116770000NORTEGA VARELA RICARDO                             MXP000000000000000000000000000000000000000000000000000000000000000000000000000000
D11004636006720828540145293202311272024012700000008584110000NORTIZ MILLAN ULISES                               MXP000000000000000000000000000000000000000000000000000000000000000000000000000000
D11004646006720828540145294202311272024012700000007955670000NPADILLA RIOS EVA                                  MXP000000000000000000000000000000000000000000000000000000000000000000000000000000
D11004656006720828540145295202311272024012700000007551800000NPARRA NEVAREZ GUADALUPE                           MXP000000000000000000000000000000000000000000000000000000000000000000000000000000
D11004666006720828540145296202311272024012700000005813190000NPEREZ FELIX ANA MARISELA                          MXP000000000000000000000000000000000000000000000000000000000000000000000000000000
D11004676006720828540145297202311272024012700000000716980000NPINA CORONA ANGELA LETICIA                        MXP000000000000000000000000000000000000000000000000000000000000000000000000000000
D11004686006720828540145298202311272024012700000000716980000NPINA CORONA LOURDES GUADALUPE                     MXP000000000000000000000000000000000000000000000000000000000000000000000000000000
D11004696006720828540145299202311272024012700000000716980000NPINA CORONA MARIA MAGALY                          MXP000000000000000000000000000000000000000000000000000000000000000000000000000000
D11004706006720828540145300202311272024012700000000716980000NPINA MARISCAL NESTOR DANIEL                       MXP000000000000000000000000000000000000000000000000000000000000000000000000000000
D11004716006720828540145301202311272024012700000007150160000NRAMIREZ SANCHEZ ANDREA                            MXP000000000000000000000000000000000000000000000000000000000000000000000000000000
D11004726006720828540145302202311272024012700000005813190000NRIVAS PEREZ ANA JUDITH                            MXP000000000000000000000000000000000000000000000000000000000000000000000000000000
D11004736006720828540145303202311272024012700000002434970000NRODRIGUEZ ANAYA AMERICA MICHELLE                  MXP000000000000000000000000000000000000000000000000000000000000000000000000000000
D11004746006720828540145304202311272024012700000005254500000NROJAS FLORES DIONICIO                             MXP000000000000000000000000000000000000000000000000000000000000000000000000000000
D11004756006720828540145305202311272024012700000005129190000NROMERO ROCHA MA ELODIA                            MXP000000000000000000000000000000000000000000000000000000000000000000000000000000
D11004766006720828540145306202311272024012700000007778450000NRUIZ VELAZQUEZ ENEDINA                            MXP000000000000000000000000000000000000000000000000000000000000000000000000000000
D11004776006720828540145307202311272024012700000004332770000NSALAZAR TINOCO KAREN DAYANA                       MXP000000000000000000000000000000000000000000000000000000000000000000000000000000
D11004786006720828540145308202311272024012700000005598050000NSALOMON MORALES PAULETTE ALEXANDRA                MXP000000000000000000000000000000000000000000000000000000000000000000000000000000
D11004796006720828540145309202311272024012700000009143680000NSANDOVAL RIOS MARIO EDUARDO                       MXP000000000000000000000000000000000000000000000000000000000000000000000000000000
D11004806006720828540145310202311272024012700000008634500000NSAUCEDO QUIROS MA AGAPITA                         MXP000000000000000000000000000000000000000000000000000000000000000000000000000000
D11004816006720828540145311202311272024012700000003111600000NSILVA LOPEZ GUILLERMO                             MXP000000000000000000000000000000000000000000000000000000000000000000000000000000
D11004826006720828540145312202311272024012700000003376080000NSOTO GONZALEZ MARIA DEL REFUGIO                   MXP000000000000000000000000000000000000000000000000000000000000000000000000000000
D11004836006720828540145313202311272024012700000004332770000NTINOCO BARRON CLAUDIA ALICIA                      MXP000000000000000000000000000000000000000000000000000000000000000000000000000000
D11004846006720828540145314202311272024012700000003111600000NTIZOC LLANES CANDELARIA                           MXP000000000000000000000000000000000000000000000000000000000000000000000000000000
D11004856006720828540145315202311272024012700000002305550000NTORRES LOPEZ GAEL SANTIAGO                        MXP000000000000000000000000000000000000000000000000000000000000000000000000000000
D11004866006720828540145316202311272024012700000004277720000NTORRES MORENO AMERICA                             MXP000000000000000000000000000000000000000000000000000000000000000000000000000000
D11004876006720828540145317202311272024012700000003639180000NVALLE CHARLES ESTEFANIA                           MXP000000000000000000000000000000000000000000000000000000000000000000000000000000
D11004886006720828540145318202311272024012700000003639180000NVALLE CHARLES MELANIE                             MXP000000000000000000000000000000000000000000000000000000000000000000000000000000
D11004896006720828540145319202311272024012700000003763050000NVAZQUEZ BASULTO LETISIA                           MXP000000000000000000000000000000000000000000000000000000000000000000000000000000
D11004906006720828540145320202311272024012700000003111600000NVELAZQUEZ MARTINEZ CARLOS                         MXP000000000000000000000000000000000000000000000000000000000000000000000000000000
D11004916006720828540145321202311272024012700000001299280000NVERDUGO MENDO MARIA DE LOS ANGELES                MXP000000000000000000000000000000000000000000000000000000000000000000000000000000
D11004926006720828540145322202311272024012700000007790240000NZAMORA AYALA MATILDE                              MXP000000000000000000000000000000000000000000000000000000000000000000000000000000
D11004936006720828540145323202311272024012700000005343740000NZAZUETA BELTRAN CONCEPCION                        MXP000000000000000000000000000000000000000000000000000000000000000000000000000000
D11004946006720828540145324202311272024012700000003763050000NZAZUETA VAZQUEZ SUSAN MAYTE                       MXP000000000000000000000000000000000000000000000000000000000000000000000000000000
D11004956006720828540145325202311272024012700000015875680000NMARQUEZ CALDERON KARINA ELIZABETH                 MXP000000000000000000000000000000000000000000000000000000000000000000000000000000
D11004966006720828540145326202311272024012700000007850850000NVELARDE OSUNA SANTA                               MXP000000000000000000000000000000000000000000000000000000000000000000000000000000
D11004976006720828540145327202311272024012700000006258390000NBURGOS VALDEZ CARLOS ARTURO                       MXP000000000000000000000000000000000000000000000000000000000000000000000000000000
D11004986006720828540145328202311272024012700000007068690000NCAMPANA SALAZAR ANDRES                            MXP000000000000000000000000000000000000000000000000000000000000000000000000000000
D11004996006720828540145329202311272024012700000007310050000NCASTRO ROJO ANDRES                                MXP000000000000000000000000000000000000000000000000000000000000000000000000000000
D11005006006720828540145330202311272024012700000013087190000NLOPEZ SANDOVAL EDUARDO                            MXP000000000000000000000000000000000000000000000000000000000000000000000000000000
D11005016006720828540145331202311272024012700000003941220000NGONZALEZ VEJAR MARIA JOSE                         MXP000000000000000000000000000000000000000000000000000000000000000000000000000000
D11005026006720828540145332202311272024012700000005627780000NLIZARRAGA SANCHEZ ROSA MARIA                      MXP000000000000000000000000000000000000000000000000000000000000000000000000000000
D11005036006720828540145333202311272024012700000011014600000NMANZANAREZ SALAZAR JULIO CESAR                    MXP000000000000000000000000000000000000000000000000000000000000000000000000000000
D11005046006720828540145334202311272024012700000009714080000NRUIZ BARAJAS SANDY LORENA                         MXP000000000000000000000000000000000000000000000000000000000000000000000000000000
D11005056006720828540145335202311272024012700000003941220000NSOTO GAXIOLA LAURA MICHELLE                       MXP000000000000000000000000000000000000000000000000000000000000000000000000000000
D11005066006720828540145336202311272024012700000007654730000NURIAS LOPEZ MARCO ANTONIO                         MXP000000000000000000000000000000000000000000000000000000000000000000000000000000
D11005076006720828540145337202311272024012700000005627780000NVALENZUELA MARRUJO ANGELICA ALEJANDRA             MXP000000000000000000000000000000000000000000000000000000000000000000000000000000
D11005086006720828540145338202311272024012700000021060990000NDIAZ VEGA ENRIQUE ALFONSO                         MXP000000000000000000000000000000000000000000000000000000000000000000000000000000
D11005096006720828540145339202311272024012700000002919800000NRUBIO JIMENEZ OSCAR ROBERTO                       MXP000000000000000000000000000000000000000000000000000000000000000000000000000000
D11005106006720828540145340202311272024012700000015875680000NMORENO LIZARRAGA DAVID                            MXP000000000000000000000000000000000000000000000000000000000000000000000000000000
D11005116006720828540145341202311272024012700000007850850000NVALENZUELA SANCHEZ CHRISTIAN ALBERTO              MXP000000000000000000000000000000000000000000000000000000000000000000000000000000
D11005126006720828540145342202311272024012700000011427100000NAHUMADA FABELA ADRIANA                            MXP000000000000000000000000000000000000000000000000000000000000000000000000000000
D11005136006720828540145343202311272024012700000015875680000NBELTRAN LEON ABELARDO                             MXP000000000000000000000000000000000000000000000000000000000000000000000000000000
D11005146006720828540145344202311272024012700000007850850000NBUELNA OSUNA MARIANA ALEXANDRA                    MXP000000000000000000000000000000000000000000000000000000000000000000000000000000
D11005156006720828540145345202311272024012700000008128950000NFIERRO ZAZUETA EDWIN GABRIEL                      MXP000000000000000000000000000000000000000000000000000000000000000000000000000000
D11005166006720828540145346202311272024012700000007850850000NIBARRA LEON LEILANY CAROLINA                      MXP000000000000000000000000000000000000000000000000000000000000000000000000000000
D11005176006720828540145347202311272024012700000005627780000NLOPEZ CARVAJAL JAVIER GEOVANY                     MXP000000000000000000000000000000000000000000000000000000000000000000000000000000
