H01117202401110010111700000000862764465000000000000000000000000111700000000862764465000000000000000000000000000000000000000000000000000000000000000000000000000000000000000000000000000000000000
D11000016006720828540150806202401112024031100000004044120000NRODRIGUEZ JORGE ARMANDO                           MXP000000000000000000000000000000000000000000000000000000000000000000000000000000
D11000026006720828540150807202401112024031100000002769430000NCANTU FONSECA MARICRUZ                            MXP000000000000000000000000000000000000000000000000000000000000000000000000000000
D11000036006720828540150808202401112024031100000003595150000NFIGUEROA GUADARRAMA ROBERTO                       MXP000000000000000000000000000000000000000000000000000000000000000000000000000000
D11000046006720828540150809202401112024031100000002898020000NMERCADO CANTUA LUZ ESTHER                         MXP000000000000000000000000000000000000000000000000000000000000000000000000000000
D11000056006720828540150810202401112024031100000004032460000NLANGARICA VALENZUELA ABDIEL ORLANDO               MXP000000000000000000000000000000000000000000000000000000000000000000000000000000
D11000066006720828540150811202401112024031100000004433400000NCASTRO RODRIGUEZ ESMERALDA BERENICE               MXP000000000000000000000000000000000000000000000000000000000000000000000000000000
D11000076006720828540150812202401112024031100000004479730000NCRUZ NUNEZ MARIEL MELISSA                         MXP000000000000000000000000000000000000000000000000000000000000000000000000000000
D11000086006720828540150813202401112024031100000004479730000NOCHOA FELIX FLOR DE MARIA                         MXP000000000000000000000000000000000000000000000000000000000000000000000000000000
D11000096006720828540150814202401112024031100000007245690000NTREVEDAN NICOLS EDGAR JESUS                       MXP000000000000000000000000000000000000000000000000000000000000000000000000000000
D11000106006720828540150815202401112024031100000004479730000NARMENTA CASTRO GUILLERMO ANTONIO                  MXP000000000000000000000000000000000000000000000000000000000000000000000000000000
D11000116006720828540150816202401112024031100000005378460000NALCARAZ VERDUZCO BRAULIO                          MXP000000000000000000000000000000000000000000000000000000000000000000000000000000
D11000126006720828540150817202401112024031100000005074840000NLEON VELAZQUEZ LAURA KARINA                       MXP000000000000000000000000000000000000000000000000000000000000000000000000000000
D11000136006720828540150818202401112024031100000002058840000NMONTIEL SOLIS FRANCISCA                           MXP000000000000000000000000000000000000000000000000000000000000000000000000000000
D11000146006720828540150819202401112024031100000002413200000NPABALAIS VALENZUELA MARICRUZ                      MXP000000000000000000000000000000000000000000000000000000000000000000000000000000
D11000156006720828540150820202401112024031100000015965930000NPRECIADO SOLIS VALERIA PATRICIA                   MXP000000000000000000000000000000000000000000000000000000000000000000000000000000
D11000166006720828540150821202401112024031100000007484100000NRONAO TORRES FRANCISCO JAVIER                     MXP000000000000000000000000000000000000000000000000000000000000000000000000000000
D11000176006720828540150822202401112024031100000004231420000NRUIZ PUENTE OMAR JASIEL                           MXP000000000000000000000000000000000000000000000000000000000000000000000000000000
D11000186006720828540150823202401112024031100000002981720000NSANCHEZ HERNANDEZ MANUEL                          MXP000000000000000000000000000000000000000000000000000000000000000000000000000000
D11000196006720828540150824202401112024031100000003104130000NVALENZUELA PABALAY MAYRA GEORGINA                 MXP000000000000000000000000000000000000000000000000000000000000000000000000000000
D11000206006720828540150825202401112024031100000005102460000NVELAZQUEZ PABALAY MARICRUZ                        MXP000000000000000000000000000000000000000000000000000000000000000000000000000000
D11000216006720828540150826202401112024031100000004127870000NRUIZ PORTILLO HECTOR RAUL                         MXP000000000000000000000000000000000000000000000000000000000000000000000000000000
D11000226006720828540150827202401112024031100000004753810000NGIL LEYVA ANA BELEM                               MXP000000000000000000000000000000000000000000000000000000000000000000000000000000
D11000236006720828540150828202401112024031100000002938620000NSOTO ROMAN MIRTA ISABEL                           MXP000000000000000000000000000000000000000000000000000000000000000000000000000000
D11000246006720828540150829202401112024031100000006319730000NVARGAS LANDEROS GABRIEL ALFREDO                   MXP000000000000000000000000000000000000000000000000000000000000000000000000000000
D11000256006720828540150830202401112024031100000004479730000NHERNANDEZ FLORES MARIA ALEJANDRINA                MXP000000000000000000000000000000000000000000000000000000000000000000000000000000
D11000266006720828540150831202401112024031100000000953030000NCALVA GONZALEZ AMBROCIO                           MXP000000000000000000000000000000000000000000000000000000000000000000000000000000
D11000276006720828540150832202401112024031100000007111520000NCAMACHO PALAFOX PAULINA                           MXP000000000000000000000000000000000000000000000000000000000000000000000000000000
D11000286006720828540150833202401112024031100000003367250000NCINCO FELIX JOSE AGUSTIN                          MXP000000000000000000000000000000000000000000000000000000000000000000000000000000
D11000296006720828540150834202401112024031100000003367250000NCINCO FELIX JOSE ALEJANDRO                        MXP000000000000000000000000000000000000000000000000000000000000000000000000000000
D11000306006720828540150835202401112024031100000003538710000NGARCIA QUEZADA DIEGO FERNANDO                     MXP000000000000000000000000000000000000000000000000000000000000000000000000000000
D11000316006720828540150836202401112024031100000001889180000NGASTELUM VALLE PATRICIA                           MXP000000000000000000000000000000000000000000000000000000000000000000000000000000
D11000326006720828540150837202401112024031100000005755590000NGONZALEZ IBARRA ALEXA CRISTINA                    MXP000000000000000000000000000000000000000000000000000000000000000000000000000000
D11000336006720828540150838202401112024031100000003716840000NHIGUERA URIAS CELSO                               MXP000000000000000000000000000000000000000000000000000000000000000000000000000000
D11000346006720828540150839202401112024031100000005755590000NIBARRA GUERRERO MARIA CRISTINA                    MXP000000000000000000000000000000000000000000000000000000000000000000000000000000
D11000356006720828540150840202401112024031100000025261120000NLEYVA CASTRO ROSARIO                              MXP000000000000000000000000000000000000000000000000000000000000000000000000000000
D11000366006720828540150841202401112024031100000008181740000NVALENZUELA CAMARGO JUANA                          MXP000000000000000000000000000000000000000000000000000000000000000000000000000000
D11000376006720828540150842202401112024031100000000871850000NVELAZQUEZ VALDEZ LUZ VIRGINIA                     MXP000000000000000000000000000000000000000000000000000000000000000000000000000000
D11000386006720828540150843202401112024031100000002662640000NURIARTE URQUIDEZ ALEX ISRAEL                      MXP000000000000000000000000000000000000000000000000000000000000000000000000000000
D11000396006720828540150844202401112024031100000004044120000NCERVANTES LLANES MARIA JOSE                       MXP000000000000000000000000000000000000000000000000000000000000000000000000000000
D11000406006720828540150845202401112024031100000005387940000NRIOS BELTRAN CUTBERTO                             MXP000000000000000000000000000000000000000000000000000000000000000000000000000000
D11000416006720828540150846202401112024031100000008048980000NSANCHEZ GUTIERREZ JOSE LUIS                       MXP000000000000000000000000000000000000000000000000000000000000000000000000000000
D11000426006720828540150847202401112024031100000004258820000NALVARADO LUGO MARIA FERNANDA                      MXP000000000000000000000000000000000000000000000000000000000000000000000000000000
D11000436006720828540150848202401112024031100000005778820000NIBARRA VAZQUEZ BEATRIZ GUADALUPE                  MXP000000000000000000000000000000000000000000000000000000000000000000000000000000
D11000446006720828540150849202401112024031100000004127870000NPENUELAS NAVARRO KARLA PAOLA                      MXP000000000000000000000000000000000000000000000000000000000000000000000000000000
D11000456006720828540150850202401112024031100000004044120000NREYES AYALA YOCKSANN ALONSO                       MXP000000000000000000000000000000000000000000000000000000000000000000000000000000
D11000466006720828540150851202401112024031100000004478030000NGARCIA BALCAZAR CECILIA                           MXP000000000000000000000000000000000000000000000000000000000000000000000000000000
D11000476006720828540150852202401112024031100000003083900000NVALENZUELA LOPEZ RAISERVANDO                      MXP000000000000000000000000000000000000000000000000000000000000000000000000000000
D11000486006720828540150853202401112024031100000002302240000NVISAIZ FELIX DIANA LAURA                          MXP000000000000000000000000000000000000000000000000000000000000000000000000000000
D11000496006720828540150854202401112024031100000004479730000NCARDENAS RUIZ PAOLA VANESSA                       MXP000000000000000000000000000000000000000000000000000000000000000000000000000000
D11000506006720828540150855202401112024031100000007730230000NBENITEZ ROMERO JUAN CARLOS                        MXP000000000000000000000000000000000000000000000000000000000000000000000000000000
D11000516006720828540150856202401112024031100000001932600000NCORRALES LOPEZ CAMILA                             MXP000000000000000000000000000000000000000000000000000000000000000000000000000000
D11000526006720828540150857202401112024031100000001932600000NCORRALES LOPEZ VICTORIA RUBI                      MXP000000000000000000000000000000000000000000000000000000000000000000000000000000
D11000536006720828540150858202401112024031100000001932600000NLOPEZ ANGULO ARACELI GUADALUPE                    MXP000000000000000000000000000000000000000000000000000000000000000000000000000000
D11000546006720828540150859202401112024031100000002499020000NROBLES PACHECO CARMEN ALICIA                      MXP000000000000000000000000000000000000000000000000000000000000000000000000000000
D11000556006720828540150860202401112024031100000004047980000NZACARIAS BUITIMEA EVELYN MAYTE                    MXP000000000000000000000000000000000000000000000000000000000000000000000000000000
D11000566006720828540150861202401112024031100000004047980000NZACARIAS BUITIMEA MAGALY NOEMI                    MXP000000000000000000000000000000000000000000000000000000000000000000000000000000
D11000576006720828540150862202401112024031100000002347320000NRUIZ PORTILLO CHRISTIAN URIEL                     MXP000000000000000000000000000000000000000000000000000000000000000000000000000000
D11000586006720828540150863202401112024031100000005041680000NLUQUE COTA ANNEL                                  MXP000000000000000000000000000000000000000000000000000000000000000000000000000000
D11000596006720828540150864202401112024031100000004258820000NCALVO ARAUJO MARIA JOSE                           MXP000000000000000000000000000000000000000000000000000000000000000000000000000000
D11000606006720828540150865202401112024031100000004258820000NFLORES HERNANDEZ VALERIA YARELY                   MXP000000000000000000000000000000000000000000000000000000000000000000000000000000
D11000616006720828540150866202401112024031100000002706300000NVERDUGO HEREDIA HUMBERTO                          MXP000000000000000000000000000000000000000000000000000000000000000000000000000000
D11000626006720828540150867202401112024031100000002395680000NVERDUGO HEREDIA RAMON                             MXP000000000000000000000000000000000000000000000000000000000000000000000000000000
D11000636006720828540150868202401112024031100000004822040000NMONDACA BRICENO LAURA                             MXP000000000000000000000000000000000000000000000000000000000000000000000000000000
D11000646006720828540150869202401112024031100000004057360000NVEGA MIRANDA ALFONSO                              MXP000000000000000000000000000000000000000000000000000000000000000000000000000000
D11000656006720828540150870202401112024031100000005606000000NLEON LOPEZ RAMON CANDELARIO                       MXP000000000000000000000000000000000000000000000000000000000000000000000000000000
D11000666006720828540150871202401112024031100000004207680000NFLORES VERDUZCO ADRIAN EDUARDO                    MXP000000000000000000000000000000000000000000000000000000000000000000000000000000
D11000676006720828540150872202401112024031100000006962130000NLOPEZ ARMENTA JUAN CARLOS                         MXP000000000000000000000000000000000000000000000000000000000000000000000000000000
D11000686006720828540150873202401112024031100000005387940000NPACHECO RUIZ JOSE DE JESUS                        MXP000000000000000000000000000000000000000000000000000000000000000000000000000000
D11000696006720828540150874202401112024031100000005458820000NVALENZUELA LUGO FRANCISCO JAVIER                  MXP000000000000000000000000000000000000000000000000000000000000000000000000000000
D11000706006720828540150875202401112024031100000003344690000NGOMEZ VALENZUELA FRANCISCA CECILIA                MXP000000000000000000000000000000000000000000000000000000000000000000000000000000
D11000716006720828540150876202401112024031100000004057360000NHERRAN GAXIOLA SATURNINO EDUARDO                  MXP000000000000000000000000000000000000000000000000000000000000000000000000000000
D11000726006720828540150877202401112024031100000002742950000NIBANEZ TIRADO CRISANTA                            MXP000000000000000000000000000000000000000000000000000000000000000000000000000000
D11000736006720828540150878202401112024031100000004692880000NCORRALES COTA VIRGINIA ISABEL                     MXP000000000000000000000000000000000000000000000000000000000000000000000000000000
D11000746006720828540150879202401112024031100000004057360000NOSORNIO VALENZUELA MACARIO                        MXP000000000000000000000000000000000000000000000000000000000000000000000000000000
D11000756006720828540150880202401112024031100000007747250000NCAMARGO COTA GRACIANO                             MXP000000000000000000000000000000000000000000000000000000000000000000000000000000
D11000766006720828540150881202401112024031100000007052100000NGARCIA COLIN JOSE DE JESUS                        MXP000000000000000000000000000000000000000000000000000000000000000000000000000000
D11000776006720828540150882202401112024031100000004044120000NACOSTA SANTOS PERLA LIZETH                        MXP000000000000000000000000000000000000000000000000000000000000000000000000000000
D11000786006720828540150883202401112024031100000007467830000NSANDOVAL RAMIREZ FRANCISCO JAVIER                 MXP000000000000000000000000000000000000000000000000000000000000000000000000000000
D11000796006720828540150884202401112024031100000004479730000NROCHA GUTIERREZ GUADALUPE                         MXP000000000000000000000000000000000000000000000000000000000000000000000000000000
D11000806006720828540150885202401112024031100000004320960000NBLANCARTE BERNAL PAULINA                          MXP000000000000000000000000000000000000000000000000000000000000000000000000000000
D11000816006720828540150886202401112024031100000005041680000NESPINOZA VILLEGAS RAMON IVAN                      MXP000000000000000000000000000000000000000000000000000000000000000000000000000000
D11000826006720828540150887202401112024031100000005041680000NFLORES LOPEZ LUIS ENRIQUE                         MXP000000000000000000000000000000000000000000000000000000000000000000000000000000
D11000836006720828540150888202401112024031100000004127870000NMONTOYA ESPINOZA JOSE DE JESUS                    MXP000000000000000000000000000000000000000000000000000000000000000000000000000000
D11000846006720828540150889202401112024031100000006319730000NVILLA ROMERO JUAN CARLOS                          MXP000000000000000000000000000000000000000000000000000000000000000000000000000000
D11000856006720828540150890202401112024031100000005606000000NALVAREZ AHUMADA JESUS FRANCISCO                   MXP000000000000000000000000000000000000000000000000000000000000000000000000000000
D11000866006720828540150891202401112024031100000003293810000NCERVANTES BUENO LUIS ALBERTO                      MXP000000000000000000000000000000000000000000000000000000000000000000000000000000
D11000876006720828540150892202401112024031100000004479730000NURIAS ALARCON RUTH ALEXIA                         MXP000000000000000000000000000000000000000000000000000000000000000000000000000000
D11000886006720828540150893202401112024031100000003342930000NARMENTA ARMENTA YOJAR                             MXP000000000000000000000000000000000000000000000000000000000000000000000000000000
D11000896006720828540150894202401112024031100000003412200000NESPARZA RODRIGUEZ ORLANDO                         MXP000000000000000000000000000000000000000000000000000000000000000000000000000000
D11000906006720828540150895202401112024031100000003412200000NESPINOZA VILLANUEVA ROBERTO                       MXP000000000000000000000000000000000000000000000000000000000000000000000000000000
D11000916006720828540150896202401112024031100000001099240000NGUERRERO MARTINEZ ANGEL GABRIEL                   MXP000000000000000000000000000000000000000000000000000000000000000000000000000000
D11000926006720828540150897202401112024031100000002059540000NGUERRERO RODRIGUEZ HECTOR MANUEL                  MXP000000000000000000000000000000000000000000000000000000000000000000000000000000
D11000936006720828540150898202401112024031100000005688000000NGUTIERREZ GARCIA JAIME SAUL                       MXP000000000000000000000000000000000000000000000000000000000000000000000000000000
D11000946006720828540150899202401112024031100000012780220000NGUTIERREZ GARCIA JAIME SAUL                       MXP000000000000000000000000000000000000000000000000000000000000000000000000000000
D11000956006720828540150900202401112024031100000005265000000NLEAL LEYVA SERGIO                                 MXP000000000000000000000000000000000000000000000000000000000000000000000000000000
D11000966006720828540150901202401112024031100000007922360000NLOPEZ ARMENTA EVERARDO                            MXP000000000000000000000000000000000000000000000000000000000000000000000000000000
D11000976006720828540150902202401112024031100000003404880000NROBLES DOMINGUEZ GRISELDA                         MXP000000000000000000000000000000000000000000000000000000000000000000000000000000
D11000986006720828540150903202401112024031100000002020340000NVALENCIA PALMA EDBERT ALBERTO                     MXP000000000000000000000000000000000000000000000000000000000000000000000000000000
D11000996006720828540150904202401112024031100000004126630000NVALENZUELA PALMA BALDOMERO                        MXP000000000000000000000000000000000000000000000000000000000000000000000000000000
D11001006006720828540150905202401112024031100000004258820000NAHUMADA CASTRO CESAR PAUL                         MXP000000000000000000000000000000000000000000000000000000000000000000000000000000
D11001016006720828540150906202401112024031100000003919440000NCASTRO LOPEZ FABIAN                               MXP000000000000000000000000000000000000000000000000000000000000000000000000000000
D11001026006720828540150907202401112024031100000004258820000NGRIJALVA BELTRAN VERONICA GUADALUPE               MXP000000000000000000000000000000000000000000000000000000000000000000000000000000
D11001036006720828540150908202401112024031100000002508720000NMILLAN CHAVEZ LUIS MANUEL                         MXP000000000000000000000000000000000000000000000000000000000000000000000000000000
D11001046006720828540150909202401112024031100000004044120000NVIDRIO ORDORICA ANA KAREN                         MXP000000000000000000000000000000000000000000000000000000000000000000000000000000
D11001056006720828540150910202401112024031100000001780520000NCERVANTES FIERRO ALFREDO ERNESTO                  MXP000000000000000000000000000000000000000000000000000000000000000000000000000000
D11001066006720828540150911202401112024031100000005702430000NSOTO ESCALANTE CARLOS EUGENIO                     MXP000000000000000000000000000000000000000000000000000000000000000000000000000000
D11001076006720828540150912202401112024031100000004057360000NZAMBADA CORONEL MANUEL                            MXP000000000000000000000000000000000000000000000000000000000000000000000000000000
D11001086006720828540150913202401112024031100000005556700000NGARCIA LOPEZ FERNANDO                             MXP000000000000000000000000000000000000000000000000000000000000000000000000000000
D11001096006720828540150914202401112024031100000004258820000NANAYA SOTO JESUS ARIANA                           MXP000000000000000000000000000000000000000000000000000000000000000000000000000000
D11001106006720828540150915202401112024031100000004127870000NCOTA EGUINO TONATHIU                              MXP000000000000000000000000000000000000000000000000000000000000000000000000000000
D11001116006720828540150916202401112024031100000004692880000NARK LOPEZ NAGID AMADO                             MXP000000000000000000000000000000000000000000000000000000000000000000000000000000
D11001126006720828540150917202401112024031100000003419120000NLEYVA PADILLA FRANCISCO MIGUEL                    MXP000000000000000000000000000000000000000000000000000000000000000000000000000000
D11001136006720828540150918202401112024031100000004680520000NLOPEZ HIGUERA RAUL ANTONIO                        MXP000000000000000000000000000000000000000000000000000000000000000000000000000000
D11001146006720828540150919202401112024031100000002402770000NSOTO HERRERA ANA CECILIA                          MXP000000000000000000000000000000000000000000000000000000000000000000000000000000
D11001156006720828540150920202401112024031100000006319730000NVIZCARRA FLORES FLORENTINO                        MXP000000000000000000000000000000000000000000000000000000000000000000000000000000
D11001166006720828540150921202401112024031100000005606000000NCOTA VILLA MARCOS ARTURO                          MXP000000000000000000000000000000000000000000000000000000000000000000000000000000
D11001176006720828540150922202401112024031100000004351210000NMERCADO ENG IVAN GILBERTO                         MXP000000000000000000000000000000000000000000000000000000000000000000000000000000
D11001186006720828540150923202401112024031100000007545950000NREYES LUQUE CARLOS                                MXP000000000000000000000000000000000000000000000000000000000000000000000000000000
D11001196006720828540150924202401112024031100000002220570000NCEBREROS LOPEZ MARLA JANETH                       MXP000000000000000000000000000000000000000000000000000000000000000000000000000000
D11001206006720828540150925202401112024031100000017342170000NLEYVA LOPEZ MARIA DOLORES                         MXP000000000000000000000000000000000000000000000000000000000000000000000000000000
D11001216006720828540150926202401112024031100000005063450000NMORENO LOPEZ FABIAN                               MXP000000000000000000000000000000000000000000000000000000000000000000000000000000
D11001226006720828540150927202401112024031100000005387930000NROBLES RIVERA LETICIA                             MXP000000000000000000000000000000000000000000000000000000000000000000000000000000
D11001236006720828540150928202401112024031100000003769610000NZAMORANO FONSECA DEVORA DEL ROSARIO               MXP000000000000000000000000000000000000000000000000000000000000000000000000000000
D11001246006720828540150929202401112024031100000005056420000NORNELAS FELIX PATRICIO                            MXP000000000000000000000000000000000000000000000000000000000000000000000000000000
D11001256006720828540150930202401112024031100000000325300000NORTIZ GONZALEZ MARTHA ELENA                       MXP000000000000000000000000000000000000000000000000000000000000000000000000000000
D11001266006720828540150931202401112024031100000004594280000NARAUJO BOJORQUEZ ROSARIO ELIANETH                 MXP000000000000000000000000000000000000000000000000000000000000000000000000000000
D11001276006720828540150932202401112024031100000004594280000NRANGEL ARAUJO GERARDO                             MXP000000000000000000000000000000000000000000000000000000000000000000000000000000
D11001286006720828540150933202401112024031100000004594280000NRANGEL ARAUJO PEDRO SEBASTIAN                     MXP000000000000000000000000000000000000000000000000000000000000000000000000000000
D11001296006720828540150934202401112024031100000004057360000NROMAN LOPEZ RODRIGO ALONSO                        MXP000000000000000000000000000000000000000000000000000000000000000000000000000000
D11001306006720828540150935202401112024031100000005606000000NPARRA MELECIO ISMAEL                              MXP000000000000000000000000000000000000000000000000000000000000000000000000000000
D11001316006720828540150936202401112024031100000006765250000NESCOBAR HERNANDEZ MARTIN                          MXP000000000000000000000000000000000000000000000000000000000000000000000000000000
D11001326006720828540150937202401112024031100000005387940000NLOPEZ CERVANTES EMILIA HAYDEE                     MXP000000000000000000000000000000000000000000000000000000000000000000000000000000
D11001336006720828540150938202401112024031100000004233150000NMENDEZ LLANES AIME NOELIA                         MXP000000000000000000000000000000000000000000000000000000000000000000000000000000
D11001346006720828540150939202401112024031100000004428470000NRUBIO PEREZ EVERARDO                              MXP000000000000000000000000000000000000000000000000000000000000000000000000000000
D11001356006720828540150940202401112024031100000002139980000NIRIZAR LOPEZ ALBA IRENE                           MXP000000000000000000000000000000000000000000000000000000000000000000000000000000
D11001366006720828540150941202401112024031100000003317910000NARMENTA IRIZAR JULIAN ANTONIO                     MXP000000000000000000000000000000000000000000000000000000000000000000000000000000
D11001376006720828540150942202401112024031100000004057360000NPEIRO RIVERA JESUS AMARAN                         MXP000000000000000000000000000000000000000000000000000000000000000000000000000000
D11001386006720828540150943202401112024031100000003577550000NSANDOVAL LOPEZ SILVIA SOLANGEL                    MXP000000000000000000000000000000000000000000000000000000000000000000000000000000
D11001396006720828540150944202401112024031100000005873840000NGONZALEZ CASTRO HERNAN                            MXP000000000000000000000000000000000000000000000000000000000000000000000000000000
D11001406006720828540150945202401112024031100000005041680000NGODOY SANCHEZ JOSE ABEL                           MXP000000000000000000000000000000000000000000000000000000000000000000000000000000
D11001416006720828540150946202401112024031100000004057360000NMONTOYA MONTOYA FAVIO URIEL                       MXP000000000000000000000000000000000000000000000000000000000000000000000000000000
D11001426006720828540150947202401112024031100000006942530000NPADILLA ELIZALDE DIEGO                            MXP000000000000000000000000000000000000000000000000000000000000000000000000000000
D11001436006720828540150948202401112024031100000005778820000NGARCIA LOPEZ ISSIS MELISSA                        MXP000000000000000000000000000000000000000000000000000000000000000000000000000000
D11001446006720828540150949202401112024031100000002898020000NMONTOYA LOPEZ MYRNA                               MXP000000000000000000000000000000000000000000000000000000000000000000000000000000
D11001456006720828540150950202401112024031100000004407980000NTUASON VALDEZ AURORA                              MXP000000000000000000000000000000000000000000000000000000000000000000000000000000
D11001466006720828540150951202401112024031100000004595230000NZAZUETA ANGULO ELOY                               MXP000000000000000000000000000000000000000000000000000000000000000000000000000000
D11001476006720828540150952202401112024031100000000325300000NLOPEZ GUTIERREZ MYRNA                             MXP000000000000000000000000000000000000000000000000000000000000000000000000000000
D11001486006720828540150953202401112024031100000000325300000NAGUILAR OSUNA DANIA GUADALUPE                     MXP000000000000000000000000000000000000000000000000000000000000000000000000000000
D11001496006720828540150954202401112024031100000002663040000NANGULO ANGULO WILFREDO                            MXP000000000000000000000000000000000000000000000000000000000000000000000000000000
D11001506006720828540150955202401112024031100000007249260000NINZUNZA SAINZ KARELY                              MXP000000000000000000000000000000000000000000000000000000000000000000000000000000
D11001516006720828540150956202401112024031100000007244390000NMAGANA JUAREZ ALAN EDUARDO                        MXP000000000000000000000000000000000000000000000000000000000000000000000000000000
D11001526006720828540150957202401112024031100000006319730000NFELIX MEZA HUGO ERNESTO                           MXP000000000000000000000000000000000000000000000000000000000000000000000000000000
D11001536006720828540150958202401112024031100000002662640000NVELAZQUEZ ACOSTA JESUS ABRAHAM                    MXP000000000000000000000000000000000000000000000000000000000000000000000000000000
D11001546006720828540150959202401112024031100000004900730000NGASTELUM LOPEZ NORMA ALICIA                       MXP000000000000000000000000000000000000000000000000000000000000000000000000000000
D11001556006720828540150960202401112024031100000004830130000NURIAS CARRILLO ROBERTO                            MXP000000000000000000000000000000000000000000000000000000000000000000000000000000
D11001566006720828540150961202401112024031100000005387930000NSANTOS MONTES ANASTACIO                           MXP000000000000000000000000000000000000000000000000000000000000000000000000000000
D11001576006720828540150962202401112024031100000006001010000NMIRANDA AGUILAR LUIS ANTONIO                      MXP000000000000000000000000000000000000000000000000000000000000000000000000000000
D11001586006720828540150963202401112024031100000004821940000NSOTO AGUILAR SERGIO                               MXP000000000000000000000000000000000000000000000000000000000000000000000000000000
D11001596006720828540150964202401112024031100000004127870000NMACHADO ABITIA GABRIEL ALONSO                     MXP000000000000000000000000000000000000000000000000000000000000000000000000000000
D11001606006720828540150965202401112024031100000003760230000NBELTRAN ANGULO ANA AURORA                         MXP000000000000000000000000000000000000000000000000000000000000000000000000000000
D11001616006720828540150966202401112024031100000004509940000NLARA PEREZ SAUL ENRIQUE                           MXP000000000000000000000000000000000000000000000000000000000000000000000000000000
D11001626006720828540150967202401112024031100000006135360000NALARCON CERDA IVAN VICENTE                        MXP000000000000000000000000000000000000000000000000000000000000000000000000000000
D11001636006720828540150968202401112024031100000005847400000NCABRERA RUIZ ALONDRA VANESSA                      MXP000000000000000000000000000000000000000000000000000000000000000000000000000000
D11001646006720828540150969202401112024031100000011427110000NCASTRO BARRAZA JORGE                              MXP000000000000000000000000000000000000000000000000000000000000000000000000000000
D11001656006720828540150970202401112024031100000006135360000NCONTRERAS NUNEZ ELENA YESABEL                     MXP000000000000000000000000000000000000000000000000000000000000000000000000000000
D11001666006720828540150971202401112024031100000007922860000NCRESPO RINCONES ANGEL GUADALUPE                   MXP000000000000000000000000000000000000000000000000000000000000000000000000000000
D11001676006720828540150972202401112024031100000007751000000NGONZALEZ APOLINAR ELENA                           MXP000000000000000000000000000000000000000000000000000000000000000000000000000000
D11001686006720828540150973202401112024031100000005202560000NGUTIERREZ ZAZUETA TERESA DE JESUS                 MXP000000000000000000000000000000000000000000000000000000000000000000000000000000
D11001696006720828540150974202401112024031100000004258820000NLOPEZ RUELAS ILSE MARIA                           MXP000000000000000000000000000000000000000000000000000000000000000000000000000000
D11001706006720828540150975202401112024031100000021060980000NNATERAS CORONA ARTURO DANIEL                      MXP000000000000000000000000000000000000000000000000000000000000000000000000000000
D11001716006720828540150976202401112024031100000006033510000NPEREZ GOMEZ JUAN CARLOS                           MXP000000000000000000000000000000000000000000000000000000000000000000000000000000
D11001726006720828540150977202401112024031100000012288570000NRUBIO RUELAS BALDEMAR                             MXP000000000000000000000000000000000000000000000000000000000000000000000000000000
D11001736006720828540150978202401112024031100000007896630000NSALCEDO CASTREJON MACARIO ALBERTO                 MXP000000000000000000000000000000000000000000000000000000000000000000000000000000
D11001746006720828540150979202401112024031100000005480440000NLOPEZ TORRES FERMIN ANGEL                         MXP000000000000000000000000000000000000000000000000000000000000000000000000000000
D11001756006720828540150980202401112024031100000003773060000NGUTIERREZ VELAZQUEZ CYNTHIA KARINA                MXP000000000000000000000000000000000000000000000000000000000000000000000000000000
D11001766006720828540150981202401112024031100000003222140000NRAMOS CALDERA JESUS ALONSO                        MXP000000000000000000000000000000000000000000000000000000000000000000000000000000
D11001776006720828540150982202401112024031100000002710290000NANCONA GASTELUM GREASE LIZBETH                    MXP000000000000000000000000000000000000000000000000000000000000000000000000000000
D11001786006720828540150983202401112024031100000016373840000NCISNEROS DIAZ VICTOR ANTONIO                      MXP000000000000000000000000000000000000000000000000000000000000000000000000000000
D11001796006720828540150984202401112024031100000002898020000NESQUERRA ARTEAGA SELENE                           MXP000000000000000000000000000000000000000000000000000000000000000000000000000000
D11001806006720828540150985202401112024031100000002087670000NFELIX LOPEZ MIGUEL ANGEL                          MXP000000000000000000000000000000000000000000000000000000000000000000000000000000
D11001816006720828540150986202401112024031100000004195230000NLOPEZ PLATA EVELYN LIZETH                         MXP000000000000000000000000000000000000000000000000000000000000000000000000000000
D11001826006720828540150987202401112024031100000002898020000NMACHADO SANDOVAL KASSANDRA GUADALUPE              MXP000000000000000000000000000000000000000000000000000000000000000000000000000000
D11001836006720828540150988202401112024031100000002898020000NMORALES INZUNZA MARIBEL DE MARIA                  MXP000000000000000000000000000000000000000000000000000000000000000000000000000000
D11001846006720828540150989202401112024031100000004814680000NRANGEL FIGUEROA JULIO CESAR                       MXP000000000000000000000000000000000000000000000000000000000000000000000000000000
D11001856006720828540150990202401112024031100000002898020000NRENDON RODRIGUEZ MARISOL                          MXP000000000000000000000000000000000000000000000000000000000000000000000000000000
D11001866006720828540150991202401112024031100000003595150000NRODELO LOPEZ JATXIRY NICOLE                       MXP000000000000000000000000000000000000000000000000000000000000000000000000000000
D11001876006720828540150992202401112024031100000003000620000NSANCHEZ SALAS CARLOS                              MXP000000000000000000000000000000000000000000000000000000000000000000000000000000
D11001886006720828540150993202401112024031100000002898020000NURIBE BELTRAN CARLOS                              MXP000000000000000000000000000000000000000000000000000000000000000000000000000000
D11001896006720828540150994202401112024031100000003919440000NVILLARREAL MARTINEZ MIGUEL ANGEL                  MXP000000000000000000000000000000000000000000000000000000000000000000000000000000
D11001906006720828540150995202401112024031100000004238650000NPERAZA ZAZUETA JESUS ENDIR                        MXP000000000000000000000000000000000000000000000000000000000000000000000000000000
D11001916006720828540150996202401112024031100000003966060000NMARTINEZ AMARILLAS DEVANY BRITNEY                 MXP000000000000000000000000000000000000000000000000000000000000000000000000000000
D11001926006720828540150997202401112024031100000003595150000NKAWANO GASTELUM JESUS EISABURO                    MXP000000000000000000000000000000000000000000000000000000000000000000000000000000
D11001936006720828540150998202401112024031100000003632350000NOSUNA CASTANOS ANGELICA MARIA                     MXP000000000000000000000000000000000000000000000000000000000000000000000000000000
D11001946006720828540150999202401112024031100000005613680000NMENDOZA ORTIZ JESUS EMILIO                        MXP000000000000000000000000000000000000000000000000000000000000000000000000000000
D11001956006720828540151000202401112024031100000005613680000NSOBERANES ROJAS JESUS ALBERTO                     MXP000000000000000000000000000000000000000000000000000000000000000000000000000000
D11001966006720828540151001202401112024031100000003539600000NCAZAREZ GAMEZ RAMSES IGNACIO                      MXP000000000000000000000000000000000000000000000000000000000000000000000000000000
D11001976006720828540151002202401112024031100000012223360000NFLORES HERNANDEZ GABRIELA                         MXP000000000000000000000000000000000000000000000000000000000000000000000000000000
D11001986006720828540151003202401112024031100000008141880000NALVAREZ IBARRA ALEJANDRINA                        MXP000000000000000000000000000000000000000000000000000000000000000000000000000000
D11001996006720828540151004202401112024031100000008141880000NNAJERA LUNA ALVARO OMAR                           MXP000000000000000000000000000000000000000000000000000000000000000000000000000000
D11002006006720828540151005202401112024031100000009627140000NGUTIERREZ PONCE OMAR ANTONIO                      MXP000000000000000000000000000000000000000000000000000000000000000000000000000000
D11002016006720828540151006202401112024031100000003919440000NLOPEZ ROCHA MARIA DE LOS ANGELES                  MXP000000000000000000000000000000000000000000000000000000000000000000000000000000
D11002026006720828540151007202401112024031100000004479730000NMAGALLANES ZAZUETA JUAN CARLOS                    MXP000000000000000000000000000000000000000000000000000000000000000000000000000000
D11002036006720828540151008202401112024031100000004479730000NNUNEZ BELTRAN MARTIN OMAR                         MXP000000000000000000000000000000000000000000000000000000000000000000000000000000
D11002046006720828540151009202401112024031100000004258820000NPARRA VILLALBA MELINA                             MXP000000000000000000000000000000000000000000000000000000000000000000000000000000
D11002056006720828540151010202401112024031100000004539660000NJIMENEZ CORONEL ALEJANDRO                         MXP000000000000000000000000000000000000000000000000000000000000000000000000000000
D11002066006720828540151011202401112024031100000002190130000NCONTRERAS IBARRA JUAN MANUEL                      MXP000000000000000000000000000000000000000000000000000000000000000000000000000000
D11002076006720828540151012202401112024031100000007052100000NFERNANDEZ ZAZUETA VICTOR MANUEL                   MXP000000000000000000000000000000000000000000000000000000000000000000000000000000
D11002086006720828540151013202401112024031100000002752790000NLEYVA LOPEZ GERARDO                               MXP000000000000000000000000000000000000000000000000000000000000000000000000000000
D11002096006720828540151014202401112024031100000002663040000NORTIZ BOJORQUEZ OMAR JAVIER                       MXP000000000000000000000000000000000000000000000000000000000000000000000000000000
D11002106006720828540151015202401112024031100000006829800000NPALMA LUIS ANGEL                                  MXP000000000000000000000000000000000000000000000000000000000000000000000000000000
D11002116006720828540151016202401112024031100000002663040000NROBLES NEVAREZ BLANCA LUCIA                       MXP000000000000000000000000000000000000000000000000000000000000000000000000000000
D11002126006720828540151017202401112024031100000002663040000NSALAZAR FELIX ARDUL ALFONSO                       MXP000000000000000000000000000000000000000000000000000000000000000000000000000000
D11002136006720828540151018202401112024031100000001697670000NSALAZAR OLMEDA JOSE JUAN                          MXP000000000000000000000000000000000000000000000000000000000000000000000000000000
D11002146006720828540151019202401112024031100000004690410000NBARRANCAS URIARTE LOURDES GUADALUPE               MXP000000000000000000000000000000000000000000000000000000000000000000000000000000
D11002156006720828540151020202401112024031100000004009540000NCORREA GUERRERO MARTHA GABRIELA                   MXP000000000000000000000000000000000000000000000000000000000000000000000000000000
D11002166006720828540151021202401112024031100000007799260000NDORADO CAMACHO EDGAR                              MXP000000000000000000000000000000000000000000000000000000000000000000000000000000
D11002176006720828540151022202401112024031100000008100770000NGAXIOLA PAREDES NORMA ANGELICA                    MXP000000000000000000000000000000000000000000000000000000000000000000000000000000
D11002186006720828540151023202401112024031100000004544170000NOLIVAS RAMIREZ DIEGO ARTURO                       MXP000000000000000000000000000000000000000000000000000000000000000000000000000000
D11002196006720828540151024202401112024031100000012566630000NPALAZUELOS ERAMI KENIA MICHELLE                   MXP000000000000000000000000000000000000000000000000000000000000000000000000000000
D11002206006720828540151025202401112024031100000004134420000NUZETA MOLINA MARIA                                MXP000000000000000000000000000000000000000000000000000000000000000000000000000000
D11002216006720828540151026202401112024031100000004479730000NAVENDANO ROMERO JUAN PABLO                        MXP000000000000000000000000000000000000000000000000000000000000000000000000000000
D11002226006720828540151027202401112024031100000004479730000NBOJORQUEZ MONTOYA FAVIO                           MXP000000000000000000000000000000000000000000000000000000000000000000000000000000
D11002236006720828540151028202401112024031100000004792540000NCALDERON BURGUENO MARIO ALBERTO                   MXP000000000000000000000000000000000000000000000000000000000000000000000000000000
D11002246006720828540151029202401112024031100000005150040000NGARCIA FELIX JORGE                                MXP000000000000000000000000000000000000000000000000000000000000000000000000000000
D11002256006720828540151030202401112024031100000002855720000NLOPEZ MATZUMOTO KARLA EMIKO                       MXP000000000000000000000000000000000000000000000000000000000000000000000000000000
D11002266006720828540151031202401112024031100000005820350000NMENDOZA LOPEZ LUIS ROBERTO                        MXP000000000000000000000000000000000000000000000000000000000000000000000000000000
D11002276006720828540151032202401112024031100000004792540000NPETRIZ SOTO LUIS                                  MXP000000000000000000000000000000000000000000000000000000000000000000000000000000
D11002286006720828540151033202401112024031100000004792540000NROMAN PEREZ MARIA MAYANIN                         MXP000000000000000000000000000000000000000000000000000000000000000000000000000000
D11002296006720828540151034202401112024031100000005159130000NSANCHEZ MORENO JOSE OSWALDO                       MXP000000000000000000000000000000000000000000000000000000000000000000000000000000
D11002306006720828540151035202401112024031100000004479730000NSERRANO ZAMORA ARIEL IVAN                         MXP000000000000000000000000000000000000000000000000000000000000000000000000000000
D11002316006720828540151036202401112024031100000004479730000NVALENZUELA LUNA CARLOS                            MXP000000000000000000000000000000000000000000000000000000000000000000000000000000
D11002326006720828540151037202401112024031100000007489900000NASTORGA OSUNA JOSE IVAN                           MXP000000000000000000000000000000000000000000000000000000000000000000000000000000
D11002336006720828540151038202401112024031100000007534860000NIRIBE ROCHA DICNORA                               MXP000000000000000000000000000000000000000000000000000000000000000000000000000000
D11002346006720828540151039202401112024031100000004044120000NLABRADA DOMINGUEZ BRAYAN JESE                     MXP000000000000000000000000000000000000000000000000000000000000000000000000000000
D11002356006720828540151040202401112024031100000015298860000NLOPEZ ZAVALA SARA ISELA                           MXP000000000000000000000000000000000000000000000000000000000000000000000000000000
D11002366006720828540151041202401112024031100000007913710000NMARTINEZ REYES JOSE FRANCISCO                     MXP000000000000000000000000000000000000000000000000000000000000000000000000000000
D11002376006720828540151042202401112024031100000006879710000NMIRAMONTES RAMIREZ EVELIA ESTHER                  MXP000000000000000000000000000000000000000000000000000000000000000000000000000000
D11002386006720828540151043202401112024031100000001118300000NMORALES GAXIOLA KAREM PATRICIA                    MXP000000000000000000000000000000000000000000000000000000000000000000000000000000
D11002396006720828540151044202401112024031100000007753280000NRODRIGUEZ SANTIAGO YAMILETH                       MXP000000000000000000000000000000000000000000000000000000000000000000000000000000
D11002406006720828540151045202401112024031100000004059900000NARCE MELENDREZ EMIGDIO                            MXP000000000000000000000000000000000000000000000000000000000000000000000000000000
D11002416006720828540151046202401112024031100000004258820000NARREOLA HIGUERA GUADALUPE                         MXP000000000000000000000000000000000000000000000000000000000000000000000000000000
D11002426006720828540151047202401112024031100000005111810000NBELTRAN MORENO DULCE GUADALUPE                    MXP000000000000000000000000000000000000000000000000000000000000000000000000000000
D11002436006720828540151048202401112024031100000004258820000NGAXIOLA GARCIA ALEXIS                             MXP000000000000000000000000000000000000000000000000000000000000000000000000000000
D11002446006720828540151049202401112024031100000003919440000NLOPEZ MONZON DANIEL                               MXP000000000000000000000000000000000000000000000000000000000000000000000000000000
D11002456006720828540151050202401112024031100000004638680000NMARQUEZ BERNAL GUILLERMO FRANCISCO                MXP000000000000000000000000000000000000000000000000000000000000000000000000000000
D11002466006720828540151051202401112024031100000002844790000NMARTINEZ QUINTERO ARBE MINERVA                    MXP000000000000000000000000000000000000000000000000000000000000000000000000000000
D11002476006720828540151052202401112024031100000007303950000NMEDINA BELTRAN RUBEN                              MXP000000000000000000000000000000000000000000000000000000000000000000000000000000
D11002486006720828540151053202401112024031100000006580430000NMEJIA LIMAS NORMA ANGELICA                        MXP000000000000000000000000000000000000000000000000000000000000000000000000000000
D11002496006720828540151054202401112024031100000003822470000NMORALES SILVA JOSE EDGAR                          MXP000000000000000000000000000000000000000000000000000000000000000000000000000000
D11002506006720828540151055202401112024031100000004689670000NNUNEZ VALENZUELA CARLOS ALFREDO                   MXP000000000000000000000000000000000000000000000000000000000000000000000000000000
D11002516006720828540151056202401112024031100000005101920000NORTIZ PEREGRINA MARIA DE LOS ANGELES              MXP000000000000000000000000000000000000000000000000000000000000000000000000000000
D11002526006720828540151057202401112024031100000004044120000NVILLA MEDINA ILDEFONSO                            MXP000000000000000000000000000000000000000000000000000000000000000000000000000000
D11002536006720828540151058202401112024031100000008148120000NGAMEZ RIVERA LUZ NEREIDA                          MXP000000000000000000000000000000000000000000000000000000000000000000000000000000
D11002546006720828540151059202401112024031100000010320240000NRODRIGUEZ ESPINOZA ADELINA                        MXP000000000000000000000000000000000000000000000000000000000000000000000000000000
D11002556006720828540151060202401112024031100000008582800000NACOSTA BERRELLEZA ERIK MICHEL                     MXP000000000000000000000000000000000000000000000000000000000000000000000000000000
D11002566006720828540151061202401112024031100000004707580000NAGUILAR VILLARREAL XOCHILTH GRICELDA              MXP000000000000000000000000000000000000000000000000000000000000000000000000000000
D11002576006720828540151062202401112024031100000008717490000NBON VILLARREAL TANIA JUDITH                       MXP000000000000000000000000000000000000000000000000000000000000000000000000000000
D11002586006720828540151063202401112024031100000006633400000NBUELNA LOPEZ ROSABEL                              MXP000000000000000000000000000000000000000000000000000000000000000000000000000000
D11002596006720828540151064202401112024031100000002323850000NCAZARES SOLORIO DIANA PAOLA                       MXP000000000000000000000000000000000000000000000000000000000000000000000000000000
D11002606006720828540151065202401112024031100000005031420000NDE LOS REYES ESPARZA SUSANA                       MXP000000000000000000000000000000000000000000000000000000000000000000000000000000
D11002616006720828540151066202401112024031100000004018600000NGOMEZ MORENO JAIME                                MXP000000000000000000000000000000000000000000000000000000000000000000000000000000
D11002626006720828540151067202401112024031100000004692880000NLOPEZ BOJORQUEZ FRIDA JHASIVE                     MXP000000000000000000000000000000000000000000000000000000000000000000000000000000
D11002636006720828540151068202401112024031100000007052380000NLOPEZ MURILLO ADRIANA                             MXP000000000000000000000000000000000000000000000000000000000000000000000000000000
D11002646006720828540151069202401112024031100000004044120000NMANRIQUEZ ACOSTA ARIELA DE JESUS                  MXP000000000000000000000000000000000000000000000000000000000000000000000000000000
D11002656006720828540151070202401112024031100000004031630000NMENDOZA VIELMAS OSCAR                             MXP000000000000000000000000000000000000000000000000000000000000000000000000000000
D11002666006720828540151071202401112024031100000000491430000NNEVAREZ CABANILLAS LAFIRO                         MXP000000000000000000000000000000000000000000000000000000000000000000000000000000
D11002676006720828540151072202401112024031100000006496210000NVALENZUELA LOPEZ ITZEL GUADALUPE                  MXP000000000000000000000000000000000000000000000000000000000000000000000000000000
D11002686006720828540151073202401112024031100000003558720000NVILLEGAS VERDUZCO MIRNA ARACELI                   MXP000000000000000000000000000000000000000000000000000000000000000000000000000000
D11002696006720828540151074202401112024031100000006264190000NIZABAL GASTELUM OSCAR FERNANDO                    MXP000000000000000000000000000000000000000000000000000000000000000000000000000000
D11002706006720828540151075202401112024031100000003966060000NMONTANO SANCHEZ CECILIA RENEE                     MXP000000000000000000000000000000000000000000000000000000000000000000000000000000
D11002716006720828540151076202401112024031100000004638840000NAISPURO BELTRAN BARTOLO                           MXP000000000000000000000000000000000000000000000000000000000000000000000000000000
D11002726006720828540151077202401112024031100000012318120000NBARRAZA FELIX JAIME                               MXP000000000000000000000000000000000000000000000000000000000000000000000000000000
D11002736006720828540151078202401112024031100000006778950000NBOJORQUEZ GALVEZ AURELIO                          MXP000000000000000000000000000000000000000000000000000000000000000000000000000000
D11002746006720828540151079202401112024031100000009711890000NCARDENAS CARRASCO BRYAN MANUEL                    MXP000000000000000000000000000000000000000000000000000000000000000000000000000000
D11002756006720828540151080202401112024031100000005031140000NGONZALEZ ESTRADA ADELA                            MXP000000000000000000000000000000000000000000000000000000000000000000000000000000
D11002766006720828540151081202401112024031100000009656440000NSANCHEZ VERDUGO MARIA DE LOS ANGELES              MXP000000000000000000000000000000000000000000000000000000000000000000000000000000
D11002776006720828540151082202401112024031100000007076610000NVALDEZ CASTRO JUPITER                             MXP000000000000000000000000000000000000000000000000000000000000000000000000000000
D11002786006720828540151083202401112024031100000007052100000NLEAL JIMENEZ CLAUDIA                              MXP000000000000000000000000000000000000000000000000000000000000000000000000000000
D11002796006720828540151084202401112024031100000009450630000NPADILLA PADILLA ALBERTO                           MXP000000000000000000000000000000000000000000000000000000000000000000000000000000
D11002806006720828540151085202401112024031100000006720730000NREYES ZAMORA FRANCISCA                            MXP000000000000000000000000000000000000000000000000000000000000000000000000000000
D11002816006720828540151086202401112024031100000005606000000NCASTRO SANTOS ITZEL BRISEYDA                      MXP000000000000000000000000000000000000000000000000000000000000000000000000000000
D11002826006720828540151087202401112024031100000008198340000NLIZARRAGA GARCIA CARLOS ALBERTO                   MXP000000000000000000000000000000000000000000000000000000000000000000000000000000
D11002836006720828540151088202401112024031100000009012620000NMEDINA GUEVARA KARLA BEATRIZ                      MXP000000000000000000000000000000000000000000000000000000000000000000000000000000
D11002846006720828540151089202401112024031100000008524670000NMEDINA LIMON MARCIA JANETH                        MXP000000000000000000000000000000000000000000000000000000000000000000000000000000
D11002856006720828540151090202401112024031100000004479730000NMILLAN MORALES EDGAR OCTAVIO                      MXP000000000000000000000000000000000000000000000000000000000000000000000000000000
D11002866006720828540151091202401112024031100000004080900000NSALDANA ESPINOZA LIZBETH                          MXP000000000000000000000000000000000000000000000000000000000000000000000000000000
D11002876006720828540151092202401112024031100000004258820000NSANZ MORALES FILIBERTO                            MXP000000000000000000000000000000000000000000000000000000000000000000000000000000
D11002886006720828540151093202401112024031100000011560460000NCARREON RUELAS ISMAEL                             MXP000000000000000000000000000000000000000000000000000000000000000000000000000000
D11002896006720828540151094202401112024031100000005848720000NSANCHEZ IBARRA ISMAEL                             MXP000000000000000000000000000000000000000000000000000000000000000000000000000000
D11002906006720828540151095202401112024031100000005778820000NFRANCO URIAS RAMSES ADRIAN                        MXP000000000000000000000000000000000000000000000000000000000000000000000000000000
D11002916006720828540151096202401112024031100000005111810000NBELTRAN COTA RICARDO                              MXP000000000000000000000000000000000000000000000000000000000000000000000000000000
D11002926006720828540151097202401112024031100000017149080000NCHACON SALDIVAR LUIS ALBERTO                      MXP000000000000000000000000000000000000000000000000000000000000000000000000000000
D11002936006720828540151098202401112024031100000006542540000NOSUNA MONTANO SABINO                              MXP000000000000000000000000000000000000000000000000000000000000000000000000000000
D11002946006720828540151099202401112024031100000003959740000NACUNA ORTEGA NADIA SARAHI                         MXP000000000000000000000000000000000000000000000000000000000000000000000000000000
D11002956006720828540151100202401112024031100000004692880000NRAMIREZ VENEGAS WENDY JANETH                      MXP000000000000000000000000000000000000000000000000000000000000000000000000000000
D11002966006720828540151101202401112024031100000001457980000NBENITEZ GONZALEZ MANUEL OCTAVIO                   MXP000000000000000000000000000000000000000000000000000000000000000000000000000000
D11002976006720828540151102202401112024031100000004479730000NCASTILLO FELIX JUAN DE LA CRUZ                    MXP000000000000000000000000000000000000000000000000000000000000000000000000000000
D11002986006720828540151103202401112024031100000002752500000NFLORES QUIROZ CARLA NOHEMI                        MXP000000000000000000000000000000000000000000000000000000000000000000000000000000
D11002996006720828540151104202401112024031100000001813660000NFRANCO TORRES RAMON ENRIQUE                       MXP000000000000000000000000000000000000000000000000000000000000000000000000000000
D11003006006720828540151105202401112024031100000001181030000NMORALES HERNANDEZ CARLOS RAMON                    MXP000000000000000000000000000000000000000000000000000000000000000000000000000000
D11003016006720828540151106202401112024031100000006450680000NSALAS PARTIDA ANA PAOLA                           MXP000000000000000000000000000000000000000000000000000000000000000000000000000000
D11003026006720828540151107202401112024031100000005725790000NAGUILAR ALVARADO FELIPE                           MXP000000000000000000000000000000000000000000000000000000000000000000000000000000
D11003036006720828540151108202401112024031100000009573780000NARMENTA DE LA ROCHA MARIA ELENA                   MXP000000000000000000000000000000000000000000000000000000000000000000000000000000
D11003046006720828540151109202401112024031100000005405970000NFLORES RODRIGUEZ MARIA ANTONIA                    MXP000000000000000000000000000000000000000000000000000000000000000000000000000000
D11003056006720828540151110202401112024031100000011739150000NGALVEZ VALENZUELA LUIS ABEL                       MXP000000000000000000000000000000000000000000000000000000000000000000000000000000
D11003066006720828540151111202401112024031100000003653290000NGASTELUM AGUILAR JOSE FERNANDO                    MXP000000000000000000000000000000000000000000000000000000000000000000000000000000
D11003076006720828540151112202401112024031100000012021940000NGASTELUM BENITEZ CRUZ GABRIELA                    MXP000000000000000000000000000000000000000000000000000000000000000000000000000000
D11003086006720828540151113202401112024031100000005908820000NGONZALEZ REGALADO JESUS HERIBERTO                 MXP000000000000000000000000000000000000000000000000000000000000000000000000000000
D11003096006720828540151114202401112024031100000005963520000NLIZARRAGA RIOS NIEVES VIOLETA                     MXP000000000000000000000000000000000000000000000000000000000000000000000000000000
D11003106006720828540151115202401112024031100000005451090000NMEDINA INZUNZA MARIA LETICIA                      MXP000000000000000000000000000000000000000000000000000000000000000000000000000000
D11003116006720828540151116202401112024031100000005124210000NQUEVEDO GARCIA SILVIA                             MXP000000000000000000000000000000000000000000000000000000000000000000000000000000
D11003126006720828540151117202401112024031100000018184230000NRAMOS TORRES JESUS NICOLAS                        MXP000000000000000000000000000000000000000000000000000000000000000000000000000000
D11003136006720828540151118202401112024031100000004004920000NESPINOZA OLGUIN CARLOS GILBERTO                   MXP000000000000000000000000000000000000000000000000000000000000000000000000000000
D11003146006720828540151119202401112024031100000003072770000NAGUIRRE OSUNA MAYRA GUADALUPE                     MXP000000000000000000000000000000000000000000000000000000000000000000000000000000
D11003156006720828540151120202401112024031100000005041680000NCEDANO SANCHEZ MIGUEL ALEXIS                      MXP000000000000000000000000000000000000000000000000000000000000000000000000000000
D11003166006720828540151121202401112024031100000002938620000NESTOLANO BARREDA VLADIMIR JAIRCINIO               MXP000000000000000000000000000000000000000000000000000000000000000000000000000000
D11003176006720828540151122202401112024031100000008580020000NFELIX FLORES XAVIER ERNESTO                       MXP000000000000000000000000000000000000000000000000000000000000000000000000000000
D11003186006720828540151123202401112024031100000001580100000NFLORES OCHOA VICTOR ALFONSO                       MXP000000000000000000000000000000000000000000000000000000000000000000000000000000
D11003196006720828540151124202401112024031100000006036430000NIBARRA IBARRA PEDRO LUIS                          MXP000000000000000000000000000000000000000000000000000000000000000000000000000000
D11003206006720828540151125202401112024031100000013576090000NIZAGUIRRE CORRAL MARIBEL                          MXP000000000000000000000000000000000000000000000000000000000000000000000000000000
D11003216006720828540151126202401112024031100000004044120000NLOAIZA TIRADO CYARA ANAIS                         MXP000000000000000000000000000000000000000000000000000000000000000000000000000000
D11003226006720828540151127202401112024031100000004258820000NMILLAN OCHOA OSCAR EDUARDO                        MXP000000000000000000000000000000000000000000000000000000000000000000000000000000
D11003236006720828540151128202401112024031100000000690150000NNEVAREZ ARMENTA JOSE IVAN                         MXP000000000000000000000000000000000000000000000000000000000000000000000000000000
D11003246006720828540151129202401112024031100000005797330000NOSUNA CASTRO SOCRATES ASCARIS NOEL                MXP000000000000000000000000000000000000000000000000000000000000000000000000000000
D11003256006720828540151130202401112024031100000005797330000NQUINTERO MARTINEZ MAOMAR                          MXP000000000000000000000000000000000000000000000000000000000000000000000000000000
D11003266006720828540151131202401112024031100000004056320000NFLORES LINARES EDITH ELENA                        MXP000000000000000000000000000000000000000000000000000000000000000000000000000000
D11003276006720828540151132202401112024031100000006317620000NMARTINEZ TIRADO VILMA DORA                        MXP000000000000000000000000000000000000000000000000000000000000000000000000000000
D11003286006720828540151133202401112024031100000003595150000NBUSTAMANTE CHAVEZ SERGIO RAFAEL                   MXP000000000000000000000000000000000000000000000000000000000000000000000000000000
D11003296006720828540151134202401112024031100000003293810000NGASTELUM MURILLO RIGOBERTO                        MXP000000000000000000000000000000000000000000000000000000000000000000000000000000
D11003306006720828540151135202401112024031100000004059900000NAVENDANO ZAZUETA FILIBERTO                        MXP000000000000000000000000000000000000000000000000000000000000000000000000000000
D11003316006720828540151136202401112024031100000005004580000NBAYLISS AYALA LETICIA SELENE                      MXP000000000000000000000000000000000000000000000000000000000000000000000000000000
D11003326006720828540151137202401112024031100000005971850000NCAMACHO RAMIREZ ERNESTO YUSEF                     MXP000000000000000000000000000000000000000000000000000000000000000000000000000000
D11003336006720828540151138202401112024031100000015058530000NNAVARRETE CUEVAS AURELIO ROY                      MXP000000000000000000000000000000000000000000000000000000000000000000000000000000
D11003346006720828540151139202401112024031100000007186290000NRODRIGUEZ SANCHEZ MARCO ANTONIO                   MXP000000000000000000000000000000000000000000000000000000000000000000000000000000
D11003356006720828540151140202401112024031100000008580020000NAGUILAR ZAZUETA ROCIO YOLANDA                     MXP000000000000000000000000000000000000000000000000000000000000000000000000000000
D11003366006720828540151141202401112024031100000004479730000NDE LA CRUZ MENDOZA VIANKA GUADALUPE               MXP000000000000000000000000000000000000000000000000000000000000000000000000000000
D11003376006720828540151142202401112024031100000002769430000NRIVERA CARDENAS ALEJANDRO                         MXP000000000000000000000000000000000000000000000000000000000000000000000000000000
D11003386006720828540151143202401112024031100000004015140000NABUNDIS LOPEZ JESUS HUMBERTO                      MXP000000000000000000000000000000000000000000000000000000000000000000000000000000
D11003396006720828540151144202401112024031100000003111600000NAGUILAR MARIN MARIA LEONOR                        MXP000000000000000000000000000000000000000000000000000000000000000000000000000000
D11003406006720828540151145202401112024031100000031581060000NALMANZA AVILES MARCO ANTONIO                      MXP000000000000000000000000000000000000000000000000000000000000000000000000000000
D11003416006720828540151146202401112024031100000012100220000NANAYA CASTRO HERNAN EDUARDO                       MXP000000000000000000000000000000000000000000000000000000000000000000000000000000
D11003426006720828540151147202401112024031100000000775430000NARMENTA ANGULO ANABEL                             MXP000000000000000000000000000000000000000000000000000000000000000000000000000000
D11003436006720828540151148202401112024031100000007127660000NARREDONDO ELENES MIGUEL ANGEL                     MXP000000000000000000000000000000000000000000000000000000000000000000000000000000
D11003446006720828540151149202401112024031100000003111600000NAVALOS CHONG MARIA OLGA                           MXP000000000000000000000000000000000000000000000000000000000000000000000000000000
D11003456006720828540151150202401112024031100000006272770000NAYALA HERNANDEZ NORA PATRICIA                     MXP000000000000000000000000000000000000000000000000000000000000000000000000000000
D11003466006720828540151151202401112024031100000003376080000NAYALA MARTINEZ MARIA DE JESUS                     MXP000000000000000000000000000000000000000000000000000000000000000000000000000000
D11003476006720828540151152202401112024031100000001417590000NBACASEGUA MOROYOQUI RAFAEL                        MXP000000000000000000000000000000000000000000000000000000000000000000000000000000
D11003486006720828540151153202401112024031100000003806700000NBARRAZA BELTRAN ALICIA                            MXP000000000000000000000000000000000000000000000000000000000000000000000000000000
D11003496006720828540151154202401112024031100000002730430000NBARRERAS REYNAGA RIGOBERTO                        MXP000000000000000000000000000000000000000000000000000000000000000000000000000000
D11003506006720828540151155202401112024031100000002357480000NBASTIDAS VELAZQUEZ JORGE LUIS                     MXP000000000000000000000000000000000000000000000000000000000000000000000000000000
D11003516006720828540151156202401112024031100000004267040000NBELTRAN HEREDIA DEICY MARISELA                    MXP000000000000000000000000000000000000000000000000000000000000000000000000000000
D11003526006720828540151157202401112024031100000003111600000NBELTRAN OJEDA RUTH NOEMI DEL PILAR                MXP000000000000000000000000000000000000000000000000000000000000000000000000000000
D11003536006720828540151158202401112024031100000005436270000NBERNAL SOTO ANA ELISA                             MXP000000000000000000000000000000000000000000000000000000000000000000000000000000
D11003546006720828540151159202401112024031100000010321370000NBOJORQUEZ PEREA OSCAR JAVIER                      MXP000000000000000000000000000000000000000000000000000000000000000000000000000000
D11003556006720828540151160202401112024031100000005805090000NBONIFACIO GARCIA ADELA                            MXP000000000000000000000000000000000000000000000000000000000000000000000000000000
D11003566006720828540151161202401112024031100000012736570000NBURGOS ALVAREZ GRECIA                             MXP000000000000000000000000000000000000000000000000000000000000000000000000000000
D11003576006720828540151162202401112024031100000003111600000NBURGOS VIZCARRA PAULA                             MXP000000000000000000000000000000000000000000000000000000000000000000000000000000
D11003586006720828540151163202401112024031100000009322250000NCACHO SALAZAR ERIKA JOSEFINA                      MXP000000000000000000000000000000000000000000000000000000000000000000000000000000
D11003596006720828540151164202401112024031100000001867050000NCARRILLO MORA JESUS OCTAVIO                       MXP000000000000000000000000000000000000000000000000000000000000000000000000000000
D11003606006720828540151165202401112024031100000004267040000NCARRILLO TORRES JOSEFINA                          MXP000000000000000000000000000000000000000000000000000000000000000000000000000000
D11003616006720828540151166202401112024031100000004165520000NCASTANEDA RIOS EVERARDO                           MXP000000000000000000000000000000000000000000000000000000000000000000000000000000
D11003626006720828540151167202401112024031100000007006000000NCASTANEDA VALENZUELA FLOR MARIA                   MXP000000000000000000000000000000000000000000000000000000000000000000000000000000
D11003636006720828540151168202401112024031100000009019720000NCASTRO GONZALEZ DANIEL                            MXP000000000000000000000000000000000000000000000000000000000000000000000000000000
D11003646006720828540151169202401112024031100000001987890000NCASTRO LOPEZ MICHELLE JHOANA                      MXP000000000000000000000000000000000000000000000000000000000000000000000000000000
D11003656006720828540151170202401112024031100000001987890000NCASTRO MEDINA ARANZA                              MXP000000000000000000000000000000000000000000000000000000000000000000000000000000
D11003666006720828540151171202401112024031100000001987890000NCASTRO MEDINA MELANIE                             MXP000000000000000000000000000000000000000000000000000000000000000000000000000000
D11003676006720828540151172202401112024031100000002274480000NCASTRO SOTO ELIZABETH                             MXP000000000000000000000000000000000000000000000000000000000000000000000000000000
D11003686006720828540151173202401112024031100000003376080000NCEBREROS MEZA MARIA DEL CARMEN                    MXP000000000000000000000000000000000000000000000000000000000000000000000000000000
D11003696006720828540151174202401112024031100000002274480000NCERRILLO CASTRO ARACELI ELIZABETH                 MXP000000000000000000000000000000000000000000000000000000000000000000000000000000
D11003706006720828540151175202401112024031100000002274480000NCERRILLO CASTRO XIOMARA GUADALUPE                 MXP000000000000000000000000000000000000000000000000000000000000000000000000000000
D11003716006720828540151176202401112024031100000007582280000NCERVANTES VALENZUELA ODILON                       MXP000000000000000000000000000000000000000000000000000000000000000000000000000000
D11003726006720828540151177202401112024031100000011511170000NCORTEZ CASTRO MARCO EDGAR                         MXP000000000000000000000000000000000000000000000000000000000000000000000000000000
D11003736006720828540151178202401112024031100000002227010000NDELGADO CORONA LUZ ELENA                          MXP000000000000000000000000000000000000000000000000000000000000000000000000000000
D11003746006720828540151179202401112024031100000007947030000NDELGADO LOPEZ HECTOR GUADALUPE                    MXP000000000000000000000000000000000000000000000000000000000000000000000000000000
D11003756006720828540151180202401112024031100000010800680000NDELGADO ORTIZ EMIGDIA                             MXP000000000000000000000000000000000000000000000000000000000000000000000000000000
D11003766006720828540151181202401112024031100000003055400000NDOMINGUEZ SALAZAR JUANA                           MXP000000000000000000000000000000000000000000000000000000000000000000000000000000
D11003776006720828540151182202401112024031100000012230220000NFLORES CASTRO JESUS ALBERTO                       MXP000000000000000000000000000000000000000000000000000000000000000000000000000000
D11003786006720828540151183202401112024031100000003538710000NFLORES GONZALEZ PAOLA LETICIA                     MXP000000000000000000000000000000000000000000000000000000000000000000000000000000
D11003796006720828540151184202401112024031100000003249720000NFLORES MORENO MARIA MAGDALENA                     MXP000000000000000000000000000000000000000000000000000000000000000000000000000000
D11003806006720828540151185202401112024031100000002623860000NFLORES SALAZAR MAURA                              MXP000000000000000000000000000000000000000000000000000000000000000000000000000000
D11003816006720828540151186202401112024031100000003376080000NGAMEZ GASTELUM GRACIELA                           MXP000000000000000000000000000000000000000000000000000000000000000000000000000000
D11003826006720828540151187202401112024031100000006532760000NGAMEZ MALDONADO MARIA EMILIA                      MXP000000000000000000000000000000000000000000000000000000000000000000000000000000
D11003836006720828540151188202401112024031100000003538710000NGARCIA FLORES JORGE RAUL                          MXP000000000000000000000000000000000000000000000000000000000000000000000000000000
D11003846006720828540151189202401112024031100000005469770000NGARCIA PEREA LUNA ISABELLA                        MXP000000000000000000000000000000000000000000000000000000000000000000000000000000
D11003856006720828540151190202401112024031100000003376080000NGONZALEZ ARENAS MA CRUZ ESTHER                    MXP000000000000000000000000000000000000000000000000000000000000000000000000000000
D11003866006720828540151191202401112024031100000003110360000NGONZALEZ MARTINEZ GUILLERMO                       MXP000000000000000000000000000000000000000000000000000000000000000000000000000000
D11003876006720828540151192202401112024031100000009504990000NGUZMAN CHAMORRO JOEL                              MXP000000000000000000000000000000000000000000000000000000000000000000000000000000
D11003886006720828540151193202401112024031100000007492010000NGUZMAN MEDINA DIANA NAYLEA                        MXP000000000000000000000000000000000000000000000000000000000000000000000000000000
D11003896006720828540151194202401112024031100000012520440000NHOLGUIN ESQUIVEL MARIA ELENA                      MXP000000000000000000000000000000000000000000000000000000000000000000000000000000
D11003906006720828540151195202401112024031100000007974950000NIBARRA HIGUERA MARIA DEL ROSARIO                  MXP000000000000000000000000000000000000000000000000000000000000000000000000000000
D11003916006720828540151196202401112024031100000001362900000NLAFARGA MARTINEZ ALEJANDRO DEL PIERO              MXP000000000000000000000000000000000000000000000000000000000000000000000000000000
D11003926006720828540151197202401112024031100000001362900000NLAFARGA MARTINEZ ALEXA                            MXP000000000000000000000000000000000000000000000000000000000000000000000000000000
D11003936006720828540151198202401112024031100000047302350000NLEON JOSE ANGEL                                   MXP000000000000000000000000000000000000000000000000000000000000000000000000000000
D11003946006720828540151199202401112024031100000004727070000NLIZARRAGA LANDEROS ENRIQUE                        MXP000000000000000000000000000000000000000000000000000000000000000000000000000000
D11003956006720828540151200202401112024031100000008821160000NLOBILLO GARCIA RAMON                              MXP000000000000000000000000000000000000000000000000000000000000000000000000000000
D11003966006720828540151201202401112024031100000004238280000NLOPEZ BEJARANO MARIA MARISELA                     MXP000000000000000000000000000000000000000000000000000000000000000000000000000000
D11003976006720828540151202202401112024031100000001466010000NLOPEZ CARRERA MARTIN                              MXP000000000000000000000000000000000000000000000000000000000000000000000000000000
D11003986006720828540151203202401112024031100000002305550000NLOPEZ CASTILLO GLORIA AIDEE                       MXP000000000000000000000000000000000000000000000000000000000000000000000000000000
D11003996006720828540151204202401112024031100000010186080000NLOPEZ FELIX MARIA                                 MXP000000000000000000000000000000000000000000000000000000000000000000000000000000
D11004006006720828540151205202401112024031100000011513410000NLOPEZ FUENTES DULCE MARIA                         MXP000000000000000000000000000000000000000000000000000000000000000000000000000000
D11004016006720828540151206202401112024031100000003421920000NLOPEZ MENDIVIL DAMASO                             MXP000000000000000000000000000000000000000000000000000000000000000000000000000000
D11004026006720828540151207202401112024031100000002219440000NLOPEZ MONTES EVA DELIA                            MXP000000000000000000000000000000000000000000000000000000000000000000000000000000
D11004036006720828540151208202401112024031100000000979290000NLOPEZ RODRIGUEZ JOSE GUADALUPE                    MXP000000000000000000000000000000000000000000000000000000000000000000000000000000
D11004046006720828540151209202401112024031100000017360000000NAPODACA LUGO JORGE ANTONIO                        MXP000000000000000000000000000000000000000000000000000000000000000000000000000000
D11004056006720828540151210202401112024031100000017360000000NAPODACA LUGO LUIS MARIO                           MXP000000000000000000000000000000000000000000000000000000000000000000000000000000
D11004066006720828540151211202401112024031100000008680000000NAPODACA ROMERO JORGE MARIO                        MXP000000000000000000000000000000000000000000000000000000000000000000000000000000
D11004076006720828540151212202401112024031100000003160000000NMARIN BELTRAN NANCY CITLALY                       MXP000000000000000000000000000000000000000000000000000000000000000000000000000000
D11004086006720828540151213202401112024031100000000716980000NMARISCAL LOPEZ MARGARITA                          MXP000000000000000000000000000000000000000000000000000000000000000000000000000000
D11004096006720828540151214202401112024031100000007494680000NMARTINEZ BARRAZA MARTHA PATRICIA                  MXP000000000000000000000000000000000000000000000000000000000000000000000000000000
D11004106006720828540151215202401112024031100000005263920000NMARTINEZ BOCANEGRA MA GENOVEVA                    MXP000000000000000000000000000000000000000000000000000000000000000000000000000000
D11004116006720828540151216202401112024031100000001362900000NMARTINEZ HERMOSILLO ERIKA JANETH                  MXP000000000000000000000000000000000000000000000000000000000000000000000000000000
D11004126006720828540151217202401112024031100000004277720000NMATA TORRES FERNANDA                              MXP000000000000000000000000000000000000000000000000000000000000000000000000000000
D11004136006720828540151218202401112024031100000012336000000NMEDINA RIOS KEVIN GERARDO                         MXP000000000000000000000000000000000000000000000000000000000000000000000000000000
D11004146006720828540151219202401112024031100000001987890000NMEDINA RODRIGUEZ ALEXIS ABIGAIL                   MXP000000000000000000000000000000000000000000000000000000000000000000000000000000
D11004156006720828540151220202401112024031100000003421920000NMENDIVIL BELTRAN FRANCISCA                        MXP000000000000000000000000000000000000000000000000000000000000000000000000000000
D11004166006720828540151221202401112024031100000003160000000NMENDOZA MARIN CESAR ALBERTO                       MXP000000000000000000000000000000000000000000000000000000000000000000000000000000
D11004176006720828540151222202401112024031100000003477150000NMENDOZA RAMIREZ JAIME                             MXP000000000000000000000000000000000000000000000000000000000000000000000000000000
D11004186006720828540151223202401112024031100000011008100000NMEZA GARCIA NORMA SILVIA                          MXP000000000000000000000000000000000000000000000000000000000000000000000000000000
D11004196006720828540151224202401112024031100000005620430000NMILLAN SANDOVAL BLANCA ESTHELA                    MXP000000000000000000000000000000000000000000000000000000000000000000000000000000
D11004206006720828540151225202401112024031100000005598050000NMORALES VALDEZ ELEIDA                             MXP000000000000000000000000000000000000000000000000000000000000000000000000000000
D11004216006720828540151226202401112024031100000012662290000NMORANO SEGURA LUIS GUSTAVO                        MXP000000000000000000000000000000000000000000000000000000000000000000000000000000
D11004226006720828540151227202401112024031100000003376080000NMORGA AISPURO MARIA DE LA PAZ                     MXP000000000000000000000000000000000000000000000000000000000000000000000000000000
D11004236006720828540151228202401112024031100000009193010000NMURILLO GUEVARA JESUS ALBERTO                     MXP000000000000000000000000000000000000000000000000000000000000000000000000000000
D11004246006720828540151229202401112024031100000002144420000NNAVARRO ROSAS ROSA GUADALUPE                      MXP000000000000000000000000000000000000000000000000000000000000000000000000000000
D11004256006720828540151230202401112024031100000011511170000NNEVAREZ ACOSTA MARIO ANTONIO                      MXP000000000000000000000000000000000000000000000000000000000000000000000000000000
D11004266006720828540151231202401112024031100000007943690000NNIEBLA CAMACHO ISABEL ESPERANZA                   MXP000000000000000000000000000000000000000000000000000000000000000000000000000000
D11004276006720828540151232202401112024031100000011207600000NNIEBLAS QUINONEZ IRMA CANDELARIA                  MXP000000000000000000000000000000000000000000000000000000000000000000000000000000
D11004286006720828540151233202401112024031100000005120340000NORPINEDA FIERRO ANGELICA MARIA                    MXP000000000000000000000000000000000000000000000000000000000000000000000000000000
D11004296006720828540151234202401112024031100000013116770000NORTEGA VARELA RICARDO                             MXP000000000000000000000000000000000000000000000000000000000000000000000000000000
D11004306006720828540151235202401112024031100000008584110000NORTIZ MILLAN ULISES                               MXP000000000000000000000000000000000000000000000000000000000000000000000000000000
D11004316006720828540151236202401112024031100000007955670000NPADILLA RIOS EVA                                  MXP000000000000000000000000000000000000000000000000000000000000000000000000000000
D11004326006720828540151237202401112024031100000007551800000NPARRA NEVAREZ GUADALUPE                           MXP000000000000000000000000000000000000000000000000000000000000000000000000000000
D11004336006720828540151238202401112024031100000005813190000NPEREZ FELIX ANA MARISELA                          MXP000000000000000000000000000000000000000000000000000000000000000000000000000000
D11004346006720828540151239202401112024031100000000716980000NPINA CORONA ANGELA LETICIA                        MXP000000000000000000000000000000000000000000000000000000000000000000000000000000
D11004356006720828540151240202401112024031100000000716980000NPINA CORONA LOURDES GUADALUPE                     MXP000000000000000000000000000000000000000000000000000000000000000000000000000000
D11004366006720828540151241202401112024031100000000716980000NPINA CORONA MARIA MAGALY                          MXP000000000000000000000000000000000000000000000000000000000000000000000000000000
D11004376006720828540151242202401112024031100000000716980000NPINA MARISCAL NESTOR DANIEL                       MXP000000000000000000000000000000000000000000000000000000000000000000000000000000
D11004386006720828540151243202401112024031100000002836420000NRAMIREZ GARCIA ISRAEL                             MXP000000000000000000000000000000000000000000000000000000000000000000000000000000
D11004396006720828540151244202401112024031100000005813190000NRIVAS PEREZ ANA JUDITH                            MXP000000000000000000000000000000000000000000000000000000000000000000000000000000
D11004406006720828540151245202401112024031100000002434970000NRODRIGUEZ ANAYA AMERICA MICHELLE                  MXP000000000000000000000000000000000000000000000000000000000000000000000000000000
D11004416006720828540151246202401112024031100000005254500000NROJAS FLORES DIONICIO                             MXP000000000000000000000000000000000000000000000000000000000000000000000000000000
D11004426006720828540151247202401112024031100000005129190000NROMERO ROCHA MA ELODIA                            MXP000000000000000000000000000000000000000000000000000000000000000000000000000000
D11004436006720828540151248202401112024031100000097743360000NROLDAN RAMOS CONSUELO                             MXP000000000000000000000000000000000000000000000000000000000000000000000000000000
D11004446006720828540151249202401112024031100000007778450000NRUIZ VELAZQUEZ ENEDINA                            MXP000000000000000000000000000000000000000000000000000000000000000000000000000000
D11004456006720828540151250202401112024031100000004332770000NSALAZAR TINOCO KAREN DAYANA                       MXP000000000000000000000000000000000000000000000000000000000000000000000000000000
D11004466006720828540151251202401112024031100000005598050000NSALOMON MORALES PAULETTE ALEXANDRA                MXP000000000000000000000000000000000000000000000000000000000000000000000000000000
D11004476006720828540151252202401112024031100000006626380000NSANABIA RIOS MAYRA                                MXP000000000000000000000000000000000000000000000000000000000000000000000000000000
D11004486006720828540151253202401112024031100000009143680000NSANDOVAL RIOS MARIO EDUARDO                       MXP000000000000000000000000000000000000000000000000000000000000000000000000000000
D11004496006720828540151254202401112024031100000008634500000NSAUCEDO QUIROS MA AGAPITA                         MXP000000000000000000000000000000000000000000000000000000000000000000000000000000
D11004506006720828540151255202401112024031100000003111600000NSILVA LOPEZ GUILLERMO                             MXP000000000000000000000000000000000000000000000000000000000000000000000000000000
D11004516006720828540151256202401112024031100000003376080000NSOTO GONZALEZ MARIA DEL REFUGIO                   MXP000000000000000000000000000000000000000000000000000000000000000000000000000000
D11004526006720828540151257202401112024031100000004332770000NTINOCO BARRON CLAUDIA ALICIA                      MXP000000000000000000000000000000000000000000000000000000000000000000000000000000
D11004536006720828540151258202401112024031100000003111600000NTIZOC LLANES CANDELARIA                           MXP000000000000000000000000000000000000000000000000000000000000000000000000000000
D11004546006720828540151259202401112024031100000002305550000NTORRES LOPEZ GAEL SANTIAGO                        MXP000000000000000000000000000000000000000000000000000000000000000000000000000000
D11004556006720828540151260202401112024031100000004277720000NTORRES MORENO AMERICA                             MXP000000000000000000000000000000000000000000000000000000000000000000000000000000
D11004566006720828540151261202401112024031100000003639180000NVALLE CHARLES ESTEFANIA                           MXP000000000000000000000000000000000000000000000000000000000000000000000000000000
D11004576006720828540151262202401112024031100000003639180000NVALLE CHARLES MELANIE                             MXP000000000000000000000000000000000000000000000000000000000000000000000000000000
D11004586006720828540151263202401112024031100000003763050000NVAZQUEZ BASULTO LETISIA                           MXP000000000000000000000000000000000000000000000000000000000000000000000000000000
D11004596006720828540151264202401112024031100000003111600000NVELAZQUEZ MARTINEZ CARLOS                         MXP000000000000000000000000000000000000000000000000000000000000000000000000000000
D11004606006720828540151265202401112024031100000003462570000NVERDUGO LOPEZ CRUZ ISMAEL                         MXP000000000000000000000000000000000000000000000000000000000000000000000000000000
D11004616006720828540151266202401112024031100000337228030000NVERDUGO MENDO MARIA DE LOS ANGELES                MXP000000000000000000000000000000000000000000000000000000000000000000000000000000
D11004626006720828540151267202401112024031100000001649700000NVIZCARRA SAINZ BERNARDINO                         MXP000000000000000000000000000000000000000000000000000000000000000000000000000000
D11004636006720828540151268202401112024031100000007790240000NZAMORA AYALA MATILDE                              MXP000000000000000000000000000000000000000000000000000000000000000000000000000000
D11004646006720828540151269202401112024031100000005343740000NZAZUETA BELTRAN CONCEPCION                        MXP000000000000000000000000000000000000000000000000000000000000000000000000000000
D11004656006720828540151270202401112024031100000003763050000NZAZUETA VAZQUEZ SUSAN MAYTE                       MXP000000000000000000000000000000000000000000000000000000000000000000000000000000
D11004666006720828540151271202401112024031100000015875670000NMARQUEZ CALDERON KARINA ELIZABETH                 MXP000000000000000000000000000000000000000000000000000000000000000000000000000000
D11004676006720828540151272202401112024031100000007834260000NVELARDE OSUNA SANTA                               MXP000000000000000000000000000000000000000000000000000000000000000000000000000000
D11004686006720828540151273202401112024031100000006241800000NBURGOS VALDEZ CARLOS ARTURO                       MXP000000000000000000000000000000000000000000000000000000000000000000000000000000
D11004696006720828540151274202401112024031100000013087180000NLOPEZ SANDOVAL EDUARDO                            MXP000000000000000000000000000000000000000000000000000000000000000000000000000000
D11004706006720828540151275202401112024031100000003919440000NGONZALEZ VEJAR MARIA JOSE                         MXP000000000000000000000000000000000000000000000000000000000000000000000000000000
D11004716006720828540151276202401112024031100000005606000000NLIZARRAGA SANCHEZ ROSA MARIA                      MXP000000000000000000000000000000000000000000000000000000000000000000000000000000
D11004726006720828540151277202401112024031100000011014610000NMANZANAREZ SALAZAR JULIO CESAR                    MXP000000000000000000000000000000000000000000000000000000000000000000000000000000
D11004736006720828540151278202401112024031100000009714090000NRUIZ BARAJAS SANDY LORENA                         MXP000000000000000000000000000000000000000000000000000000000000000000000000000000
D11004746006720828540151279202401112024031100000003919440000NSOTO GAXIOLA LAURA MICHELLE                       MXP000000000000000000000000000000000000000000000000000000000000000000000000000000
D11004756006720828540151280202401112024031100000007654730000NURIAS LOPEZ MARCO ANTONIO                         MXP000000000000000000000000000000000000000000000000000000000000000000000000000000
D11004766006720828540151281202401112024031100000005606000000NVALENZUELA MARRUJO ANGELICA ALEJANDRA             MXP000000000000000000000000000000000000000000000000000000000000000000000000000000
D11004776006720828540151282202401112024031100000021060980000NDIAZ VEGA ENRIQUE ALFONSO                         MXP000000000000000000000000000000000000000000000000000000000000000000000000000000
D11004786006720828540151283202401112024031100000007834260000NVALENZUELA SANCHEZ CHRISTIAN ALBERTO              MXP000000000000000000000000000000000000000000000000000000000000000000000000000000
D11004796006720828540151284202401112024031100000011427110000NAHUMADA FABELA ADRIANA                            MXP000000000000000000000000000000000000000000000000000000000000000000000000000000
D11004806006720828540151285202401112024031100000015875670000NBELTRAN LEON ABELARDO                             MXP000000000000000000000000000000000000000000000000000000000000000000000000000000
D11004816006720828540151286202401112024031100000008112360000NFIERRO ZAZUETA EDWIN GABRIEL                      MXP000000000000000000000000000000000000000000000000000000000000000000000000000000
D11004826006720828540151287202401112024031100000004080900000NMILLAN OCHOA ANGELA GABRIELA                      MXP000000000000000000000000000000000000000000000000000000000000000000000000000000
D11004836006720828540151288202401112024031100000007834260000NMONTOYA SANCHEZ JAHAIRA VERONICA                  MXP000000000000000000000000000000000000000000000000000000000000000000000000000000
D11004846006720828540151289202401112024031100000004080900000NRAMIREZ RAMIREZ ADOLFINA DE MARIA                 MXP000000000000000000000000000000000000000000000000000000000000000000000000000000
D11004856006720828540151290202401112024031100000010791160000NREYES SANCHEZ DALIA YANET                         MXP000000000000000000000000000000000000000000000000000000000000000000000000000000
D11004866006720828540151291202401112024031100000007834260000NSANGUINO RAMOS RAUL OMAR                          MXP000000000000000000000000000000000000000000000000000000000000000000000000000000
D11004876006720828540151292202401112024031100000003919440000NGARCIA OLIVAS JUAN PABLO                          MXP000000000000000000000000000000000000000000000000000000000000000000000000000000
D11004886006720828540151293202401112024031100000003919440000NLOPEZ MACIAS MARIA GUADALUPE                      MXP000000000000000000000000000000000000000000000000000000000000000000000000000000
D11004896006720828540151294202401112024031100000016456980000NCANAS FERNANDEZ JOSE CARLOS                       MXP000000000000000000000000000000000000000000000000000000000000000000000000000000
D11004906006720828540151295202401112024031100000009868290000NCASTRO RENDON LUZ ELENA                           MXP000000000000000000000000000000000000000000000000000000000000000000000000000000
D11004916006720828540151296202401112024031100000005041680000NESPINOZA GARCIA RUBEN RICARDO                     MXP000000000000000000000000000000000000000000000000000000000000000000000000000000
D11004926006720828540151297202401112024031100000005765620000NGARCIA ARREOLA CLAUDIA GUADALUPE                  MXP000000000000000000000000000000000000000000000000000000000000000000000000000000
D11004936006720828540151298202401112024031100000005765620000NRAMIREZ NERIZ JOSEFINA                            MXP000000000000000000000000000000000000000000000000000000000000000000000000000000
D11004946006720828540151299202401112024031100000009489030000NSANCHEZ GARCIA MIRARI MORAMAHY                    MXP000000000000000000000000000000000000000000000000000000000000000000000000000000
D11004956006720828540151300202401112024031100000009764980000NINZUNZA CAMACHO LUIS ARMANDO                      MXP000000000000000000000000000000000000000000000000000000000000000000000000000000
D11004966006720828540151301202401112024031100000005540380000NRODRIGUEZ GUEVARA JAIME RAFAEL                    MXP000000000000000000000000000000000000000000000000000000000000000000000000000000
D11004976006720828540151302202401112024031100000005606000000NCARRILLO QUINTERO ALVARO                          MXP000000000000000000000000000000000000000000000000000000000000000000000000000000
D11004986006720828540151303202401112024031100000004468290000NCORRALES RIOS ODORICO                             MXP000000000000000000000000000000000000000000000000000000000000000000000000000000
D11004996006720828540151304202401112024031100000005111810000NGASTELUM URQUIDEZ GAEL ALEJANDRO                  MXP000000000000000000000000000000000000000000000000000000000000000000000000000000
D11005006006720828540151305202401112024031100000001169650000NMORENO OSORIO JULIA ISABEL                        MXP000000000000000000000000000000000000000000000000000000000000000000000000000000
D11005016006720828540151306202401112024031100000011397700000NGUTIERREZ DAUTT SILVIA KARINA                     MXP000000000000000000000000000000000000000000000000000000000000000000000000000000
D11005026006720828540151307202401112024031100000004044120000NOLIVAS DE LOS ANGELES KARLA PAOLA                 MXP000000000000000000000000000000000000000000000000000000000000000000000000000000
D11005036006720828540151308202401112024031100000012773420000NPICOS BELTRAN JESUS MIGUEL                        MXP000000000000000000000000000000000000000000000000000000000000000000000000000000
D11005046006720828540151309202401112024031100000003670080000NBURGOS VALENCIA ANA CRISTINA                      MXP000000000000000000000000000000000000000000000000000000000000000000000000000000
D11005056006720828540151310202401112024031100000003919440000NCERVANTES REVELES ALICIA                          MXP000000000000000000000000000000000000000000000000000000000000000000000000000000
D11005066006720828540151311202401112024031100000005200170000NESPINOZA PULIDO ALAN                              MXP000000000000000000000000000000000000000000000000000000000000000000000000000000
D11005076006720828540151312202401112024031100000002148370000NGUERRERO ANGULO LEONEL                            MXP000000000000000000000000000000000000000000000000000000000000000000000000000000
D11005086006720828540151313202401112024031100000005111810000NRODRIGUEZ RODRIGUEZ LUIS ANDRES                   MXP000000000000000000000000000000000000000000000000000000000000000000000000000000
D11005096006720828540151314202401112024031100000003246590000NTREJO MALACON EMMANUEL                            MXP000000000000000000000000000000000000000000000000000000000000000000000000000000
D11005106006720828540151315202401112024031100000004479730000NPETRIS OLMEDA NADIA DEL ROSARIO                   MXP000000000000000000000000000000000000000000000000000000000000000000000000000000
D11005116006720828540151316202401112024031100000004080900000NZARAGOZA RIVAS ANDREA                             MXP000000000000000000000000000000000000000000000000000000000000000000000000000000
D11005126006720828540151317202401112024031100000015875670000NMARTINEZ PENUELAS JESUS MANUEL                    MXP000000000000000000000000000000000000000000000000000000000000000000000000000000
D11005136006720828540151318202401112024031100000002724210000NURIARTE BARRETO NEDIME ESTRELLA                   MXP000000000000000000000000000000000000000000000000000000000000000000000000000000
D11005146006720828540151319202401112024031100000011840710000NPENNE MADRID JOSE ANTONIO                         MXP000000000000000000000000000000000000000000000000000000000000000000000000000000
D11005156006720828540151320202401112024031100000004536290000NLEYVA BACASEGUA CLAUDIO GUSTAVO                   MXP000000000000000000000000000000000000000000000000000000000000000000000000000000
D11005166006720828540151321202401112024031100000001092320000NRUSSELL VALENZUELA MARI CARMEN                    MXP000000000000000000000000000000000000000000000000000000000000000000000000000000
D11005176006720828540151322202401112024031100000004940850000NVALDEZ RAMIREZ ALONDRA                            MXP000000000000000000000000000000000000000000000000000000000000000000000000000000
