H00001202401250010116400000000154987568100000000000000000000000011640000000015498756810000000000000000000000000000000000000000000000000000000000000000000000000000000000000000000000000000000000
D11000016006720828540151934202401252024032500000004044130000NRODRIGUEZ JORGE ARMANDO                           MXP000000000000000000000000000000000000000000000000000000000000000000000000000000
D11000026006720828540151935202401252024032500000002769420000NCANTU FONSECA MARICRUZ                            MXP000000000000000000000000000000000000000000000000000000000000000000000000000000
D11000036006720828540151936202401252024032500000003595150000NFIGUEROA GUADARRAMA ROBERTO                       MXP000000000000000000000000000000000000000000000000000000000000000000000000000000
D11000046006720828540151937202401252024032500000002898020000NMERCADO CANTUA LUZ ESTHER                         MXP000000000000000000000000000000000000000000000000000000000000000000000000000000
D11000056006720828540151938202401252024032500000003532470000NLANGARICA VALENZUELA ABDIEL ORLANDO               MXP000000000000000000000000000000000000000000000000000000000000000000000000000000
D11000066006720828540151939202401252024032500000004733410000NCASTRO RODRIGUEZ ESMERALDA BERENICE               MXP000000000000000000000000000000000000000000000000000000000000000000000000000000
D11000076006720828540151940202401252024032500000004479740000NCRUZ NUNEZ MARIEL MELISSA                         MXP000000000000000000000000000000000000000000000000000000000000000000000000000000
D11000086006720828540151941202401252024032500000004479740000NOCHOA FELIX FLOR DE MARIA                         MXP000000000000000000000000000000000000000000000000000000000000000000000000000000
D11000096006720828540151942202401252024032500000007245700000NTREVEDAN NICOLS EDGAR JESUS                       MXP000000000000000000000000000000000000000000000000000000000000000000000000000000
D11000106006720828540151943202401252024032500000004479740000NARMENTA CASTRO GUILLERMO ANTONIO                  MXP000000000000000000000000000000000000000000000000000000000000000000000000000000
D11000116006720828540151944202401252024032500000005967880000NALCARAZ VERDUZCO BRAULIO                          MXP000000000000000000000000000000000000000000000000000000000000000000000000000000
D11000126006720828540151945202401252024032500000004431870000NBUITIMEA VAZQUEZ MIGUEL ARTURO                    MXP000000000000000000000000000000000000000000000000000000000000000000000000000000
D11000136006720828540151946202401252024032500000004789820000NCASTRO TORRES FRANCISCO GUADALUPE                 MXP000000000000000000000000000000000000000000000000000000000000000000000000000000
D11000146006720828540151947202401252024032500000004789820000NCHAVEZ MONTIEL GABRIELA                           MXP000000000000000000000000000000000000000000000000000000000000000000000000000000
D11000156006720828540151948202401252024032500000004789820000NHUICOCHEA BOJORQUEZ KARLA LIZBETH                 MXP000000000000000000000000000000000000000000000000000000000000000000000000000000
D11000166006720828540151949202401252024032500000005074840000NLEON VELAZQUEZ LAURA KARINA                       MXP000000000000000000000000000000000000000000000000000000000000000000000000000000
D11000176006720828540151950202401252024032500000000695070000NMONTIEL SOLIS FRANCISCA                           MXP000000000000000000000000000000000000000000000000000000000000000000000000000000
D11000186006720828540151951202401252024032500000003001760000NPABALAIS VALENZUELA MARICRUZ                      MXP000000000000000000000000000000000000000000000000000000000000000000000000000000
D11000196006720828540151952202401252024032500000005765610000NPRECIADO SOLIS VALERIA PATRICIA                   MXP000000000000000000000000000000000000000000000000000000000000000000000000000000
D11000206006720828540151953202401252024032500000005456830000NRODRIGUEZ RIVERA ISMAEL JOSE                      MXP000000000000000000000000000000000000000000000000000000000000000000000000000000
D11000216006720828540151954202401252024032500000007184110000NRONAO TORRES FRANCISCO JAVIER                     MXP000000000000000000000000000000000000000000000000000000000000000000000000000000
D11000226006720828540151955202401252024032500000004231420000NRUIZ PUENTE OMAR JASIEL                           MXP000000000000000000000000000000000000000000000000000000000000000000000000000000
D11000236006720828540151956202401252024032500000002981710000NSANCHEZ HERNANDEZ MANUEL                          MXP000000000000000000000000000000000000000000000000000000000000000000000000000000
D11000246006720828540151957202401252024032500000002604140000NVALENZUELA PABALAY MAYRA GEORGINA                 MXP000000000000000000000000000000000000000000000000000000000000000000000000000000
D11000256006720828540151958202401252024032500000005456830000NVARGAS FIERRO ANNA PATRICIA                       MXP000000000000000000000000000000000000000000000000000000000000000000000000000000
D11000266006720828540151959202401252024032500000005102460000NVELAZQUEZ PABALAY MARICRUZ                        MXP000000000000000000000000000000000000000000000000000000000000000000000000000000
D11000276006720828540151960202401252024032500000004127860000NRUIZ PORTILLO HECTOR RAUL                         MXP000000000000000000000000000000000000000000000000000000000000000000000000000000
D11000286006720828540151961202401252024032500000005053820000NGIL LEYVA ANA BELEM                               MXP000000000000000000000000000000000000000000000000000000000000000000000000000000
D11000296006720828540151962202401252024032500000002938620000NSOTO ROMAN MIRTA ISABEL                           MXP000000000000000000000000000000000000000000000000000000000000000000000000000000
D11000306006720828540151963202401252024032500000006319720000NVARGAS LANDEROS GABRIEL ALFREDO                   MXP000000000000000000000000000000000000000000000000000000000000000000000000000000
D11000316006720828540151964202401252024032500000004779840000NHERNANDEZ FLORES MARIA ALEJANDRINA                MXP000000000000000000000000000000000000000000000000000000000000000000000000000000
D11000326006720828540151965202401252024032500000100673470000NBUITIMEA AYALA CONCEPCION                         MXP000000000000000000000000000000000000000000000000000000000000000000000000000000
D11000336006720828540151966202401252024032500000100673470000NBUITIMEA COTA CONCEPCION                          MXP000000000000000000000000000000000000000000000000000000000000000000000000000000
D11000346006720828540151967202401252024032500000100673470000NBUITIMEA COTA IKER ZAID                           MXP000000000000000000000000000000000000000000000000000000000000000000000000000000
D11000356006720828540151968202401252024032500000004427290000NCALVA GONZALEZ AMBROCIO                           MXP000000000000000000000000000000000000000000000000000000000000000000000000000000
D11000366006720828540151969202401252024032500000028381410000NCALVA GONZALEZ AMBROCIO                           MXP000000000000000000000000000000000000000000000000000000000000000000000000000000
D11000376006720828540151970202401252024032500000007111520000NCAMACHO PALAFOX PAULINA                           MXP000000000000000000000000000000000000000000000000000000000000000000000000000000
D11000386006720828540151971202401252024032500000003367250000NCINCO FELIX JOSE AGUSTIN                          MXP000000000000000000000000000000000000000000000000000000000000000000000000000000
D11000396006720828540151972202401252024032500000003367250000NCINCO FELIX JOSE ALEJANDRO                        MXP000000000000000000000000000000000000000000000000000000000000000000000000000000
D11000406006720828540151973202401252024032500000003538710000NGARCIA QUEZADA DIEGO FERNANDO                     MXP000000000000000000000000000000000000000000000000000000000000000000000000000000
D11000416006720828540151974202401252024032500000001889120000NGASTELUM VALLE PATRICIA                           MXP000000000000000000000000000000000000000000000000000000000000000000000000000000
D11000426006720828540151975202401252024032500000005755590000NGONZALEZ IBARRA ALEXA CRISTINA                    MXP000000000000000000000000000000000000000000000000000000000000000000000000000000
D11000436006720828540151976202401252024032500000026697680000NGONZALEZ PANIAGUA HERIBERTO                       MXP000000000000000000000000000000000000000000000000000000000000000000000000000000
D11000446006720828540151977202401252024032500000003716840000NHIGUERA URIAS CELSO                               MXP000000000000000000000000000000000000000000000000000000000000000000000000000000
D11000456006720828540151978202401252024032500000005755590000NIBARRA GUERRERO MARIA CRISTINA                    MXP000000000000000000000000000000000000000000000000000000000000000000000000000000
D11000466006720828540151979202401252024032500000025261120000NLEYVA CASTRO ROSARIO                              MXP000000000000000000000000000000000000000000000000000000000000000000000000000000
D11000476006720828540151980202401252024032500000513902190000NREYES CAMPOS JOHANA ELIZABETH                     MXP000000000000000000000000000000000000000000000000000000000000000000000000000000
D11000486006720828540151981202401252024032500000159721550000NRIVERA SAPIEN EDUAR URIEL                         MXP000000000000000000000000000000000000000000000000000000000000000000000000000000
D11000496006720828540151982202401252024032500000159721550000NRIVERA SAPIEN MIRIAM ISARELY                      MXP000000000000000000000000000000000000000000000000000000000000000000000000000000
D11000506006720828540151983202401252024032500000159652890000NSAPIEN IZAGUIRRE MIRIAM LILIANA                   MXP000000000000000000000000000000000000000000000000000000000000000000000000000000
D11000516006720828540151984202401252024032500000026697680000NSOTO LOPEZ JOSE AURELIO                           MXP000000000000000000000000000000000000000000000000000000000000000000000000000000
D11000526006720828540151985202401252024032500000008181740000NVALENZUELA CAMARGO JUANA                          MXP000000000000000000000000000000000000000000000000000000000000000000000000000000
D11000536006720828540151986202401252024032500000001180100000NVELAZQUEZ VALDEZ LUZ VIRGINIA                     MXP000000000000000000000000000000000000000000000000000000000000000000000000000000
D11000546006720828540151987202401252024032500000026016290000NVELAZQUEZ VALDEZ LUZ VIRGINIA                     MXP000000000000000000000000000000000000000000000000000000000000000000000000000000
D11000556006720828540151988202401252024032500000002662630000NURIARTE URQUIDEZ ALEX ISRAEL                      MXP000000000000000000000000000000000000000000000000000000000000000000000000000000
D11000566006720828540151989202401252024032500000004044130000NCERVANTES LLANES MARIA JOSE                       MXP000000000000000000000000000000000000000000000000000000000000000000000000000000
D11000576006720828540151990202401252024032500000005387930000NRIOS BELTRAN CUTBERTO                             MXP000000000000000000000000000000000000000000000000000000000000000000000000000000
D11000586006720828540151991202401252024032500000002670160000NSANCHEZ GUTIERREZ JOSE LUIS                       MXP000000000000000000000000000000000000000000000000000000000000000000000000000000
D11000596006720828540151992202401252024032500000004258810000NALVARADO LUGO MARIA FERNANDA                      MXP000000000000000000000000000000000000000000000000000000000000000000000000000000
D11000606006720828540151993202401252024032500000005278830000NIBARRA VAZQUEZ BEATRIZ GUADALUPE                  MXP000000000000000000000000000000000000000000000000000000000000000000000000000000
D11000616006720828540151994202401252024032500000004127860000NPENUELAS NAVARRO KARLA PAOLA                      MXP000000000000000000000000000000000000000000000000000000000000000000000000000000
D11000626006720828540151995202401252024032500000004478030000NGARCIA BALCAZAR CECILIA                           MXP000000000000000000000000000000000000000000000000000000000000000000000000000000
D11000636006720828540151996202401252024032500000037841880000NVALENZUELA LOPEZ RAISERVANDO                      MXP000000000000000000000000000000000000000000000000000000000000000000000000000000
D11000646006720828540151997202401252024032500000002302240000NVISAIZ FELIX DIANA LAURA                          MXP000000000000000000000000000000000000000000000000000000000000000000000000000000
D11000656006720828540151998202401252024032500000007730230000NBENITEZ ROMERO JUAN CARLOS                        MXP000000000000000000000000000000000000000000000000000000000000000000000000000000
D11000666006720828540151999202401252024032500000001932600000NCORRALES LOPEZ CAMILA                             MXP000000000000000000000000000000000000000000000000000000000000000000000000000000
D11000676006720828540152000202401252024032500000001932600000NCORRALES LOPEZ VICTORIA RUBI                      MXP000000000000000000000000000000000000000000000000000000000000000000000000000000
D11000686006720828540152001202401252024032500000001932600000NLOPEZ ANGULO ARACELI GUADALUPE                    MXP000000000000000000000000000000000000000000000000000000000000000000000000000000
D11000696006720828540152002202401252024032500000002499020000NROBLES PACHECO CARMEN ALICIA                      MXP000000000000000000000000000000000000000000000000000000000000000000000000000000
D11000706006720828540152003202401252024032500000004047980000NZACARIAS BUITIMEA EVELYN MAYTE                    MXP000000000000000000000000000000000000000000000000000000000000000000000000000000
D11000716006720828540152004202401252024032500000004047980000NZACARIAS BUITIMEA MAGALY NOEMI                    MXP000000000000000000000000000000000000000000000000000000000000000000000000000000
D11000726006720828540152005202401252024032500000001835080000NRUIZ PORTILLO CHRISTIAN URIEL                     MXP000000000000000000000000000000000000000000000000000000000000000000000000000000
D11000736006720828540152006202401252024032500000005041670000NLUQUE COTA ANNEL                                  MXP000000000000000000000000000000000000000000000000000000000000000000000000000000
D11000746006720828540152007202401252024032500000004258810000NCALVO ARAUJO MARIA JOSE                           MXP000000000000000000000000000000000000000000000000000000000000000000000000000000
D11000756006720828540152008202401252024032500000004258810000NFLORES HERNANDEZ VALERIA YARELY                   MXP000000000000000000000000000000000000000000000000000000000000000000000000000000
D11000766006720828540152009202401252024032500000002706300000NVERDUGO HEREDIA HUMBERTO                          MXP000000000000000000000000000000000000000000000000000000000000000000000000000000
D11000776006720828540152010202401252024032500000002395680000NVERDUGO HEREDIA RAMON                             MXP000000000000000000000000000000000000000000000000000000000000000000000000000000
D11000786006720828540152011202401252024032500000004322050000NMONDACA BRICENO LAURA                             MXP000000000000000000000000000000000000000000000000000000000000000000000000000000
D11000796006720828540152012202401252024032500000004057350000NVEGA MIRANDA ALFONSO                              MXP000000000000000000000000000000000000000000000000000000000000000000000000000000
D11000806006720828540152013202401252024032500000005606000000NLEON LOPEZ RAMON CANDELARIO                       MXP000000000000000000000000000000000000000000000000000000000000000000000000000000
D11000816006720828540152014202401252024032500000004507690000NFLORES VERDUZCO ADRIAN EDUARDO                    MXP000000000000000000000000000000000000000000000000000000000000000000000000000000
D11000826006720828540152015202401252024032500000007262140000NLOPEZ ARMENTA JUAN CARLOS                         MXP000000000000000000000000000000000000000000000000000000000000000000000000000000
D11000836006720828540152016202401252024032500000005387930000NPACHECO RUIZ JOSE DE JESUS                        MXP000000000000000000000000000000000000000000000000000000000000000000000000000000
D11000846006720828540152017202401252024032500000005469420000NVALENZUELA LUGO FRANCISCO JAVIER                  MXP000000000000000000000000000000000000000000000000000000000000000000000000000000
D11000856006720828540152018202401252024032500000003644700000NGOMEZ VALENZUELA FRANCISCA CECILIA                MXP000000000000000000000000000000000000000000000000000000000000000000000000000000
D11000866006720828540152019202401252024032500000026697680000NMONREAL VEGA LUIS ROBERTO                         MXP000000000000000000000000000000000000000000000000000000000000000000000000000000
D11000876006720828540152020202401252024032500000004057350000NHERRAN GAXIOLA SATURNINO EDUARDO                  MXP000000000000000000000000000000000000000000000000000000000000000000000000000000
D11000886006720828540152021202401252024032500000002442960000NIBANEZ TIRADO CRISANTA                            MXP000000000000000000000000000000000000000000000000000000000000000000000000000000
D11000896006720828540152022202401252024032500000004192890000NCORRALES COTA VIRGINIA ISABEL                     MXP000000000000000000000000000000000000000000000000000000000000000000000000000000
D11000906006720828540152023202401252024032500000004057350000NOSORNIO VALENZUELA MACARIO                        MXP000000000000000000000000000000000000000000000000000000000000000000000000000000
D11000916006720828540152024202401252024032500000007777210000NCAMARGO COTA GRACIANO                             MXP000000000000000000000000000000000000000000000000000000000000000000000000000000
D11000926006720828540152025202401252024032500000007052090000NGARCIA COLIN JOSE DE JESUS                        MXP000000000000000000000000000000000000000000000000000000000000000000000000000000
D11000936006720828540152026202401252024032500000004044130000NACOSTA SANTOS PERLA LIZETH                        MXP000000000000000000000000000000000000000000000000000000000000000000000000000000
D11000946006720828540152027202401252024032500000007467820000NSANDOVAL RAMIREZ FRANCISCO JAVIER                 MXP000000000000000000000000000000000000000000000000000000000000000000000000000000
D11000956006720828540152028202401252024032500000004479740000NROCHA GUTIERREZ GUADALUPE                         MXP000000000000000000000000000000000000000000000000000000000000000000000000000000
D11000966006720828540152029202401252024032500000004395590000NBLANCARTE BERNAL PAULINA                          MXP000000000000000000000000000000000000000000000000000000000000000000000000000000
D11000976006720828540152030202401252024032500000005041670000NESPINOZA VILLEGAS RAMON IVAN                      MXP000000000000000000000000000000000000000000000000000000000000000000000000000000
D11000986006720828540152031202401252024032500000005041670000NFLORES LOPEZ LUIS ENRIQUE                         MXP000000000000000000000000000000000000000000000000000000000000000000000000000000
D11000996006720828540152032202401252024032500000004127860000NMONTOYA ESPINOZA JOSE DE JESUS                    MXP000000000000000000000000000000000000000000000000000000000000000000000000000000
D11001006006720828540152033202401252024032500000006319720000NVILLA ROMERO JUAN CARLOS                          MXP000000000000000000000000000000000000000000000000000000000000000000000000000000
D11001016006720828540152034202401252024032500000005606000000NALVAREZ AHUMADA JESUS FRANCISCO                   MXP000000000000000000000000000000000000000000000000000000000000000000000000000000
D11001026006720828540152035202401252024032500000003293810000NCERVANTES BUENO LUIS ALBERTO                      MXP000000000000000000000000000000000000000000000000000000000000000000000000000000
D11001036006720828540152036202401252024032500000004479740000NURIAS ALARCON RUTH ALEXIA                         MXP000000000000000000000000000000000000000000000000000000000000000000000000000000
D11001046006720828540152037202401252024032500000037841880000NARMENTA ARMENTA YOJAR                             MXP000000000000000000000000000000000000000000000000000000000000000000000000000000
D11001056006720828540152038202401252024032500000003412200000NESPARZA RODRIGUEZ ORLANDO                         MXP000000000000000000000000000000000000000000000000000000000000000000000000000000
D11001066006720828540152039202401252024032500000003412200000NESPINOZA VILLANUEVA ROBERTO                       MXP000000000000000000000000000000000000000000000000000000000000000000000000000000
D11001076006720828540152040202401252024032500000001099240000NGUERRERO MARTINEZ ANGEL GABRIEL                   MXP000000000000000000000000000000000000000000000000000000000000000000000000000000
D11001086006720828540152041202401252024032500000001893360000NGUERRERO RODRIGUEZ HECTOR MANUEL                  MXP000000000000000000000000000000000000000000000000000000000000000000000000000000
D11001096006720828540152042202401252024032500000005688000000NGUTIERREZ GARCIA JAIME SAUL                       MXP000000000000000000000000000000000000000000000000000000000000000000000000000000
D11001106006720828540152043202401252024032500000005265000000NLEAL LEYVA SERGIO                                 MXP000000000000000000000000000000000000000000000000000000000000000000000000000000
D11001116006720828540152044202401252024032500000007922360000NLOPEZ ARMENTA EVERARDO                            MXP000000000000000000000000000000000000000000000000000000000000000000000000000000
D11001126006720828540152045202401252024032500000215803850000NMARMOLEJO ALVAREZ SARA MARIA                      MXP000000000000000000000000000000000000000000000000000000000000000000000000000000
D11001136006720828540152046202401252024032500000003404880000NROBLES DOMINGUEZ GRISELDA                         MXP000000000000000000000000000000000000000000000000000000000000000000000000000000
D11001146006720828540152047202401252024032500000002020340000NVALENCIA PALMA EDBERT ALBERTO                     MXP000000000000000000000000000000000000000000000000000000000000000000000000000000
D11001156006720828540152048202401252024032500000004126630000NVALENZUELA PALMA BALDOMERO                        MXP000000000000000000000000000000000000000000000000000000000000000000000000000000
D11001166006720828540152049202401252024032500000004258810000NAHUMADA CASTRO CESAR PAUL                         MXP000000000000000000000000000000000000000000000000000000000000000000000000000000
D11001176006720828540152050202401252024032500000003919440000NCASTRO LOPEZ FABIAN                               MXP000000000000000000000000000000000000000000000000000000000000000000000000000000
D11001186006720828540152051202401252024032500000004258810000NGRIJALVA BELTRAN VERONICA GUADALUPE               MXP000000000000000000000000000000000000000000000000000000000000000000000000000000
D11001196006720828540152052202401252024032500000002704310000NMILLAN CHAVEZ LUIS MANUEL                         MXP000000000000000000000000000000000000000000000000000000000000000000000000000000
D11001206006720828540152053202401252024032500000004044130000NVIDRIO ORDORICA ANA KAREN                         MXP000000000000000000000000000000000000000000000000000000000000000000000000000000
D11001216006720828540152054202401252024032500000002498750000NCERVANTES FIERRO ALFREDO ERNESTO                  MXP000000000000000000000000000000000000000000000000000000000000000000000000000000
D11001226006720828540152055202401252024032500000008159730000NSOTO ESCALANTE CARLOS EUGENIO                     MXP000000000000000000000000000000000000000000000000000000000000000000000000000000
D11001236006720828540152056202401252024032500000047302350000NSOTO ESCALANTE CARLOS EUGENIO                     MXP000000000000000000000000000000000000000000000000000000000000000000000000000000
D11001246006720828540152057202401252024032500000004057350000NZAMBADA CORONEL MANUEL                            MXP000000000000000000000000000000000000000000000000000000000000000000000000000000
D11001256006720828540152058202401252024032500000005556640000NGARCIA LOPEZ FERNANDO                             MXP000000000000000000000000000000000000000000000000000000000000000000000000000000
D11001266006720828540152059202401252024032500000004003310000NANAYA SOTO JESUS ARIANA                           MXP000000000000000000000000000000000000000000000000000000000000000000000000000000
D11001276006720828540152060202401252024032500000004127860000NCOTA EGUINO TONATHIU                              MXP000000000000000000000000000000000000000000000000000000000000000000000000000000
D11001286006720828540152061202401252024032500000004192890000NARK LOPEZ NAGID AMADO                             MXP000000000000000000000000000000000000000000000000000000000000000000000000000000
D11001296006720828540152062202401252024032500000003319130000NLEYVA PADILLA FRANCISCO MIGUEL                    MXP000000000000000000000000000000000000000000000000000000000000000000000000000000
D11001306006720828540152063202401252024032500000004180530000NLOPEZ HIGUERA RAUL ANTONIO                        MXP000000000000000000000000000000000000000000000000000000000000000000000000000000
D11001316006720828540152064202401252024032500000002696420000NSOTO HERRERA ANA CECILIA                          MXP000000000000000000000000000000000000000000000000000000000000000000000000000000
D11001326006720828540152065202401252024032500000006319720000NVIZCARRA FLORES FLORENTINO                        MXP000000000000000000000000000000000000000000000000000000000000000000000000000000
D11001336006720828540152066202401252024032500000005606000000NCOTA VILLA MARCOS ARTURO                          MXP000000000000000000000000000000000000000000000000000000000000000000000000000000
D11001346006720828540152067202401252024032500000004651220000NMERCADO ENG IVAN GILBERTO                         MXP000000000000000000000000000000000000000000000000000000000000000000000000000000
D11001356006720828540152068202401252024032500000007545950000NREYES LUQUE CARLOS                                MXP000000000000000000000000000000000000000000000000000000000000000000000000000000
D11001366006720828540152069202401252024032500000002514240000NCEBREROS LOPEZ MARLA JANETH                       MXP000000000000000000000000000000000000000000000000000000000000000000000000000000
D11001376006720828540152070202401252024032500000004059920000NLEYVA LOPEZ MARIA DOLORES                         MXP000000000000000000000000000000000000000000000000000000000000000000000000000000
D11001386006720828540152071202401252024032500000004563450000NMORENO LOPEZ FABIAN                               MXP000000000000000000000000000000000000000000000000000000000000000000000000000000
D11001396006720828540152072202401252024032500000005387920000NROBLES RIVERA LETICIA                             MXP000000000000000000000000000000000000000000000000000000000000000000000000000000
D11001406006720828540152073202401252024032500000004164650000NZAMORANO FONSECA DEVORA DEL ROSARIO               MXP000000000000000000000000000000000000000000000000000000000000000000000000000000
D11001416006720828540152074202401252024032500000004556410000NORNELAS FELIX PATRICIO                            MXP000000000000000000000000000000000000000000000000000000000000000000000000000000
D11001426006720828540152075202401252024032500000000325310000NORTIZ GONZALEZ MARTHA ELENA                       MXP000000000000000000000000000000000000000000000000000000000000000000000000000000
D11001436006720828540152076202401252024032500000004594280000NARAUJO BOJORQUEZ ROSARIO ELIANETH                 MXP000000000000000000000000000000000000000000000000000000000000000000000000000000
D11001446006720828540152077202401252024032500000004594280000NRANGEL ARAUJO GERARDO                             MXP000000000000000000000000000000000000000000000000000000000000000000000000000000
D11001456006720828540152078202401252024032500000004594280000NRANGEL ARAUJO PEDRO SEBASTIAN                     MXP000000000000000000000000000000000000000000000000000000000000000000000000000000
D11001466006720828540152079202401252024032500000004057350000NROMAN LOPEZ RODRIGO ALONSO                        MXP000000000000000000000000000000000000000000000000000000000000000000000000000000
D11001476006720828540152080202401252024032500000005606000000NPARRA MELECIO ISMAEL                              MXP000000000000000000000000000000000000000000000000000000000000000000000000000000
D11001486006720828540152081202401252024032500000006765250000NESCOBAR HERNANDEZ MARTIN                          MXP000000000000000000000000000000000000000000000000000000000000000000000000000000
D11001496006720828540152082202401252024032500000005387930000NLOPEZ CERVANTES EMILIA HAYDEE                     MXP000000000000000000000000000000000000000000000000000000000000000000000000000000
D11001506006720828540152083202401252024032500000004233140000NMENDEZ LLANES AIME NOELIA                         MXP000000000000000000000000000000000000000000000000000000000000000000000000000000
D11001516006720828540152084202401252024032500000003928480000NRUBIO PEREZ EVERARDO                              MXP000000000000000000000000000000000000000000000000000000000000000000000000000000
D11001526006720828540152085202401252024032500000002026150000NIRIZAR LOPEZ ALBA IRENE                           MXP000000000000000000000000000000000000000000000000000000000000000000000000000000
D11001536006720828540152086202401252024032500000003207350000NARMENTA IRIZAR JULIAN ANTONIO                     MXP000000000000000000000000000000000000000000000000000000000000000000000000000000
D11001546006720828540152087202401252024032500000004057350000NPEIRO RIVERA JESUS AMARAN                         MXP000000000000000000000000000000000000000000000000000000000000000000000000000000
D11001556006720828540152088202401252024032500000003077560000NSANDOVAL LOPEZ SILVIA SOLANGEL                    MXP000000000000000000000000000000000000000000000000000000000000000000000000000000
D11001566006720828540152089202401252024032500000005873830000NGONZALEZ CASTRO HERNAN                            MXP000000000000000000000000000000000000000000000000000000000000000000000000000000
D11001576006720828540152090202401252024032500000008620720000NMENDEZ RODRIGUEZ JOSE MANUEL                      MXP000000000000000000000000000000000000000000000000000000000000000000000000000000
D11001586006720828540152091202401252024032500000005041670000NGODOY SANCHEZ JOSE ABEL                           MXP000000000000000000000000000000000000000000000000000000000000000000000000000000
D11001596006720828540152092202401252024032500000004057350000NMONTOYA MONTOYA FAVIO URIEL                       MXP000000000000000000000000000000000000000000000000000000000000000000000000000000
D11001606006720828540152093202401252024032500000006942530000NPADILLA ELIZALDE DIEGO                            MXP000000000000000000000000000000000000000000000000000000000000000000000000000000
D11001616006720828540152094202401252024032500000005278830000NGARCIA LOPEZ ISSIS MELISSA                        MXP000000000000000000000000000000000000000000000000000000000000000000000000000000
D11001626006720828540152095202401252024032500000002898020000NMONTOYA LOPEZ MYRNA                               MXP000000000000000000000000000000000000000000000000000000000000000000000000000000
D11001636006720828540152096202401252024032500000002430190000NTUASON VALDEZ AURORA                              MXP000000000000000000000000000000000000000000000000000000000000000000000000000000
D11001646006720828540152097202401252024032500000004465720000NZAZUETA ANGULO ELOY                               MXP000000000000000000000000000000000000000000000000000000000000000000000000000000
D11001656006720828540152098202401252024032500000000325310000NLOPEZ GUTIERREZ MYRNA                             MXP000000000000000000000000000000000000000000000000000000000000000000000000000000
D11001666006720828540152099202401252024032500000000325310000NAGUILAR OSUNA DANIA GUADALUPE                     MXP000000000000000000000000000000000000000000000000000000000000000000000000000000
D11001676006720828540152100202401252024032500000002663030000NANGULO ANGULO WILFREDO                            MXP000000000000000000000000000000000000000000000000000000000000000000000000000000
D11001686006720828540152101202401252024032500000007249270000NINZUNZA SAINZ KARELY                              MXP000000000000000000000000000000000000000000000000000000000000000000000000000000
D11001696006720828540152102202401252024032500000007244380000NMAGANA JUAREZ ALAN EDUARDO                        MXP000000000000000000000000000000000000000000000000000000000000000000000000000000
D11001706006720828540152103202401252024032500000006319720000NFELIX MEZA HUGO ERNESTO                           MXP000000000000000000000000000000000000000000000000000000000000000000000000000000
D11001716006720828540152104202401252024032500000002662630000NVELAZQUEZ ACOSTA JESUS ABRAHAM                    MXP000000000000000000000000000000000000000000000000000000000000000000000000000000
D11001726006720828540152105202401252024032500000004830070000NURIAS CARRILLO ROBERTO                            MXP000000000000000000000000000000000000000000000000000000000000000000000000000000
D11001736006720828540152106202401252024032500000005387920000NSANTOS MONTES ANASTACIO                           MXP000000000000000000000000000000000000000000000000000000000000000000000000000000
D11001746006720828540152107202401252024032500000006001000000NMIRANDA AGUILAR LUIS ANTONIO                      MXP000000000000000000000000000000000000000000000000000000000000000000000000000000
D11001756006720828540152108202401252024032500000004321940000NSOTO AGUILAR SERGIO                               MXP000000000000000000000000000000000000000000000000000000000000000000000000000000
D11001766006720828540152109202401252024032500000004127860000NMACHADO ABITIA GABRIEL ALONSO                     MXP000000000000000000000000000000000000000000000000000000000000000000000000000000
D11001776006720828540152110202401252024032500000004060230000NBELTRAN ANGULO ANA AURORA                         MXP000000000000000000000000000000000000000000000000000000000000000000000000000000
D11001786006720828540152111202401252024032500000004801490000NLARA PEREZ SAUL ENRIQUE                           MXP000000000000000000000000000000000000000000000000000000000000000000000000000000
D11001796006720828540152112202401252024032500000006135360000NALARCON CERDA IVAN VICENTE                        MXP000000000000000000000000000000000000000000000000000000000000000000000000000000
D11001806006720828540152113202401252024032500000004953650000NCABRERA RUIZ ALONDRA VANESSA                      MXP000000000000000000000000000000000000000000000000000000000000000000000000000000
D11001816006720828540152114202401252024032500000011427100000NCASTRO BARRAZA JORGE                              MXP000000000000000000000000000000000000000000000000000000000000000000000000000000
D11001826006720828540152115202401252024032500000006135360000NCONTRERAS NUNEZ ELENA YESABEL                     MXP000000000000000000000000000000000000000000000000000000000000000000000000000000
D11001836006720828540152116202401252024032500000007029110000NCRESPO RINCONES ANGEL GUADALUPE                   MXP000000000000000000000000000000000000000000000000000000000000000000000000000000
D11001846006720828540152117202401252024032500000007751000000NGONZALEZ APOLINAR ELENA                           MXP000000000000000000000000000000000000000000000000000000000000000000000000000000
D11001856006720828540152118202401252024032500000005202550000NGUTIERREZ ZAZUETA TERESA DE JESUS                 MXP000000000000000000000000000000000000000000000000000000000000000000000000000000
D11001866006720828540152119202401252024032500000014746590000NNATERAS CORONA ARTURO DANIEL                      MXP000000000000000000000000000000000000000000000000000000000000000000000000000000
D11001876006720828540152120202401252024032500000012288580000NRUBIO RUELAS BALDEMAR                             MXP000000000000000000000000000000000000000000000000000000000000000000000000000000
D11001886006720828540152121202401252024032500000007896630000NSALCEDO CASTREJON MACARIO ALBERTO                 MXP000000000000000000000000000000000000000000000000000000000000000000000000000000
D11001896006720828540152122202401252024032500000004980450000NLOPEZ TORRES FERMIN ANGEL                         MXP000000000000000000000000000000000000000000000000000000000000000000000000000000
D11001906006720828540152123202401252024032500000004044130000NGUTIERREZ VELAZQUEZ CYNTHIA KARINA                MXP000000000000000000000000000000000000000000000000000000000000000000000000000000
D11001916006720828540152124202401252024032500000002822150000NRAMOS CALDERA JESUS ALONSO                        MXP000000000000000000000000000000000000000000000000000000000000000000000000000000
D11001926006720828540152125202401252024032500000002710290000NANCONA GASTELUM GREASE LIZBETH                    MXP000000000000000000000000000000000000000000000000000000000000000000000000000000
D11001936006720828540152126202401252024032500000016373850000NCISNEROS DIAZ VICTOR ANTONIO                      MXP000000000000000000000000000000000000000000000000000000000000000000000000000000
D11001946006720828540152127202401252024032500000002898020000NESQUERRA ARTEAGA SELENE                           MXP000000000000000000000000000000000000000000000000000000000000000000000000000000
D11001956006720828540152128202401252024032500000001826490000NFELIX LOPEZ MIGUEL ANGEL                          MXP000000000000000000000000000000000000000000000000000000000000000000000000000000
D11001966006720828540152129202401252024032500000004195230000NLOPEZ PLATA EVELYN LIZETH                         MXP000000000000000000000000000000000000000000000000000000000000000000000000000000
D11001976006720828540152130202401252024032500000002898020000NMACHADO SANDOVAL KASSANDRA GUADALUPE              MXP000000000000000000000000000000000000000000000000000000000000000000000000000000
D11001986006720828540152131202401252024032500000002898020000NMORALES INZUNZA MARIBEL DE MARIA                  MXP000000000000000000000000000000000000000000000000000000000000000000000000000000
D11001996006720828540152132202401252024032500000004814680000NRANGEL FIGUEROA JULIO CESAR                       MXP000000000000000000000000000000000000000000000000000000000000000000000000000000
D11002006006720828540152133202401252024032500000002898020000NRENDON RODRIGUEZ MARISOL                          MXP000000000000000000000000000000000000000000000000000000000000000000000000000000
D11002016006720828540152134202401252024032500000003595150000NRODELO LOPEZ JATXIRY NICOLE                       MXP000000000000000000000000000000000000000000000000000000000000000000000000000000
D11002026006720828540152135202401252024032500000003000620000NSANCHEZ SALAS CARLOS                              MXP000000000000000000000000000000000000000000000000000000000000000000000000000000
D11002036006720828540152136202401252024032500000002898020000NURIBE BELTRAN CARLOS                              MXP000000000000000000000000000000000000000000000000000000000000000000000000000000
D11002046006720828540152137202401252024032500000003919440000NVILLARREAL MARTINEZ MIGUEL ANGEL                  MXP000000000000000000000000000000000000000000000000000000000000000000000000000000
D11002056006720828540152138202401252024032500000004238650000NPERAZA ZAZUETA JESUS ENDIR                        MXP000000000000000000000000000000000000000000000000000000000000000000000000000000
D11002066006720828540152139202401252024032500000003966060000NMARTINEZ AMARILLAS DEVANY BRITNEY                 MXP000000000000000000000000000000000000000000000000000000000000000000000000000000
D11002076006720828540152140202401252024032500000007214050000NMONTOYA RODRIGUEZ OSCAR JAVIER                    MXP000000000000000000000000000000000000000000000000000000000000000000000000000000
D11002086006720828540152141202401252024032500000003632350000NOSUNA CASTANOS ANGELICA MARIA                     MXP000000000000000000000000000000000000000000000000000000000000000000000000000000
D11002096006720828540152142202401252024032500000005613670000NMENDOZA ORTIZ JESUS EMILIO                        MXP000000000000000000000000000000000000000000000000000000000000000000000000000000
D11002106006720828540152143202401252024032500000005613670000NSOBERANES ROJAS JESUS ALBERTO                     MXP000000000000000000000000000000000000000000000000000000000000000000000000000000
D11002116006720828540152144202401252024032500000003539590000NCAZAREZ GAMEZ RAMSES IGNACIO                      MXP000000000000000000000000000000000000000000000000000000000000000000000000000000
D11002126006720828540152145202401252024032500000003966060000NFLORES HERNANDEZ GABRIELA                         MXP000000000000000000000000000000000000000000000000000000000000000000000000000000
D11002136006720828540152146202401252024032500000008141880000NALVAREZ IBARRA ALEJANDRINA                        MXP000000000000000000000000000000000000000000000000000000000000000000000000000000
D11002146006720828540152147202401252024032500000008141880000NNAJERA LUNA ALVARO OMAR                           MXP000000000000000000000000000000000000000000000000000000000000000000000000000000
D11002156006720828540152148202401252024032500000009627130000NGUTIERREZ PONCE OMAR ANTONIO                      MXP000000000000000000000000000000000000000000000000000000000000000000000000000000
D11002166006720828540152149202401252024032500000007218200000NHERNANDEZ MENDOZA MARIA LORENZA                   MXP000000000000000000000000000000000000000000000000000000000000000000000000000000
D11002176006720828540152150202401252024032500000003919440000NLOPEZ ROCHA MARIA DE LOS ANGELES                  MXP000000000000000000000000000000000000000000000000000000000000000000000000000000
D11002186006720828540152151202401252024032500000004479740000NMAGALLANES ZAZUETA JUAN CARLOS                    MXP000000000000000000000000000000000000000000000000000000000000000000000000000000
D11002196006720828540152152202401252024032500000004479740000NNUNEZ BELTRAN MARTIN OMAR                         MXP000000000000000000000000000000000000000000000000000000000000000000000000000000
D11002206006720828540152153202401252024032500000004258810000NPARRA VILLALBA MELINA                             MXP000000000000000000000000000000000000000000000000000000000000000000000000000000
D11002216006720828540152154202401252024032500000010197120000NTAMAYO INZUNZA JESUS ELIEL                        MXP000000000000000000000000000000000000000000000000000000000000000000000000000000
D11002226006720828540152155202401252024032500000004539660000NJIMENEZ CORONEL ALEJANDRO                         MXP000000000000000000000000000000000000000000000000000000000000000000000000000000
D11002236006720828540152156202401252024032500000002190120000NCONTRERAS IBARRA JUAN MANUEL                      MXP000000000000000000000000000000000000000000000000000000000000000000000000000000
D11002246006720828540152157202401252024032500000007052090000NFERNANDEZ ZAZUETA VICTOR MANUEL                   MXP000000000000000000000000000000000000000000000000000000000000000000000000000000
D11002256006720828540152158202401252024032500000002752780000NLEYVA LOPEZ GERARDO                               MXP000000000000000000000000000000000000000000000000000000000000000000000000000000
D11002266006720828540152159202401252024032500000002663030000NORTIZ BOJORQUEZ OMAR JAVIER                       MXP000000000000000000000000000000000000000000000000000000000000000000000000000000
D11002276006720828540152160202401252024032500000006829790000NPALMA LUIS ANGEL                                  MXP000000000000000000000000000000000000000000000000000000000000000000000000000000
D11002286006720828540152161202401252024032500000002663030000NROBLES NEVAREZ BLANCA LUCIA                       MXP000000000000000000000000000000000000000000000000000000000000000000000000000000
D11002296006720828540152162202401252024032500000002663030000NSALAZAR FELIX ARDUL ALFONSO                       MXP000000000000000000000000000000000000000000000000000000000000000000000000000000
D11002306006720828540152163202401252024032500000001697660000NSALAZAR OLMEDA JOSE JUAN                          MXP000000000000000000000000000000000000000000000000000000000000000000000000000000
D11002316006720828540152164202401252024032500000008558930000NACOSTA MADRID BRENDA ANABEL                       MXP000000000000000000000000000000000000000000000000000000000000000000000000000000
D11002326006720828540152165202401252024032500000004690400000NBARRANCAS URIARTE LOURDES GUADALUPE               MXP000000000000000000000000000000000000000000000000000000000000000000000000000000
D11002336006720828540152166202401252024032500000003509550000NCORREA GUERRERO MARTHA GABRIELA                   MXP000000000000000000000000000000000000000000000000000000000000000000000000000000
D11002346006720828540152167202401252024032500000007799270000NDORADO CAMACHO EDGAR                              MXP000000000000000000000000000000000000000000000000000000000000000000000000000000
D11002356006720828540152168202401252024032500000008558930000NGARCIA MONTALVO MARIANA                           MXP000000000000000000000000000000000000000000000000000000000000000000000000000000
D11002366006720828540152169202401252024032500000008100760000NGAXIOLA PAREDES NORMA ANGELICA                    MXP000000000000000000000000000000000000000000000000000000000000000000000000000000
D11002376006720828540152170202401252024032500000004044160000NOLIVAS RAMIREZ DIEGO ARTURO                       MXP000000000000000000000000000000000000000000000000000000000000000000000000000000
D11002386006720828540152171202401252024032500000004479740000NPALAZUELOS ERAMI KENIA MICHELLE                   MXP000000000000000000000000000000000000000000000000000000000000000000000000000000
D11002396006720828540152172202401252024032500000003768100000NUZETA MOLINA MARIA                                MXP000000000000000000000000000000000000000000000000000000000000000000000000000000
D11002406006720828540152173202401252024032500000005838540000NAVENDANO ROMERO JUAN PABLO                        MXP000000000000000000000000000000000000000000000000000000000000000000000000000000
D11002416006720828540152174202401252024032500000004479740000NBOJORQUEZ MONTOYA FAVIO                           MXP000000000000000000000000000000000000000000000000000000000000000000000000000000
D11002426006720828540152175202401252024032500000004792550000NCALDERON BURGUENO MARIO ALBERTO                   MXP000000000000000000000000000000000000000000000000000000000000000000000000000000
D11002436006720828540152176202401252024032500000005150050000NGARCIA FELIX JORGE                                MXP000000000000000000000000000000000000000000000000000000000000000000000000000000
D11002446006720828540152177202401252024032500000005820360000NMENDOZA LOPEZ LUIS ROBERTO                        MXP000000000000000000000000000000000000000000000000000000000000000000000000000000
D11002456006720828540152178202401252024032500000004792550000NPETRIZ SOTO LUIS                                  MXP000000000000000000000000000000000000000000000000000000000000000000000000000000
D11002466006720828540152179202401252024032500000004792550000NROMAN PEREZ MARIA MAYANIN                         MXP000000000000000000000000000000000000000000000000000000000000000000000000000000
D11002476006720828540152180202401252024032500000004486670000NSANCHEZ MORENO JOSE OSWALDO                       MXP000000000000000000000000000000000000000000000000000000000000000000000000000000
D11002486006720828540152181202401252024032500000003935620000NSERRANO ZAMORA ARIEL IVAN                         MXP000000000000000000000000000000000000000000000000000000000000000000000000000000
D11002496006720828540152182202401252024032500000004479740000NVALENZUELA LUNA CARLOS                            MXP000000000000000000000000000000000000000000000000000000000000000000000000000000
D11002506006720828540152183202401252024032500000008998030000NCAMPOS GARCIA MARIELOS DEL ROSARIO                MXP000000000000000000000000000000000000000000000000000000000000000000000000000000
D11002516006720828540152184202401252024032500000007534850000NIRIBE ROCHA DICNORA                               MXP000000000000000000000000000000000000000000000000000000000000000000000000000000
D11002526006720828540152185202401252024032500000004358840000NJACOBO MEXIA ESTHER GUADALUPE                     MXP000000000000000000000000000000000000000000000000000000000000000000000000000000
D11002536006720828540152186202401252024032500000004044130000NLABRADA DOMINGUEZ BRAYAN JESE                     MXP000000000000000000000000000000000000000000000000000000000000000000000000000000
D11002546006720828540152187202401252024032500000007489890000NLOPEZ ZAVALA SARA ISELA                           MXP000000000000000000000000000000000000000000000000000000000000000000000000000000
D11002556006720828540152188202401252024032500000010909670000NMORALES GAXIOLA KAREM PATRICIA                    MXP000000000000000000000000000000000000000000000000000000000000000000000000000000
D11002566006720828540152189202401252024032500000004059900000NARCE MELENDREZ EMIGDIO                            MXP000000000000000000000000000000000000000000000000000000000000000000000000000000
D11002576006720828540152190202401252024032500000004003310000NARREOLA HIGUERA GUADALUPE                         MXP000000000000000000000000000000000000000000000000000000000000000000000000000000
D11002586006720828540152191202401252024032500000004611820000NBELTRAN MORENO DULCE GUADALUPE                    MXP000000000000000000000000000000000000000000000000000000000000000000000000000000
D11002596006720828540152192202401252024032500000003919440000NLOPEZ MONZON DANIEL                               MXP000000000000000000000000000000000000000000000000000000000000000000000000000000
D11002606006720828540152193202401252024032500000004638690000NMARQUEZ BERNAL GUILLERMO FRANCISCO                MXP000000000000000000000000000000000000000000000000000000000000000000000000000000
D11002616006720828540152194202401252024032500000002844790000NMARTINEZ QUINTERO ARBE MINERVA                    MXP000000000000000000000000000000000000000000000000000000000000000000000000000000
D11002626006720828540152195202401252024032500000007303940000NMEDINA BELTRAN RUBEN                              MXP000000000000000000000000000000000000000000000000000000000000000000000000000000
D11002636006720828540152196202401252024032500000004207680000NMEJIA LIMAS NORMA ANGELICA                        MXP000000000000000000000000000000000000000000000000000000000000000000000000000000
D11002646006720828540152197202401252024032500000003822460000NMORALES SILVA JOSE EDGAR                          MXP000000000000000000000000000000000000000000000000000000000000000000000000000000
D11002656006720828540152198202401252024032500000004689660000NNUNEZ VALENZUELA CARLOS ALFREDO                   MXP000000000000000000000000000000000000000000000000000000000000000000000000000000
D11002666006720828540152199202401252024032500000003657640000NORTIZ PEREGRINA MARIA DE LOS ANGELES              MXP000000000000000000000000000000000000000000000000000000000000000000000000000000
D11002676006720828540152200202401252024032500000007676500000NGAMEZ RIVERA LUZ NEREIDA                          MXP000000000000000000000000000000000000000000000000000000000000000000000000000000
D11002686006720828540152201202401252024032500000008082810000NACOSTA BERRELLEZA ERIK MICHEL                     MXP000000000000000000000000000000000000000000000000000000000000000000000000000000
D11002696006720828540152202202401252024032500000005086240000NAGUILAR VILLARREAL XOCHILTH GRICELDA              MXP000000000000000000000000000000000000000000000000000000000000000000000000000000
D11002706006720828540152203202401252024032500000008217480000NBON VILLARREAL TANIA JUDITH                       MXP000000000000000000000000000000000000000000000000000000000000000000000000000000
D11002716006720828540152204202401252024032500000006730960000NBUELNA LOPEZ ROSABEL                              MXP000000000000000000000000000000000000000000000000000000000000000000000000000000
D11002726006720828540152205202401252024032500000004531580000NDE LOS REYES ESPARZA SUSANA                       MXP000000000000000000000000000000000000000000000000000000000000000000000000000000
D11002736006720828540152206202401252024032500000005279730000NGOMEZ MORENO JAIME                                MXP000000000000000000000000000000000000000000000000000000000000000000000000000000
D11002746006720828540152207202401252024032500000004556440000NLIZARRAGA MEDINA MARISOL                          MXP000000000000000000000000000000000000000000000000000000000000000000000000000000
D11002756006720828540152208202401252024032500000002941330000NLOPEZ BOJORQUEZ FRIDA JHASIVE                     MXP000000000000000000000000000000000000000000000000000000000000000000000000000000
D11002766006720828540152209202401252024032500000007052380000NLOPEZ MURILLO ADRIANA                             MXP000000000000000000000000000000000000000000000000000000000000000000000000000000
D11002776006720828540152210202401252024032500000009627100000NMARTINEZ ALVAREZ JOSE ALFREDO                     MXP000000000000000000000000000000000000000000000000000000000000000000000000000000
D11002786006720828540152211202401252024032500000003663530000NMENDOZA VIELMAS OSCAR                             MXP000000000000000000000000000000000000000000000000000000000000000000000000000000
D11002796006720828540152212202401252024032500000000491420000NNEVAREZ CABANILLAS LAFIRO                         MXP000000000000000000000000000000000000000000000000000000000000000000000000000000
D11002806006720828540152213202401252024032500000006496200000NVALENZUELA LOPEZ ITZEL GUADALUPE                  MXP000000000000000000000000000000000000000000000000000000000000000000000000000000
D11002816006720828540152214202401252024032500000003706340000NVILLEGAS VERDUZCO MIRNA ARACELI                   MXP000000000000000000000000000000000000000000000000000000000000000000000000000000
D11002826006720828540152215202401252024032500000006264180000NIZABAL GASTELUM OSCAR FERNANDO                    MXP000000000000000000000000000000000000000000000000000000000000000000000000000000
D11002836006720828540152216202401252024032500000003966060000NMONTANO SANCHEZ CECILIA RENEE                     MXP000000000000000000000000000000000000000000000000000000000000000000000000000000
D11002846006720828540152217202401252024032500000004638830000NAISPURO BELTRAN BARTOLO                           MXP000000000000000000000000000000000000000000000000000000000000000000000000000000
D11002856006720828540152218202401252024032500000010154340000NBARRAZA FELIX JAIME                               MXP000000000000000000000000000000000000000000000000000000000000000000000000000000
D11002866006720828540152219202401252024032500000006778940000NBOJORQUEZ GALVEZ AURELIO                          MXP000000000000000000000000000000000000000000000000000000000000000000000000000000
D11002876006720828540152220202401252024032500000009711900000NCARDENAS CARRASCO BRYAN MANUEL                    MXP000000000000000000000000000000000000000000000000000000000000000000000000000000
D11002886006720828540152221202401252024032500000005031140000NGONZALEZ ESTRADA ADELA                            MXP000000000000000000000000000000000000000000000000000000000000000000000000000000
D11002896006720828540152222202401252024032500000009990610000NSANCHEZ VERDUGO MARIA DE LOS ANGELES              MXP000000000000000000000000000000000000000000000000000000000000000000000000000000
D11002906006720828540152223202401252024032500000007076600000NVALDEZ CASTRO JUPITER                             MXP000000000000000000000000000000000000000000000000000000000000000000000000000000
D11002916006720828540152224202401252024032500000007872640000NANGULO CALDERON ALAN                              MXP000000000000000000000000000000000000000000000000000000000000000000000000000000
D11002926006720828540152225202401252024032500000007052090000NLEAL JIMENEZ CLAUDIA                              MXP000000000000000000000000000000000000000000000000000000000000000000000000000000
D11002936006720828540152226202401252024032500000008950630000NPADILLA PADILLA ALBERTO                           MXP000000000000000000000000000000000000000000000000000000000000000000000000000000
D11002946006720828540152227202401252024032500000006667780000NREYES ZAMORA FRANCISCA                            MXP000000000000000000000000000000000000000000000000000000000000000000000000000000
D11002956006720828540152228202401252024032500000005606000000NCASTRO SANTOS ITZEL BRISEYDA                      MXP000000000000000000000000000000000000000000000000000000000000000000000000000000
D11002966006720828540152229202401252024032500000007698350000NLIZARRAGA GARCIA CARLOS ALBERTO                   MXP000000000000000000000000000000000000000000000000000000000000000000000000000000
D11002976006720828540152230202401252024032500000008524680000NMEDINA LIMON MARCIA JANETH                        MXP000000000000000000000000000000000000000000000000000000000000000000000000000000
D11002986006720828540152231202401252024032500000004479740000NMILLAN MORALES EDGAR OCTAVIO                      MXP000000000000000000000000000000000000000000000000000000000000000000000000000000
D11002996006720828540152232202401252024032500000004080890000NSALDANA ESPINOZA LIZBETH                          MXP000000000000000000000000000000000000000000000000000000000000000000000000000000
D11003006006720828540152233202401252024032500000005594960000NSANZ MORALES FILIBERTO                            MXP000000000000000000000000000000000000000000000000000000000000000000000000000000
D11003016006720828540152234202401252024032500000011560470000NCARREON RUELAS ISMAEL                             MXP000000000000000000000000000000000000000000000000000000000000000000000000000000
D11003026006720828540152235202401252024032500000006148720000NSANCHEZ IBARRA ISMAEL                             MXP000000000000000000000000000000000000000000000000000000000000000000000000000000
D11003036006720828540152236202401252024032500000006078830000NFRANCO URIAS RAMSES ADRIAN                        MXP000000000000000000000000000000000000000000000000000000000000000000000000000000
D11003046006720828540152237202401252024032500000004329890000NBELTRAN COTA RICARDO                              MXP000000000000000000000000000000000000000000000000000000000000000000000000000000
D11003056006720828540152238202401252024032500000005606010000NCHACON SALDIVAR LUIS ALBERTO                      MXP000000000000000000000000000000000000000000000000000000000000000000000000000000
D11003066006720828540152239202401252024032500000006542540000NOSUNA MONTANO SABINO                              MXP000000000000000000000000000000000000000000000000000000000000000000000000000000
D11003076006720828540152240202401252024032500000003459750000NACUNA ORTEGA NADIA SARAHI                         MXP000000000000000000000000000000000000000000000000000000000000000000000000000000
D11003086006720828540152241202401252024032500000003939260000NRAMIREZ VENEGAS WENDY JANETH                      MXP000000000000000000000000000000000000000000000000000000000000000000000000000000
D11003096006720828540152242202401252024032500000000300000000NBENITEZ GONZALEZ MANUEL OCTAVIO                   MXP000000000000000000000000000000000000000000000000000000000000000000000000000000
D11003106006720828540152243202401252024032500000004479740000NCASTILLO FELIX JUAN DE LA CRUZ                    MXP000000000000000000000000000000000000000000000000000000000000000000000000000000
D11003116006720828540152244202401252024032500000002752490000NFLORES QUIROZ CARLA NOHEMI                        MXP000000000000000000000000000000000000000000000000000000000000000000000000000000
D11003126006720828540152245202401252024032500000000300000000NFRANCO TORRES RAMON ENRIQUE                       MXP000000000000000000000000000000000000000000000000000000000000000000000000000000
D11003136006720828540152246202401252024032500000003920110000NGONZALEZ ESTRADA ERIKA PATRICIA                   MXP000000000000000000000000000000000000000000000000000000000000000000000000000000
D11003146006720828540152247202401252024032500000000862200000NMORALES HERNANDEZ CARLOS RAMON                    MXP000000000000000000000000000000000000000000000000000000000000000000000000000000
D11003156006720828540152248202401252024032500000004343350000NOCHOA OLIVAS OMAR ALONSO                          MXP000000000000000000000000000000000000000000000000000000000000000000000000000000
D11003166006720828540152249202401252024032500000002076760000NSALAS PARTIDA ANA PAOLA                           MXP000000000000000000000000000000000000000000000000000000000000000000000000000000
D11003176006720828540152250202401252024032500000008558930000NSERRANO AVILES CLAUDIO RAMON                      MXP000000000000000000000000000000000000000000000000000000000000000000000000000000
D11003186006720828540152251202401252024032500000004897520000NFLORES RODRIGUEZ MARIA ANTONIA                    MXP000000000000000000000000000000000000000000000000000000000000000000000000000000
D11003196006720828540152252202401252024032500000005751090000NMEDINA INZUNZA MARIA LETICIA                      MXP000000000000000000000000000000000000000000000000000000000000000000000000000000
D11003206006720828540152253202401252024032500000003293810000NAGUIRRE OSUNA MAYRA GUADALUPE                     MXP000000000000000000000000000000000000000000000000000000000000000000000000000000
D11003216006720828540152254202401252024032500000005041670000NCEDANO SANCHEZ MIGUEL ALEXIS                      MXP000000000000000000000000000000000000000000000000000000000000000000000000000000
D11003226006720828540152255202401252024032500000008580010000NFELIX FLORES XAVIER ERNESTO                       MXP000000000000000000000000000000000000000000000000000000000000000000000000000000
D11003236006720828540152256202401252024032500000001580100000NFLORES OCHOA VICTOR ALFONSO                       MXP000000000000000000000000000000000000000000000000000000000000000000000000000000
D11003246006720828540152257202401252024032500000006036420000NIBARRA IBARRA PEDRO LUIS                          MXP000000000000000000000000000000000000000000000000000000000000000000000000000000
D11003256006720828540152258202401252024032500000004258810000NMILLAN OCHOA OSCAR EDUARDO                        MXP000000000000000000000000000000000000000000000000000000000000000000000000000000
D11003266006720828540152259202401252024032500000004879610000NNEVAREZ ARMENTA JOSE IVAN                         MXP000000000000000000000000000000000000000000000000000000000000000000000000000000
D11003276006720828540152260202401252024032500000005797320000NOSUNA CASTRO SOCRATES ASCARIS NOEL                MXP000000000000000000000000000000000000000000000000000000000000000000000000000000
D11003286006720828540152261202401252024032500000004066110000NOSUNA PALOMARES JOCELYNE                          MXP000000000000000000000000000000000000000000000000000000000000000000000000000000
D11003296006720828540152262202401252024032500000005797320000NQUINTERO MARTINEZ MAOMAR                          MXP000000000000000000000000000000000000000000000000000000000000000000000000000000
D11003306006720828540152263202401252024032500000006317610000NMARTINEZ TIRADO VILMA DORA                        MXP000000000000000000000000000000000000000000000000000000000000000000000000000000
D11003316006720828540152264202401252024032500000003595150000NBUSTAMANTE CHAVEZ SERGIO RAFAEL                   MXP000000000000000000000000000000000000000000000000000000000000000000000000000000
D11003326006720828540152265202401252024032500000003293810000NGASTELUM MURILLO RIGOBERTO                        MXP000000000000000000000000000000000000000000000000000000000000000000000000000000
D11003336006720828540152266202401252024032500000004059900000NAVENDANO ZAZUETA FILIBERTO                        MXP000000000000000000000000000000000000000000000000000000000000000000000000000000
D11003346006720828540152267202401252024032500000005004570000NBAYLISS AYALA LETICIA SELENE                      MXP000000000000000000000000000000000000000000000000000000000000000000000000000000
D11003356006720828540152268202401252024032500000005971840000NCAMACHO RAMIREZ ERNESTO YUSEF                     MXP000000000000000000000000000000000000000000000000000000000000000000000000000000
D11003366006720828540152269202401252024032500000015058530000NNAVARRETE CUEVAS AURELIO ROY                      MXP000000000000000000000000000000000000000000000000000000000000000000000000000000
D11003376006720828540152270202401252024032500000007186280000NRODRIGUEZ SANCHEZ MARCO ANTONIO                   MXP000000000000000000000000000000000000000000000000000000000000000000000000000000
D11003386006720828540152271202401252024032500000008580010000NAGUILAR ZAZUETA ROCIO YOLANDA                     MXP000000000000000000000000000000000000000000000000000000000000000000000000000000
D11003396006720828540152272202401252024032500000004479740000NDE LA CRUZ MENDOZA VIANKA GUADALUPE               MXP000000000000000000000000000000000000000000000000000000000000000000000000000000
D11003406006720828540152273202401252024032500000002769420000NRIVERA CARDENAS ALEJANDRO                         MXP000000000000000000000000000000000000000000000000000000000000000000000000000000
D11003416006720828540152274202401252024032500000005764250000NABUNDIS LOPEZ JESUS HUMBERTO                      MXP000000000000000000000000000000000000000000000000000000000000000000000000000000
D11003426006720828540152275202401252024032500000040207000000NABUNDIS LOPEZ JESUS HUMBERTO                      MXP000000000000000000000000000000000000000000000000000000000000000000000000000000
D11003436006720828540152276202401252024032500000003111600000NAGUILAR MARIN MARIA LEONOR                        MXP000000000000000000000000000000000000000000000000000000000000000000000000000000
D11003446006720828540152277202401252024032500000012100220000NANAYA CASTRO HERNAN EDUARDO                       MXP000000000000000000000000000000000000000000000000000000000000000000000000000000
D11003456006720828540152278202401252024032500000003075250000NARMENTA ANGULO ANABEL                             MXP000000000000000000000000000000000000000000000000000000000000000000000000000000
D11003466006720828540152279202401252024032500000026016290000NARMENTA ANGULO ANABEL                             MXP000000000000000000000000000000000000000000000000000000000000000000000000000000
D11003476006720828540152280202401252024032500000007127660000NARREDONDO ELENES MIGUEL ANGEL                     MXP000000000000000000000000000000000000000000000000000000000000000000000000000000
D11003486006720828540152281202401252024032500000003111600000NAVALOS CHONG MARIA OLGA                           MXP000000000000000000000000000000000000000000000000000000000000000000000000000000
D11003496006720828540152282202401252024032500000006272770000NAYALA HERNANDEZ NORA PATRICIA                     MXP000000000000000000000000000000000000000000000000000000000000000000000000000000
D11003506006720828540152283202401252024032500000003376080000NAYALA MARTINEZ MARIA DE JESUS                     MXP000000000000000000000000000000000000000000000000000000000000000000000000000000
D11003516006720828540152284202401252024032500000047302350000NBACASEGUA MOROYOQUI RAFAEL                        MXP000000000000000000000000000000000000000000000000000000000000000000000000000000
D11003526006720828540152285202401252024032500000003806700000NBARRAZA BELTRAN ALICIA                            MXP000000000000000000000000000000000000000000000000000000000000000000000000000000
D11003536006720828540152286202401252024032500000001958720000NBARRERAS REYNAGA RIGOBERTO                        MXP000000000000000000000000000000000000000000000000000000000000000000000000000000
D11003546006720828540152287202401252024032500000019512220000NBARRERAS REYNAGA RIGOBERTO                        MXP000000000000000000000000000000000000000000000000000000000000000000000000000000
D11003556006720828540152288202401252024032500000033111650000NBASTIDAS VELAZQUEZ JORGE LUIS                     MXP000000000000000000000000000000000000000000000000000000000000000000000000000000
D11003566006720828540152289202401252024032500000004267040000NBELTRAN HEREDIA DEICY MARISELA                    MXP000000000000000000000000000000000000000000000000000000000000000000000000000000
D11003576006720828540152290202401252024032500000003111600000NBELTRAN OJEDA RUTH NOEMI DEL PILAR                MXP000000000000000000000000000000000000000000000000000000000000000000000000000000
D11003586006720828540152291202401252024032500000005436270000NBERNAL SOTO ANA ELISA                             MXP000000000000000000000000000000000000000000000000000000000000000000000000000000
D11003596006720828540152292202401252024032500000010321370000NBOJORQUEZ PEREA OSCAR JAVIER                      MXP000000000000000000000000000000000000000000000000000000000000000000000000000000
D11003606006720828540152293202401252024032500000272483510000NBOJORQUEZ SOTO MIGUEL ANGEL                       MXP000000000000000000000000000000000000000000000000000000000000000000000000000000
D11003616006720828540152294202401252024032500000005805090000NBONIFACIO GARCIA ADELA                            MXP000000000000000000000000000000000000000000000000000000000000000000000000000000
D11003626006720828540152295202401252024032500000003111600000NBURGOS VIZCARRA PAULA                             MXP000000000000000000000000000000000000000000000000000000000000000000000000000000
D11003636006720828540152296202401252024032500000058346720000NCABRERA CRUZ CARLOS                               MXP000000000000000000000000000000000000000000000000000000000000000000000000000000
D11003646006720828540152297202401252024032500000009322250000NCACHO SALAZAR ERIKA JOSEFINA                      MXP000000000000000000000000000000000000000000000000000000000000000000000000000000
D11003656006720828540152298202401252024032500000001867050000NCARRILLO MORA JESUS OCTAVIO                       MXP000000000000000000000000000000000000000000000000000000000000000000000000000000
D11003666006720828540152299202401252024032500000004267040000NCARRILLO TORRES JOSEFINA                          MXP000000000000000000000000000000000000000000000000000000000000000000000000000000
D11003676006720828540152300202401252024032500000004165520000NCASTANEDA RIOS EVERARDO                           MXP000000000000000000000000000000000000000000000000000000000000000000000000000000
D11003686006720828540152301202401252024032500000007006000000NCASTANEDA VALENZUELA FLOR MARIA                   MXP000000000000000000000000000000000000000000000000000000000000000000000000000000
D11003696006720828540152302202401252024032500000009019720000NCASTRO GONZALEZ DANIEL                            MXP000000000000000000000000000000000000000000000000000000000000000000000000000000
D11003706006720828540152303202401252024032500000001987890000NCASTRO LOPEZ MICHELLE JHOANA                      MXP000000000000000000000000000000000000000000000000000000000000000000000000000000
D11003716006720828540152304202401252024032500000001987890000NCASTRO MEDINA ARANZA                              MXP000000000000000000000000000000000000000000000000000000000000000000000000000000
D11003726006720828540152305202401252024032500000001987890000NCASTRO MEDINA MELANIE                             MXP000000000000000000000000000000000000000000000000000000000000000000000000000000
D11003736006720828540152306202401252024032500000002274480000NCASTRO SOTO ELIZABETH                             MXP000000000000000000000000000000000000000000000000000000000000000000000000000000
D11003746006720828540152307202401252024032500000003376080000NCEBREROS MEZA MARIA DEL CARMEN                    MXP000000000000000000000000000000000000000000000000000000000000000000000000000000
D11003756006720828540152308202401252024032500000002274480000NCERRILLO CASTRO ARACELI ELIZABETH                 MXP000000000000000000000000000000000000000000000000000000000000000000000000000000
D11003766006720828540152309202401252024032500000002274480000NCERRILLO CASTRO XIOMARA GUADALUPE                 MXP000000000000000000000000000000000000000000000000000000000000000000000000000000
D11003776006720828540152310202401252024032500000007582280000NCERVANTES VALENZUELA ODILON                       MXP000000000000000000000000000000000000000000000000000000000000000000000000000000
D11003786006720828540152311202401252024032500000149985400000NCERVANTES ZUNIGA EVANGELINA                       MXP000000000000000000000000000000000000000000000000000000000000000000000000000000
D11003796006720828540152312202401252024032500000026697680000NCONTRERAS QUINTANA RAMON DE JESUS                 MXP000000000000000000000000000000000000000000000000000000000000000000000000000000
D11003806006720828540152313202401252024032500000047302350000NCONTRERAS QUINTANA RAMON DE JESUS                 MXP000000000000000000000000000000000000000000000000000000000000000000000000000000
D11003816006720828540152314202401252024032500000011511170000NCORTEZ CASTRO MARCO EDGAR                         MXP000000000000000000000000000000000000000000000000000000000000000000000000000000
D11003826006720828540152315202401252024032500000271363910000NCHAIREZ DIARTE ANA ALEJANDRA                      MXP000000000000000000000000000000000000000000000000000000000000000000000000000000
D11003836006720828540152316202401252024032500000158140940000NCHAVEZ CORONEL BLANCA ESTELA                      MXP000000000000000000000000000000000000000000000000000000000000000000000000000000
D11003846006720828540152317202401252024032500000003376080000NDELGADO CORONA LUZ ELENA                          MXP000000000000000000000000000000000000000000000000000000000000000000000000000000
D11003856006720828540152318202401252024032500000007947030000NDELGADO LOPEZ HECTOR GUADALUPE                    MXP000000000000000000000000000000000000000000000000000000000000000000000000000000
D11003866006720828540152319202401252024032500000010800680000NDELGADO ORTIZ EMIGDIA                             MXP000000000000000000000000000000000000000000000000000000000000000000000000000000
D11003876006720828540152320202401252024032500000003055400000NDOMINGUEZ SALAZAR JUANA                           MXP000000000000000000000000000000000000000000000000000000000000000000000000000000
D11003886006720828540152321202401252024032500000080441330000NFAVELA MURILLO CECILIA MARGARITA                  MXP000000000000000000000000000000000000000000000000000000000000000000000000000000
D11003896006720828540152322202401252024032500000054709410000NFIGUEROA TORRES ARMANDO                           MXP000000000000000000000000000000000000000000000000000000000000000000000000000000
D11003906006720828540152323202401252024032500000012230220000NFLORES CASTRO JESUS ALBERTO                       MXP000000000000000000000000000000000000000000000000000000000000000000000000000000
D11003916006720828540152324202401252024032500000003538710000NFLORES GONZALEZ PAOLA LETICIA                     MXP000000000000000000000000000000000000000000000000000000000000000000000000000000
D11003926006720828540152325202401252024032500000003249720000NFLORES MORENO MARIA MAGDALENA                     MXP000000000000000000000000000000000000000000000000000000000000000000000000000000
D11003936006720828540152326202401252024032500000002623860000NFLORES SALAZAR MAURA                              MXP000000000000000000000000000000000000000000000000000000000000000000000000000000
D11003946006720828540152327202401252024032500000003376080000NGAMEZ GASTELUM GRACIELA                           MXP000000000000000000000000000000000000000000000000000000000000000000000000000000
D11003956006720828540152328202401252024032500000006532760000NGAMEZ MALDONADO MARIA EMILIA                      MXP000000000000000000000000000000000000000000000000000000000000000000000000000000
D11003966006720828540152329202401252024032500000003538710000NGARCIA FLORES JORGE RAUL                          MXP000000000000000000000000000000000000000000000000000000000000000000000000000000
D11003976006720828540152330202401252024032500000005469770000NGARCIA PEREA LUNA ISABELLA                        MXP000000000000000000000000000000000000000000000000000000000000000000000000000000
D11003986006720828540152331202401252024032500000003376080000NGONZALEZ ARENAS MA CRUZ ESTHER                    MXP000000000000000000000000000000000000000000000000000000000000000000000000000000
D11003996006720828540152332202401252024032500000003110360000NGONZALEZ MARTINEZ GUILLERMO                       MXP000000000000000000000000000000000000000000000000000000000000000000000000000000
D11004006006720828540152333202401252024032500000371799500000NGONZALEZ SOTO RENATA                              MXP000000000000000000000000000000000000000000000000000000000000000000000000000000
D11004016006720828540152334202401252024032500000002350730000NGUTIERREZ SOTO ELVIRA                             MXP000000000000000000000000000000000000000000000000000000000000000000000000000000
D11004026006720828540152335202401252024032500000009504990000NGUZMAN CHAMORRO JOEL                              MXP000000000000000000000000000000000000000000000000000000000000000000000000000000
D11004036006720828540152336202401252024032500000007492010000NGUZMAN MEDINA DIANA NAYLEA                        MXP000000000000000000000000000000000000000000000000000000000000000000000000000000
D11004046006720828540152337202401252024032500000012520440000NHOLGUIN ESQUIVEL MARIA ELENA                      MXP000000000000000000000000000000000000000000000000000000000000000000000000000000
D11004056006720828540152338202401252024032500000007974950000NIBARRA HIGUERA MARIA DEL ROSARIO                  MXP000000000000000000000000000000000000000000000000000000000000000000000000000000
D11004066006720828540152339202401252024032500000001362900000NLAFARGA MARTINEZ ALEJANDRO DEL PIERO              MXP000000000000000000000000000000000000000000000000000000000000000000000000000000
D11004076006720828540152340202401252024032500000001362900000NLAFARGA MARTINEZ ALEXA                            MXP000000000000000000000000000000000000000000000000000000000000000000000000000000
D11004086006720828540152341202401252024032500000226186580000NLECHUGA ORTIZ HERMINIA                            MXP000000000000000000000000000000000000000000000000000000000000000000000000000000
D11004096006720828540152342202401252024032500000004727070000NLIZARRAGA LANDEROS ENRIQUE                        MXP000000000000000000000000000000000000000000000000000000000000000000000000000000
D11004106006720828540152343202401252024032500000008821160000NLOBILLO GARCIA RAMON                              MXP000000000000000000000000000000000000000000000000000000000000000000000000000000
D11004116006720828540152344202401252024032500000004238280000NLOPEZ BEJARANO MARIA MARISELA                     MXP000000000000000000000000000000000000000000000000000000000000000000000000000000
D11004126006720828540152345202401252024032500000003422930000NLOPEZ CARRERA MARTIN                              MXP000000000000000000000000000000000000000000000000000000000000000000000000000000
D11004136006720828540152346202401252024032500000026016290000NLOPEZ CARRERA MARTIN                              MXP000000000000000000000000000000000000000000000000000000000000000000000000000000
D11004146006720828540152347202401252024032500000002305550000NLOPEZ CASTILLO GLORIA AIDEE                       MXP000000000000000000000000000000000000000000000000000000000000000000000000000000
D11004156006720828540152348202401252024032500000010186080000NLOPEZ FELIX MARIA                                 MXP000000000000000000000000000000000000000000000000000000000000000000000000000000
D11004166006720828540152349202401252024032500000011513410000NLOPEZ FUENTES DULCE MARIA                         MXP000000000000000000000000000000000000000000000000000000000000000000000000000000
D11004176006720828540152350202401252024032500000003421920000NLOPEZ MENDIVIL DAMASO                             MXP000000000000000000000000000000000000000000000000000000000000000000000000000000
D11004186006720828540152351202401252024032500000000772210000NLOPEZ RODRIGUEZ JOSE GUADALUPE                    MXP000000000000000000000000000000000000000000000000000000000000000000000000000000
D11004196006720828540152352202401252024032500000010643030000NLOPEZ RODRIGUEZ JOSE GUADALUPE                    MXP000000000000000000000000000000000000000000000000000000000000000000000000000000
D11004206006720828540152353202401252024032500000003160000000NMARIN BELTRAN NANCY CITLALY                       MXP000000000000000000000000000000000000000000000000000000000000000000000000000000
D11004216006720828540152354202401252024032500000000716980000NMARISCAL LOPEZ MARGARITA                          MXP000000000000000000000000000000000000000000000000000000000000000000000000000000
D11004226006720828540152355202401252024032500000007494680000NMARTINEZ BARRAZA MARTHA PATRICIA                  MXP000000000000000000000000000000000000000000000000000000000000000000000000000000
D11004236006720828540152356202401252024032500000005263920000NMARTINEZ BOCANEGRA MA GENOVEVA                    MXP000000000000000000000000000000000000000000000000000000000000000000000000000000
D11004246006720828540152357202401252024032500000001362900000NMARTINEZ HERMOSILLO ERIKA JANETH                  MXP000000000000000000000000000000000000000000000000000000000000000000000000000000
D11004256006720828540152358202401252024032500000004277720000NMATA TORRES FERNANDA                              MXP000000000000000000000000000000000000000000000000000000000000000000000000000000
D11004266006720828540152359202401252024032500000012336000000NMEDINA RIOS KEVIN GERARDO                         MXP000000000000000000000000000000000000000000000000000000000000000000000000000000
D11004276006720828540152360202401252024032500000001987890000NMEDINA RODRIGUEZ ALEXIS ABIGAIL                   MXP000000000000000000000000000000000000000000000000000000000000000000000000000000
D11004286006720828540152361202401252024032500000003421920000NMENDIVIL BELTRAN FRANCISCA                        MXP000000000000000000000000000000000000000000000000000000000000000000000000000000
D11004296006720828540152362202401252024032500000003160000000NMENDOZA MARIN CESAR ALBERTO                       MXP000000000000000000000000000000000000000000000000000000000000000000000000000000
D11004306006720828540152363202401252024032500000003477150000NMENDOZA RAMIREZ JAIME                             MXP000000000000000000000000000000000000000000000000000000000000000000000000000000
D11004316006720828540152364202401252024032500000011008100000NMEZA GARCIA NORMA SILVIA                          MXP000000000000000000000000000000000000000000000000000000000000000000000000000000
D11004326006720828540152365202401252024032500000005620430000NMILLAN SANDOVAL BLANCA ESTHELA                    MXP000000000000000000000000000000000000000000000000000000000000000000000000000000
D11004336006720828540152366202401252024032500000005598050000NMORALES VALDEZ ELEIDA                             MXP000000000000000000000000000000000000000000000000000000000000000000000000000000
D11004346006720828540152367202401252024032500000012662290000NMORANO SEGURA LUIS GUSTAVO                        MXP000000000000000000000000000000000000000000000000000000000000000000000000000000
D11004356006720828540152368202401252024032500000003376080000NMORGA AISPURO MARIA DE LA PAZ                     MXP000000000000000000000000000000000000000000000000000000000000000000000000000000
D11004366006720828540152369202401252024032500000009193010000NMURILLO GUEVARA JESUS ALBERTO                     MXP000000000000000000000000000000000000000000000000000000000000000000000000000000
D11004376006720828540152370202401252024032500000053417110000NMURILLO ROJO JUAN ANTONIO                         MXP000000000000000000000000000000000000000000000000000000000000000000000000000000
D11004386006720828540152371202401252024032500000047302350000NMURILLO ROJO JUAN ANTONIO                         MXP000000000000000000000000000000000000000000000000000000000000000000000000000000
D11004396006720828540152372202401252024032500000003372180000NNAVARRO ROSAS ROSA GUADALUPE                      MXP000000000000000000000000000000000000000000000000000000000000000000000000000000
D11004406006720828540152373202401252024032500000033111650000NNAVARRO ROSAS ROSA GUADALUPE                      MXP000000000000000000000000000000000000000000000000000000000000000000000000000000
D11004416006720828540152374202401252024032500000011511170000NNEVAREZ ACOSTA MARIO ANTONIO                      MXP000000000000000000000000000000000000000000000000000000000000000000000000000000
D11004426006720828540152375202401252024032500000007943690000NNIEBLA CAMACHO ISABEL ESPERANZA                   MXP000000000000000000000000000000000000000000000000000000000000000000000000000000
D11004436006720828540152376202401252024032500000011207600000NNIEBLAS QUINONEZ IRMA CANDELARIA                  MXP000000000000000000000000000000000000000000000000000000000000000000000000000000
D11004446006720828540152377202401252024032500000695088770000NONTIVEROS SALAS SOILA OLIVIA                      MXP000000000000000000000000000000000000000000000000000000000000000000000000000000
D11004456006720828540152378202401252024032500000006442460000NORPINEDA FIERRO ANGELICA MARIA                    MXP000000000000000000000000000000000000000000000000000000000000000000000000000000
D11004466006720828540152379202401252024032500000013116770000NORTEGA VARELA RICARDO                             MXP000000000000000000000000000000000000000000000000000000000000000000000000000000
D11004476006720828540152380202401252024032500000008584110000NORTIZ MILLAN ULISES                               MXP000000000000000000000000000000000000000000000000000000000000000000000000000000
D11004486006720828540152381202401252024032500000080441330000NOSUNA FAVELA ITZEL GUADALUPE                      MXP000000000000000000000000000000000000000000000000000000000000000000000000000000
D11004496006720828540152382202401252024032500000080441330000NOSUNA FAVELA JESUS MANUEL                         MXP000000000000000000000000000000000000000000000000000000000000000000000000000000
D11004506006720828540152383202401252024032500000080441330000NOSUNA FAVELA YAHIR ANTONIO                        MXP000000000000000000000000000000000000000000000000000000000000000000000000000000
D11004516006720828540152384202401252024032500000007955670000NPADILLA RIOS EVA                                  MXP000000000000000000000000000000000000000000000000000000000000000000000000000000
D11004526006720828540152385202401252024032500000007551800000NPARRA NEVAREZ GUADALUPE                           MXP000000000000000000000000000000000000000000000000000000000000000000000000000000
D11004536006720828540152386202401252024032500000005813190000NPEREZ FELIX ANA MARISELA                          MXP000000000000000000000000000000000000000000000000000000000000000000000000000000
D11004546006720828540152387202401252024032500000000716980000NPINA CORONA ANGELA LETICIA                        MXP000000000000000000000000000000000000000000000000000000000000000000000000000000
D11004556006720828540152388202401252024032500000000716980000NPINA CORONA LOURDES GUADALUPE                     MXP000000000000000000000000000000000000000000000000000000000000000000000000000000
D11004566006720828540152389202401252024032500000000716980000NPINA CORONA MARIA MAGALY                          MXP000000000000000000000000000000000000000000000000000000000000000000000000000000
D11004576006720828540152390202401252024032500000000716980000NPINA MARISCAL NESTOR DANIEL                       MXP000000000000000000000000000000000000000000000000000000000000000000000000000000
D11004586006720828540152391202401252024032500000002046130000NRAMIREZ GARCIA ISRAEL                             MXP000000000000000000000000000000000000000000000000000000000000000000000000000000
D11004596006720828540152392202401252024032500000023651180000NRAMIREZ GARCIA ISRAEL                             MXP000000000000000000000000000000000000000000000000000000000000000000000000000000
D11004606006720828540152393202401252024032500000027906550000NRAYGOZA ALARCON HUGO                              MXP000000000000000000000000000000000000000000000000000000000000000000000000000000
D11004616006720828540152394202401252024032500000005813190000NRIVAS PEREZ ANA JUDITH                            MXP000000000000000000000000000000000000000000000000000000000000000000000000000000
D11004626006720828540152395202401252024032500000003287190000NRODRIGUEZ ANAYA AMERICA MICHELLE                  MXP000000000000000000000000000000000000000000000000000000000000000000000000000000
D11004636006720828540152396202401252024032500000005254500000NROJAS FLORES DIONICIO                             MXP000000000000000000000000000000000000000000000000000000000000000000000000000000
D11004646006720828540152397202401252024032500000005129190000NROMERO ROCHA MA ELODIA                            MXP000000000000000000000000000000000000000000000000000000000000000000000000000000
D11004656006720828540152398202401252024032500000006282470000NRUBIO GAXIOLA CESAREO                             MXP000000000000000000000000000000000000000000000000000000000000000000000000000000
D11004666006720828540152399202401252024032500000007778450000NRUIZ VELAZQUEZ ENEDINA                            MXP000000000000000000000000000000000000000000000000000000000000000000000000000000
D11004676006720828540152400202401252024032500000004332770000NSALAZAR TINOCO KAREN DAYANA                       MXP000000000000000000000000000000000000000000000000000000000000000000000000000000
D11004686006720828540152401202401252024032500000005598050000NSALOMON MORALES PAULETTE ALEXANDRA                MXP000000000000000000000000000000000000000000000000000000000000000000000000000000
D11004696006720828540152402202401252024032500000007526040000NSANCHEZ MAPULA OLGA OLIVIA                        MXP000000000000000000000000000000000000000000000000000000000000000000000000000000
D11004706006720828540152403202401252024032500000009143680000NSANDOVAL RIOS MARIO EDUARDO                       MXP000000000000000000000000000000000000000000000000000000000000000000000000000000
D11004716006720828540152404202401252024032500000008634500000NSAUCEDO QUIROS MA AGAPITA                         MXP000000000000000000000000000000000000000000000000000000000000000000000000000000
D11004726006720828540152405202401252024032500000003111600000NSILVA LOPEZ GUILLERMO                             MXP000000000000000000000000000000000000000000000000000000000000000000000000000000
D11004736006720828540152406202401252024032500000003376080000NSOTO GONZALEZ MARIA DEL REFUGIO                   MXP000000000000000000000000000000000000000000000000000000000000000000000000000000
D11004746006720828540152407202401252024032500000004332770000NTINOCO BARRON CLAUDIA ALICIA                      MXP000000000000000000000000000000000000000000000000000000000000000000000000000000
D11004756006720828540152408202401252024032500000003111600000NTIZOC LLANES CANDELARIA                           MXP000000000000000000000000000000000000000000000000000000000000000000000000000000
D11004766006720828540152409202401252024032500000002305550000NTORRES LOPEZ GAEL SANTIAGO                        MXP000000000000000000000000000000000000000000000000000000000000000000000000000000
D11004776006720828540152410202401252024032500000004277720000NTORRES MORENO AMERICA                             MXP000000000000000000000000000000000000000000000000000000000000000000000000000000
D11004786006720828540152411202401252024032500000003639180000NVALLE CHARLES ESTEFANIA                           MXP000000000000000000000000000000000000000000000000000000000000000000000000000000
D11004796006720828540152412202401252024032500000003639180000NVALLE CHARLES MELANIE                             MXP000000000000000000000000000000000000000000000000000000000000000000000000000000
D11004806006720828540152413202401252024032500000003763050000NVAZQUEZ BASULTO LETISIA                           MXP000000000000000000000000000000000000000000000000000000000000000000000000000000
D11004816006720828540152414202401252024032500000239007710000NVELAZQUEZ IRIBE JOSE RAMON                        MXP000000000000000000000000000000000000000000000000000000000000000000000000000000
D11004826006720828540152415202401252024032500000003111600000NVELAZQUEZ MARTINEZ CARLOS                         MXP000000000000000000000000000000000000000000000000000000000000000000000000000000
D11004836006720828540152416202401252024032500000037841880000NVERDUGO LOPEZ CRUZ ISMAEL                         MXP000000000000000000000000000000000000000000000000000000000000000000000000000000
D11004846006720828540152417202401252024032500000007030850000NVERDUGO MENDO MARIA DE LOS ANGELES                MXP000000000000000000000000000000000000000000000000000000000000000000000000000000
D11004856006720828540152418202401252024032500000015060000000NVIZCARRA BELTRAN JOSE ANTONIO                     MXP000000000000000000000000000000000000000000000000000000000000000000000000000000
D11004866006720828540152419202401252024032500000003456450000NVIZCARRA SAINZ BERNARDINO                         MXP000000000000000000000000000000000000000000000000000000000000000000000000000000
D11004876006720828540152420202401252024032500000033111650000NVIZCARRA SAINZ BERNARDINO                         MXP000000000000000000000000000000000000000000000000000000000000000000000000000000
D11004886006720828540152421202401252024032500000007790240000NZAMORA AYALA MATILDE                              MXP000000000000000000000000000000000000000000000000000000000000000000000000000000
D11004896006720828540152422202401252024032500000005343740000NZAZUETA BELTRAN CONCEPCION                        MXP000000000000000000000000000000000000000000000000000000000000000000000000000000
D11004906006720828540152423202401252024032500000320586370000NZAZUETA BERRELLEZA ELIGIA                         MXP000000000000000000000000000000000000000000000000000000000000000000000000000000
D11004916006720828540152424202401252024032500000003763050000NZAZUETA VAZQUEZ SUSAN MAYTE                       MXP000000000000000000000000000000000000000000000000000000000000000000000000000000
D11004926006720828540152425202401252024032500000015875680000NMARQUEZ CALDERON KARINA ELIZABETH                 MXP000000000000000000000000000000000000000000000000000000000000000000000000000000
D11004936006720828540152426202401252024032500000007834250000NVELARDE OSUNA SANTA                               MXP000000000000000000000000000000000000000000000000000000000000000000000000000000
D11004946006720828540152427202401252024032500000011266110000NZATARAIN AMADOR LUIS ALBERTO                      MXP000000000000000000000000000000000000000000000000000000000000000000000000000000
D11004956006720828540152428202401252024032500000006241790000NBURGOS VALDEZ CARLOS ARTURO                       MXP000000000000000000000000000000000000000000000000000000000000000000000000000000
D11004966006720828540152429202401252024032500000013087190000NLOPEZ SANDOVAL EDUARDO                            MXP000000000000000000000000000000000000000000000000000000000000000000000000000000
D11004976006720828540152430202401252024032500000003919440000NGONZALEZ VEJAR MARIA JOSE                         MXP000000000000000000000000000000000000000000000000000000000000000000000000000000
D11004986006720828540152431202401252024032500000005606000000NLIZARRAGA SANCHEZ ROSA MARIA                      MXP000000000000000000000000000000000000000000000000000000000000000000000000000000
D11004996006720828540152432202401252024032500000011014600000NMANZANAREZ SALAZAR JULIO CESAR                    MXP000000000000000000000000000000000000000000000000000000000000000000000000000000
D11005006006720828540152433202401252024032500000034191750000NRIVERA LOZOYA CLAUDIA MILDRETH                    MXP000000000000000000000000000000000000000000000000000000000000000000000000000000
D11005016006720828540152434202401252024032500000009714080000NRUIZ BARAJAS SANDY LORENA                         MXP000000000000000000000000000000000000000000000000000000000000000000000000000000
D11005026006720828540152435202401252024032500000003919440000NSOTO GAXIOLA LAURA MICHELLE                       MXP000000000000000000000000000000000000000000000000000000000000000000000000000000
D11005036006720828540152436202401252024032500000007654730000NURIAS LOPEZ MARCO ANTONIO                         MXP000000000000000000000000000000000000000000000000000000000000000000000000000000
D11005046006720828540152437202401252024032500000005606000000NVALENZUELA MARRUJO ANGELICA ALEJANDRA             MXP000000000000000000000000000000000000000000000000000000000000000000000000000000
D11005056006720828540152438202401252024032500000021060990000NDIAZ VEGA ENRIQUE ALFONSO                         MXP000000000000000000000000000000000000000000000000000000000000000000000000000000
D11005066006720828540152439202401252024032500000007834250000NVALENZUELA SANCHEZ CHRISTIAN ALBERTO              MXP000000000000000000000000000000000000000000000000000000000000000000000000000000
D11005076006720828540152440202401252024032500000011427100000NAHUMADA FABELA ADRIANA                            MXP000000000000000000000000000000000000000000000000000000000000000000000000000000
D11005086006720828540152441202401252024032500000015875680000NBELTRAN LEON ABELARDO                             MXP000000000000000000000000000000000000000000000000000000000000000000000000000000
D11005096006720828540152442202401252024032500000008112350000NFIERRO ZAZUETA EDWIN GABRIEL                      MXP000000000000000000000000000000000000000000000000000000000000000000000000000000
D11005106006720828540152443202401252024032500000039807310000NFRANCO LABRADA ANA LUCIA                          MXP000000000000000000000000000000000000000000000000000000000000000000000000000000
D11005116006720828540152444202401252024032500000001688150000NLUGO SANCHEZ NORMA MIREYA                         MXP000000000000000000000000000000000000000000000000000000000000000000000000000000
D11005126006720828540152445202401252024032500000001485900000NMENDOZA ZAZUETA AARON                             MXP000000000000000000000000000000000000000000000000000000000000000000000000000000
D11005136006720828540152446202401252024032500000007834250000NMONTOYA SANCHEZ JAHAIRA VERONICA                  MXP000000000000000000000000000000000000000000000000000000000000000000000000000000
D11005146006720828540152447202401252024032500000004080890000NRAMIREZ RAMIREZ ADOLFINA DE MARIA                 MXP000000000000000000000000000000000000000000000000000000000000000000000000000000
D11005156006720828540152448202401252024032500000010791150000NREYES SANCHEZ DALIA YANET                         MXP000000000000000000000000000000000000000000000000000000000000000000000000000000
D11005166006720828540152449202401252024032500000007834250000NSANGUINO RAMOS RAUL OMAR                          MXP000000000000000000000000000000000000000000000000000000000000000000000000000000
D11005176006720828540152450202401252024032500000003919440000NGARCIA OLIVAS JUAN PABLO                          MXP000000000000000000000000000000000000000000000000000000000000000000000000000000
