H01248202311140010124800000000001101228700000000000000000000000012480000000000110122870000000000000000000000000000000000000000000000000000000000000000000000000000000000000000000000000000000000
D11000016006720828540143554202311142024011400000004065900000NRODRIGUEZ JORGE ARMANDO                           MXP000000000000000000000000000000000000000000000000000000000000000000000000000000
D11000026006720828540143555202311142024011400000007906750000NCANTU FONSECA MARICRUZ                            MXP000000000000000000000000000000000000000000000000000000000000000000000000000000
D11000036006720828540143556202311142024011400000009992210000NFIGUEROA GUADARRAMA ROBERTO                       MXP000000000000000000000000000000000000000000000000000000000000000000000000000000
D11000046006720828540143557202311142024011400000002919800000NJIMENEZ ALVAREZ BARTOLO                           MXP000000000000000000000000000000000000000000000000000000000000000000000000000000
D11000056006720828540143558202311142024011400000002919800000NMERCADO CANTUA LUZ ESTHER                         MXP000000000000000000000000000000000000000000000000000000000000000000000000000000
D11000066006720828540143559202311142024011400000004633590000NGARZA SOTO DANNA XIMENA                           MXP000000000000000000000000000000000000000000000000000000000000000000000000000000
D11000076006720828540143560202311142024011400000004226350000NLANGARICA VALENZUELA ABDIEL ORLANDO               MXP000000000000000000000000000000000000000000000000000000000000000000000000000000
D11000086006720828540143561202311142024011400000003288170000NCASTRO RODRIGUEZ ESMERALDA BERENICE               MXP000000000000000000000000000000000000000000000000000000000000000000000000000000
D11000096006720828540143562202311142024011400000004127580000NROBLES GUERRERO LAURA                             MXP000000000000000000000000000000000000000000000000000000000000000000000000000000
D11000106006720828540143563202311142024011400000001950940000NBELTRAN MARTINEZ MARIA GUADALUPE                  MXP000000000000000000000000000000000000000000000000000000000000000000000000000000
D11000116006720828540143564202311142024011400000004501510000NCRUZ NUNEZ MARIEL MELISSA                         MXP000000000000000000000000000000000000000000000000000000000000000000000000000000
D11000126006720828540143565202311142024011400000004501510000NOCHOA FELIX FLOR DE MARIA                         MXP000000000000000000000000000000000000000000000000000000000000000000000000000000
D11000136006720828540143566202311142024011400000007245690000NTREVEDAN NICOLS EDGAR JESUS                       MXP000000000000000000000000000000000000000000000000000000000000000000000000000000
D11000146006720828540143567202311142024011400000004280600000NLOPEZ CORONADO CARLOS DANIEL                      MXP000000000000000000000000000000000000000000000000000000000000000000000000000000
D11000156006720828540143568202311142024011400000005702590000NMARTINEZ ROBLES HECTOR OSWALDO                    MXP000000000000000000000000000000000000000000000000000000000000000000000000000000
D11000166006720828540143569202311142024011400000004501510000NARMENTA CASTRO GUILLERMO ANTONIO                  MXP000000000000000000000000000000000000000000000000000000000000000000000000000000
D11000176006720828540143570202311142024011400000004081680000NLOPEZ ORDUNO JUAN FRANCISCO                       MXP000000000000000000000000000000000000000000000000000000000000000000000000000000
D11000186006720828540143571202311142024011400000004936020000NALCARAZ VERDUZCO BRAULIO                          MXP000000000000000000000000000000000000000000000000000000000000000000000000000000
D11000196006720828540143572202311142024011400000005096620000NLEON VELAZQUEZ LAURA KARINA                       MXP000000000000000000000000000000000000000000000000000000000000000000000000000000
D11000206006720828540143573202311142024011400000002264400000NMONTIEL SOLIS FRANCISCA                           MXP000000000000000000000000000000000000000000000000000000000000000000000000000000
D11000216006720828540143574202311142024011400000002762660000NPABALAIS VALENZUELA MARICRUZ                      MXP000000000000000000000000000000000000000000000000000000000000000000000000000000
D11000226006720828540143575202311142024011400000007008880000NRONAO TORRES FRANCISCO JAVIER                     MXP000000000000000000000000000000000000000000000000000000000000000000000000000000
D11000236006720828540143576202311142024011400000004244490000NRUIZ PUENTE OMAR JASIEL                           MXP000000000000000000000000000000000000000000000000000000000000000000000000000000
D11000246006720828540143577202311142024011400000003003500000NSANCHEZ HERNANDEZ MANUEL                          MXP000000000000000000000000000000000000000000000000000000000000000000000000000000
D11000256006720828540143578202311142024011400000002142800000NVALENZUELA PABALAY MAYRA GEORGINA                 MXP000000000000000000000000000000000000000000000000000000000000000000000000000000
D11000266006720828540143579202311142024011400000005124240000NVELAZQUEZ PABALAY MARICRUZ                        MXP000000000000000000000000000000000000000000000000000000000000000000000000000000
D11000276006720828540143580202311142024011400000003500640000NMENDEZ MALACON JESUS MANUEL                       MXP000000000000000000000000000000000000000000000000000000000000000000000000000000
D11000286006720828540143581202311142024011400000004149650000NRUIZ PORTILLO HECTOR RAUL                         MXP000000000000000000000000000000000000000000000000000000000000000000000000000000
D11000296006720828540143582202311142024011400000004275590000NGIL LEYVA ANA BELEM                               MXP000000000000000000000000000000000000000000000000000000000000000000000000000000
D11000306006720828540143583202311142024011400000004214660000NSANUDO BERNAL ANIBAL URIEL                        MXP000000000000000000000000000000000000000000000000000000000000000000000000000000
D11000316006720828540143584202311142024011400000002960400000NSOTO ROMAN MIRTA ISABEL                           MXP000000000000000000000000000000000000000000000000000000000000000000000000000000
D11000326006720828540143585202311142024011400000004065900000NVARGAS FIERRO LUIS FERNANDO                       MXP000000000000000000000000000000000000000000000000000000000000000000000000000000
D11000336006720828540143586202311142024011400000006319730000NVARGAS LANDEROS GABRIEL ALFREDO                   MXP000000000000000000000000000000000000000000000000000000000000000000000000000000
D11000346006720828540143587202311142024011400000004149650000NFELIX CALLEJAS ROSA LUZ                           MXP000000000000000000000000000000000000000000000000000000000000000000000000000000
D11000356006720828540143588202311142024011400000004747260000NFLORES MEDINA FRANCISCO JAVIER                    MXP000000000000000000000000000000000000000000000000000000000000000000000000000000
D11000366006720828540143589202311142024011400000005627780000NGAMEZ ROBLES ISMAEL                               MXP000000000000000000000000000000000000000000000000000000000000000000000000000000
D11000376006720828540143590202311142024011400000004501510000NHERNANDEZ FLORES MARIA ALEJANDRINA                MXP000000000000000000000000000000000000000000000000000000000000000000000000000000
D11000386006720828540143591202311142024011400000003952060000NMONTOYA VERDUGO JOSE LUIS                         MXP000000000000000000000000000000000000000000000000000000000000000000000000000000
D11000396006720828540143592202311142024011400000004291920000NSALAZAR ANTELO DAAN                               MXP000000000000000000000000000000000000000000000000000000000000000000000000000000
D11000406006720828540143593202311142024011400000007111520000NCAMACHO PALAFOX PAULINA                           MXP000000000000000000000000000000000000000000000000000000000000000000000000000000
D11000416006720828540143594202311142024011400000003538710000NGARCIA QUEZADA DIEGO FERNANDO                     MXP000000000000000000000000000000000000000000000000000000000000000000000000000000
D11000426006720828540143595202311142024011400000001889140000NGASTELUM VALLE PATRICIA                           MXP000000000000000000000000000000000000000000000000000000000000000000000000000000
D11000436006720828540143596202311142024011400000005755590000NGONZALEZ IBARRA ALEXA CRISTINA                    MXP000000000000000000000000000000000000000000000000000000000000000000000000000000
D11000446006720828540143597202311142024011400000003716840000NHIGUERA URIAS CELSO                               MXP000000000000000000000000000000000000000000000000000000000000000000000000000000
D11000456006720828540143598202311142024011400000005755590000NIBARRA GUERRERO MARIA CRISTINA                    MXP000000000000000000000000000000000000000000000000000000000000000000000000000000
D11000466006720828540143599202311142024011400000007678360000NJIMENEZ ACOSTA SIMON                              MXP000000000000000000000000000000000000000000000000000000000000000000000000000000
D11000476006720828540143600202311142024011400001298154730000NJIMENEZ ACOSTA SIMON                              MXP000000000000000000000000000000000000000000000000000000000000000000000000000000
D11000486006720828540143601202311142024011400000025261120000NLEYVA CASTRO ROSARIO                              MXP000000000000000000000000000000000000000000000000000000000000000000000000000000
D11000496006720828540143602202311142024011400000003111600000NLUQUE CRUZ SILVIA ELIA                            MXP000000000000000000000000000000000000000000000000000000000000000000000000000000
D11000506006720828540143603202311142024011400000005755590000NVALDEZ GAMBOA JAVIER                              MXP000000000000000000000000000000000000000000000000000000000000000000000000000000
D11000516006720828540143604202311142024011400000008181740000NVALENZUELA CAMARGO JUANA                          MXP000000000000000000000000000000000000000000000000000000000000000000000000000000
D11000526006720828540143605202311142024011400000005627780000NBERNAL RODRIGUEZ CHRISTIAN UBALDO                 MXP000000000000000000000000000000000000000000000000000000000000000000000000000000
D11000536006720828540143606202311142024011400000005627780000NCANEDO ESCALANTE JOSE LORENZO                     MXP000000000000000000000000000000000000000000000000000000000000000000000000000000
D11000546006720828540143607202311142024011400000004734040000NLEYVA CAMARGO JOSE IVAN                           MXP000000000000000000000000000000000000000000000000000000000000000000000000000000
D11000556006720828540143608202311142024011400000004065900000NLOPEZ CARDENAS PAMELA GUADALUPE                   MXP000000000000000000000000000000000000000000000000000000000000000000000000000000
D11000566006720828540143609202311142024011400000002684420000NURIARTE URQUIDEZ ALEX ISRAEL                      MXP000000000000000000000000000000000000000000000000000000000000000000000000000000
D11000576006720828540143610202311142024011400000004065900000NARDIZONI MARTINEZ JESUS                           MXP000000000000000000000000000000000000000000000000000000000000000000000000000000
D11000586006720828540143611202311142024011400000003993750000NGONZALEZ CEBALLOS GLADYS                          MXP000000000000000000000000000000000000000000000000000000000000000000000000000000
D11000596006720828540143612202311142024011400000005300600000NIBARRA BELTRAN BLANCA GUADALUPE                   MXP000000000000000000000000000000000000000000000000000000000000000000000000000000
D11000606006720828540143613202311142024011400000005300600000NIBARRA LUGO VANESSA ALEJANDRA                     MXP000000000000000000000000000000000000000000000000000000000000000000000000000000
D11000616006720828540143614202311142024011400000003987840000NLOPEZ MARTINEZ SAMI                               MXP000000000000000000000000000000000000000000000000000000000000000000000000000000
D11000626006720828540143615202311142024011400000004081680000NPEREZ CAMIADE RICARDO                             MXP000000000000000000000000000000000000000000000000000000000000000000000000000000
D11000636006720828540143616202311142024011400000005404540000NRIOS BELTRAN CUTBERTO                             MXP000000000000000000000000000000000000000000000000000000000000000000000000000000
D11000646006720828540143617202311142024011400000007068700000NLOPEZ LUGO JESUS                                  MXP000000000000000000000000000000000000000000000000000000000000000000000000000000
D11000656006720828540143618202311142024011400000005300600000NIBARRA VAZQUEZ BEATRIZ GUADALUPE                  MXP000000000000000000000000000000000000000000000000000000000000000000000000000000
D11000666006720828540143619202311142024011400000004149650000NPENUELAS NAVARRO KARLA PAOLA                      MXP000000000000000000000000000000000000000000000000000000000000000000000000000000
D11000676006720828540143620202311142024011400000005300600000NSOTO LUGO MARIA LIBERTAD                          MXP000000000000000000000000000000000000000000000000000000000000000000000000000000
D11000686006720828540143621202311142024011400000007023340000NCASTILLO GALAVIZ YUSSEN ANTONIO                   MXP000000000000000000000000000000000000000000000000000000000000000000000000000000
D11000696006720828540143622202311142024011400000004605020000NCOTA SOTO IRMA                                    MXP000000000000000000000000000000000000000000000000000000000000000000000000000000
D11000706006720828540143623202311142024011400000003941220000NVELIZ SANDOVAL NINFA ARMIDA                       MXP000000000000000000000000000000000000000000000000000000000000000000000000000000
D11000716006720828540143624202311142024011400000006561890000NURIAS MASCARENO ROBERTO                           MXP000000000000000000000000000000000000000000000000000000000000000000000000000000
D11000726006720828540143625202311142024011400000002302240000NVISAIZ FELIX DIANA LAURA                          MXP000000000000000000000000000000000000000000000000000000000000000000000000000000
D11000736006720828540143626202311142024011400000004501510000NCARDENAS RUIZ PAOLA VANESSA                       MXP000000000000000000000000000000000000000000000000000000000000000000000000000000
D11000746006720828540143627202311142024011400000002853690000NALVAREZ IBARRA ERNESTO                            MXP000000000000000000000000000000000000000000000000000000000000000000000000000000
D11000756006720828540143628202311142024011400000004417380000NRIVERA DIMAS ROSARIO MARIBEL                      MXP000000000000000000000000000000000000000000000000000000000000000000000000000000
D11000766006720828540143629202311142024011400000007730230000NBENITEZ ROMERO JUAN CARLOS                        MXP000000000000000000000000000000000000000000000000000000000000000000000000000000
D11000776006720828540143630202311142024011400000001932600000NCORRALES LOPEZ CAMILA                             MXP000000000000000000000000000000000000000000000000000000000000000000000000000000
D11000786006720828540143631202311142024011400000001932600000NCORRALES LOPEZ VICTORIA RUBI                      MXP000000000000000000000000000000000000000000000000000000000000000000000000000000
D11000796006720828540143632202311142024011400000001932600000NLOPEZ ANGULO ARACELI GUADALUPE                    MXP000000000000000000000000000000000000000000000000000000000000000000000000000000
D11000806006720828540143633202311142024011400000002499020000NROBLES PACHECO CARMEN ALICIA                      MXP000000000000000000000000000000000000000000000000000000000000000000000000000000
D11000816006720828540143634202311142024011400000004047980000NZACARIAS BUITIMEA EVELYN MAYTE                    MXP000000000000000000000000000000000000000000000000000000000000000000000000000000
D11000826006720828540143635202311142024011400000004047980000NZACARIAS BUITIMEA MAGALY NOEMI                    MXP000000000000000000000000000000000000000000000000000000000000000000000000000000
D11000836006720828540143636202311142024011400000001893230000NRUIZ PORTILLO CHRISTIAN URIEL                     MXP000000000000000000000000000000000000000000000000000000000000000000000000000000
D11000846006720828540143637202311142024011400000004149650000NCOTA GUTIERREZ RODRIGO                            MXP000000000000000000000000000000000000000000000000000000000000000000000000000000
D11000856006720828540143638202311142024011400000005057340000NLUQUE COTA ANNEL                                  MXP000000000000000000000000000000000000000000000000000000000000000000000000000000
D11000866006720828540143639202311142024011400000004280600000NCALVO ARAUJO MARIA JOSE                           MXP000000000000000000000000000000000000000000000000000000000000000000000000000000
D11000876006720828540143640202311142024011400000004280600000NFLORES HERNANDEZ VALERIA YARELY                   MXP000000000000000000000000000000000000000000000000000000000000000000000000000000
D11000886006720828540143641202311142024011400000002706300000NVERDUGO HEREDIA HUMBERTO                          MXP000000000000000000000000000000000000000000000000000000000000000000000000000000
D11000896006720828540143642202311142024011400000002395680000NVERDUGO HEREDIA RAMON                             MXP000000000000000000000000000000000000000000000000000000000000000000000000000000
D11000906006720828540143643202311142024011400000004073960000NFRANCO VALENZUELA EDUARDO IGNACIO                 MXP000000000000000000000000000000000000000000000000000000000000000000000000000000
D11000916006720828540143644202311142024011400000005627780000NARMENTA COTA GUILLERMINA                          MXP000000000000000000000000000000000000000000000000000000000000000000000000000000
D11000926006720828540143645202311142024011400000004372820000NMONDACA BRICENO LAURA                             MXP000000000000000000000000000000000000000000000000000000000000000000000000000000
D11000936006720828540143646202311142024011400000004501510000NLIRA LOPEZ Y BAJO PALOMA TERESA                   MXP000000000000000000000000000000000000000000000000000000000000000000000000000000
D11000946006720828540143647202311142024011400000004073960000NVEGA MIRANDA ALFONSO                              MXP000000000000000000000000000000000000000000000000000000000000000000000000000000
D11000956006720828540143648202311142024011400000005627780000NLEON LOPEZ RAMON CANDELARIO                       MXP000000000000000000000000000000000000000000000000000000000000000000000000000000
D11000966006720828540143649202311142024011400000004085630000NFLORES VERDUZCO ADRIAN EDUARDO                    MXP000000000000000000000000000000000000000000000000000000000000000000000000000000
D11000976006720828540143650202311142024011400000006483910000NLOPEZ ARMENTA JUAN CARLOS                         MXP000000000000000000000000000000000000000000000000000000000000000000000000000000
D11000986006720828540143651202311142024011400000005404540000NPACHECO RUIZ JOSE DE JESUS                        MXP000000000000000000000000000000000000000000000000000000000000000000000000000000
D11000996006720828540143652202311142024011400000004980600000NVALENZUELA LUGO FRANCISCO JAVIER                  MXP000000000000000000000000000000000000000000000000000000000000000000000000000000
D11001006006720828540143653202311142024011400000002809180000NGOMEZ VALENZUELA FRANCISCA CECILIA                MXP000000000000000000000000000000000000000000000000000000000000000000000000000000
D11001016006720828540143654202311142024011400000004073960000NHERRAN GAXIOLA SATURNINO EDUARDO                  MXP000000000000000000000000000000000000000000000000000000000000000000000000000000
D11001026006720828540143655202311142024011400000002606400000NIBANEZ TIRADO CRISANTA                            MXP000000000000000000000000000000000000000000000000000000000000000000000000000000
D11001036006720828540143656202311142024011400000004214660000NCORRALES COTA VIRGINIA ISABEL                     MXP000000000000000000000000000000000000000000000000000000000000000000000000000000
D11001046006720828540143657202311142024011400000004073960000NOSORNIO VALENZUELA MACARIO                        MXP000000000000000000000000000000000000000000000000000000000000000000000000000000
D11001056006720828540143658202311142024011400000008202260000NCAMARGO COTA GRACIANO                             MXP000000000000000000000000000000000000000000000000000000000000000000000000000000
D11001066006720828540143659202311142024011400000007068700000NGARCIA COLIN JOSE DE JESUS                        MXP000000000000000000000000000000000000000000000000000000000000000000000000000000
D11001076006720828540143660202311142024011400000004065900000NACOSTA SANTOS PERLA LIZETH                        MXP000000000000000000000000000000000000000000000000000000000000000000000000000000
D11001086006720828540143661202311142024011400000007489610000NSANDOVAL RAMIREZ FRANCISCO JAVIER                 MXP000000000000000000000000000000000000000000000000000000000000000000000000000000
D11001096006720828540143662202311142024011400000004501510000NROCHA GUTIERREZ GUADALUPE                         MXP000000000000000000000000000000000000000000000000000000000000000000000000000000
D11001106006720828540143663202311142024011400000004293730000NBLANCARTE BERNAL PAULINA                          MXP000000000000000000000000000000000000000000000000000000000000000000000000000000
D11001116006720828540143664202311142024011400000005057340000NESPINOZA VILLEGAS RAMON IVAN                      MXP000000000000000000000000000000000000000000000000000000000000000000000000000000
D11001126006720828540143665202311142024011400000005057340000NFLORES LOPEZ LUIS ENRIQUE                         MXP000000000000000000000000000000000000000000000000000000000000000000000000000000
D11001136006720828540143666202311142024011400000004065900000NMONTOYA ESPINOZA JOSE DE JESUS                    MXP000000000000000000000000000000000000000000000000000000000000000000000000000000
D11001146006720828540143667202311142024011400000006319730000NVILLA ROMERO JUAN CARLOS                          MXP000000000000000000000000000000000000000000000000000000000000000000000000000000
D11001156006720828540143668202311142024011400000005627780000NALVAREZ AHUMADA JESUS FRANCISCO                   MXP000000000000000000000000000000000000000000000000000000000000000000000000000000
D11001166006720828540143669202311142024011400000003315590000NCERVANTES BUENO LUIS ALBERTO                      MXP000000000000000000000000000000000000000000000000000000000000000000000000000000
D11001176006720828540143670202311142024011400000004501510000NURIAS ALARCON RUTH ALEXIA                         MXP000000000000000000000000000000000000000000000000000000000000000000000000000000
D11001186006720828540143671202311142024011400000003782220000NBACASEGUA JOCOBI ESTHELA LUCIA                    MXP000000000000000000000000000000000000000000000000000000000000000000000000000000
D11001196006720828540143672202311142024011400000003412200000NESPARZA RODRIGUEZ ORLANDO                         MXP000000000000000000000000000000000000000000000000000000000000000000000000000000
D11001206006720828540143673202311142024011400000003412200000NESPINOZA VILLANUEVA ROBERTO                       MXP000000000000000000000000000000000000000000000000000000000000000000000000000000
D11001216006720828540143674202311142024011400000004099240000NGUERRERO MARTINEZ ANGEL GABRIEL                   MXP000000000000000000000000000000000000000000000000000000000000000000000000000000
D11001226006720828540143675202311142024011400000000378670000NGUERRERO RODRIGUEZ HECTOR MANUEL                  MXP000000000000000000000000000000000000000000000000000000000000000000000000000000
D11001236006720828540143676202311142024011400000005688000000NGUTIERREZ GARCIA JAIME SAUL                       MXP000000000000000000000000000000000000000000000000000000000000000000000000000000
D11001246006720828540143677202311142024011400000005265000000NLEAL LEYVA SERGIO                                 MXP000000000000000000000000000000000000000000000000000000000000000000000000000000
D11001256006720828540143678202311142024011400000007922360000NLOPEZ ARMENTA EVERARDO                            MXP000000000000000000000000000000000000000000000000000000000000000000000000000000
D11001266006720828540143679202311142024011400000003404880000NROBLES DOMINGUEZ GRISELDA                         MXP000000000000000000000000000000000000000000000000000000000000000000000000000000
D11001276006720828540143680202311142024011400000002020340000NVALENCIA PALMA EDBERT ALBERTO                     MXP000000000000000000000000000000000000000000000000000000000000000000000000000000
D11001286006720828540143681202311142024011400000004180470000NVALENZUELA PALMA BALDOMERO                        MXP000000000000000000000000000000000000000000000000000000000000000000000000000000
D11001296006720828540143682202311142024011400000004280600000NAHUMADA CASTRO CESAR PAUL                         MXP000000000000000000000000000000000000000000000000000000000000000000000000000000
D11001306006720828540143683202311142024011400000003941220000NCASTRO LOPEZ FABIAN                               MXP000000000000000000000000000000000000000000000000000000000000000000000000000000
D11001316006720828540143684202311142024011400000004280600000NGRIJALVA BELTRAN VERONICA GUADALUPE               MXP000000000000000000000000000000000000000000000000000000000000000000000000000000
D11001326006720828540143685202311142024011400000003114450000NMILLAN CHAVEZ LUIS MANUEL                         MXP000000000000000000000000000000000000000000000000000000000000000000000000000000
D11001336006720828540143686202311142024011400000004065900000NVIDRIO ORDORICA ANA KAREN                         MXP000000000000000000000000000000000000000000000000000000000000000000000000000000
D11001346006720828540143687202311142024011400000002340980000NCERVANTES FIERRO ALFREDO ERNESTO                  MXP000000000000000000000000000000000000000000000000000000000000000000000000000000
D11001356006720828540143688202311142024011400000004073960000NZAMBADA CORONEL MANUEL                            MXP000000000000000000000000000000000000000000000000000000000000000000000000000000
D11001366006720828540143689202311142024011400000005556660000NGARCIA LOPEZ FERNANDO                             MXP000000000000000000000000000000000000000000000000000000000000000000000000000000
D11001376006720828540143690202311142024011400000004280600000NANAYA SOTO JESUS ARIANA                           MXP000000000000000000000000000000000000000000000000000000000000000000000000000000
D11001386006720828540143691202311142024011400000004149650000NCOTA EGUINO TONATHIU                              MXP000000000000000000000000000000000000000000000000000000000000000000000000000000
D11001396006720828540143692202311142024011400000004214660000NARK LOPEZ NAGID AMADO                             MXP000000000000000000000000000000000000000000000000000000000000000000000000000000
D11001406006720828540143693202311142024011400000003082630000NLEYVA PADILLA FRANCISCO MIGUEL                    MXP000000000000000000000000000000000000000000000000000000000000000000000000000000
D11001416006720828540143694202311142024011400000004216080000NLOPEZ HIGUERA RAUL ANTONIO                        MXP000000000000000000000000000000000000000000000000000000000000000000000000000000
D11001426006720828540143695202311142024011400000001635340000NSOTO HERRERA ANA CECILIA                          MXP000000000000000000000000000000000000000000000000000000000000000000000000000000
D11001436006720828540143696202311142024011400000005869730000NVIZCARRA FLORES FLORENTINO                        MXP000000000000000000000000000000000000000000000000000000000000000000000000000000
D11001446006720828540143697202311142024011400000005627780000NCOTA VILLA MARCOS ARTURO                          MXP000000000000000000000000000000000000000000000000000000000000000000000000000000
D11001456006720828540143698202311142024011400000003872990000NMERCADO ENG IVAN GILBERTO                         MXP000000000000000000000000000000000000000000000000000000000000000000000000000000
D11001466006720828540143699202311142024011400000007545950000NREYES LUQUE CARLOS                                MXP000000000000000000000000000000000000000000000000000000000000000000000000000000
D11001476006720828540143700202311142024011400000001747720000NCEBREROS LOPEZ MARLA JANETH                       MXP000000000000000000000000000000000000000000000000000000000000000000000000000000
D11001486006720828540143701202311142024011400000002951570000NLEYVA LOPEZ MARIA DOLORES                         MXP000000000000000000000000000000000000000000000000000000000000000000000000000000
D11001496006720828540143702202311142024011400000004585230000NMORENO LOPEZ FABIAN                               MXP000000000000000000000000000000000000000000000000000000000000000000000000000000
D11001506006720828540143703202311142024011400000005404530000NROBLES RIVERA LETICIA                             MXP000000000000000000000000000000000000000000000000000000000000000000000000000000
D11001516006720828540143704202311142024011400000002949720000NZAMORANO FONSECA DEVORA DEL ROSARIO               MXP000000000000000000000000000000000000000000000000000000000000000000000000000000
D11001526006720828540143705202311142024011400000004578200000NORNELAS FELIX PATRICIO                            MXP000000000000000000000000000000000000000000000000000000000000000000000000000000
D11001536006720828540143706202311142024011400000000325300000NORTIZ GONZALEZ MARTHA ELENA                       MXP000000000000000000000000000000000000000000000000000000000000000000000000000000
D11001546006720828540143707202311142024011400000004594280000NARAUJO BOJORQUEZ ROSARIO ELIANETH                 MXP000000000000000000000000000000000000000000000000000000000000000000000000000000
D11001556006720828540143708202311142024011400000004594280000NRANGEL ARAUJO GERARDO                             MXP000000000000000000000000000000000000000000000000000000000000000000000000000000
D11001566006720828540143709202311142024011400000004594280000NRANGEL ARAUJO PEDRO SEBASTIAN                     MXP000000000000000000000000000000000000000000000000000000000000000000000000000000
D11001576006720828540143710202311142024011400000004149650000NFELIX CARDENAS OSBALDO                            MXP000000000000000000000000000000000000000000000000000000000000000000000000000000
D11001586006720828540143711202311142024011400000004073960000NROMAN LOPEZ RODRIGO ALONSO                        MXP000000000000000000000000000000000000000000000000000000000000000000000000000000
D11001596006720828540143712202311142024011400000005627780000NPARRA MELECIO ISMAEL                              MXP000000000000000000000000000000000000000000000000000000000000000000000000000000
D11001606006720828540143713202311142024011400000006765250000NESCOBAR HERNANDEZ MARTIN                          MXP000000000000000000000000000000000000000000000000000000000000000000000000000000
D11001616006720828540143714202311142024011400000005404540000NLOPEZ CERVANTES EMILIA HAYDEE                     MXP000000000000000000000000000000000000000000000000000000000000000000000000000000
D11001626006720828540143715202311142024011400000004248810000NMENDEZ LLANES AIME NOELIA                         MXP000000000000000000000000000000000000000000000000000000000000000000000000000000
D11001636006720828540143716202311142024011400000004633590000NRUBIO PEREZ EVERARDO                              MXP000000000000000000000000000000000000000000000000000000000000000000000000000000
D11001646006720828540143717202311142024011400000001754350000NIRIZAR LOPEZ ALBA IRENE                           MXP000000000000000000000000000000000000000000000000000000000000000000000000000000
D11001656006720828540143718202311142024011400000004023900000NARMENTA IRIZAR JULIAN ANTONIO                     MXP000000000000000000000000000000000000000000000000000000000000000000000000000000
D11001666006720828540143719202311142024011400000004073960000NPEIRO RIVERA JESUS AMARAN                         MXP000000000000000000000000000000000000000000000000000000000000000000000000000000
D11001676006720828540143720202311142024011400000003113110000NSANDOVAL LOPEZ SILVIA SOLANGEL                    MXP000000000000000000000000000000000000000000000000000000000000000000000000000000
D11001686006720828540143721202311142024011400000022131090000NGONZALEZ CASTRO HERNAN                            MXP000000000000000000000000000000000000000000000000000000000000000000000000000000
D11001696006720828540143722202311142024011400000004157340000NGODOY SANCHEZ JOSE ABEL                           MXP000000000000000000000000000000000000000000000000000000000000000000000000000000
D11001706006720828540143723202311142024011400000004073960000NMONTOYA MONTOYA FAVIO URIEL                       MXP000000000000000000000000000000000000000000000000000000000000000000000000000000
D11001716006720828540143724202311142024011400000006942530000NPADILLA ELIZALDE DIEGO                            MXP000000000000000000000000000000000000000000000000000000000000000000000000000000
D11001726006720828540143725202311142024011400000005300600000NGARCIA LOPEZ ISSIS MELISSA                        MXP000000000000000000000000000000000000000000000000000000000000000000000000000000
D11001736006720828540143726202311142024011400000002919800000NMONTOYA LOPEZ MYRNA                               MXP000000000000000000000000000000000000000000000000000000000000000000000000000000
D11001746006720828540143727202311142024011400000002249530000NTUASON VALDEZ AURORA                              MXP000000000000000000000000000000000000000000000000000000000000000000000000000000
D11001756006720828540143728202311142024011400000004857990000NZAZUETA ANGULO ELOY                               MXP000000000000000000000000000000000000000000000000000000000000000000000000000000
D11001766006720828540143729202311142024011400000000325300000NLOPEZ GUTIERREZ MYRNA                             MXP000000000000000000000000000000000000000000000000000000000000000000000000000000
D11001776006720828540143730202311142024011400000000325300000NAGUILAR OSUNA DANIA GUADALUPE                     MXP000000000000000000000000000000000000000000000000000000000000000000000000000000
D11001786006720828540143731202311142024011400000002684820000NANGULO ANGULO WILFREDO                            MXP000000000000000000000000000000000000000000000000000000000000000000000000000000
D11001796006720828540143732202311142024011400000006319730000NFELIX MEZA HUGO ERNESTO                           MXP000000000000000000000000000000000000000000000000000000000000000000000000000000
D11001806006720828540143733202311142024011400000002684420000NVELAZQUEZ ACOSTA JESUS ABRAHAM                    MXP000000000000000000000000000000000000000000000000000000000000000000000000000000
D11001816006720828540143734202311142024011400000003406760000NINZUNZA LEAL FELIZARDO                            MXP000000000000000000000000000000000000000000000000000000000000000000000000000000
D11001826006720828540143735202311142024011400000004889530000NURIAS CARRILLO ROBERTO                            MXP000000000000000000000000000000000000000000000000000000000000000000000000000000
D11001836006720828540143736202311142024011400000005404530000NSANTOS MONTES ANASTACIO                           MXP000000000000000000000000000000000000000000000000000000000000000000000000000000
D11001846006720828540143737202311142024011400000006017610000NMIRANDA AGUILAR LUIS ANTONIO                      MXP000000000000000000000000000000000000000000000000000000000000000000000000000000
D11001856006720828540143738202311142024011400000004383000000NSOTO AGUILAR SERGIO                               MXP000000000000000000000000000000000000000000000000000000000000000000000000000000
D11001866006720828540143739202311142024011400000004426290000NMACHADO ABITIA GABRIEL ALONSO                     MXP000000000000000000000000000000000000000000000000000000000000000000000000000000
D11001876006720828540143740202311142024011400000003306010000NBELTRAN ANGULO ANA AURORA                         MXP000000000000000000000000000000000000000000000000000000000000000000000000000000
D11001886006720828540143741202311142024011400000004058460000NLARA PEREZ SAUL ENRIQUE                           MXP000000000000000000000000000000000000000000000000000000000000000000000000000000
D11001896006720828540143742202311142024011400000005404540000NVILLALBA MORALES IRENE                            MXP000000000000000000000000000000000000000000000000000000000000000000000000000000
D11001906006720828540143743202311142024011400000006135360000NALARCON CERDA IVAN VICENTE                        MXP000000000000000000000000000000000000000000000000000000000000000000000000000000
D11001916006720828540143744202311142024011400000004081680000NCABRERA RUIZ ALONDRA VANESSA                      MXP000000000000000000000000000000000000000000000000000000000000000000000000000000
D11001926006720828540143745202311142024011400000011427110000NCASTRO BARRAZA JORGE                              MXP000000000000000000000000000000000000000000000000000000000000000000000000000000
D11001936006720828540143746202311142024011400000006135360000NCONTRERAS NUNEZ ELENA YESABEL                     MXP000000000000000000000000000000000000000000000000000000000000000000000000000000
D11001946006720828540143747202311142024011400000005627780000NGARCIA MORAN ERIKA GUADALUPE                      MXP000000000000000000000000000000000000000000000000000000000000000000000000000000
D11001956006720828540143748202311142024011400000007772780000NGONZALEZ APOLINAR ELENA                           MXP000000000000000000000000000000000000000000000000000000000000000000000000000000
D11001966006720828540143749202311142024011400000005218220000NGUTIERREZ ZAZUETA TERESA DE JESUS                 MXP000000000000000000000000000000000000000000000000000000000000000000000000000000
D11001976006720828540143750202311142024011400000021060980000NNATERAS CORONA ARTURO DANIEL                      MXP000000000000000000000000000000000000000000000000000000000000000000000000000000
D11001986006720828540143751202311142024011400000005555290000NPEREZ GOMEZ JUAN CARLOS                           MXP000000000000000000000000000000000000000000000000000000000000000000000000000000
D11001996006720828540143752202311142024011400000004065900000NQUINTERO MARQUEZ STEPHANY YETZALETH               MXP000000000000000000000000000000000000000000000000000000000000000000000000000000
D11002006006720828540143753202311142024011400000012288570000NRUBIO RUELAS BALDEMAR                             MXP000000000000000000000000000000000000000000000000000000000000000000000000000000
D11002016006720828540143754202311142024011400000004522160000NSALCEDO CASTREJON MACARIO ALBERTO                 MXP000000000000000000000000000000000000000000000000000000000000000000000000000000
D11002026006720828540143755202311142024011400000004920840000NGARCIA OSUA JESUS                                 MXP000000000000000000000000000000000000000000000000000000000000000000000000000000
D11002036006720828540143756202311142024011400000005002220000NLOPEZ TORRES FERMIN ANGEL                         MXP000000000000000000000000000000000000000000000000000000000000000000000000000000
D11002046006720828540143757202311142024011400000004065900000NGUTIERREZ VELAZQUEZ CYNTHIA KARINA                MXP000000000000000000000000000000000000000000000000000000000000000000000000000000
D11002056006720828540143758202311142024011400000004065900000NLEON DE LA ROSA ANA GUADALUPE                     MXP000000000000000000000000000000000000000000000000000000000000000000000000000000
D11002066006720828540143759202311142024011400000002732070000NANCONA GASTELUM GREASE LIZBETH                    MXP000000000000000000000000000000000000000000000000000000000000000000000000000000
D11002076006720828540143760202311142024011400000016373840000NCISNEROS DIAZ VICTOR ANTONIO                      MXP000000000000000000000000000000000000000000000000000000000000000000000000000000
D11002086006720828540143761202311142024011400000002919800000NCRESPO BASTIDAS MARIA DEL CARMEN                  MXP000000000000000000000000000000000000000000000000000000000000000000000000000000
D11002096006720828540143762202311142024011400000002919800000NESQUERRA ARTEAGA SELENE                           MXP000000000000000000000000000000000000000000000000000000000000000000000000000000
D11002106006720828540143763202311142024011400000001969800000NFELIX LOPEZ MIGUEL ANGEL                          MXP000000000000000000000000000000000000000000000000000000000000000000000000000000
D11002116006720828540143764202311142024011400000002955310000NLOPEZ PLATA EVELYN LIZETH                         MXP000000000000000000000000000000000000000000000000000000000000000000000000000000
D11002126006720828540143765202311142024011400000002919800000NMACHADO SANDOVAL KASSANDRA GUADALUPE              MXP000000000000000000000000000000000000000000000000000000000000000000000000000000
D11002136006720828540143766202311142024011400000002919800000NMORALES INZUNZA MARIBEL DE MARIA                  MXP000000000000000000000000000000000000000000000000000000000000000000000000000000
D11002146006720828540143767202311142024011400000002919800000NMORALES INZUNZA SILVANIA MARIA                    MXP000000000000000000000000000000000000000000000000000000000000000000000000000000
D11002156006720828540143768202311142024011400000009868290000NPINA SILVA CARLOS ARMANDO                         MXP000000000000000000000000000000000000000000000000000000000000000000000000000000
D11002166006720828540143769202311142024011400000004836460000NRANGEL FIGUEROA JULIO CESAR                       MXP000000000000000000000000000000000000000000000000000000000000000000000000000000
D11002176006720828540143770202311142024011400000006686960000NRODELO LOPEZ JATXIRY NICOLE                       MXP000000000000000000000000000000000000000000000000000000000000000000000000000000
D11002186006720828540143771202311142024011400000003022400000NSANCHEZ SALAS CARLOS                              MXP000000000000000000000000000000000000000000000000000000000000000000000000000000
D11002196006720828540143772202311142024011400000002919800000NURIBE BELTRAN CARLOS                              MXP000000000000000000000000000000000000000000000000000000000000000000000000000000
D11002206006720828540143773202311142024011400000003941220000NVILLARREAL MARTINEZ MIGUEL ANGEL                  MXP000000000000000000000000000000000000000000000000000000000000000000000000000000
D11002216006720828540143774202311142024011400000004260430000NPERAZA ZAZUETA JESUS ENDIR                        MXP000000000000000000000000000000000000000000000000000000000000000000000000000000
D11002226006720828540143775202311142024011400000003987840000NMARTINEZ AMARILLAS DEVANY BRITNEY                 MXP000000000000000000000000000000000000000000000000000000000000000000000000000000
D11002236006720828540143776202311142024011400000002857180000NOSUNA CASTANOS ANGELICA MARIA                     MXP000000000000000000000000000000000000000000000000000000000000000000000000000000
D11002246006720828540143777202311142024011400000005629340000NMENDOZA ORTIZ JESUS EMILIO                        MXP000000000000000000000000000000000000000000000000000000000000000000000000000000
D11002256006720828540143778202311142024011400000005629340000NSOBERANES ROJAS JESUS ALBERTO                     MXP000000000000000000000000000000000000000000000000000000000000000000000000000000
D11002266006720828540143779202311142024011400000003555260000NCAZAREZ GAMEZ RAMSES IGNACIO                      MXP000000000000000000000000000000000000000000000000000000000000000000000000000000
D11002276006720828540143780202311142024011400000008141880000NESCALANTE RUIZ REYNA DOLORES                      MXP000000000000000000000000000000000000000000000000000000000000000000000000000000
D11002286006720828540143781202311142024011400000003315590000NBARAJAS DIAZ EARVING                              MXP000000000000000000000000000000000000000000000000000000000000000000000000000000
D11002296006720828540143782202311142024011400000006135360000NCALDERON GASTELUM ANGELICA GUADALUPE              MXP000000000000000000000000000000000000000000000000000000000000000000000000000000
D11002306006720828540143783202311142024011400000005627780000NDIARTE FAVELA CHRISTINE                           MXP000000000000000000000000000000000000000000000000000000000000000000000000000000
D11002316006720828540143784202311142024011400000002496860000NGAMBOA IBARRA NADIA MARISOL                       MXP000000000000000000000000000000000000000000000000000000000000000000000000000000
D11002326006720828540143785202311142024011400000011427140000NGUTIERREZ PONCE OMAR ANTONIO                      MXP000000000000000000000000000000000000000000000000000000000000000000000000000000
D11002336006720828540143786202311142024011400000003941220000NLOPEZ ROCHA MARIA DE LOS ANGELES                  MXP000000000000000000000000000000000000000000000000000000000000000000000000000000
D11002346006720828540143787202311142024011400000004501510000NMAGALLANES ZAZUETA JUAN CARLOS                    MXP000000000000000000000000000000000000000000000000000000000000000000000000000000
D11002356006720828540143788202311142024011400000004501510000NNUNEZ BELTRAN MARTIN OMAR                         MXP000000000000000000000000000000000000000000000000000000000000000000000000000000
D11002366006720828540143789202311142024011400000004280600000NPARRA VILLALBA MELINA                             MXP000000000000000000000000000000000000000000000000000000000000000000000000000000
D11002376006720828540143790202311142024011400000002659260000NBOJORQUEZ TORRES MARIA JIMENA                     MXP000000000000000000000000000000000000000000000000000000000000000000000000000000
D11002386006720828540143791202311142024011400000004561440000NJIMENEZ CORONEL ALEJANDRO                         MXP000000000000000000000000000000000000000000000000000000000000000000000000000000
D11002396006720828540143792202311142024011400000002691950000NBELTRAN ACEVES JOSE ANGEL                         MXP000000000000000000000000000000000000000000000000000000000000000000000000000000
D11002406006720828540143793202311142024011400000001719450000NCASTRO GUERRERO OSWALDO BENITO                    MXP000000000000000000000000000000000000000000000000000000000000000000000000000000
D11002416006720828540143794202311142024011400000002684820000NCASTRO LOPEZ RAUL ERNESTO                         MXP000000000000000000000000000000000000000000000000000000000000000000000000000000
D11002426006720828540143795202311142024011400000002684820000NCAZARES ROCHA JOEL ALONZO                         MXP000000000000000000000000000000000000000000000000000000000000000000000000000000
D11002436006720828540143796202311142024011400000002684820000NCONTRERAS IBARRA JUAN MANUEL                      MXP000000000000000000000000000000000000000000000000000000000000000000000000000000
D11002446006720828540143797202311142024011400000007068700000NFERNANDEZ ZAZUETA VICTOR MANUEL                   MXP000000000000000000000000000000000000000000000000000000000000000000000000000000
D11002456006720828540143798202311142024011400000004065900000NGONZALEZ LERMA EDITH FERNANDA                     MXP000000000000000000000000000000000000000000000000000000000000000000000000000000
D11002466006720828540143799202311142024011400000002774570000NLEYVA LOPEZ GERARDO                               MXP000000000000000000000000000000000000000000000000000000000000000000000000000000
D11002476006720828540143800202311142024011400000002684820000NORTIZ BOJORQUEZ OMAR JAVIER                       MXP000000000000000000000000000000000000000000000000000000000000000000000000000000
D11002486006720828540143801202311142024011400000006846400000NPALMA LUIS ANGEL                                  MXP000000000000000000000000000000000000000000000000000000000000000000000000000000
D11002496006720828540143802202311142024011400000002684820000NROBLES NEVAREZ BLANCA LUCIA                       MXP000000000000000000000000000000000000000000000000000000000000000000000000000000
D11002506006720828540143803202311142024011400000001719450000NROMERO ESPINOZA RAMON ALFONSO                     MXP000000000000000000000000000000000000000000000000000000000000000000000000000000
D11002516006720828540143804202311142024011400000002684820000NSALAZAR FELIX ARDUL ALFONSO                       MXP000000000000000000000000000000000000000000000000000000000000000000000000000000
D11002526006720828540143805202311142024011400000001719450000NSALAZAR OLMEDA JOSE JUAN                          MXP000000000000000000000000000000000000000000000000000000000000000000000000000000
D11002536006720828540143806202311142024011400000002774570000NSANCHEZ MENDOZA COSME MANUEL                      MXP000000000000000000000000000000000000000000000000000000000000000000000000000000
D11002546006720828540143807202311142024011400000002691950000NTORRES LOPEZ REYES                                MXP000000000000000000000000000000000000000000000000000000000000000000000000000000
D11002556006720828540143808202311142024011400000004280600000NACOSTA MADRID BRENDA ANABEL                       MXP000000000000000000000000000000000000000000000000000000000000000000000000000000
D11002566006720828540143809202311142024011400000004706070000NBARRANCAS URIARTE LOURDES GUADALUPE               MXP000000000000000000000000000000000000000000000000000000000000000000000000000000
D11002576006720828540143810202311142024011400000005509730000NCASTRO IBARRA EDNA ROCIO                          MXP000000000000000000000000000000000000000000000000000000000000000000000000000000
D11002586006720828540143811202311142024011400000004214660000NCORREA GUERRERO MARTHA GABRIELA                   MXP000000000000000000000000000000000000000000000000000000000000000000000000000000
D11002596006720828540143812202311142024011400000007799260000NDORADO CAMACHO EDGAR                              MXP000000000000000000000000000000000000000000000000000000000000000000000000000000
D11002606006720828540143813202311142024011400000008117370000NGAXIOLA PAREDES NORMA ANGELICA                    MXP000000000000000000000000000000000000000000000000000000000000000000000000000000
D11002616006720828540143814202311142024011400000005890440000NLOBO GUTIERREZ JESUS ELVIRA                       MXP000000000000000000000000000000000000000000000000000000000000000000000000000000
D11002626006720828540143815202311142024011400000004293730000NOLIVAS RAMIREZ DIEGO ARTURO                       MXP000000000000000000000000000000000000000000000000000000000000000000000000000000
D11002636006720828540143816202311142024011400000004149650000NPALAZUELOS ERAMI JOEL                             MXP000000000000000000000000000000000000000000000000000000000000000000000000000000
D11002646006720828540143817202311142024011400000004065900000NRAMIREZ AMADOR GLORIA ELVIA                       MXP000000000000000000000000000000000000000000000000000000000000000000000000000000
D11002656006720828540143818202311142024011400000003541260000NRAMOS CAMACHO MONICA DEL CARMEN                   MXP000000000000000000000000000000000000000000000000000000000000000000000000000000
D11002666006720828540143819202311142024011400000005890440000NSOTO GONZALEZ MARTHA GABRIELA                     MXP000000000000000000000000000000000000000000000000000000000000000000000000000000
D11002676006720828540143820202311142024011400000005072250000NUZETA MOLINA MARIA                                MXP000000000000000000000000000000000000000000000000000000000000000000000000000000
D11002686006720828540143821202311142024011400000009713460000NVILLAESCUSA ROJO MARGARITA                        MXP000000000000000000000000000000000000000000000000000000000000000000000000000000
D11002696006720828540143822202311142024011400000008899760000NPALAZUELOS INZUNZA ENRIQUE                        MXP000000000000000000000000000000000000000000000000000000000000000000000000000000
D11002706006720828540143823202311142024011400000005629340000NPLATA LOPEZ JOSE LEONZO                           MXP000000000000000000000000000000000000000000000000000000000000000000000000000000
D11002716006720828540143824202311142024011400000004501510000NAVENDANO ROMERO JUAN PABLO                        MXP000000000000000000000000000000000000000000000000000000000000000000000000000000
D11002726006720828540143825202311142024011400000004501510000NBOJORQUEZ MONTOYA FAVIO                           MXP000000000000000000000000000000000000000000000000000000000000000000000000000000
D11002736006720828540143826202311142024011400000004814320000NCALDERON BURGUENO MARIO ALBERTO                   MXP000000000000000000000000000000000000000000000000000000000000000000000000000000
D11002746006720828540143827202311142024011400000005171820000NGARCIA FELIX JORGE                                MXP000000000000000000000000000000000000000000000000000000000000000000000000000000
D11002756006720828540143828202311142024011400000002517820000NLOPEZ MATZUMOTO KARLA EMIKO                       MXP000000000000000000000000000000000000000000000000000000000000000000000000000000
D11002766006720828540143829202311142024011400000005842130000NMENDOZA LOPEZ LUIS ROBERTO                        MXP000000000000000000000000000000000000000000000000000000000000000000000000000000
D11002776006720828540143830202311142024011400000004814320000NPETRIZ SOTO LUIS                                  MXP000000000000000000000000000000000000000000000000000000000000000000000000000000
D11002786006720828540143831202311142024011400000004814320000NROMAN PEREZ MARIA MAYANIN                         MXP000000000000000000000000000000000000000000000000000000000000000000000000000000
D11002796006720828540143832202311142024011400000005180910000NSANCHEZ MORENO JOSE OSWALDO                       MXP000000000000000000000000000000000000000000000000000000000000000000000000000000
D11002806006720828540143833202311142024011400000005300600000NTISNADO CARDENAS CYNTHIA MARIA                    MXP000000000000000000000000000000000000000000000000000000000000000000000000000000
D11002816006720828540143834202311142024011400000004501510000NVALENZUELA LUNA CARLOS                            MXP000000000000000000000000000000000000000000000000000000000000000000000000000000
D11002826006720828540143835202311142024011400000007556640000NIRIBE ROCHA DICNORA                               MXP000000000000000000000000000000000000000000000000000000000000000000000000000000
D11002836006720828540143836202311142024011400000015819460000NLOPEZ ZAVALA SARA ISELA                           MXP000000000000000000000000000000000000000000000000000000000000000000000000000000
D11002846006720828540143837202311142024011400000007935490000NMARTINEZ REYES JOSE FRANCISCO                     MXP000000000000000000000000000000000000000000000000000000000000000000000000000000
D11002856006720828540143838202311142024011400000008534840000NMIRAMONTES RAMIREZ EVELIA ESTHER                  MXP000000000000000000000000000000000000000000000000000000000000000000000000000000
D11002866006720828540143839202311142024011400000004561440000NREGALADO ESPARZA YURIANA ELIZABETH                MXP000000000000000000000000000000000000000000000000000000000000000000000000000000
D11002876006720828540143840202311142024011400000004081680000NARCE MELENDREZ EMIGDIO                            MXP000000000000000000000000000000000000000000000000000000000000000000000000000000
D11002886006720828540143841202311142024011400000004280600000NARREOLA HIGUERA GUADALUPE                         MXP000000000000000000000000000000000000000000000000000000000000000000000000000000
D11002896006720828540143842202311142024011400000004633590000NBELTRAN MORENO DULCE GUADALUPE                    MXP000000000000000000000000000000000000000000000000000000000000000000000000000000
D11002906006720828540143843202311142024011400000004065900000NGAXIOLA GARCIA ALEXIS                             MXP000000000000000000000000000000000000000000000000000000000000000000000000000000
D11002916006720828540143844202311142024011400000003941220000NLOPEZ MONZON DANIEL                               MXP000000000000000000000000000000000000000000000000000000000000000000000000000000
D11002926006720828540143845202311142024011400000004660460000NMARQUEZ BERNAL GUILLERMO FRANCISCO                MXP000000000000000000000000000000000000000000000000000000000000000000000000000000
D11002936006720828540143846202311142024011400000002866570000NMARTINEZ QUINTERO ARBE MINERVA                    MXP000000000000000000000000000000000000000000000000000000000000000000000000000000
D11002946006720828540143847202311142024011400000007320550000NMEDINA BELTRAN RUBEN                              MXP000000000000000000000000000000000000000000000000000000000000000000000000000000
D11002956006720828540143848202311142024011400000004501510000NMEJIA LIMAS NORMA ANGELICA                        MXP000000000000000000000000000000000000000000000000000000000000000000000000000000
D11002966006720828540143849202311142024011400000007554860000NMORALES SILVA JOSE EDGAR                          MXP000000000000000000000000000000000000000000000000000000000000000000000000000000
D11002976006720828540143850202311142024011400000004706270000NNUNEZ VALENZUELA CARLOS ALFREDO                   MXP000000000000000000000000000000000000000000000000000000000000000000000000000000
D11002986006720828540143851202311142024011400000003941220000NORTIZ PEREGRINA MARIA DE LOS ANGELES              MXP000000000000000000000000000000000000000000000000000000000000000000000000000000
D11002996006720828540143852202311142024011400000005101710000NRENDON GUZMAN ALAIN DE JESUS                      MXP000000000000000000000000000000000000000000000000000000000000000000000000000000
D11003006006720828540143853202311142024011400000004065900000NVILLA MEDINA ILDEFONSO                            MXP000000000000000000000000000000000000000000000000000000000000000000000000000000
D11003016006720828540143854202311142024011400000004280600000NARREDONDO SANDOVAL ABIGAIL                        MXP000000000000000000000000000000000000000000000000000000000000000000000000000000
D11003026006720828540143855202311142024011400000002030820000NFRANCIA GARCIA EDGAR OMAR                         MXP000000000000000000000000000000000000000000000000000000000000000000000000000000
D11003036006720828540143856202311142024011400000006755070000NGAMEZ RIVERA LUZ NEREIDA                          MXP000000000000000000000000000000000000000000000000000000000000000000000000000000
D11003046006720828540143857202311142024011400000008104580000NACOSTA BERRELLEZA ERIK MICHEL                     MXP000000000000000000000000000000000000000000000000000000000000000000000000000000
D11003056006720828540143858202311142024011400000005050990000NAGUILAR VILLARREAL XOCHILTH GRICELDA              MXP000000000000000000000000000000000000000000000000000000000000000000000000000000
D11003066006720828540143859202311142024011400000008217490000NBON VILLARREAL TANIA JUDITH                       MXP000000000000000000000000000000000000000000000000000000000000000000000000000000
D11003076006720828540143860202311142024011400000006162320000NBUELNA LOPEZ ROSABEL                              MXP000000000000000000000000000000000000000000000000000000000000000000000000000000
D11003086006720828540143861202311142024011400000003315590000NCAZARES SOLORIO DIANA PAOLA                       MXP000000000000000000000000000000000000000000000000000000000000000000000000000000
D11003096006720828540143862202311142024011400000007074150000NCRUZ VEGA RAMIRO                                  MXP000000000000000000000000000000000000000000000000000000000000000000000000000000
D11003106006720828540143863202311142024011400000004895030000NDE LOS REYES ESPARZA SUSANA                       MXP000000000000000000000000000000000000000000000000000000000000000000000000000000
D11003116006720828540143864202311142024011400000006139040000NGOMEZ MORENO JAIME                                MXP000000000000000000000000000000000000000000000000000000000000000000000000000000
D11003126006720828540143865202311142024011400000003029040000NINZUNZA SOTO MANUEL                               MXP000000000000000000000000000000000000000000000000000000000000000000000000000000
D11003136006720828540143866202311142024011400000004214660000NLOPEZ BOJORQUEZ FRIDA JHASIVE                     MXP000000000000000000000000000000000000000000000000000000000000000000000000000000
D11003146006720828540143867202311142024011400000007074160000NLOPEZ MURILLO ADRIANA                             MXP000000000000000000000000000000000000000000000000000000000000000000000000000000
D11003156006720828540143868202311142024011400000004199970000NMENDOZA VIELMAS OSCAR                             MXP000000000000000000000000000000000000000000000000000000000000000000000000000000
D11003166006720828540143870202311142024011400000005818460000NVALENZUELA LOPEZ ITZEL GUADALUPE                  MXP000000000000000000000000000000000000000000000000000000000000000000000000000000
D11003176006720828540143871202311142024011400000002597060000NVILLEGAS VERDUZCO MIRNA ARACELI                   MXP000000000000000000000000000000000000000000000000000000000000000000000000000000
D11003186006720828540143872202311142024011400000018031440000NIZABAL GASTELUM OSCAR FERNANDO                    MXP000000000000000000000000000000000000000000000000000000000000000000000000000000
D11003196006720828540143873202311142024011400000003987840000NMONTANO SANCHEZ CECILIA RENEE                     MXP000000000000000000000000000000000000000000000000000000000000000000000000000000
D11003206006720828540143874202311142024011400000004660620000NAISPURO BELTRAN BARTOLO                           MXP000000000000000000000000000000000000000000000000000000000000000000000000000000
D11003216006720828540143875202311142024011400000011989970000NALDANA JACOBO NANCY                               MXP000000000000000000000000000000000000000000000000000000000000000000000000000000
D11003226006720828540143876202311142024011400000011837100000NBARRAZA FELIX JAIME                               MXP000000000000000000000000000000000000000000000000000000000000000000000000000000
D11003236006720828540143877202311142024011400000006795550000NBOJORQUEZ GALVEZ AURELIO                          MXP000000000000000000000000000000000000000000000000000000000000000000000000000000
D11003246006720828540143878202311142024011400000009711890000NCARDENAS CARRASCO BRYAN MANUEL                    MXP000000000000000000000000000000000000000000000000000000000000000000000000000000
D11003256006720828540143879202311142024011400000005052920000NGONZALEZ ESTRADA ADELA                            MXP000000000000000000000000000000000000000000000000000000000000000000000000000000
D11003266006720828540143880202311142024011400000007074130000NLOPEZ VALLE JOSE EDUARDO                          MXP000000000000000000000000000000000000000000000000000000000000000000000000000000
D11003276006720828540143881202311142024011400000004996850000NMARQUEZ RODRIGUEZ LAURA ANGELICA                  MXP000000000000000000000000000000000000000000000000000000000000000000000000000000
D11003286006720828540143882202311142024011400000009990600000NSANCHEZ VERDUGO MARIA DE LOS ANGELES              MXP000000000000000000000000000000000000000000000000000000000000000000000000000000
D11003296006720828540143883202311142024011400000007098390000NVALDEZ CASTRO JUPITER                             MXP000000000000000000000000000000000000000000000000000000000000000000000000000000
D11003306006720828540143884202311142024011400000007068700000NLEAL JIMENEZ CLAUDIA                              MXP000000000000000000000000000000000000000000000000000000000000000000000000000000
D11003316006720828540143885202311142024011400000008950630000NPADILLA PADILLA ALBERTO                           MXP000000000000000000000000000000000000000000000000000000000000000000000000000000
D11003326006720828540143886202311142024011400000006689550000NREYES ZAMORA FRANCISCA                            MXP000000000000000000000000000000000000000000000000000000000000000000000000000000
D11003336006720828540143887202311142024011400000004096560000NCASTRO SANTOS ITZEL BRISEYDA                      MXP000000000000000000000000000000000000000000000000000000000000000000000000000000
D11003346006720828540143888202311142024011400000004081680000NESPINOZA VERDUGO DINORA                           MXP000000000000000000000000000000000000000000000000000000000000000000000000000000
D11003356006720828540143889202311142024011400000007720120000NLIZARRAGA GARCIA CARLOS ALBERTO                   MXP000000000000000000000000000000000000000000000000000000000000000000000000000000
D11003366006720828540143890202311142024011400000004633590000NMEDINA GUEVARA KARLA BEATRIZ                      MXP000000000000000000000000000000000000000000000000000000000000000000000000000000
D11003376006720828540143891202311142024011400000008524670000NMEDINA LIMON MARCIA JANETH                        MXP000000000000000000000000000000000000000000000000000000000000000000000000000000
D11003386006720828540143892202311142024011400000004501510000NMILLAN MORALES EDGAR OCTAVIO                      MXP000000000000000000000000000000000000000000000000000000000000000000000000000000
D11003396006720828540143893202311142024011400000004280600000NSANZ MORALES FILIBERTO                            MXP000000000000000000000000000000000000000000000000000000000000000000000000000000
D11003406006720828540143894202311142024011400000011560460000NCARREON RUELAS ISMAEL                             MXP000000000000000000000000000000000000000000000000000000000000000000000000000000
D11003416006720828540143895202311142024011400000005370500000NSANCHEZ IBARRA ISMAEL                             MXP000000000000000000000000000000000000000000000000000000000000000000000000000000
D11003426006720828540143896202311142024011400000004633590000NFRANCO URIAS RAMSES ADRIAN                        MXP000000000000000000000000000000000000000000000000000000000000000000000000000000
D11003436006720828540143897202311142024011400000004293730000NBELTRAN COTA RICARDO                              MXP000000000000000000000000000000000000000000000000000000000000000000000000000000
D11003446006720828540143898202311142024011400000006564320000NOSUNA MONTANO SABINO                              MXP000000000000000000000000000000000000000000000000000000000000000000000000000000
D11003456006720828540143899202311142024011400000003139850000NACUNA ORTEGA NADIA SARAHI                         MXP000000000000000000000000000000000000000000000000000000000000000000000000000000
D11003466006720828540143900202311142024011400000004214660000NRAMIREZ VENEGAS WENDY JANETH                      MXP000000000000000000000000000000000000000000000000000000000000000000000000000000
D11003476006720828540143901202311142024011400000000979760000NBENITEZ GONZALEZ MANUEL OCTAVIO                   MXP000000000000000000000000000000000000000000000000000000000000000000000000000000
D11003486006720828540143902202311142024011400000004501510000NCASTILLO FELIX JUAN DE LA CRUZ                    MXP000000000000000000000000000000000000000000000000000000000000000000000000000000
D11003496006720828540143903202311142024011400000002774280000NFLORES QUIROZ CARLA NOHEMI                        MXP000000000000000000000000000000000000000000000000000000000000000000000000000000
D11003506006720828540143904202311142024011400000002406080000NFRANCO TORRES RAMON ENRIQUE                       MXP000000000000000000000000000000000000000000000000000000000000000000000000000000
D11003516006720828540143905202311142024011400000011335770000NGARCIA BARRAZA VICTOR ADRIAN                      MXP000000000000000000000000000000000000000000000000000000000000000000000000000000
D11003526006720828540143906202311142024011400000001430640000NMORALES HERNANDEZ CARLOS RAMON                    MXP000000000000000000000000000000000000000000000000000000000000000000000000000000
D11003536006720828540143907202311142024011400000004065900000NOCHOA OLIVAS BRANDON ERNESTO                      MXP000000000000000000000000000000000000000000000000000000000000000000000000000000
D11003546006720828540143908202311142024011400000004280600000NSERRANO AVILES CLAUDIO RAMON                      MXP000000000000000000000000000000000000000000000000000000000000000000000000000000
D11003556006720828540143909202311142024011400000003074120000NSAINZ RUVALCABA RAMON ALFONSO                     MXP000000000000000000000000000000000000000000000000000000000000000000000000000000
D11003566006720828540143910202311142024011400000003315590000NAGUIRRE OSUNA MAYRA GUADALUPE                     MXP000000000000000000000000000000000000000000000000000000000000000000000000000000
D11003576006720828540143911202311142024011400000005057340000NCEDANO SANCHEZ MIGUEL ALEXIS                      MXP000000000000000000000000000000000000000000000000000000000000000000000000000000
D11003586006720828540143912202311142024011400000008042390000NESTOLANO BARREDA VLADIMIR JAIRCINIO               MXP000000000000000000000000000000000000000000000000000000000000000000000000000000
D11003596006720828540143913202311142024011400000008596620000NFELIX FLORES XAVIER ERNESTO                       MXP000000000000000000000000000000000000000000000000000000000000000000000000000000
D11003606006720828540143914202311142024011400000006053030000NIBARRA IBARRA PEDRO LUIS                          MXP000000000000000000000000000000000000000000000000000000000000000000000000000000
D11003616006720828540143915202311142024011400000004149650000NJACOBO VALENZUELA SEIDY JISELLE                   MXP000000000000000000000000000000000000000000000000000000000000000000000000000000
D11003626006720828540143916202311142024011400000004280600000NMILLAN OCHOA OSCAR EDUARDO                        MXP000000000000000000000000000000000000000000000000000000000000000000000000000000
D11003636006720828540143917202311142024011400000005813930000NOSUNA CASTRO SOCRATES ASCARIS NOEL                MXP000000000000000000000000000000000000000000000000000000000000000000000000000000
D11003646006720828540143918202311142024011400000005813930000NQUINTERO MARTINEZ MAOMAR                          MXP000000000000000000000000000000000000000000000000000000000000000000000000000000
D11003656006720828540143919202311142024011400000005805680000NSANCHEZ BOBADILLA CESAR                           MXP000000000000000000000000000000000000000000000000000000000000000000000000000000
D11003666006720828540143920202311142024011400000004065900000NVERDUGO MENDEZ LAURA MICAELA                      MXP000000000000000000000000000000000000000000000000000000000000000000000000000000
D11003676006720828540143921202311142024011400000004078100000NFLORES LINARES EDITH ELENA                        MXP000000000000000000000000000000000000000000000000000000000000000000000000000000
D11003686006720828540143922202311142024011400000006334220000NMARTINEZ TIRADO VILMA DORA                        MXP000000000000000000000000000000000000000000000000000000000000000000000000000000
D11003696006720828540143923202311142024011400000003616930000NBUSTAMANTE CHAVEZ SERGIO RAFAEL                   MXP000000000000000000000000000000000000000000000000000000000000000000000000000000
D11003706006720828540143924202311142024011400000003315590000NGASTELUM MURILLO RIGOBERTO                        MXP000000000000000000000000000000000000000000000000000000000000000000000000000000
D11003716006720828540143925202311142024011400000002861410000NAVENDANO ZAZUETA FILIBERTO                        MXP000000000000000000000000000000000000000000000000000000000000000000000000000000
D11003726006720828540143926202311142024011400000005026360000NBAYLISS AYALA LETICIA SELENE                      MXP000000000000000000000000000000000000000000000000000000000000000000000000000000
D11003736006720828540143927202311142024011400000005988450000NCAMACHO RAMIREZ ERNESTO YUSEF                     MXP000000000000000000000000000000000000000000000000000000000000000000000000000000
D11003746006720828540143928202311142024011400000015058530000NNAVARRETE CUEVAS AURELIO ROY                      MXP000000000000000000000000000000000000000000000000000000000000000000000000000000
D11003756006720828540143929202311142024011400000002335720000NOBESO ALVARADO ADRIANA                            MXP000000000000000000000000000000000000000000000000000000000000000000000000000000
D11003766006720828540143930202311142024011400000015875670000NTORRES REYES MARTHA ALICIA                        MXP000000000000000000000000000000000000000000000000000000000000000000000000000000
D11003776006720828540143931202311142024011400000007202890000NVERDUGO CASTANEDA JESUS DANIEL                    MXP000000000000000000000000000000000000000000000000000000000000000000000000000000
D11003786006720828540143932202311142024011400000008596620000NAGUILAR ZAZUETA ROCIO YOLANDA                     MXP000000000000000000000000000000000000000000000000000000000000000000000000000000
D11003796006720828540143933202311142024011400000004501510000NDE LA CRUZ MENDOZA VIANKA GUADALUPE               MXP000000000000000000000000000000000000000000000000000000000000000000000000000000
D11003806006720828540143934202311142024011400000004149650000NPEREGRINA MEDINA MARTIN ALONSO                    MXP000000000000000000000000000000000000000000000000000000000000000000000000000000
D11003816006720828540143935202311142024011400000002791210000NRIVERA CARDENAS ALEJANDRO                         MXP000000000000000000000000000000000000000000000000000000000000000000000000000000
D11003826006720828540143936202311142024011400000003111600000NAGUILAR MARIN MARIA LEONOR                        MXP000000000000000000000000000000000000000000000000000000000000000000000000000000
D11003836006720828540143937202311142024011400000031581060000NALMANZA AVILES MARCO ANTONIO                      MXP000000000000000000000000000000000000000000000000000000000000000000000000000000
D11003846006720828540143938202311142024011400000012100220000NANAYA CASTRO HERNAN EDUARDO                       MXP000000000000000000000000000000000000000000000000000000000000000000000000000000
D11003856006720828540143939202311142024011400000007127660000NARREDONDO ELENES MIGUEL ANGEL                     MXP000000000000000000000000000000000000000000000000000000000000000000000000000000
D11003866006720828540143940202311142024011400000003111600000NAVALOS CHONG MARIA OLGA                           MXP000000000000000000000000000000000000000000000000000000000000000000000000000000
D11003876006720828540143941202311142024011400000006272770000NAYALA HERNANDEZ NORA PATRICIA                     MXP000000000000000000000000000000000000000000000000000000000000000000000000000000
D11003886006720828540143942202311142024011400000003376080000NAYALA MARTINEZ MARIA DE JESUS                     MXP000000000000000000000000000000000000000000000000000000000000000000000000000000
D11003896006720828540143943202311142024011400000003806700000NBARRAZA BELTRAN ALICIA                            MXP000000000000000000000000000000000000000000000000000000000000000000000000000000
D11003906006720828540143944202311142024011400000004267040000NBELTRAN HEREDIA DEICY MARISELA                    MXP000000000000000000000000000000000000000000000000000000000000000000000000000000
D11003916006720828540143945202311142024011400000003111600000NBELTRAN OJEDA RUTH NOEMI DEL PILAR                MXP000000000000000000000000000000000000000000000000000000000000000000000000000000
D11003926006720828540143946202311142024011400000005436270000NBERNAL SOTO ANA ELISA                             MXP000000000000000000000000000000000000000000000000000000000000000000000000000000
D11003936006720828540143947202311142024011400000010321370000NBOJORQUEZ PEREA OSCAR JAVIER                      MXP000000000000000000000000000000000000000000000000000000000000000000000000000000
D11003946006720828540143948202311142024011400000006320000000NBONIFACIO GARCIA ADELA                            MXP000000000000000000000000000000000000000000000000000000000000000000000000000000
D11003956006720828540143949202311142024011400000009322250000NCACHO SALAZAR ERIKA JOSEFINA                      MXP000000000000000000000000000000000000000000000000000000000000000000000000000000
D11003966006720828540143950202311142024011400000001867050000NCARRILLO MORA JESUS OCTAVIO                       MXP000000000000000000000000000000000000000000000000000000000000000000000000000000
D11003976006720828540143951202311142024011400000004267040000NCARRILLO TORRES JOSEFINA                          MXP000000000000000000000000000000000000000000000000000000000000000000000000000000
D11003986006720828540143952202311142024011400000004165520000NCASTANEDA RIOS EVERARDO                           MXP000000000000000000000000000000000000000000000000000000000000000000000000000000
D11003996006720828540143953202311142024011400000007006000000NCASTANEDA VALENZUELA FLOR MARIA                   MXP000000000000000000000000000000000000000000000000000000000000000000000000000000
D11004006006720828540143954202311142024011400000009019720000NCASTRO GONZALEZ DANIEL                            MXP000000000000000000000000000000000000000000000000000000000000000000000000000000
D11004016006720828540143955202311142024011400000001987890000NCASTRO LOPEZ MICHELLE JHOANA                      MXP000000000000000000000000000000000000000000000000000000000000000000000000000000
D11004026006720828540143956202311142024011400000001987890000NCASTRO MEDINA ARANZA                              MXP000000000000000000000000000000000000000000000000000000000000000000000000000000
D11004036006720828540143957202311142024011400000001987890000NCASTRO MEDINA MELANIE                             MXP000000000000000000000000000000000000000000000000000000000000000000000000000000
D11004046006720828540143958202311142024011400000002274480000NCASTRO SOTO ELIZABETH                             MXP000000000000000000000000000000000000000000000000000000000000000000000000000000
D11004056006720828540143959202311142024011400000003376080000NCEBREROS MEZA MARIA DEL CARMEN                    MXP000000000000000000000000000000000000000000000000000000000000000000000000000000
D11004066006720828540143960202311142024011400000002274480000NCERRILLO CASTRO ARACELI ELIZABETH                 MXP000000000000000000000000000000000000000000000000000000000000000000000000000000
D11004076006720828540143961202311142024011400000002274480000NCERRILLO CASTRO XIOMARA GUADALUPE                 MXP000000000000000000000000000000000000000000000000000000000000000000000000000000
D11004086006720828540143962202311142024011400000007751660000NCERVANTES VALENZUELA ODILON                       MXP000000000000000000000000000000000000000000000000000000000000000000000000000000
D11004096006720828540143963202311142024011400000011511170000NCORTEZ CASTRO MARCO EDGAR                         MXP000000000000000000000000000000000000000000000000000000000000000000000000000000
D11004106006720828540143964202311142024011400000002893970000NCHAVEZ VALENZUELA MARIA GUADALUPE                 MXP000000000000000000000000000000000000000000000000000000000000000000000000000000
D11004116006720828540143965202311142024011400000003376080000NDELGADO CORONA LUZ ELENA                          MXP000000000000000000000000000000000000000000000000000000000000000000000000000000
D11004126006720828540143966202311142024011400000007947030000NDELGADO LOPEZ HECTOR GUADALUPE                    MXP000000000000000000000000000000000000000000000000000000000000000000000000000000
D11004136006720828540143967202311142024011400000010800680000NDELGADO ORTIZ EMIGDIA                             MXP000000000000000000000000000000000000000000000000000000000000000000000000000000
D11004146006720828540143968202311142024011400000003055400000NDOMINGUEZ SALAZAR JUANA                           MXP000000000000000000000000000000000000000000000000000000000000000000000000000000
D11004156006720828540143969202311142024011400000012230220000NFLORES CASTRO JESUS ALBERTO                       MXP000000000000000000000000000000000000000000000000000000000000000000000000000000
D11004166006720828540143970202311142024011400000003538710000NFLORES GONZALEZ PAOLA LETICIA                     MXP000000000000000000000000000000000000000000000000000000000000000000000000000000
D11004176006720828540143971202311142024011400000003249720000NFLORES MORENO MARIA MAGDALENA                     MXP000000000000000000000000000000000000000000000000000000000000000000000000000000
D11004186006720828540143972202311142024011400000002623860000NFLORES SALAZAR MAURA                              MXP000000000000000000000000000000000000000000000000000000000000000000000000000000
D11004196006720828540143973202311142024011400000003376080000NGAMEZ GASTELUM GRACIELA                           MXP000000000000000000000000000000000000000000000000000000000000000000000000000000
D11004206006720828540143974202311142024011400000006532760000NGAMEZ MALDONADO MARIA EMILIA                      MXP000000000000000000000000000000000000000000000000000000000000000000000000000000
D11004216006720828540143975202311142024011400000003538710000NGARCIA FLORES JORGE RAUL                          MXP000000000000000000000000000000000000000000000000000000000000000000000000000000
D11004226006720828540143976202311142024011400000005469770000NGARCIA PEREA LUNA ISABELLA                        MXP000000000000000000000000000000000000000000000000000000000000000000000000000000
D11004236006720828540143977202311142024011400000003376080000NGONZALEZ ARENAS MA CRUZ ESTHER                    MXP000000000000000000000000000000000000000000000000000000000000000000000000000000
D11004246006720828540143978202311142024011400000005179010000NGONZALEZ HERNANDEZ BARDO BALTAZAR                 MXP000000000000000000000000000000000000000000000000000000000000000000000000000000
D11004256006720828540143979202311142024011400000003110360000NGONZALEZ MARTINEZ GUILLERMO                       MXP000000000000000000000000000000000000000000000000000000000000000000000000000000
D11004266006720828540143980202311142024011400000009670260000NGUZMAN CHAMORRO JOEL                              MXP000000000000000000000000000000000000000000000000000000000000000000000000000000
D11004276006720828540143981202311142024011400000007492010000NGUZMAN MEDINA DIANA NAYLEA                        MXP000000000000000000000000000000000000000000000000000000000000000000000000000000
D11004286006720828540143982202311142024011400000012520440000NHOLGUIN ESQUIVEL MARIA ELENA                      MXP000000000000000000000000000000000000000000000000000000000000000000000000000000
D11004296006720828540143983202311142024011400000007974950000NIBARRA HIGUERA MARIA DEL ROSARIO                  MXP000000000000000000000000000000000000000000000000000000000000000000000000000000
D11004306006720828540143984202311142024011400000001362900000NLAFARGA MARTINEZ ALEJANDRO DEL PIERO              MXP000000000000000000000000000000000000000000000000000000000000000000000000000000
D11004316006720828540143985202311142024011400000001362900000NLAFARGA MARTINEZ ALEXA                            MXP000000000000000000000000000000000000000000000000000000000000000000000000000000
D11004326006720828540143986202311142024011400000009448810000NLEON JOSE ANGEL                                   MXP000000000000000000000000000000000000000000000000000000000000000000000000000000
D11004336006720828540143987202311142024011400001898799130000NLEON JOSE ANGEL                                   MXP000000000000000000000000000000000000000000000000000000000000000000000000000000
D11004346006720828540143988202311142024011400000004727070000NLIZARRAGA LANDEROS ENRIQUE                        MXP000000000000000000000000000000000000000000000000000000000000000000000000000000
D11004356006720828540143989202311142024011400000008821160000NLOBILLO GARCIA RAMON                              MXP000000000000000000000000000000000000000000000000000000000000000000000000000000
D11004366006720828540143990202311142024011400000004238280000NLOPEZ BEJARANO MARIA MARISELA                     MXP000000000000000000000000000000000000000000000000000000000000000000000000000000
D11004376006720828540143991202311142024011400000002305550000NLOPEZ CASTILLO GLORIA AIDEE                       MXP000000000000000000000000000000000000000000000000000000000000000000000000000000
D11004386006720828540143992202311142024011400000010186080000NLOPEZ FELIX MARIA                                 MXP000000000000000000000000000000000000000000000000000000000000000000000000000000
D11004396006720828540143993202311142024011400000017851590000NLOPEZ FUENTES DULCE MARIA                         MXP000000000000000000000000000000000000000000000000000000000000000000000000000000
D11004406006720828540143994202311142024011400000003421920000NLOPEZ MENDIVIL DAMASO                             MXP000000000000000000000000000000000000000000000000000000000000000000000000000000
D11004416006720828540143995202311142024011400000002219440000NLOPEZ MONTES EVA DELIA                            MXP000000000000000000000000000000000000000000000000000000000000000000000000000000
D11004426006720828540143996202311142024011400000003160000000NMARIN BELTRAN NANCY CITLALY                       MXP000000000000000000000000000000000000000000000000000000000000000000000000000000
D11004436006720828540143997202311142024011400000000716980000NMARISCAL LOPEZ MARGARITA                          MXP000000000000000000000000000000000000000000000000000000000000000000000000000000
D11004446006720828540143998202311142024011400000007494680000NMARTINEZ BARRAZA MARTHA PATRICIA                  MXP000000000000000000000000000000000000000000000000000000000000000000000000000000
D11004456006720828540143999202311142024011400000005263920000NMARTINEZ BOCANEGRA MA GENOVEVA                    MXP000000000000000000000000000000000000000000000000000000000000000000000000000000
D11004466006720828540144000202311142024011400000001362900000NMARTINEZ HERMOSILLO ERIKA JANETH                  MXP000000000000000000000000000000000000000000000000000000000000000000000000000000
D11004476006720828540144001202311142024011400000004277720000NMATA TORRES FERNANDA                              MXP000000000000000000000000000000000000000000000000000000000000000000000000000000
D11004486006720828540144002202311142024011400000012336000000NMEDINA RIOS KEVIN GERARDO                         MXP000000000000000000000000000000000000000000000000000000000000000000000000000000
D11004496006720828540144003202311142024011400000001987890000NMEDINA RODRIGUEZ ALEXIS ABIGAIL                   MXP000000000000000000000000000000000000000000000000000000000000000000000000000000
D11004506006720828540144004202311142024011400000003421920000NMENDIVIL BELTRAN FRANCISCA                        MXP000000000000000000000000000000000000000000000000000000000000000000000000000000
D11004516006720828540144005202311142024011400000003160000000NMENDOZA MARIN CESAR ALBERTO                       MXP000000000000000000000000000000000000000000000000000000000000000000000000000000
D11004526006720828540144006202311142024011400000003477150000NMENDOZA RAMIREZ JAIME                             MXP000000000000000000000000000000000000000000000000000000000000000000000000000000
D11004536006720828540144007202311142024011400000011008100000NMEZA GARCIA NORMA SILVIA                          MXP000000000000000000000000000000000000000000000000000000000000000000000000000000
D11004546006720828540144008202311142024011400000005620430000NMILLAN SANDOVAL BLANCA ESTHELA                    MXP000000000000000000000000000000000000000000000000000000000000000000000000000000
D11004556006720828540144009202311142024011400000005598050000NMORALES VALDEZ ELEIDA                             MXP000000000000000000000000000000000000000000000000000000000000000000000000000000
D11004566006720828540144010202311142024011400000012662290000NMORANO SEGURA LUIS GUSTAVO                        MXP000000000000000000000000000000000000000000000000000000000000000000000000000000
D11004576006720828540144011202311142024011400000003376080000NMORGA AISPURO MARIA DE LA PAZ                     MXP000000000000000000000000000000000000000000000000000000000000000000000000000000
D11004586006720828540144012202311142024011400000009193010000NMURILLO GUEVARA JESUS ALBERTO                     MXP000000000000000000000000000000000000000000000000000000000000000000000000000000
D11004596006720828540144013202311142024011400000011511170000NNEVAREZ ACOSTA MARIO ANTONIO                      MXP000000000000000000000000000000000000000000000000000000000000000000000000000000
D11004606006720828540144014202311142024011400000007943690000NNIEBLA CAMACHO ISABEL ESPERANZA                   MXP000000000000000000000000000000000000000000000000000000000000000000000000000000
D11004616006720828540144015202311142024011400000011207600000NNIEBLAS QUINONEZ IRMA CANDELARIA                  MXP000000000000000000000000000000000000000000000000000000000000000000000000000000
D11004626006720828540144016202311142024011400000013116770000NORTEGA VARELA RICARDO                             MXP000000000000000000000000000000000000000000000000000000000000000000000000000000
D11004636006720828540144017202311142024011400000008584110000NORTIZ MILLAN ULISES                               MXP000000000000000000000000000000000000000000000000000000000000000000000000000000
D11004646006720828540144018202311142024011400000007955670000NPADILLA RIOS EVA                                  MXP000000000000000000000000000000000000000000000000000000000000000000000000000000
D11004656006720828540144019202311142024011400000007551800000NPARRA NEVAREZ GUADALUPE                           MXP000000000000000000000000000000000000000000000000000000000000000000000000000000
D11004666006720828540144020202311142024011400000005813190000NPEREZ FELIX ANA MARISELA                          MXP000000000000000000000000000000000000000000000000000000000000000000000000000000
D11004676006720828540144021202311142024011400000000716980000NPINA CORONA ANGELA LETICIA                        MXP000000000000000000000000000000000000000000000000000000000000000000000000000000
D11004686006720828540144022202311142024011400000000716980000NPINA CORONA LOURDES GUADALUPE                     MXP000000000000000000000000000000000000000000000000000000000000000000000000000000
D11004696006720828540144023202311142024011400000000716980000NPINA CORONA MARIA MAGALY                          MXP000000000000000000000000000000000000000000000000000000000000000000000000000000
D11004706006720828540144024202311142024011400000000716980000NPINA MARISCAL NESTOR DANIEL                       MXP000000000000000000000000000000000000000000000000000000000000000000000000000000
D11004716006720828540144025202311142024011400000007150160000NRAMIREZ SANCHEZ ANDREA                            MXP000000000000000000000000000000000000000000000000000000000000000000000000000000
D11004726006720828540144026202311142024011400000005813190000NRIVAS PEREZ ANA JUDITH                            MXP000000000000000000000000000000000000000000000000000000000000000000000000000000
D11004736006720828540144027202311142024011400000002434970000NRODRIGUEZ ANAYA AMERICA MICHELLE                  MXP000000000000000000000000000000000000000000000000000000000000000000000000000000
D11004746006720828540144028202311142024011400000005254500000NROJAS FLORES DIONICIO                             MXP000000000000000000000000000000000000000000000000000000000000000000000000000000
D11004756006720828540144029202311142024011400000005129190000NROMERO ROCHA MA ELODIA                            MXP000000000000000000000000000000000000000000000000000000000000000000000000000000
D11004766006720828540144030202311142024011400000007778450000NRUIZ VELAZQUEZ ENEDINA                            MXP000000000000000000000000000000000000000000000000000000000000000000000000000000
D11004776006720828540144031202311142024011400000010152640000NSALAS PEREZ CRUZ BERNARDO                         MXP000000000000000000000000000000000000000000000000000000000000000000000000000000
D11004786006720828540144032202311142024011400000004332770000NSALAZAR TINOCO KAREN DAYANA                       MXP000000000000000000000000000000000000000000000000000000000000000000000000000000
D11004796006720828540144033202311142024011400000005598050000NSALOMON MORALES PAULETTE ALEXANDRA                MXP000000000000000000000000000000000000000000000000000000000000000000000000000000
D11004806006720828540144034202311142024011400000009143680000NSANDOVAL RIOS MARIO EDUARDO                       MXP000000000000000000000000000000000000000000000000000000000000000000000000000000
D11004816006720828540144035202311142024011400000008634500000NSAUCEDO QUIROS MA AGAPITA                         MXP000000000000000000000000000000000000000000000000000000000000000000000000000000
D11004826006720828540144036202311142024011400000003111600000NSILVA LOPEZ GUILLERMO                             MXP000000000000000000000000000000000000000000000000000000000000000000000000000000
D11004836006720828540144037202311142024011400000003376080000NSOTO GONZALEZ MARIA DEL REFUGIO                   MXP000000000000000000000000000000000000000000000000000000000000000000000000000000
D11004846006720828540144038202311142024011400000004332770000NTINOCO BARRON CLAUDIA ALICIA                      MXP000000000000000000000000000000000000000000000000000000000000000000000000000000
D11004856006720828540144039202311142024011400000003111600000NTIZOC LLANES CANDELARIA                           MXP000000000000000000000000000000000000000000000000000000000000000000000000000000
D11004866006720828540144040202311142024011400000002305550000NTORRES LOPEZ GAEL SANTIAGO                        MXP000000000000000000000000000000000000000000000000000000000000000000000000000000
D11004876006720828540144041202311142024011400000004277720000NTORRES MORENO AMERICA                             MXP000000000000000000000000000000000000000000000000000000000000000000000000000000
D11004886006720828540144042202311142024011400000003639180000NVALLE CHARLES ESTEFANIA                           MXP000000000000000000000000000000000000000000000000000000000000000000000000000000
D11004896006720828540144043202311142024011400000003639180000NVALLE CHARLES MELANIE                             MXP000000000000000000000000000000000000000000000000000000000000000000000000000000
D11004906006720828540144044202311142024011400000003763050000NVAZQUEZ BASULTO LETISIA                           MXP000000000000000000000000000000000000000000000000000000000000000000000000000000
D11004916006720828540144045202311142024011400000003111600000NVELAZQUEZ MARTINEZ CARLOS                         MXP000000000000000000000000000000000000000000000000000000000000000000000000000000
D11004926006720828540144046202311142024011400000001299280000NVERDUGO MENDO MARIA DE LOS ANGELES                MXP000000000000000000000000000000000000000000000000000000000000000000000000000000
D11004936006720828540144047202311142024011400000007790240000NZAMORA AYALA MATILDE                              MXP000000000000000000000000000000000000000000000000000000000000000000000000000000
D11004946006720828540144048202311142024011400000005343740000NZAZUETA BELTRAN CONCEPCION                        MXP000000000000000000000000000000000000000000000000000000000000000000000000000000
D11004956006720828540144049202311142024011400000003763050000NZAZUETA VAZQUEZ SUSAN MAYTE                       MXP000000000000000000000000000000000000000000000000000000000000000000000000000000
D11004966006720828540144050202311142024011400000002920150000NALVAREZ VILLA JULIO ENRIQUE                       MXP000000000000000000000000000000000000000000000000000000000000000000000000000000
D11004976006720828540144051202311142024011400000015875670000NMARQUEZ CALDERON KARINA ELIZABETH                 MXP000000000000000000000000000000000000000000000000000000000000000000000000000000
D11004986006720828540144052202311142024011400000007850860000NVELARDE OSUNA SANTA                               MXP000000000000000000000000000000000000000000000000000000000000000000000000000000
D11004996006720828540144053202311142024011400000006258400000NBURGOS VALDEZ CARLOS ARTURO                       MXP000000000000000000000000000000000000000000000000000000000000000000000000000000
D11005006006720828540144054202311142024011400000007068700000NCAMPANA SALAZAR ANDRES                            MXP000000000000000000000000000000000000000000000000000000000000000000000000000000
D11005016006720828540144055202311142024011400000007310060000NCASTRO ROJO ANDRES                                MXP000000000000000000000000000000000000000000000000000000000000000000000000000000
D11005026006720828540144056202311142024011400000013087180000NLOPEZ SANDOVAL EDUARDO                            MXP000000000000000000000000000000000000000000000000000000000000000000000000000000
D11005036006720828540144057202311142024011400000003941220000NGONZALEZ VEJAR MARIA JOSE                         MXP000000000000000000000000000000000000000000000000000000000000000000000000000000
D11005046006720828540144058202311142024011400000005627780000NLIZARRAGA SANCHEZ ROSA MARIA                      MXP000000000000000000000000000000000000000000000000000000000000000000000000000000
D11005056006720828540144059202311142024011400000011014610000NMANZANAREZ SALAZAR JULIO CESAR                    MXP000000000000000000000000000000000000000000000000000000000000000000000000000000
D11005066006720828540144060202311142024011400000009714090000NRUIZ BARAJAS SANDY LORENA                         MXP000000000000000000000000000000000000000000000000000000000000000000000000000000
D11005076006720828540144061202311142024011400000003941220000NSOTO GAXIOLA LAURA MICHELLE                       MXP000000000000000000000000000000000000000000000000000000000000000000000000000000
D11005086006720828540144062202311142024011400000007654730000NURIAS LOPEZ MARCO ANTONIO                         MXP000000000000000000000000000000000000000000000000000000000000000000000000000000
D11005096006720828540144063202311142024011400000005627780000NVALENZUELA MARRUJO ANGELICA ALEJANDRA             MXP000000000000000000000000000000000000000000000000000000000000000000000000000000
D11005106006720828540144064202311142024011400000019656910000NDIAZ VEGA ENRIQUE ALFONSO                         MXP000000000000000000000000000000000000000000000000000000000000000000000000000000
D11005116006720828540144065202311142024011400000002919800000NRUBIO JIMENEZ OSCAR ROBERTO                       MXP000000000000000000000000000000000000000000000000000000000000000000000000000000
D11005126006720828540144066202311142024011400000015875670000NMORENO LIZARRAGA DAVID                            MXP000000000000000000000000000000000000000000000000000000000000000000000000000000
D11005136006720828540144067202311142024011400000007850860000NVALENZUELA SANCHEZ CHRISTIAN ALBERTO              MXP000000000000000000000000000000000000000000000000000000000000000000000000000000
D11005146006720828540144068202311142024011400000004065900000NARAUJO RANGEL FRANCISCO ISMAEL                    MXP000000000000000000000000000000000000000000000000000000000000000000000000000000
D11005156006720828540144069202311142024011400000011427110000NAHUMADA FABELA ADRIANA                            MXP000000000000000000000000000000000000000000000000000000000000000000000000000000
D11005166006720828540144070202311142024011400000015875670000NBELTRAN LEON ABELARDO                             MXP000000000000000000000000000000000000000000000000000000000000000000000000000000
D11005176006720828540144071202311142024011400000007850860000NBUELNA OSUNA MARIANA ALEXANDRA                    MXP000000000000000000000000000000000000000000000000000000000000000000000000000000
