10000728448520703170002GOBIERNO DEL ESTADO DE SINALOA      EJECUTIVO           05                                        C00
2100100000000000000005801700000000000000006726559                    
3000100000000000000000013000052567819689526921234567890                              CLAUDIA ARAUJO BUSTAMANTE                                                                                                  123456700
3000100000000000000000013000051771201500985901234567890                              JUAN MANUEL ALCARAZ BELTRAN                                                                                                123456700
3000100000000000000000013000052567808865279901234567890                              JULIO CESAR ALVARADO INZUNZA                                                                                               123456700
3000100000000000000000013000051771245477636921234567890                              MARIA DEL REFUGIO ARAUJO LOPEZ                                                                                             123456700
3000100000000000000000013000051771264484410961234567890                              RICARDO ABRAHAM ANZALDO LEYVA                                                                                              123456700
3000100000000000000000013000051771255849305991234567890                              JORGE ALDANA MENDOZA                                                                                                       123456700
3000100000000000000000013000051771264484392981234567890                              YOLANDA VICTORIA AMARILLAS MORALES                                                                                         123456700
3000100000000000000000013000052567808867960901234567890                              OFELIA ALVAREZ OCHOA                                                                                                       123456700
3000100000000000000000013000052567808867961991234567890                              ROSA ISELA ALVAREZ OCHOA                                                                                                   123456700
3000100000000000000000013000051771262783646731234567890                              SONIA YUDITH ALVAREZ VERDUGO                                                                                               123456700
3000100000000000000000013000052567802668282991234567890                              BERTHA OFELIA AVENDANO OLIVAS                                                                                              123456700
3000100000000000000000013000051771262167138901234567890                              MINERVA ALICIA ARMENTA VALENZUELA                                                                                          123456700
3000100000000000000000013000052567800624214971234567890                              MINDRA AMEZQUITA VALENZUELA                                                                                                123456700
3000100000000000000000013000051771264676115951234567890                              JESUS FRANCISCO ARDIZONI BURBOA                                                                                            123456700
3000100000000000000000013000052567808863016931234567890                              BRIGIDA AVITIA DE LA CRUZ                                                                                                  123456700
3000100000000000000000013000051771263084343971234567890                              ADELA MARGARITA  BARRIBA                                                                                                   123456700
3000100000000000000000013000051771265658939961234567890                              JOSE LUIS BANUELOS ACEVEDO                                                                                                 123456700
3000100000000000000000013000052567808865233951234567890                              ALEJANDRO BARRAZA BARRAZA                                                                                                  123456700
3000100000000000000000013000052567819066846961234567890                              CANDELARIO BAZQUEZ BELTRAN                                                                                                 123456700
3000100000000000000000013000052567814416918911234567890                              MANUELITA BARRAZA BARRAZA                                                                                                  123456700
3000100000000000000000013000052567808887107921234567890                              JUAN JOSE BARRAZA CHIQUETE                                                                                                 123456700
3000100000000000000000013000052567819066912951234567890                              CESAR MARCELO BARRAZA FERNANDEZ                                                                                            123456700
3000100000000000000000013000051771258776596991234567890                              VENERANDA BALDENEBRO FELIX                                                                                                 123456700
3000100000000000000000013000052567808868595911234567890                              HECTOR RUBEN BATIZ GUZMAN                                                                                                  123456700
3000100000000000000000013000051771264658022951234567890                              SANDRA LUZ BARRAZA JUAREZ                                                                                                  123456700
3000100000000000000000013000052567808886633971234567890                              LUIS  BAUTISTA                                                                                                             123456700
3000100000000000000000013000052567808886634961234567890                              ANTONIO BAUTISTA MARTINEZ                                                                                                  123456700
3000100000000000000000013000052567804526889941234567890                              ALFREDO BASTIDAS MORALES                                                                                                   123456700
3000100000000000000000013000051771264658000911234567890                              GUADALUPE DEL ROSARIO BARAJAS MONARREZ                                                                                     123456700
3000100000000000000000013000052567808868631971234567890                              JUAN EDUARDO BALBOA MARTINEZ                                                                                               123456700
3000100000000000000000013000051771253796037991234567890                              CARLOS ENRIQUE BARRAZA QUINTERO                                                                                            123456700
3000100000000000000000013000052567808887105941234567890                              ALBERTO BALVERDE RODRIGUEZ                                                                                                 123456700
3000100000000000000000013000052567808502912921234567890                              RAFAEL BAEZ SIDAR                                                                                                          123456700
3000100000000000000000013000051771245260369951234567890                              MARIA ALICIA BATIZ VIZCARRA                                                                                                123456700
3000100000000000000000013000052567815356427921234567890                              JUAN GABRIEL BALLARDO VALDEZ                                                                                               123456700
3000100000000000000000013000052567816944054941234567890                              SANDRA CASTANEDA IRIARTE                                                                                                   123456700
3000100000000000000000013000051771263369609911234567890                              SARA CARRILLO JACOBO                                                                                                       123456700
3000100000000000000000013000052567808887119981234567890                              FRANCISCO JAVIER CANEDO LIZARRAGA                                                                                          123456700
3000100000000000000000013000052567808869035971234567890                              MARILU CAZARES LOPEZ                                                                                                       123456700
3000100000000000000000013000051771256341335901234567890                              DIANA MARISSA CARDENAS MARTINEZ                                                                                            123456700
3000100000000000000000013000052567808868637911234567890                              FERNANDO CAVAZOS MELCHOR                                                                                                   123456700
3000100000000000000000013000052567812856978971234567890                              FRANCISCO CASTRO MENDOZA                                                                                                   123456700
3000100000000000000000013000051771201502051951234567890                              MARIELOS CASTANOS MILLAN                                                                                                   123456700
3000100000000000000000013000051771264842138961234567890                              SUSANA CASTRO OCHOA                                                                                                        123456700
3000100000000000000000013000052567808867711921234567890                              TERESITA CAMPAS OBESO                                                                                                      123456700
3000100000000000000000013000052567808862570931234567890                              ALBERTO CASTRO PENA                                                                                                        123456700
3000100000000000000000013000051771255867503911234567890                              EDGARDO CASTANOS PUGA                                                                                                      123456700
3000100000000000000000013000051771262349060961234567890                              ROMUALDO CHAIREZ PADILLA                                                                                                   123456700
3000100000000000000000013000051771262566704971234567890                              MAURICIO CAMARENA ROBLES                                                                                                   123456700
3000100000000000000000013000052567808865251921234567890                              PEDRO CASTILLO RUIZ                                                                                                        123456700
3000100000000000000000013000051771263308203991234567890                              LUIS ALBERTO CAMACHO SANTOS                                                                                                123456700
3000100000000000000000013000051771201502139911234567890                              MAGDA CAMACHO URETA                                                                                                        123456700
3000100000000000000000013000052567808868020961234567890                              ANIBAL ESTRADA CAMERGAN                                                                                                    123456700
3000100000000000000000013000052567818271571941234567890                              MARIA IRENE ESPARZA LOPEZ                                                                                                  123456700
3000100000000000000000013000052567808369370911234567890                              JORGE FELIX GARCIA                                                                                                         123456700
3000100000000000000000013000052567808868573971234567890                              MIGUEL ANGEL FELIX LOPEZ                                                                                                   123456700
3000100000000000000000013000052567802668346931234567890                              GUSTAVO FELIX MENDOZA                                                                                                      123456700
3000100000000000000000013000051771257893661931234567890                              JESUS HUMBERTO FELIX MIRANDA                                                                                               123456700
4001000058000000000000000058000001000000000000000058
