000122/09/202111:10000034067404SRIA DE ADMON Y FINANZAS DEL GOB DEL000000000003JUAN F, MANJARREZ/LOAIZA            
A00000100000090270000000000000945579601AYALA ANAYA JOSEFINA                                   TDBANAMEX1          00100999999999900D                  04                                                  04
A00000100000090350000000000000221938901AVALOS ENCISO DANIEL                                   TDBANAMEX2          00100999999999900D                  04                                                  04
A00000100000090290000000000000806979101ALVAREZ HIDALGO SILVIA PATRICIA                        TDBANAMEX3          00100999999999900D                  04                                                  04
A00000100000090110000000000000836571101ALVAREZ LOPEZ ROSARIO                                  TDBANAMEX4          00100999999999900D                  04                                                  04
A00000100000090390000000000000760078401AYALA MEZA ESMERALDA ELIZABETH                         TDBANAMEX5          00100999999999900D                  04                                                  04
A00000100000093000000000000000639997301ALDANA MENDOZA HERMAN NEDEL                            TDBANAMEX6          00100999999999900D                  04                                                  04
A00000100000090290000000000000640079201ARMENTA CERVANTES FRUCTUOSO                            TDBANAMEX7          00100999999999900D                  04                                                  04
A00000100000090440000000000000948353601ARREDONDO CAZAREZ REY ANTONIO                          TDBANAMEX8          00100999999999900D                  04                                                  04
A00000100000090370000000000000117570801ARMENTA ESPINOZA LUCILA                                TDBANAMEX9          00100999999999900D                  04                                                  04
A00000100000090250000000000000793467401ACEDO FELIX BEATRIZ DEL CARMEN                         TDBANAMEX10         00100999999999900D                  04                                                  04
A00000100000090340000000000000074036901ARMENTA LOPEZ ALMA INEZ                                TDBANAMEX11         00100999999999900D                  04                                                  04
A00000100000090290000000000000640015601ARREGUIN MORENO MARIA DE JESUS JOAQUINA                TDBANAMEX12         00100999999999900D                  04                                                  04
A00000100000090110000000000000836699801ARENAS RIVERA GUADALUPE DEL CARMEN                     TDBANAMEX13         00100999999999900D                  04                                                  04
A00000100000090450000000000000102867601ARMENTA RODRIGUEZ MARTIN EFRAIN                        TDBANAMEX14         00100999999999900D                  04                                                  04
A00000100000090360000000000000122884601ARMENTA RODRIGUEZ RAMON ADOLFO                         TDBANAMEX15         00100999999999900D                  04                                                  04
A00000100000090250000000000000680796201ANTELO SANCHEZ JOSE ADRIAN                             TDBANAMEX16         00100999999999900D                  04                                                  04
A00000100000090250000000000000295968701ANTELO SANCHEZ GUADALUPE                               TDBANAMEX17         00100999999999900D                  04                                                  04
A00000100000090300000000000000972516501ANTELO SANCHEZ MARIA ISABEL                            TDBANAMEX18         00100999999999900D                  04                                                  04
A00000100000090380000000000000521999601AISPURO BON MARGARITA                                  TDBANAMEX19         00100999999999900D                  04                                                  04
A00000100000090110000000000000836818401AVILEZ JIMENEZ FRIDA GUADALUPE                         TDBANAMEX20         00100999999999900D                  04                                                  04
A00000100000090250000000000000726730901ARIAS OLAIS JOSE ISRAEL                                TDBANAMEX21         00100999999999900D                  04                                                  04
A00000100000090380000000000000165828601AVILA OSUNA JUAN GABRIEL                               TDBANAMEX22         00100999999999900D                  04                                                  04
A00000100000090250000000000000468180501AVILA QUIROZ ROSA JEANETH                              TDBANAMEX23         00100999999999900D                  04                                                  04
A00000100000090370000000000000542022701ARMIENTA ZARAGOZA ARTURO FRANCISCO                     TDBANAMEX24         00100999999999900D                  04                                                  04
A00000100000090110000000000000836760901ARMIENTA ZARAGOZA CARMEN PATRICIA                      TDBANAMEX25         00100999999999900D                  04                                                  04
A00000100000090110000000000000836788901ASTORGA ARAUJO BLASA GUADALUPE                         TDBANAMEX26         00100999999999900D                  04                                                  04
A00000100000090110000000000000836786201ASTORGA AISPURO SILVIA                                 TDBANAMEX27         00100999999999900D                  04                                                  04
A00000100000090290000000000000518358501ASTORGA CEJA JOSE JULIO                                TDBANAMEX28         00100999999999900D                  04                                                  04
A00000100000090290000000000000640017201APODACA LOPEZ NEYRA LUZ                                TDBANAMEX29         00100999999999900D                  04                                                  04
A00000100000090360000000000000832860901ACOSTA MORALES MARINA DEL CARMEN                       TDBANAMEX30         00100999999999900D                  04                                                  04
A00000100000090260000000000000894902901ACOSTA VALENZUELA JULIO CESAR                          TDBANAMEX31         00100999999999900D                  04                                                  04
A00000100000090360000000000000797550301AGUIRRE ALMEIDA ALCADIO                                TDBANAMEX32         00100999999999900D                  04                                                  04
A00000100000090370000000000000838449301AHUMADA ATONDO MARIA CELINA                            TDBANAMEX33         00100999999999900D                  04                                                  04
A00000100000090250000000000000306100501AGUILAR LOPEZ EFRAIN                                   TDBANAMEX34         00100999999999900D                  04                                                  04
A00000100000090370000000000000847875701AGUILAR MELENDREZ EUGENIA                              TDBANAMEX35         00100999999999900D                  04                                                  04
A00000100000090160000000000000400057401ANGULO QUINTERO CLAUDIA LETICIA                        TDBANAMEX36         00100999999999900D                  04                                                  04
A00000100000090370000000000000543764201AGUIRRE VALENZUELA HERMELINDA                          TDBANAMEX37         00100999999999900D                  04                                                  04
A00000100000090110000000000000836910501BASTIDAS AGUIRRE JOSE GASTON                           TDBANAMEX38         00100999999999900D                  04                                                  04
A00000100000093000000000000000547607901BLASCO LOPEZ GERARDO ALONSO                            TDBANAMEX39         00100999999999900D                  04                                                  04
A00000100000090250000000000000293372601BELTRAN BELTRAN JOSE MANUEL                            TDBANAMEX40         00100999999999900D                  04                                                  04
A00000100000090360000000000000022950401BELTRAN BETANCOURT RUPERTO                             TDBANAMEX41         00100999999999900D                  04                                                  04
A00000100000090360000000000000661410801BELTRAN DURAN CLAUDIA REBECA                           TDBANAMEX42         00100999999999900D                  04                                                  04
A00000100000090360000000000000380282501BELTRAN GALINDO VICTOR MANUEL                          TDBANAMEX43         00100999999999900D                  04                                                  04
A00000100000090360000000000000546847701BERNAL JAIME JOSE HERACLIO                             TDBANAMEX44         00100999999999900D                  04                                                  04
A00000100000093000000000000000684882401BELTRAN OBESO ARACELI                                  TDBANAMEX45         00100999999999900D                  04                                                  04
A00000100000090270000000000000574416501BELTRAN OSUNA BLANCA MARGARITA                         TDBANAMEX46         00100999999999900D                  04                                                  04
A00000100000090250000000000000290798901BELTRAN OLMEDA ROSA ISELA                              TDBANAMEX47         00100999999999900D                  04                                                  04
A00000100000093000000000000000447176601BELTRAN SOTO LIBIA LILIANA                             TDBANAMEX48         00100999999999900D                  04                                                  04
A00000100000090340000000000000375282101BETANCOURT URIAS RIGOBERTO                             TDBANAMEX49         00100999999999900D                  04                                                  04
A00000100000090350000000000000203811201BOJORQUEZ PARRA MARIA JOVITA                           TDBANAMEX50         00100999999999900D                  04                                                  04
A00000100000090280000000000000355046901BOJORQUEZ VALDEZ ANA LAURA                             TDBANAMEX51         00100999999999900D                  04                                                  04
A00000100000093000000000000000787868901BOJORQUEZ VELARDE JULIETA YADIRA                       TDBANAMEX52         00100999999999900D                  04                                                  04
A00000100000090380000000000000079368601BURGOS GARCIA LILIANA CONSUELO                         TDBANAMEX53         00100999999999900D                  04                                                  04
A00000100000090360000000000000455869301BUSTAMANTE GARCIA ROCIO                                TDBANAMEX54         00100999999999900D                  04                                                  04
A00000100000093000000000000000810163701BUENO SALAIZA MIGUEL ANGEL                             TDBANAMEX55         00100999999999900D                  04                                                  04
A00000100000090360000000000000897296601BURGUEÑO ZAZUETA RAMONA ELPIDIA                        TDBANAMEX56         00100999999999900D                  04                                                  04
A00000100000090380000000000000420342501CASTRO ACOSTA ANABEL                                   TDBANAMEX57         00100999999999900D                  04                                                  04
A00000100000090380000000000000518926401CASTRO BAEZ YOLANDA                                    TDBANAMEX58         00100999999999900D                  04                                                  04
A00000100000090260000000000000941043301CAÑEDO FAVELA LUCILA IMELDA                            TDBANAMEX59         00100999999999900D                  04                                                  04
A00000100000090350000000000000692511301CARDENAS GARCIA ROSARIO                                TDBANAMEX60         00100999999999900D                  04                                                  04
A00000100000090260000000000000862620301CASTRO HERNANDEZ MARTIN                                TDBANAMEX61         00100999999999900D                  04                                                  04
A00000100000090270000000000000465781101CASTAÑOS HERNANDEZ RICARDO                             TDBANAMEX62         00100999999999900D                  04                                                  04
A00000100000090340000000000000402338601CABANILLAS JESUS ANGELICA                              TDBANAMEX63         00100999999999900D                  04                                                  04
A00000100000090260000000000000139265701CASTRO MIGUEL JOSE ALBERTO                             TDBANAMEX64         00100999999999900D                  04                                                  04
A00000100000090380000000000000366685501CASTRO MARTINEZ CLAUDIA YADIRA                         TDBANAMEX65         00100999999999900D                  04                                                  04
A00000100000090390000000000000707449701CASTAÑEDA PEREZ CAROLINA                               TDBANAMEX66         00100999999999900D                  04                                                  04
A00000100000090230000000000000153637901CARDENAS QUIÑONEZ FAVIOLA BIRIDIANA                    TDBANAMEX67         00100999999999900D                  04                                                  04
A00000100000090350000000000000358809401CAMACHO QUEZADA GLORIA ALICIA                          TDBANAMEX68         00100999999999900D                  04                                                  04
A00000100000090360000000000000433573201CASTRO RODRIGUEZ ERIKA                                 TDBANAMEX69         00100999999999900D                  04                                                  04
A00000100000090370000000000000277509101CHAVIRA RUIZ JESUS ENRIQUE                             TDBANAMEX70         00100999999999900D                  04                                                  04
A00000100000090340000000000000892338101CAMPUZANO VEGA MARIA BARBARA IRMA                      TDBANAMEX71         00100999999999900D                  04                                                  04
A00000100000090360000000000000896252901CAZARES ZEPEDA CARLOS RAMON                            TDBANAMEX72         00100999999999900D                  04                                                  04
A00000100000090360000000000000925462501CASTELO ZAMORA MARVELLA                                TDBANAMEX73         00100999999999900D                  04                                                  04
A00000100000090290000000000000306893201CERVANTES CAMACHO CLAUDIA MARGARITA                    TDBANAMEX74         00100999999999900D                  04                                                  04
A00000100000090280000000000000605484501CERVANTES LEYVA CARITINA                               TDBANAMEX75         00100999999999900D                  04                                                  04
A00000100000090270000000000000252612401CEBREROS RUIZ OLIVIA DEL CARMEN                        TDBANAMEX76         00100999999999900D                  04                                                  04
A00000100000090250000000000000721715801CELAYA VALENZUELA CARLOS FRANCISC                      TDBANAMEX77         00100999999999900D                  04                                                  04
A00000100000090050000000000000872888701CRISANTES PERAZA DEMETRIO                              TDBANAMEX78         00100999999999900D                  04                                                  04
A00000100000090240000000000000121939801COTA ARMENTA LAURA CLEOTILDE                           TDBANAMEX79         00100999999999900D                  04                                                  04
A00000100000090240000000000000752108801CORREA AVILES NORMA ELIZABETH                          TDBANAMEX80         00100999999999900D                  04                                                  04
A00000100000090250000000000000425243201COTA DOLORES ALEJANDRA                                 TDBANAMEX81         00100999999999900D                  04                                                  04
A00000100000003280000000000000715022801COTA MIRANDA ANTONIO                                   TDBANAMEX82         00100999999999900D                  04                                                  04
A00000100000090290000000000000639924701CRUZ BOJORQUEZ BRICEIDA                                TDBANAMEX83         00100999999999900D                  04                                                  04
A00000100000090000000000000000809143801DELGADO AVALOS LORENZO                                 TDBANAMEX84         00100999999999900D                  04                                                  04
A00000100000090280000000000000700503101DURAN COLADO RAUL                                      TDBANAMEX85         00100999999999900D                  04                                                  04
A00000100000090340000000000000697103601ESCALANTE HERNANDEZ NOE                                TDBANAMEX86         00100999999999900D                  04                                                  04
A00000100000090380000000000000306694701ELENES ARREDONDO JULIAN                                TDBANAMEX87         00100999999999900D                  04                                                  04
A00000100000090260000000000000249179901ESPINOZA JIMENEZ KARLA ANGELICA                        TDBANAMEX88         00100999999999900D                  04                                                  04
A00000100000090340000000000000820740601ESPINOZA LOPEZ ROSARIO AIDE                            TDBANAMEX89         00100999999999900D                  04                                                  04
A00000100000090260000000000000785874701ENG PEREZ JUAN CARLOS                                  TDBANAMEX90         00100999999999900D                  04                                                  04
A00000100000093000000000000000455613301ESCOBAR INZUNZA NARDA ELIZABETH                        TDBANAMEX91         00100999999999900D                  04                                                  04
A00000100000090360000000000000292307601ESCOBAR MEDEL SERGIO                                   TDBANAMEX92         00100999999999900D                  04                                                  04
A00000100000090280000000000000276914901ESCOBAR OJEDA GEORGINA DE JESUS                        TDBANAMEX93         00100999999999900D                  04                                                  04
A00000100000090380000000000000636856101FELIX CARRASCO JULIO CESAR                             TDBANAMEX94         00100999999999900D                  04                                                  04
A00000100000093000000000000000447175801FERRER LACHICA ANA VIRGINIA                            TDBANAMEX95         00100999999999900D                  04                                                  04
A00000100000090370000000000000349929201FELIX LOPEZ ROSARIO ERCILIA                            TDBANAMEX96         00100999999999900D                  04                                                  04
A00000100000090290000000000000640016401FELIX QUIROZ ILIANA                                    TDBANAMEX97         00100999999999900D                  04                                                  04
A00000100000090250000000000000627577401FELIX VEGA CLAUDIA MARIA                               TDBANAMEX98         00100999999999900D                  04                                                  04
A00000100000090310000000000000989062801FLORES CASTRO MARITZA EVELIA                           TDBANAMEX99         00100999999999900D                  04                                                  04
A00000100000090250000000000000735685901FLORES DIAZ JULIAN                                     TDBANAMEX100        00100999999999900D                  04                                                  04
A00000100000090350000000000000183677501FONTES JAVALERA LEOBARDO                               TDBANAMEX101        00100999999999900D                  04                                                  04
A00000100000090360000000000000927595901FLORES LOPEZ JOSE JESUS                                TDBANAMEX102        00100999999999900D                  04                                                  04
A00000100000090370000000000000500462201GARCIA ACOSTA HELADIO                                  TDBANAMEX103        00100999999999900D                  04                                                  04
A00000100000093000000000000000407351501GARCIA BECERRA JOSE ANTONIO                            TDBANAMEX104        00100999999999900D                  04                                                  04
A00000100000090070000000000000287638401GALINDO BERNAL MARIA ALEJANDRA                         TDBANAMEX105        00100999999999900D                  04                                                  04
A00000100000090340000000000000234750801GARCIA BOJORQUEZ KARINA                                TDBANAMEX106        00100999999999900D                  04                                                  04
A00000100000090280000000000000219542801GALLARDO BAUTISTA JOSE LUIS                            TDBANAMEX107        00100999999999900D                  04                                                  04
A00000100000090420000000000000213910801GARCIA CONTRERAS ANABEL                                TDBANAMEX108        00100999999999900D                  04                                                  04
A00000100000090380000000000000616203301GARCIA CAMPOS JOAQUIN LIZANDRO                         TDBANAMEX109        00100999999999900D                  04                                                  04
A00000100000090270000000000000699182401GAXIOLA CAMACHO MARIA DEL SOCORRO                      TDBANAMEX110        00100999999999900D                  04                                                  04
A00000100000090370000000000000786705901GARZON DUARTE MARIA DEL ROSARIO                        TDBANAMEX111        00100999999999900D                  04                                                  04
A00000100000090250000000000000675554701GARCIA GARCIA FIDENCIO                                 TDBANAMEX112        00100999999999900D                  04                                                  04
A00000100000090370000000000000607535301GALAVIZ GAMEZ FRANCISCA                                TDBANAMEX113        00100999999999900D                  04                                                  04
A00000100000090280000000000000600948301GARCIA LOPEZ NORMA LORENA                              TDBANAMEX114        00100999999999900D                  04                                                  04
A00000100000090250000000000000233665501GARCIA MENDOZA ENRIQUE                                 TDBANAMEX115        00100999999999900D                  04                                                  04
A00000100000093000000000000000373252301GARCIA RUIZ JESUS MANUEL                               TDBANAMEX116        00100999999999900D                  04                                                  04
A00000100000090350000000000000857132701GALAVIZ VALENZUELA MAYRA ISABEL                        TDBANAMEX117        00100999999999900D                  04                                                  04
A00000100000090290000000000000783648901GONZALEZ GUTIERREZ MAIGUA NOEMI                        TDBANAMEX118        00100999999999900D                  04                                                  04
A00000100000090100000000000000657253301GONZALEZ LIZARRAGA ROSA IMELDA                         TDBANAMEX119        00100999999999900D                  04                                                  04
A00000100000090360000000000000355390601GONZALEZ MARQUEZ FERNANDO GUADALUPE                    TDBANAMEX120        00100999999999900D                  04                                                  04
A00000100000090250000000000000395340201GONZALEZ OSUNA NANCI                                   TDBANAMEX121        00100999999999900D                  04                                                  04
A00000100000090350000000000000120184201GONZALEZ ROMERO MARIA LUISA                            TDBANAMEX122        00100999999999900D                  04                                                  04
A00000100000090340000000000000884835501GOMEZ ROSAS PATRICIA                                   TDBANAMEX123        00100999999999900D                  04                                                  04
A00000100000090270000000000000735012101GONZALEZ ZAMORA FABIOLA                                TDBANAMEX124        00100999999999900D                  04                                                  04
A00000100000093000000000000000710242701GUTIERREZ ARELLANO ANA KARYNA                          TDBANAMEX125        00100999999999900D                  04                                                  04
A00000100000090250000000000000815631401GUERRA AYALA MARIA INES                                TDBANAMEX126        00100999999999900D                  04                                                  04
A00000100000090350000000000000169373701GUEVARA COLIO OFELIA YUCARY                            TDBANAMEX127        00100999999999900D                  04                                                  04
A00000100000090370000000000000480695401GUTIERREZ GRACIA GILBERTO                              TDBANAMEX128        00100999999999900D                  04                                                  04
A00000100000090290000000000000907663501GUTIERREZ SILVA MIREYA                                 TDBANAMEX129        00100999999999900D                  04                                                  04
A00000100000090350000000000000205605601GUERRERO VELAZQUEZ JULIO CESAR                         TDBANAMEX130        00100999999999900D                  04                                                  04
A00000100000090110000000000000840789901GUTIERREZ VALENZUELA NOELIA                            TDBANAMEX131        00100999999999900D                  04                                                  04
A00000100000090250000000000000645643401GUERRERO VARGAS ROSA ELMA                              TDBANAMEX132        00100999999999900D                  04                                                  04
A00000100000090270000000000000064127901HERRERA CONTRERAS PATRICIA                             TDBANAMEX133        00100999999999900D                  04                                                  04
A00000100000090250000000000000056342501HERNANDEZ FLORES JOSE GUADALUPE                        TDBANAMEX134        00100999999999900D                  04                                                  04
A00000100000090270000000000000944883801HERNANDEZ GARCIA TERESITA DE JESUS                     TDBANAMEX135        00100999999999900D                  04                                                  04
A00000100000090250000000000000851456301HEREDIA JUAN                                           TDBANAMEX136        00100999999999900D                  04                                                  04
A00000100000090250000000000000321618101HERNANDEZ MENDOZA MARIA LORENZA                        TDBANAMEX137        00100999999999900D                  04                                                  04
A00000100000090350000000000000599601701HERRERA OSUNA GUILLERMO                                TDBANAMEX138        00100999999999900D                  04                                                  04
A00000100000090420000000000000531025801HERNANDEZ VENEGAS HECTOR ARTURO                        TDBANAMEX139        00100999999999900D                  04                                                  04
A00000100000090350000000000000852923101HERRERA VERDUGO NORMA                                  TDBANAMEX140        00100999999999900D                  04                                                  04
A00000100000090240000000000000325451401HUERTA CHAVEZ MARISELA                                 TDBANAMEX141        00100999999999900D                  04                                                  04
A00000100000090000000000000000219316601IBARRA ARREOLA LORENA                                  TDBANAMEX142        00100999999999900D                  04                                                  04
A00000100000090410000000000000028373401ISLAS JORGE FERNANDO                                   TDBANAMEX143        00100999999999900D                  04                                                  04
A00000100000090360000000000000431435201IBARRA MEJIA OLGA ALICIA                               TDBANAMEX144        00100999999999900D                  04                                                  04
A00000100000090390000000000000811914101ISRAEL RANGEL MARTIN                                   TDBANAMEX145        00100999999999900D                  04                                                  04
A00000100000090260000000000000452522401IMPERIAL FELIX NORMA EVELIA                            TDBANAMEX146        00100999999999900D                  04                                                  04
A00000100000093000000000000000402830701INZUNZA CAZAREZ ENRIQUE                                TDBANAMEX147        00100999999999900D                  04                                                  04
A00000100000090350000000000000706326301JAUREGUI LEAL MARIA ELENA                              TDBANAMEX148        00100999999999900D                  04                                                  04
A00000100000090360000000000000943266301JUAREZ VILLEGAS RAUL                                   TDBANAMEX149        00100999999999900D                  04                                                  04
A00000100000090000000000000000201428801LABRADA GUTIERREZ CLEMENTE                             TDBANAMEX150        00100999999999900D                  04                                                  04
A00000100000090290000000000000639969701LARES GUERRERO JUANA PATRICIA                          TDBANAMEX151        00100999999999900D                  04                                                  04
A00000100000093000000000000000372915801LANGO MORENO OCTAVIO                                   TDBANAMEX152        00100999999999900D                  04                                                  04
A00000100000090140000000000000988715501LEAL ATONDO JUAN ANTONIO                               TDBANAMEX153        00100999999999900D                  04                                                  04
A00000100000090340000000000000706707401LEAL CASTRO CECILIO CONCEPCION                         TDBANAMEX154        00100999999999900D                  04                                                  04
A00000100000090340000000000000820771601LEON CASTRO MARIA PETRA                                TDBANAMEX155        00100999999999900D                  04                                                  04
A00000100000090370000000000000755886201LEON ESPINOZA GUADALUPE ISABEL                         TDBANAMEX156        00100999999999900D                  04                                                  04
A00000100000090270000000000000875115401LEYVA MARTINEZ DORA ELSA                               TDBANAMEX157        00100999999999900D                  04                                                  04
A00000100000070010000000000000359032801LEON OJEDA RAFAEL                                      TDBANAMEX158        00100999999999900D                  04                                                  04
A00000100000090250000000000000242656501LEYVA ZAVALA MANUEL HORACIO                            TDBANAMEX159        00100999999999900D                  04                                                  04
A00000100000090290000000000000551706801LIZARRAGA LIZARRAGA MARIA ISABEL                       TDBANAMEX160        00100999999999900D                  04                                                  04
A00000100000093000000000000000549665701LIMON LOPEZ JUAN                                       TDBANAMEX161        00100999999999900D                  04                                                  04
A00000100000090350000000000000944173701LIZARRAGA OSUNA ARACELI                                TDBANAMEX162        00100999999999900D                  04                                                  04
A00000100000090350000000000000783844301LIZARRAGA RODRIGUEZ ANA LUCIA                          TDBANAMEX163        00100999999999900D                  04                                                  04
A00000100000090260000000000000035300301LOPEZ ACOSTA MARCO ANTONIO                             TDBANAMEX164        00100999999999900D                  04                                                  04
A00000100000090280000000000000304617501LOPEZ BARRETO ISABEL CRISTINA                          TDBANAMEX165        00100999999999900D                  04                                                  04
A00000100000090280000000000000474886601LOPEZ CHAVEZ RICARDO                                   TDBANAMEX166        00100999999999900D                  04                                                  04
A00000100000093000000000000000450760401LOPEZ FIERRO CARMEN DEL ROSARIO                        TDBANAMEX167        00100999999999900D                  04                                                  04
A00000100000093000000000000000809238701LOPEZ IRIBE MOISES                                     TDBANAMEX168        00100999999999900D                  04                                                  04
A00000100000090400000000000000165524601LOPEZ LARA CARLOS MARTIN                               TDBANAMEX169        00100999999999900D                  04                                                  04
A00000100000093000000000000000472786801LOPEZ LOPEZ FLORA IRENE                                TDBANAMEX170        00100999999999900D                  04                                                  04
A00000100000090350000000000000893458601LOPEZ LEAL JOSE JUVENTINO                              TDBANAMEX171        00100999999999900D                  04                                                  04
A00000100000093000000000000000656044801LOPEZ LEON KARINA                                      TDBANAMEX172        00100999999999900D                  04                                                  04
A00000100000090370000000000000681682501LOPEZ LEYVA SILVERIA DEL ROSARIO                       TDBANAMEX173        00100999999999900D                  04                                                  04
A00000100000090420000000000000689543801LOPEZ MONTOYA ISABEL CRISTINA                          TDBANAMEX174        00100999999999900D                  04                                                  04
A00000100000090280000000000000698529601LOAIZA PARDO OSCAR GUADALUPE                           TDBANAMEX175        00100999999999900D                  04                                                  04
A00000100000090000000000000000613785601LOPEZ PARDINI ROSA ISELA                               TDBANAMEX176        00100999999999900D                  04                                                  04
A00000100000090400000000000000790983501LOPEZ RAMIREZ LEONEL                                   TDBANAMEX177        00100999999999900D                  04                                                  04
A00000100000090250000000000000312274801LOPEZ SANCHEZ MANUEL                                   TDBANAMEX178        00100999999999900D                  04                                                  04
A00000100000090370000000000000069408601LOPEZ VALENZUELA MIRTHA                                TDBANAMEX179        00100999999999900D                  04                                                  04
A00000100000090370000000000000393456801LOPEZ VELARDE ROSARIO MANUEL                           TDBANAMEX180        00100999999999900D                  04                                                  04
A00000100000090340000000000000679185201LUGO ESPINOZA GILBERTO                                 TDBANAMEX181        00100999999999900D                  04                                                  04
A00000100000090340000000000000823474801MADUEÑO BERNAL MONICA ELIZABETH                        TDBANAMEX182        00100999999999900D                  04                                                  04
A00000100000090370000000000000500643901MANJARREZ CAMPOS ABEL                                  TDBANAMEX183        00100999999999900D                  04                                                  04
A00000100000090240000000000000813869501MADUEÑO CASTRO JOSE ANGEL                              TDBANAMEX184        00100999999999900D                  04                                                  04
A00000100000093000000000000000416303401MANJARREZ FELIX AGUSTIN                                TDBANAMEX185        00100999999999900D                  04                                                  04
A00000100000090360000000000000894235801MANJARREZ FELIX JOSE ANTONIO                           TDBANAMEX186        00100999999999900D                  04                                                  04
A00000100000090260000000000000799401201MANJARREZ FELIX LETICIA ISABEL                         TDBANAMEX187        00100999999999900D                  04                                                  04
A00000100000090360000000000000829491701MATA MORALES LUIS RAMON                                TDBANAMEX188        00100999999999900D                  04                                                  04
A00000100000070000000000000000525666401MARTINEZ ORTEGA FILIBERTO                              TDBANAMEX189        00100999999999900D                  04                                                  04
A00000100000090370000000000000287996201MARTINEZ RAMIREZ LUISA                                 TDBANAMEX190        00100999999999900D                  04                                                  04
A00000100000093000000000000000545006101MACIAS RAMIREZ JOSE MATILDE                            TDBANAMEX191        00100999999999900D                  04                                                  04
A00000100000070030000000000000518838801MEZA AVENDAÑO CLAUDIA YURIDIA                          TDBANAMEX192        00100999999999900D                  04                                                  04
A00000100000090370000000000000331575201MEDINA BELTRAN DULCE JESUS                             TDBANAMEX193        00100999999999900D                  04                                                  04
A00000100000093000000000000000779945201MEDRANO CORRALES JOSE GUADALUPE                        TDBANAMEX194        00100999999999900D                  04                                                  04
A00000100000090290000000000000639972701MEDINA CORRAL JUAN MANUEL                              TDBANAMEX195        00100999999999900D                  04                                                  04
A00000100000090350000000000000232525101MEDRANO CORRALES LUIS ENRIQUE                          TDBANAMEX196        00100999999999900D                  04                                                  04
A00000100000093000000000000000857595701MEDINA CASTRO RUBEN                                    TDBANAMEX197        00100999999999900D                  04                                                  04
A00000100000090340000000000000878328801MEZA FELIX CESAR ARTURO                                TDBANAMEX198        00100999999999900D                  04                                                  04
A00000100000090110000000000000843946401MERCADO FIGUEROA CATALINA                              TDBANAMEX199        00100999999999900D                  04                                                  04
A00000100000090370000000000000428652701MELENDRES FLORES ELISEO                                TDBANAMEX200        00100999999999900D                  04                                                  04
A00000100000090370000000000000060123101MEJIA HERNANDEZ HERENDIRA                              TDBANAMEX201        00100999999999900D                  04                                                  04
A00000100000090250000000000000297309401MERAZ JIMENEZ MARIA DEL CARMEN                         TDBANAMEX202        00100999999999900D                  04                                                  04
A00000100000090140000000000000790385401MENDOZA LARA ERIKA JUDITH                              TDBANAMEX203        00100999999999900D                  04                                                  04
A00000100000093010000000000000105628601MENDEZ LOPEZ HILDA NORA                                TDBANAMEX204        00100999999999900D                  04                                                  04
A00000100000093000000000000000639544701MEDINA MEDINA LUIS MANUEL                              TDBANAMEX205        00100999999999900D                  04                                                  04
A00000100000090290000000000000807693301MENDIVIL PARADA MARLA TRINIDAD                         TDBANAMEX206        00100999999999900D                  04                                                  04
A00000100000090170000000000000555191201MENESES SERRANO GUISELA                                TDBANAMEX207        00100999999999900D                  04                                                  04
A00000100000090370000000000000247830501MEDINA SAUCEDA JESUS ALBERTO                           TDBANAMEX208        00100999999999900D                  04                                                  04
A00000100000090340000000000000203198501MEDINA VERDUGO FELIX                                   TDBANAMEX209        00100999999999900D                  04                                                  04
A00000100000090350000000000000709776101MEZA VEGA SERGIO LORENZO                               TDBANAMEX210        00100999999999900D                  04                                                  04
A00000100000090360000000000000036989601MEDINA VERDUGO YULY YESENIA                            TDBANAMEX211        00100999999999900D                  04                                                  04
A00000100000090110000000000000843994401MIRANDA NAVARRETE JOSE ANGEL                           TDBANAMEX212        00100999999999900D                  04                                                  04
A00000100000090290000000000000639955701MONTOYA ANGULO ANTONIA                                 TDBANAMEX213        00100999999999900D                  04                                                  04
A00000100000090320000000000000982597201MORENO CHAVEZ JESUS RAMON                              TDBANAMEX214        00100999999999900D                  04                                                  04
A00000100000093000000000000000556646901MONTIJO DUARTE MICAELA                                 TDBANAMEX215        00100999999999900D                  04                                                  04
A00000100000090110000000000000844024101MONTELONGO GONZALEZ ELIZABETH                          TDBANAMEX216        00100999999999900D                  04                                                  04
A00000100000090370000000000000387217101MONTELONGO GONZALEZ MARTHA PATRICIA                    TDBANAMEX217        00100999999999900D                  04                                                  04
A00000100000090350000000000000046147601MONTELONGO GONZALEZ MARICELA                           TDBANAMEX218        00100999999999900D                  04                                                  04
A00000100000090260000000000000176060501MONTOYA GALAVIZ ROCIO ARACELI                          TDBANAMEX219        00100999999999900D                  04                                                  04
A00000100000093000000000000000440184901MORENO LIZARRAGA ANA BELEN                             TDBANAMEX220        00100999999999900D                  04                                                  04
A00000100000090370000000000000101961701MORALES LIZARRAGA MARIA GUADALUPE                      TDBANAMEX221        00100999999999900D                  04                                                  04
A00000100000090340000000000000692239601MORALES LOPEZ MARTHA LILIANA                           TDBANAMEX222        00100999999999900D                  04                                                  04
A00000100000090340000000000000209080901MORENO LIZARRAGA NEYRA MANUELITA                       TDBANAMEX223        00100999999999900D                  04                                                  04
A00000100000090170000000000000062949201MORENO MASCOTA DORA LILIA                              TDBANAMEX224        00100999999999900D                  04                                                  04
A00000100000090110000000000000844010101MOLINARES MONGE LEOCADIA                               TDBANAMEX225        00100999999999900D                  04                                                  04
A00000100000090250000000000000718428401MONTIEL NIEBLAS OSCAR                                  TDBANAMEX226        00100999999999900D                  04                                                  04
A00000100000090380000000000000060818801MORENO OSUNA ALFREDO ISABEL                            TDBANAMEX227        00100999999999900D                  04                                                  04
A00000100000090370000000000000691596301MURILLO ARREOLA EUGENIA                                TDBANAMEX228        00100999999999900D                  04                                                  04
A00000100000093000000000000000843030401MUÑOZ COTA MARIA ELENA                                 TDBANAMEX229        00100999999999900D                  04                                                  04
A00000100000090270000000000000680707101NAVAREZ COTA PRUDENCIANO                               TDBANAMEX230        00100999999999900D                  04                                                  04
A00000100000093000000000000000680904701NAVIDAD MONJARDIN NORA AMELIA                          TDBANAMEX231        00100999999999900D                  04                                                  04
A00000100000090210000000000000841247401NAVIDAD MONJARDIN ONEYDA                               TDBANAMEX232        00100999999999900D                  04                                                  04
A00000100000090250000000000000451131401NAJERA SALGADO MARGARITA                               TDBANAMEX233        00100999999999900D                  04                                                  04
A00000100000093000000000000000855637501NAVARRO VIDALES JORGE                                  TDBANAMEX234        00100999999999900D                  04                                                  04
A00000100000090050000000000000556586301NIEBLA RODRIGUEZ ADELINA                               TDBANAMEX235        00100999999999900D                  04                                                  04
A00000100000090290000000000000090857301NUÑEZ SOTO MARIA CONCEPCION                            TDBANAMEX236        00100999999999900D                  04                                                  04
A00000100000090370000000000000496246801OLAIS BURBOA MARIA EPIGMENIA                           TDBANAMEX237        00100999999999900D                  04                                                  04
A00000100000093010000000000000255020901ORNELAS SALAZAR PERLA CORINA                           TDBANAMEX238        00100999999999900D                  04                                                  04
A00000100000090290000000000000907680501OCHOA CUEVAS KARLA LILIANA                             TDBANAMEX239        00100999999999900D                  04                                                  04
A00000100000090340000000000000948753401OSUNA CHAVEZ MIGUEL ANGEL                              TDBANAMEX240        00100999999999900D                  04                                                  04
A00000100000090370000000000000383232301OSUNA MEDINA ELSA GUADALUPE                            TDBANAMEX241        00100999999999900D                  04                                                  04
A00000100000090270000000000000471655901OSUNA PARENTE EVELIA                                   TDBANAMEX242        00100999999999900D                  04                                                  04
A00000100000090350000000000000645363701OSUNA PAEZ NORMA LETICIA                               TDBANAMEX243        00100999999999900D                  04                                                  04
A00000100000090380000000000000515975601OSUNA VILLARREAL HILDA LETICIA                         TDBANAMEX244        00100999999999900D                  04                                                  04
A00000100000090250000000000000289074101OSUNA VAZQUEZ RAFAEL                                   TDBANAMEX245        00100999999999900D                  04                                                  04
A00000100000090080000000000000416045701PACHECO AVILEZ LUZ ESTHER                              TDBANAMEX246        00100999999999900D                  04                                                  04
A00000100000090100000000000000208895501PACHECO CHAVEZ JUAN PABLO                              TDBANAMEX247        00100999999999900D                  04                                                  04
A00000100000090290000000000000871836601PARRA DIAZ SANTA TRINIDAD                              TDBANAMEX248        00100999999999900D                  04                                                  04
A00000100000090370000000000000623301301PLATA FLORES HECTOR MANUEL                             TDBANAMEX249        00100999999999900D                  04                                                  04
A00000100000090360000000000000317824201PARRA LOPEZ ALFREDO MANUEL                             TDBANAMEX250        00100999999999900D                  04                                                  04
A00000100000090350000000000000713797601PAREDES LEYVA MEXALINA                                 TDBANAMEX251        00100999999999900D                  04                                                  04
A00000100000090370000000000000358374901PALAZUELOS MOYA BRISA NEREYDA                          TDBANAMEX252        00100999999999900D                  04                                                  04
A00000100000090360000000000000789587901PLATA MEDINA ELSA LORENA                               TDBANAMEX253        00100999999999900D                  04                                                  04
A00000100000090250000000000000023650501PARDO VELARDE AIDA DEL CARMEN                          TDBANAMEX254        00100999999999900D                  04                                                  04
A00000100000090370000000000000630472701PEÑUELAS ARELLANO ALMA MARIBEL                         TDBANAMEX255        00100999999999900D                  04                                                  04
A00000100000090210000000000000023202701PEREZ AYALA MARIA DOLORES                              TDBANAMEX256        00100999999999900D                  04                                                  04
A00000100000090110000000000000841762201PEÑUELAS ARELLANO ROSA CARMINA                         TDBANAMEX257        00100999999999900D                  04                                                  04
A00000100000090130000000000000712823201PEREZ GUTIERREZ DOLORES GUADALUPE                      TDBANAMEX258        00100999999999900D                  04                                                  04
A00000100000093010000000000000357446201PEREZ HERNANDEZ MARTHA LEONOR                          TDBANAMEX259        00100999999999900D                  04                                                  04
A00000100000090410000000000000288917601PEÑA LOPEZ FELIPE                                      TDBANAMEX260        00100999999999900D                  04                                                  04
A00000100000090290000000000000564486801PERALTA PONCE ANA LUISA                                TDBANAMEX261        00100999999999900D                  04                                                  04
A00000100000093000000000000000521638701PEÑUELAS RODELO JOSE ANTONIO                           TDBANAMEX262        00100999999999900D                  04                                                  04
A00000100000090360000000000000573503301PEÑUELAS RODELO GREGORIO                               TDBANAMEX263        00100999999999900D                  04                                                  04
A00000100000090110000000000000841854801PEREZ VILLALBA MARIA ELENA                             TDBANAMEX264        00100999999999900D                  04                                                  04
A00000100000090250000000000000435002701PICOS ALVARADO JESUS ADOLFO                            TDBANAMEX265        00100999999999900D                  04                                                  04
A00000100000090380000000000000287843301QUINTERO BACA JULIA MARCIA                             TDBANAMEX266        00100999999999900D                  04                                                  04
A00000100000090260000000000000214516501QUIÑONEZ ESTRADA SARA BRUNA                            TDBANAMEX267        00100999999999900D                  04                                                  04
A00000100000093000000000000000544998501QUINTERO IBARRA YADIRA                                 TDBANAMEX268        00100999999999900D                  04                                                  04
A00000100000090260000000000000255005101QUEZADA URENDA JOAQUIN ANSELMO                         TDBANAMEX269        00100999999999900D                  04                                                  04
A00000100000090370000000000000428321801RANGEL GARCIA PATRICIA                                 TDBANAMEX270        00100999999999900D                  04                                                  04
A00000100000090110000000000000842014301RAMIREZ LIZARRAGA JESUS ARACELY                        TDBANAMEX271        00100999999999900D                  04                                                  04
A00000100000090270000000000000098739601RAMIREZ MEDINA ISELA GUADALUPE                         TDBANAMEX272        00100999999999900D                  04                                                  04
A00000100000070030000000000000581036401RAMIREZ RODRIGUEZ MARCOS JESUS                         TDBANAMEX273        00100999999999900D                  04                                                  04
A00000100000090360000000000000988476901RAMIREZ VALDEZ ROSINA                                  TDBANAMEX274        00100999999999900D                  04                                                  04
A00000100000090350000000000000973736901REYES RODRIGUEZ ROMAN                                  TDBANAMEX275        00100999999999900D                  04                                                  04
A00000100000090310000000000000991936701REYES VELARDE MARIA ELENA                              TDBANAMEX276        00100999999999900D                  04                                                  04
A00000100000090370000000000000428993301RIOS NAVARRO VERONICA                                  TDBANAMEX277        00100999999999900D                  04                                                  04
A00000100000090380000000000000169659501DE LOS RIOS OLIVO MIGUEL ANGEL                         TDBANAMEX278        00100999999999900D                  04                                                  04
A00000100000090380000000000000080238301RIVERA RAMIREZ ELEONAY NOEMI                           TDBANAMEX279        00100999999999900D                  04                                                  04
A00000100000090340000000000000355534101ROJO ARCE CLARA BEATRIZ                                TDBANAMEX280        00100999999999900D                  04                                                  04
A00000100000090420000000000000214105601ROMERO ACOSTA JAVIER                                   TDBANAMEX281        00100999999999900D                  04                                                  04
A00000100000090160000000000000773192801RODRIGUEZ BELMONTES FABIOLA                            TDBANAMEX282        00100999999999900D                  04                                                  04
A00000100000090260000000000000962032201ROJO CUADRAS SOFIA                                     TDBANAMEX283        00100999999999900D                  04                                                  04
A00000100000090290000000000000640050401ROCHA CASTRO VERONICA ANGELICA                         TDBANAMEX284        00100999999999900D                  04                                                  04
A00000100000090380000000000000011475401RODRIGUEZ ESPINOSA YOLANDA OLIVIA                      TDBANAMEX285        00100999999999900D                  04                                                  04
A00000100000090250000000000000181565701ROMERO FRANCO GEORGINA                                 TDBANAMEX286        00100999999999900D                  04                                                  04
A00000100000090370000000000000684823901ROMAN GAMEZ MARIA LORENA                               TDBANAMEX287        00100999999999900D                  04                                                  04
A00000100000090370000000000000701079401ROMAN GAMEZ MINERVA LETICIA                            TDBANAMEX288        00100999999999900D                  04                                                  04
A00000100000093000000000000000832504701ROMAN HERRERA MIGUEL RAYMUNDO                          TDBANAMEX289        00100999999999900D                  04                                                  04
A00000100000090000000000000000407021501RODRIGUEZ LOPEZ ANA MARIA                              TDBANAMEX290        00100999999999900D                  04                                                  04
A00000100000090280000000000000940032901ROSAS RAMIREZ ROGELIO SALVADOR                         TDBANAMEX291        00100999999999900D                  04                                                  04
A00000100000090450000000000000814276801ROCHA SANDOVAL MARIA DE LOS ANGELES                    TDBANAMEX292        00100999999999900D                  04                                                  04
A00000100000070040000000000000608965901RODRIGUEZ SUAREZ JOSE MARCIAL                          TDBANAMEX293        00100999999999900D                  04                                                  04
A00000100000090410000000000000515301401RODRIGUEZ VALDEZ AVELINO                               TDBANAMEX294        00100999999999900D                  04                                                  04
A00000100000090370000000000000510733201RODRIGUEZ VALDEZ LEONOR ARGELIA                        TDBANAMEX295        00100999999999900D                  04                                                  04
A00000100000090350000000000000448351201RODRIGUEZ ZAMORA LUZ ALONSO                            TDBANAMEX296        00100999999999900D                  04                                                  04
A00000100000093000000000000000373411901RODRIGUEZ ZAMORA NORBERTO                              TDBANAMEX297        00100999999999900D                  04                                                  04
A00000100000090260000000000000363081401RUELAS AYALA MARIA DOLORES                             TDBANAMEX298        00100999999999900D                  04                                                  04
A00000100000093000000000000000373426701RUIZ ARCE DULCE IVETTE                                 TDBANAMEX299        00100999999999900D                  04                                                  04
A00000100000043860000000000000007976401RUELAS CAMACHO FERMIN ALONSO                           TDBANAMEX300        00100999999999900D                  04                                                  04
A00000100000093000000000000000389306301RUBIO GION LORENA DE JESUS                             TDBANAMEX301        00100999999999900D                  04                                                  04
A00000100000093000000000000000855546801RUBIO INZUNZA MARTIN                                   TDBANAMEX302        00100999999999900D                  04                                                  04
A00000100000090350000000000000978385901RUELAS PICOS LILIANA GUADALUPE                         TDBANAMEX303        00100999999999900D                  04                                                  04
A00000100000090310000000000000902164601SANCHEZ AGUILAR MARIA ADRILIAN                         TDBANAMEX304        00100999999999900D                  04                                                  04
A00000100000090370000000000000102424601SANCHEZ ALCARAZ MANUEL DE JESUS                        TDBANAMEX305        00100999999999900D                  04                                                  04
A00000100000090180000000000000332047401SALCIDO BAYARDO FERNANDO                               TDBANAMEX306        00100999999999900D                  04                                                  04
A00000100000093000000000000000448376401SANCHEZ BELTRAN IRACEMA CANDELARIA                     TDBANAMEX307        00100999999999900D                  04                                                  04
A00000100000090110000000000000847859101SAUCEDA BELTRAN LUZ AURELIA                            TDBANAMEX308        00100999999999900D                  04                                                  04
A00000100000090380000000000000338726301SALAS CUEVAS PEDRO MARIO                               TDBANAMEX309        00100999999999900D                  04                                                  04
A00000100000093000000000000000539870101SALCEDO CASTRO MA. DEL ROSARIO                         TDBANAMEX310        00100999999999900D                  04                                                  04
A00000100000093000000000000000408193301SANTOS GONZALEZ JOSUE                                  TDBANAMEX311        00100999999999900D                  04                                                  04
A00000100000090250000000000000269611201SANCHEZ INZUNZA ALEJANDRO                              TDBANAMEX312        00100999999999900D                  04                                                  04
A00000100000090290000000000000639951401SANCHEZ INZUNZA CARLOS                                 TDBANAMEX313        00100999999999900D                  04                                                  04
A00000100000090340000000000000942179701SANTANA OROZCO BERTHA GUADALUPE                        TDBANAMEX314        00100999999999900D                  04                                                  04
A00000100000090270000000000000493076301SANTOYO PEREZ ROSARIO AURORA                           TDBANAMEX315        00100999999999900D                  04                                                  04
A00000100000090110000000000000847700501SALAZAR RODRIGUEZ CECILIA                              TDBANAMEX316        00100999999999900D                  04                                                  04
A00000100000090270000000000000966443301SANDOVAL VALENCIA GALIA                                TDBANAMEX317        00100999999999900D                  04                                                  04
A00000100000090350000000000000700517401SAINZ VIDAÑO OLIVIA                                    TDBANAMEX318        00100999999999900D                  04                                                  04
A00000100000093000000000000000542794901SERRANO GOMEZ EZEQUIEL                                 TDBANAMEX319        00100999999999900D                  04                                                  04
A00000100000090410000000000000096937701SEVILLA VELARDE MONICA                                 TDBANAMEX320        00100999999999900D                  04                                                  04
A00000100000090270000000000000993427901SILVA ROBLES MAGDALENA                                 TDBANAMEX321        00100999999999900D                  04                                                  04
A00000100000090110000000000000098623701SOTO RAMIREZ ARTEMIO                                   TDBANAMEX322        00100999999999900D                  04                                                  04
A00000100000090370000000000000365356901SOTO SANCHEZ JESUS GUADALUPE                           TDBANAMEX323        00100999999999900D                  04                                                  04
A00000100000090290000000000000676373901SOLTERO TAPIA ROSA ALEJANDRA                           TDBANAMEX324        00100999999999900D                  04                                                  04
A00000100000090240000000000000764020601TAVIZON RUIZ ANA CECILIA                               TDBANAMEX325        00100999999999900D                  04                                                  04
A00000100000090260000000000000567664101TORRES BELTRAN NORMA ALICIA                            TDBANAMEX326        00100999999999900D                  04                                                  04
A00000100000090290000000000000924283701TRUJILLO CORRALES GILDA                                TDBANAMEX327        00100999999999900D                  04                                                  04
A00000100000090360000000000000169265801URREA LANDEROS IRMA                                    TDBANAMEX328        00100999999999900D                  04                                                  04
A00000100000090080000000000000676000101URIAS URIAS CARMEN ARACELY                             TDBANAMEX329        00100999999999900D                  04                                                  04
A00000100000090280000000000000061274901VALENZUELA BUSTAMANTE HUGO CALLETANO                   TDBANAMEX330        00100999999999900D                  04                                                  04
A00000100000090280000000000000637989201VARGAS GARCIA JUAN CARLOS                              TDBANAMEX331        00100999999999900D                  04                                                  04
A00000100000090240000000000000092978201VAZQUEZ MANJARREZ MARISOL                              TDBANAMEX332        00100999999999900D                  04                                                  04
A00000100000090250000000000000891865601VALENZUELA MARENTES SALVADOR                           TDBANAMEX333        00100999999999900D                  04                                                  04
A00000100000090260000000000000194985601VALLE NIEBLAS FELIPE ALBERTO                           TDBANAMEX334        00100999999999900D                  04                                                  04
A00000100000090360000000000000781619701VALENZUELA OSUNA JOAQUIN GILBERTO                      TDBANAMEX335        00100999999999900D                  04                                                  04
A00000100000090280000000000000159214801VALDEZ QUINTERO ERIKA SOCORRO                          TDBANAMEX336        00100999999999900D                  04                                                  04
A00000100000070050000000000000645039201VELAZQUEZ AYALA MARIA SARA                             TDBANAMEX337        00100999999999900D                  04                                                  04
A00000100000090370000000000000562047101VELARDE BELTRAN ALMA ROSA                              TDBANAMEX338        00100999999999900D                  04                                                  04
A00000100000090340000000000000226361401VEGA BORQUEZ RENATO ELEAZAR                            TDBANAMEX339        00100999999999900D                  04                                                  04
A00000100000090370000000000000402255401VERDUGO GALICIA MARIO                                  TDBANAMEX340        00100999999999900D                  04                                                  04
A00000100000093000000000000000885213601VELIZ LOPEZ VIRGINIA MAYOLA                            TDBANAMEX341        00100999999999900D                  04                                                  04
A00000100000090270000000000000767028201VILLARREAL VALVERDE JESUS MARCELINO                    TDBANAMEX342        00100999999999900D                  04                                                  04
A00000100000090360000000000000870656501VILLANUEVA VALENZUELA RICARDO                          TDBANAMEX343        00100999999999900D                  04                                                  04
A00000100000090300000000000000990251201ZAMORANO ACOSTA JUAN EDUWIGES                          TDBANAMEX344        00100999999999900D                  04                                                  04
A00000100000090390000000000000076879501ZAMORANO ESTRADA SERGIO ALEJANDRO                      TDBANAMEX345        00100999999999900D                  04                                                  04
A00000100000093000000000000000458850701ZAZUETA HERNANDEZ FRANCISCA DEL CARMEN                 TDBANAMEX346        00100999999999900D                  04                                                  04
A00000100000090140000000000000239039501ZAVALA SALAZAR LUCI MIREIRA                            TDBANAMEX347        00100999999999900D                  04                                                  04
A00000100000090370000000000000283413601ZAZUETA TIRADO GLORIA MARIA                            TDBANAMEX348        00100999999999900D                  04                                                  04
A00000100000090260000000000000035874901ZAZUETA VIZAR MARLEN                                   TDBANAMEX349        00100999999999900D                  04                                                  04
A00000100000090340000000000000716255701ZAZUETA ZAZUETA GLADYS IRENE                           TDBANAMEX350        00100999999999900D                  04                                                  04
A00000100000090350000000000000128144701ZAZUETA ZAMUDIO ROSA ARGELIA                           TDBANAMEX351        00100999999999900D                  04                                                  04
A00000100000090250000000000000587153501SALAZAR GASTELUM ADAN ALBERTO                          TDBANAMEX352        00100999999999900D                  04                                                  04
A00000100000090110000000000000020814501PICOS VALENZUELA ADAN OBED                             TDBANAMEX353        00100999999999900D                  04                                                  04
A00000100000090250000000000000136685201GARCIA RENDON PATRICIA AMALIA                          TDBANAMEX354        00100999999999900D                  04                                                  04
A00000100000093000000000000000687768901ESTRADA MEDINA MARTHA YOLANDA                          TDBANAMEX355        00100999999999900D                  04                                                  04
A00000100000090110000000000000840858501HERNANDEZ GOMEZ ROSARIO                                TDBANAMEX356        00100999999999900D                  04                                                  04
A00000100000090260000000000000543699301HERNANDEZ MILLER MARIA ERNESTINA                       TDBANAMEX357        00100999999999900D                  04                                                  04
A00000100000090240000000000000541083101LOPEZ ELENES MARTHA BEATRIZ                            TDBANAMEX358        00100999999999900D                  04                                                  04
A00000100000090310000000000000949615601LOPEZ TORRES MANUELA DE JESUS                          TDBANAMEX359        00100999999999900D                  04                                                  04
A00000100000090430000000000000949599401MACHADO ESQUERRA HILDELISA                             TDBANAMEX360        00100999999999900D                  04                                                  04
A00000100000090360000000000000169793501MEZA JUAREZ JUANA DE DIOS                              TDBANAMEX361        00100999999999900D                  04                                                  04
A00000100000090250000000000000994463401MONTOYA CASTRO SAUL                                    TDBANAMEX362        00100999999999900D                  04                                                  04
A00000100000090390000000000000061862901MORALES LANDEROS RAMONA TRINIDAD                       TDBANAMEX363        00100999999999900D                  04                                                  04
A00000100000090400000000000000075087301MOLINA ROJAS MARINA                                    TDBANAMEX364        00100999999999900D                  04                                                  04
A00000100000090350000000000000387935801OSUNA GARCIA OLGA                                      TDBANAMEX365        00100999999999900D                  04                                                  04
A00000100000090340000000000000761708201PAYAN PEREZ HERMELINDA                                 TDBANAMEX366        00100999999999900D                  04                                                  04
A00000100000090380000000000000801042701PEREZ ZAZUETA IRMA VICTORIA                            TDBANAMEX367        00100999999999900D                  04                                                  04
A00000100000090250000000000000527780301SANDOVAL QUIROZ ELVIRA                                 TDBANAMEX368        00100999999999900D                  04                                                  04
A00000100000070080000000000000789210501SENTIES SIQUEIROS MARTHA GENOVEVA                      TDBANAMEX369        00100999999999900D                  04                                                  04
A00000100000093000000000000000885210101SOTO RUELAS EVANGELINA                                 TDBANAMEX370        00100999999999900D                  04                                                  04
A00000100000090260000000000000367670901TORRERO SALCIDO GRACIELA EDUVIGES                      TDBANAMEX371        00100999999999900D                  04                                                  04
A00000100000090360000000000000192462101URIAS SANDOVAL ROSA MARIA                              TDBANAMEX372        00100999999999900D                  04                                                  04
A00000100000090380000000000000651865201VALENZUELA HERNANDEZ ELSA FLORA                        TDBANAMEX373        00100999999999900D                  04                                                  04
A00000100000070010000000000000850677501VEGA LAFARGA RAFAEL                                    TDBANAMEX374        00100999999999900D                  04                                                  04
A00000100000090280000000000000232125301MALDONADO HERNANDEZ PASTORA                            TDBANAMEX375        00100999999999900D                  04                                                  04
A00000100000090150000000000000379962701LOPEZ FELIX GUILLERMO                                  TDBANAMEX376        00100999999999900D                  04                                                  04
A00000100000090110000000000000770060601ECHAVARRIA URIAS SANDRA LUZ                            TDBANAMEX377        00100999999999900D                  04                                                  04
A00000100000090370000000000000930370501LOPEZ NORMA GLORIA                                     TDBANAMEX378        00100999999999900D                  04                                                  04
A00000100000090170000000000000959999501MEZA RICO NORMA ALICIA                                 TDBANAMEX379        00100999999999900D                  04                                                  04
A00000100000090170000000000000469881201GUEVARA RUIZ YAZINY KERENHA                            TDBANAMEX380        00100999999999900D                  04                                                  04
A00000100000090290000000000000640046601ORDUÑO CARRILLO NORMA YESENIA                          TDBANAMEX381        00100999999999900D                  04                                                  04
A00000100000090110000000000000845240101VERDUGO GIL LUDMILA                                    TDBANAMEX382        00100999999999900D                  04                                                  04
A00000100000090380000000000000990893101GUTIERREZ PEÑUELAS LAURA LUZ                           TDBANAMEX383        00100999999999900D                  04                                                  04
A00000100000090190000000000000963929201ECHEAGARAY GONZALEZ MITXI CITLALLI                     TDBANAMEX384        00100999999999900D                  04                                                  04
A00000100000090340000000000000065296601NIEBLAS MEDINA MODESTO                                 TDBANAMEX385        00100999999999900D                  04                                                  04
A00000100000090350000000000000500114701CAREAGA ZAZUETA CARLOS ANTONIO                         TDBANAMEX386        00100999999999900D                  04                                                  04
A00000100000090360000000000000917699301URIAS GUTIERREZ YESICA                                 TDBANAMEX387        00100999999999900D                  04                                                  04
A00000100000090360000000000000899335101ELIZALDE ZATARAIN MARIA ESTHER                         TDBANAMEX388        00100999999999900D                  04                                                  04
A00000100000090250000000000000866173601OROZCO LLANES SANTA MEREDITH                           TDBANAMEX389        00100999999999900D                  04                                                  04
A00000100000070090000000000000331927101GARCIA MADERO JULIETA                                  TDBANAMEX390        00100999999999900D                  04                                                  04
A00000100000090350000000000000386933601RIVERA AYALA MA. DE LOS ANGELES                        TDBANAMEX391        00100999999999900D                  04                                                  04
A00000100000090110000000000000847697101SALAZAR LOPEZ NEREYDA ZULEMA                           TDBANAMEX392        00100999999999900D                  04                                                  04
A00000100000090250000000000000292342901GARCIA LOPEZ HECTOR EDUARDO                            TDBANAMEX393        00100999999999900D                  04                                                  04
A00000100000090350000000000000678680601MEZA ARANA ALMA ANGELICA                               TDBANAMEX394        00100999999999900D                  04                                                  04
A00000100000090370000000000000270465801ACOSTA INZUNZA FAUSTO                                  TDBANAMEX395        00100999999999900D                  04                                                  04
A00000100000090290000000000000640025301INZUNZA CAZARES LORENA                                 TDBANAMEX396        00100999999999900D                  04                                                  04
A00000100000090380000000000000477322101SANTOS MEDRANO ELBA ANGELINA                           TDBANAMEX397        00100999999999900D                  04                                                  04
A00000100000093000000000000000823043701PELAYO SALAZAR PAUL HERMMAN                            TDBANAMEX398        00100999999999900D                  04                                                  04
A00000100000090380000000000000640919501INZUNZA CAZARES JAVIER                                 TDBANAMEX399        00100999999999900D                  04                                                  04
A00000100000090260000000000000831403101MARTINEZ LUGO INES                                     TDBANAMEX400        00100999999999900D                  04                                                  04
A00000100000093000000000000000412886701GUZMAN MILLAN MARTHA GUADALUPE                         TDBANAMEX401        00100999999999900D                  04                                                  04
A00000100000090240000000000000900030101MEDINA CASTRO DULCE MARIA GUADALUPE                    TDBANAMEX402        00100999999999900D                  04                                                  04
A00000100000090360000000000000423048501PINEDA FLORES DAVID                                    TDBANAMEX403        00100999999999900D                  04                                                  04
A00000100000090350000000000000723134401BASTIDAS GARATE RAQUEL                                 TDBANAMEX404        00100999999999900D                  04                                                  04
A00000100000090370000000000000500989601ALVAREZ SANCHEZ MARIA DE LOS ANGELES                   TDBANAMEX405        00100999999999900D                  04                                                  04
A00000100000090260000000000000156381801OSUNA CHAVEZ MARIBEL                                   TDBANAMEX406        00100999999999900D                  04                                                  04
A00000100000090360000000000000684397201BORQUEZ ZAZUETA CLAUDIA                                TDBANAMEX407        00100999999999900D                  04                                                  04
A00000100000090380000000000000097458301PALAFOX VEGA JULIA                                     TDBANAMEX408        00100999999999900D                  04                                                  04
A00000100000090300000000000000990446901DIAZ PALOMARES MA. ELIA                                TDBANAMEX409        00100999999999900D                  04                                                  04
A00000100000090280000000000000642110401QUEVEDO CONTRERAS DIANA                                TDBANAMEX410        00100999999999900D                  04                                                  04
A00000100000090290000000000000519536201OSUNA LIZARRAGA JUAN CARLOS                            TDBANAMEX411        00100999999999900D                  04                                                  04
A00000100000090360000000000000751111601QUIÑONEZ REYNA NORMA ENIT                              TDBANAMEX412        00100999999999900D                  04                                                  04
A00000100000090250000000000000384309701LIZARRAGA LIZARRAGA LOURDES                            TDBANAMEX413        00100999999999900D                  04                                                  04
A00000100000093000000000000000533820201SIORDIA PEINADO SILVIA                                 TDBANAMEX414        00100999999999900D                  04                                                  04
A00000100000090240000000000000750831601COTA GAXIOLA JOSE DANIEL                               TDBANAMEX415        00100999999999900D                  04                                                  04
A00000100000090120000000000000132079601SALAZAR ESPINOSA IVONNE                                TDBANAMEX416        00100999999999900D                  04                                                  04
A00000100000090070000000000000363276401GONZALEZ DOMINGUEZ CAROLINA                            TDBANAMEX417        00100999999999900D                  04                                                  04
A00000100000090230000000000000196178901RODRIGUEZ LOPEZ ALBA ERIKA                             TDBANAMEX418        00100999999999900D                  04                                                  04
A00000100000090380000000000000465049901GASTELUM GARCIA CYNTHIA BEATRIZ                        TDBANAMEX419        00100999999999900D                  04                                                  04
A00000100000090150000000000000580102501GONZALEZ SANCHEZ DIANA ZULEMA                          TDBANAMEX420        00100999999999900D                  04                                                  04
A00000100000090340000000000000422775501MADRIGAL GARCIA LAURA BEATRIZ                          TDBANAMEX421        00100999999999900D                  04                                                  04
A00000100000093000000000000000450595401URIAS HERNANDEZ ORFA LIDIA                             TDBANAMEX422        00100999999999900D                  04                                                  04
A00000100000090380000000000000318562801VAZQUEZ PORTILLO MARIA DE LOS ANGELES                  TDBANAMEX423        00100999999999900D                  04                                                  04
A00000100000090280000000000000669591301BURGOS RENDON OLGA IRIBEL                              TDBANAMEX424        00100999999999900D                  04                                                  04
A00000100000090270000000000000741299201AYALA NAFARRATE OSWALDO ARIEL                          TDBANAMEX425        00100999999999900D                  04                                                  04
A00000100000090460000000000000444544601ALMEIDA PARRA LUCINA                                   TDBANAMEX426        00100999999999900D                  04                                                  04
A00000100000090110000000000000836738201ARMENTA MEDINA GABRIELA                                TDBANAMEX427        00100999999999900D                  04                                                  04
A00000100000090270000000000000120466201CASTRO MEZA CLAUDINA                                   TDBANAMEX428        00100999999999900D                  04                                                  04
A00000100000093000000000000000424616901GUERRA TISNADO JORGE MARIO                             TDBANAMEX429        00100999999999900D                  04                                                  04
A00000100000090270000000000000545452301MARTINEZ POLANCO PATRICIA ELIZABETH                    TDBANAMEX430        00100999999999900D                  04                                                  04
A00000100000090280000000000000660275301LOPEZ CARRILLO KARLA RAMONA                            TDBANAMEX431        00100999999999900D                  04                                                  04
A00000100000090350000000000000227677301VEGA SAINZ GERARDO                                     TDBANAMEX432        00100999999999900D                  04                                                  04
A00000100000090180000000000000066345101GALINDO PEÑA APOLONIA                                  TDBANAMEX433        00100999999999900D                  04                                                  04
A00000100000090370000000000000643478701BRITO IBARRA ADRIANA                                   TDBANAMEX434        00100999999999900D                  04                                                  04
A00000100000093000000000000000401463201LERMA LEVA JAZMIN HAYDE                                TDBANAMEX435        00100999999999900D                  04                                                  04
A00000100000090370000000000000016514801VERDE VERDE TELMA                                      TDBANAMEX436        00100999999999900D                  04                                                  04
A00000100000090280000000000000379369801LUNA ARAGON JOSE ALFREDO                               TDBANAMEX437        00100999999999900D                  04                                                  04
A00000100000090350000000000000583331201LOPEZ VELAZQUEZ DINO TONATIUH                          TDBANAMEX438        00100999999999900D                  04                                                  04
A00000100000090290000000000000541457901GONZALEZ BECERRA KARINA                                TDBANAMEX439        00100999999999900D                  04                                                  04
A00000100000090290000000000000907502701BURGOS LOPEZ GUADALUPE TRINIDAD                        TDBANAMEX440        00100999999999900D                  04                                                  04
A00000100000090400000000000000839220801HERNANDEZ BENITEZ SILVIA YOLANDA                       TDBANAMEX441        00100999999999900D                  04                                                  04
A00000100000090380000000000000325317801MALDONADO DOMINGUEZ NORMA LETICIA                      TDBANAMEX442        00100999999999900D                  04                                                  04
A00000100000090260000000000000599979301GAXIOLA CAMACHO NATALIA ARGELIA                        TDBANAMEX443        00100999999999900D                  04                                                  04
A00000100000070110000000000000892392601ESPINOZA LIZARRAGA EDGARDO                             TDBANAMEX444        00100999999999900D                  04                                                  04
A00000100000090370000000000000606173501LAZCANO DELGADO ANGELICA AZUCENA                       TDBANAMEX445        00100999999999900D                  04                                                  04
A00000100000093000000000000000521639501GUILLEN LOPEZ MARIA DOLORES                            TDBANAMEX446        00100999999999900D                  04                                                  04
A00000100000090080000000000000281989301GAXIOLA RIVERA LUCIA                                   TDBANAMEX447        00100999999999900D                  04                                                  04
A00000100000090280000000000000018658801ROCHA INZUNZA ERICA YUDI                               TDBANAMEX448        00100999999999900D                  04                                                  04
A00000100000090000000000000000706635901CASTRO CORONEL DAMACIO                                 TDBANAMEX449        00100999999999900D                  04                                                  04
A00000100000090270000000000000680951101MARIÑO ESTRADA LORENA MATILDE                          TDBANAMEX450        00100999999999900D                  04                                                  04
A00000100000090100000000000000226659401ACOSTA MONTAÑEZ ANILU                                  TDBANAMEX451        00100999999999900D                  04                                                  04
A00000100000090360000000000000409213901GARCIA SANCHEZ ANEL PATRICIA                           TDBANAMEX452        00100999999999900D                  04                                                  04
A00000100000090350000000000000719459701MADUEÑO VERDIALES RAMONA BEATRIZ ELENA                 TDBANAMEX453        00100999999999900D                  04                                                  04
A00000100000090290000000000000640060101ARMENTA ARVIZU ARTURO                                  TDBANAMEX454        00100999999999900D                  04                                                  04
A00000100000090390000000000000270020901APODACA NOLASCO LISBIA IRAN                            TDBANAMEX455        00100999999999900D                  04                                                  04
A00000100000090290000000000000547179301RENAUT VEGA IVAN                                       TDBANAMEX456        00100999999999900D                  04                                                  04
A00000100000093000000000000000876176901ESTRADA CHAVEZ JESUS MANUEL                            TDBANAMEX457        00100999999999900D                  04                                                  04
A00000100000090110000000000000840980801IBARRA ROCHA ROSALVA                                   TDBANAMEX458        00100999999999900D                  04                                                  04
A00000100000090110000000000000844006301MOLINA SAMANO NORMA ANDREYDA                           TDBANAMEX459        00100999999999900D                  04                                                  04
A00000100000090270000000000000063947901HEREDIA VALLE NADIA EMILIA                             TDBANAMEX460        00100999999999900D                  04                                                  04
A00000100000090350000000000000403455601CORVERA MONTES ALMA ROCIO                              TDBANAMEX461        00100999999999900D                  04                                                  04
A00000100000090360000000000000224580901MEDINA CASTILLO ALICIA                                 TDBANAMEX462        00100999999999900D                  04                                                  04
A00000100000090380000000000000688356301LEON GUERRERO LETICIA AURORA                           TDBANAMEX463        00100999999999900D                  04                                                  04
A00000100000090360000000000000818348101BELTRAN VALDEZ JOSE ANGEL                              TDBANAMEX464        00100999999999900D                  04                                                  04
A00000100000090050000000000000753576701CUADRAS GAXIOLA GEORGINA                               TDBANAMEX465        00100999999999900D                  04                                                  04
A00000100000090440000000000000089307301ONTIVEROS ARAGON PERLA DEL ROSARIO                     TDBANAMEX466        00100999999999900D                  04                                                  04
A00000100000090360000000000000640503701COTA ROSAS ANARELY                                     TDBANAMEX467        00100999999999900D                  04                                                  04
A00000100000090360000000000000570506101QUINTERO CARVAJAL BALDOMERO                            TDBANAMEX468        00100999999999900D                  04                                                  04
A00000100000090240000000000000470585401CASTAÑEDA MONTOYA DIANA EDITH                          TDBANAMEX469        00100999999999900D                  04                                                  04
A00000100000090350000000000000526909301LOPEZ LOPEZ ALMA DENICE                                TDBANAMEX470        00100999999999900D                  04                                                  04
A00000100000093000000000000000407588701VERDUGO TEPEZANO CARLOS ALBERTO                        TDBANAMEX471        00100999999999900D                  04                                                  04
A00000100000093000000000000000267100801VIZCARRA MARTINEZ RAQUEL DEL CARMEN                    TDBANAMEX472        00100999999999900D                  04                                                  04
A00000100000090270000000000000370810201PARTIDA VILLARREAL PAOLA LIZZETTE                      TDBANAMEX473        00100999999999900D                  04                                                  04
A00000100000090370000000000000679434101LEYVA PACHECO MIRIAM YOLANDA                           TDBANAMEX474        00100999999999900D                  04                                                  04
A00000100000093000000000000000398018701FONSECA SANCHEZ ROSALINDA                              TDBANAMEX475        00100999999999900D                  04                                                  04
A00000100000090130000000000000802587901QUINTERO HERNANDEZ XITLALITH DIVINA                    TDBANAMEX476        00100999999999900D                  04                                                  04
A00000100000090280000000000000042766601MEDA CAMPAÑA FLOR ISABEL KUEILAI                       TDBANAMEX477        00100999999999900D                  04                                                  04
A00000100000090380000000000000482297401MORENO PARRA JESUS ARNOLDO                             TDBANAMEX478        00100999999999900D                  04                                                  04
A00000100000090370000000000000458010701RENDON MALDONADO ANA AIDE                              TDBANAMEX479        00100999999999900D                  04                                                  04
A00000100000090350000000000000605356601NAVARRETE ARIAS MA. DEL ROCIO                          TDBANAMEX480        00100999999999900D                  04                                                  04
A00000100000090270000000000000933962101GARCIA DIAZ LUIS PASTOR                                TDBANAMEX481        00100999999999900D                  04                                                  04
A00000100000090110000000000000836458801AGUILAR HERRERA CARLOS                                 TDBANAMEX482        00100999999999900D                  04                                                  04
A00000100000070030000000000000185553301SIMENTAL ZAVALA MIGUEL ORLANDO                         TDBANAMEX483        00100999999999900D                  04                                                  04
A00000100000090250000000000000523166801ESCOBAR DIAZ OLGA LILIA                                TDBANAMEX484        00100999999999900D                  04                                                  04
A00000100000090050000000000000180812501GONZALEZ SANCHEZ DAISY                                 TDBANAMEX485        00100999999999900D                  04                                                  04
A00000100000090350000000000000856717601NIEBLA GALAVIZ VERONICA AYME                           TDBANAMEX486        00100999999999900D                  04                                                  04
A00000100000090250000000000000464595701ANGULO DELGADO HOMERO                                  TDBANAMEX487        00100999999999900D                  04                                                  04
