H00001202402060060075400000000121116314800000000000000000000000007540000000012111631480000000000000000000000000000000000000000000000000000000000000000000000000000000000000000000000000000000000
D11000016006720828360192423202402062024040600000019200000000NAGUILAR ALVARADO FELIPE                           MXP000000000000000000000000000000000000000000000000000000000000000000000000000000
D11000026006720828360192424202402062024040600000026000000000NBENITEZ SERRANO NOEL                              MXP000000000000000000000000000000000000000000000000000000000000000000000000000000
D11000036006720828360192425202402062024040600000012000000000NGASTELUM AGUILAR JOSE FERNANDO                    MXP000000000000000000000000000000000000000000000000000000000000000000000000000000
D11000046006720828360192426202402062024040600000019200000000NGARCIA CABADA JOSE RAMON                          MXP000000000000000000000000000000000000000000000000000000000000000000000000000000
D11000056006720828360192427202402062024040600000019200000000NVAZQUEZ LOPEZ MIRIAM                              MXP000000000000000000000000000000000000000000000000000000000000000000000000000000
D11000066006720828360192428202402062024040600000019200000000NMONTOYA NORIEGA JESUS PALEMON                     MXP000000000000000000000000000000000000000000000000000000000000000000000000000000
D11000076006720828360192429202402062024040600000019200000000NCASTRO CAZARES ALAN ELIGIO                        MXP000000000000000000000000000000000000000000000000000000000000000000000000000000
D11000086006720828360192430202402062024040600000026000000000NRAMOS TORRES JESUS NICOLAS                        MXP000000000000000000000000000000000000000000000000000000000000000000000000000000
D11000096006720828360192431202402062024040600000016000000000NVALLE DIAZ MARIA DE JESUS                         MXP000000000000000000000000000000000000000000000000000000000000000000000000000000
D11000106006720828360192432202402062024040600000026000000000NVALENZUELA RAMIREZ FRANCISCO JAVIER               MXP000000000000000000000000000000000000000000000000000000000000000000000000000000
D11000116006720828360192433202402062024040600000019200000000NVALENCIA HERNANDEZ JOSE RAMON                     MXP000000000000000000000000000000000000000000000000000000000000000000000000000000
D11000126006720828360192434202402062024040600000008000000000NGASTELUM AGUILAR JOSE FERNANDO                    MXP000000000000000000000000000000000000000000000000000000000000000000000000000000
D11000136006720828360192435202402062024040600000004000000000NAGUILASOCHO HERNANDEZ ALEJANDRA                   MXP000000000000000000000000000000000000000000000000000000000000000000000000000000
D11000146006720828360192436202402062024040600000004000000000NCORRALES MARTINEZ KARINA GUADALUPE                MXP000000000000000000000000000000000000000000000000000000000000000000000000000000
D11000156006720828360192437202402062024040600000004000000000NFELIX BELTRAN JUAN MANUEL                         MXP000000000000000000000000000000000000000000000000000000000000000000000000000000
D11000166006720828360192438202402062024040600000004000000000NFELIX LLANES ROSA JAQUELINE                       MXP000000000000000000000000000000000000000000000000000000000000000000000000000000
D11000176006720828360192439202402062024040600000004000000000NGUERRERO HERNANDEZ MARLEN ALEJANDRA               MXP000000000000000000000000000000000000000000000000000000000000000000000000000000
D11000186006720828360192440202402062024040600000004000000000NIBARRA ENRIQUEZ ANA KAREN                         MXP000000000000000000000000000000000000000000000000000000000000000000000000000000
D11000196006720828360192442202402062024040600000004000000000NOLIVAS BELTRAN NATHANAEL GUADALUPE                MXP000000000000000000000000000000000000000000000000000000000000000000000000000000
D11000206006720828360192443202402062024040600000004000000000NOSUNA PALOMARES JOCELYNE                          MXP000000000000000000000000000000000000000000000000000000000000000000000000000000
D11000216006720828360192444202402062024040600000012000000000NOSUNA SALAZAR PAUL ANTONIO                        MXP000000000000000000000000000000000000000000000000000000000000000000000000000000
D11000226006720828360192445202402062024040600000004000000000NPLATA BARRAZA LLUVIA MARIN                        MXP000000000000000000000000000000000000000000000000000000000000000000000000000000
D11000236006720828360192446202402062024040600000024000000000NPEREZ ANGULO CESAR MANUEL                         MXP000000000000000000000000000000000000000000000000000000000000000000000000000000
D11000246006720828360192447202402062024040600000004000000000NRIOS GONZALEZ STEPHANIE                           MXP000000000000000000000000000000000000000000000000000000000000000000000000000000
D11000256006720828360192449202402062024040600000012000000000NZAZUETA FELIX RIGOBERTO                           MXP000000000000000000000000000000000000000000000000000000000000000000000000000000
D11000266006720828360192450202402062024040600000030079920000NARAMBULA NAVA NORMA ISABEL                        MXP000000000000000000000000000000000000000000000000000000000000000000000000000000
D11000276006720828360192453202402062024040600000030079920000NBUSTAMANTE OCHOA AIDE LIZZETTE                    MXP000000000000000000000000000000000000000000000000000000000000000000000000000000
D11000286006720828360192454202402062024040600000030079920000NCAZARES MEDINA SANDRA NOEMI                       MXP000000000000000000000000000000000000000000000000000000000000000000000000000000
D11000296006720828360192455202402062024040600000004000000000NCARMONA RODRIGUEZ XOCHITL ARIANA                  MXP000000000000000000000000000000000000000000000000000000000000000000000000000000
D11000306006720828360192456202402062024040600000030079920000NDURAN LOPEZ IRIS MARIA                            MXP000000000000000000000000000000000000000000000000000000000000000000000000000000
D11000316006720828360192457202402062024040600000030079920000NGOMEZ GRACIANO GERARDO                            MXP000000000000000000000000000000000000000000000000000000000000000000000000000000
D11000326006720828360192458202402062024040600000004000000000NGUTIERREZ RENDON JORGE ARTURO                     MXP000000000000000000000000000000000000000000000000000000000000000000000000000000
D11000336006720828360192459202402062024040600000030079920000NHERRERA CENICEROS HILDA CECILIA                   MXP000000000000000000000000000000000000000000000000000000000000000000000000000000
D11000346006720828360192460202402062024040600000030079920000NLEYVA BELTRAN ELVIA LUCERO                        MXP000000000000000000000000000000000000000000000000000000000000000000000000000000
D11000356006720828360192461202402062024040600000030079920000NLOPEZ SOTO JULIA                                  MXP000000000000000000000000000000000000000000000000000000000000000000000000000000
D11000366006720828360192462202402062024040600000030079920000NMERCADO HEREDIA CLAUDIA RAMONA                    MXP000000000000000000000000000000000000000000000000000000000000000000000000000000
D11000376006720828360192463202402062024040600000020000000000NMEZA URIAS JOSE MANUEL                            MXP000000000000000000000000000000000000000000000000000000000000000000000000000000
D11000386006720828360192464202402062024040600000040000000000NPERES IZABAL LAURA ISABEL                         MXP000000000000000000000000000000000000000000000000000000000000000000000000000000
D11000396006720828360192465202402062024040600000030079920000NQUINTERO PALOMARES AUDOMAR SAUL                   MXP000000000000000000000000000000000000000000000000000000000000000000000000000000
D11000406006720828360192466202402062024040600000040000000000NDE LA ROCHA BOBADILLA NOE ALFONSO                 MXP000000000000000000000000000000000000000000000000000000000000000000000000000000
D11000416006720828360192467202402062024040600000030079920000NRODRIGUEZ GUZMAN ALMA DELIA                       MXP000000000000000000000000000000000000000000000000000000000000000000000000000000
D11000426006720828360192468202402062024040600000004000000000NROBLES GONZALEZ RUTH SELENE                       MXP000000000000000000000000000000000000000000000000000000000000000000000000000000
D11000436006720828360192469202402062024040600000030079920000NSANCHEZ BELTRAN OYUKY LYKEY                       MXP000000000000000000000000000000000000000000000000000000000000000000000000000000
D11000446006720828360192470202402062024040600000011514320000NSOTELO OLIVAS MARBELLA                            MXP000000000000000000000000000000000000000000000000000000000000000000000000000000
D11000456006720828360192471202402062024040600000004000000000NTERAN SAUCEDA LAURA YANETH                        MXP000000000000000000000000000000000000000000000000000000000000000000000000000000
D11000466006720828360192472202402062024040600000030079920000NVEGA GONZALEZ TERESA DE JESUS                     MXP000000000000000000000000000000000000000000000000000000000000000000000000000000
D11000476006720828360192473202402062024040600000040000000000NVELARDE SOTO ELSA LIZETH                          MXP000000000000000000000000000000000000000000000000000000000000000000000000000000
D11000486006720828360192474202402062024040600000012000000000NWONG FELIX ULISES                                 MXP000000000000000000000000000000000000000000000000000000000000000000000000000000
D11000496006720828360192475202402062024040600000040000000000NAGUIRRE CORRALES VICENTE                          MXP000000000000000000000000000000000000000000000000000000000000000000000000000000
D11000506006720828360192476202402062024040600000048000000000NCASTILLO LOPEZ SAID JAEL                          MXP000000000000000000000000000000000000000000000000000000000000000000000000000000
D11000516006720828360192477202402062024040600000048000000000NCORONEL PENUELAS JESUS ABRAHAM                    MXP000000000000000000000000000000000000000000000000000000000000000000000000000000
D11000526006720828360192478202402062024040600000040000000000NDURAN GONZALEZ MARCO ANTONIO                      MXP000000000000000000000000000000000000000000000000000000000000000000000000000000
D11000536006720828360192479202402062024040600000040000000000NGASTELUM HERNANDEZ BERENICE GUADALUPE             MXP000000000000000000000000000000000000000000000000000000000000000000000000000000
D11000546006720828360192480202402062024040600000048000000000NGAMEZ PEREZ JOSE LUIS                             MXP000000000000000000000000000000000000000000000000000000000000000000000000000000
D11000556006720828360192481202402062024040600000040000000000NHERNANDEZ CORRAL AURELIO MARIO                    MXP000000000000000000000000000000000000000000000000000000000000000000000000000000
D11000566006720828360192482202402062024040600000040000000000NJIMENEZ GARCIA RAFAEL                             MXP000000000000000000000000000000000000000000000000000000000000000000000000000000
D11000576006720828360192483202402062024040600000048000000000NLOPEZ ARAUJO ELDA LIDIA                           MXP000000000000000000000000000000000000000000000000000000000000000000000000000000
D11000586006720828360192484202402062024040600000028000000000NLOPEZ REYNA JORGE ARMANDO                         MXP000000000000000000000000000000000000000000000000000000000000000000000000000000
D11000596006720828360192485202402062024040600000040000000000NMENDIVIL NAVA JESUS EDMUNDO                       MXP000000000000000000000000000000000000000000000000000000000000000000000000000000
D11000606006720828360192486202402062024040600000040000000000NORTIZ QUINTERO ANGELITA DE JESUS                  MXP000000000000000000000000000000000000000000000000000000000000000000000000000000
D11000616006720828360192487202402062024040600000048000000000NRIVAS OJEDA MARIA DE JESUS                        MXP000000000000000000000000000000000000000000000000000000000000000000000000000000
D11000626006720828360192488202402062024040600000100000000000NSALAS VEGA BERNARDO                               MXP000000000000000000000000000000000000000000000000000000000000000000000000000000
D11000636006720828360192489202402062024040600000040000000000NSOTO PRADO MERCEDES GRACIELA                      MXP000000000000000000000000000000000000000000000000000000000000000000000000000000
D11000646006720828360192490202402062024040600000048000000000NURRECHA LOPEZ ELOY                                MXP000000000000000000000000000000000000000000000000000000000000000000000000000000
D11000656006720828360192491202402062024040600000040000000000NVIZCARRA PAEZ GLORIA                              MXP000000000000000000000000000000000000000000000000000000000000000000000000000000
D11000666006720828360192492202402062024040600000007200000000NSALAZAR AGUILAR DANIEL                            MXP000000000000000000000000000000000000000000000000000000000000000000000000000000
D11000676006720828360192493202402062024040600000005400000000NVELAZQUEZ HERNANDEZ JOSE LUIS                     MXP000000000000000000000000000000000000000000000000000000000000000000000000000000
D11000686006720828360192494202402062024040600000008000000000NHERNANDEZ REYES JUAN                              MXP000000000000000000000000000000000000000000000000000000000000000000000000000000
D11000696006720828360192495202402062024040600000007200000000NAMADOR VALENZUELA BEATRIZ ADRIANA                 MXP000000000000000000000000000000000000000000000000000000000000000000000000000000
D11000706006720828360192496202402062024040600000012800000000N ARCE CRISTIAN BAUDINET                           MXP000000000000000000000000000000000000000000000000000000000000000000000000000000
D11000716006720828360192497202402062024040600000007200000000NARREDONDO SANTOS JOSE ALBERTO                     MXP000000000000000000000000000000000000000000000000000000000000000000000000000000
D11000726006720828360192498202402062024040600000005760000000NAGUILAR IRIBE SERGIO ALEJANDRO                    MXP000000000000000000000000000000000000000000000000000000000000000000000000000000
D11000736006720828360192499202402062024040600000007200000000NAGUIRRE MORENO RAMIRO ELEAZAR                     MXP000000000000000000000000000000000000000000000000000000000000000000000000000000
D11000746006720828360192500202402062024040600000007200000000NBAEZ GOMEZ ROGELIO RAFAEL                         MXP000000000000000000000000000000000000000000000000000000000000000000000000000000
D11000756006720828360192501202402062024040600000007200000000NBACASEGUA MOROYOQUI RAFAEL                        MXP000000000000000000000000000000000000000000000000000000000000000000000000000000
D11000766006720828360192502202402062024040600000007200000000NBAEZ PEREZ JORGE ANTONIO                          MXP000000000000000000000000000000000000000000000000000000000000000000000000000000
D11000776006720828360192503202402062024040600000010000000000NBARRAZA TORRES CARLOS ERNESTO                     MXP000000000000000000000000000000000000000000000000000000000000000000000000000000
D11000786006720828360192504202402062024040600000007200000000NBARRON VALDEZ JAIME OTHONIEL                      MXP000000000000000000000000000000000000000000000000000000000000000000000000000000
D11000796006720828360192505202402062024040600000016000000000NBELTRAN BRIONES VICTOR ALEJANDRO                  MXP000000000000000000000000000000000000000000000000000000000000000000000000000000
D11000806006720828360192506202402062024040600000007200000000NBRIONES HERNANDEZ OTHONIEL                        MXP000000000000000000000000000000000000000000000000000000000000000000000000000000
D11000816006720828360192507202402062024040600000006120000000NBOJORQUEZ AVENDANO PEDRO                          MXP000000000000000000000000000000000000000000000000000000000000000000000000000000
D11000826006720828360192508202402062024040600000007200000000NBORBOLLA BARRAZA JULIO CESAR                      MXP000000000000000000000000000000000000000000000000000000000000000000000000000000
D11000836006720828360192509202402062024040600000007200000000NBUITIMEA VELAZQUEZ CAROLINA                       MXP000000000000000000000000000000000000000000000000000000000000000000000000000000
D11000846006720828360192510202402062024040600000007200000000NCHAIDEZ AGUILAR ALEJANDRO                         MXP000000000000000000000000000000000000000000000000000000000000000000000000000000
D11000856006720828360192511202402062024040600000012000000000NCAMACHO AGUILAR ALBERTO RAFAEL                    MXP000000000000000000000000000000000000000000000000000000000000000000000000000000
D11000866006720828360192512202402062024040600000007200000000NCHAVEZ ACOSTA GUADALUPE HUMBERTO                  MXP000000000000000000000000000000000000000000000000000000000000000000000000000000
D11000876006720828360192513202402062024040600000007200000000NCARRILLO FRANCO JOEL                              MXP000000000000000000000000000000000000000000000000000000000000000000000000000000
D11000886006720828360192514202402062024040600000012800000000NCASTRO PENA ALBERTO                               MXP000000000000000000000000000000000000000000000000000000000000000000000000000000
D11000896006720828360192515202402062024040600000007200000000NCHAPARRO PEREZ ELEAZAR                            MXP000000000000000000000000000000000000000000000000000000000000000000000000000000
D11000906006720828360192516202402062024040600000007200000000NCARDENAS SANDOVAL GUILLERMO                       MXP000000000000000000000000000000000000000000000000000000000000000000000000000000
D11000916006720828360192517202402062024040600000016000000000NCERVANTES MENDOZA GERARDO                         MXP000000000000000000000000000000000000000000000000000000000000000000000000000000
D11000926006720828360192518202402062024040600000008400000000NCERVANTES NORIEGA JOSE                            MXP000000000000000000000000000000000000000000000000000000000000000000000000000000
D11000936006720828360192519202402062024040600000007200000000NCUERVO DE LA CRUZ OLIVERIO                        MXP000000000000000000000000000000000000000000000000000000000000000000000000000000
D11000946006720828360192520202402062024040600000007200000000NDELGADO ALONSO LUIS ENRIQUE                       MXP000000000000000000000000000000000000000000000000000000000000000000000000000000
D11000956006720828360192521202402062024040600000007200000000N DELGADO JULIO CESAR                              MXP000000000000000000000000000000000000000000000000000000000000000000000000000000
D11000966006720828360192522202402062024040600000007200000000NDIAZ CASTRO ERICA YOLANDA                         MXP000000000000000000000000000000000000000000000000000000000000000000000000000000
D11000976006720828360192523202402062024040600000020000000000NDIONISIO HIPOLITO JOSE ANTONIO                    MXP000000000000000000000000000000000000000000000000000000000000000000000000000000
D11000986006720828360192524202402062024040600000007200000000NDIAZ MIRANDA PEDRO                                MXP000000000000000000000000000000000000000000000000000000000000000000000000000000
D11000996006720828360192525202402062024040600000007200000000NENCINAS SAINZ LUIS ALEJANDRO                      MXP000000000000000000000000000000000000000000000000000000000000000000000000000000
D11001006006720828360192526202402062024040600000005400000000NFELIX GUICHO VICTOR MANUEL                        MXP000000000000000000000000000000000000000000000000000000000000000000000000000000
D11001016006720828360192527202402062024040600000007200000000NGARCIA CARDENAS KARLA LETICIA                     MXP000000000000000000000000000000000000000000000000000000000000000000000000000000
D11001026006720828360192528202402062024040600000007200000000NGALINDO GOMEZ HECTOR JOEL                         MXP000000000000000000000000000000000000000000000000000000000000000000000000000000
D11001036006720828360192529202402062024040600000007200000000NGASTELUM INZUNZA JAVIER ARTURO                    MXP000000000000000000000000000000000000000000000000000000000000000000000000000000
D11001046006720828360192530202402062024040600000007200000000NGARCIA MARTINEZ JORGE                             MXP000000000000000000000000000000000000000000000000000000000000000000000000000000
D11001056006720828360192531202402062024040600000007200000000NGARCIA ZAZUETA HERNAN GUADALUPE                   MXP000000000000000000000000000000000000000000000000000000000000000000000000000000
D11001066006720828360192532202402062024040600000007200000000NGOMEZ PARRA ROSARIO                               MXP000000000000000000000000000000000000000000000000000000000000000000000000000000
D11001076006720828360192533202402062024040600000007200000000NHERNANDEZ VIDAL FRANCISCO OLIVER                  MXP000000000000000000000000000000000000000000000000000000000000000000000000000000
D11001086006720828360192534202402062024040600000014400000000NJACOBO GUERRERO GABINO ULISES                     MXP000000000000000000000000000000000000000000000000000000000000000000000000000000
D11001096006720828360192535202402062024040600000007200000000NLIZARRAGA ASTORGA HUMBERTO                        MXP000000000000000000000000000000000000000000000000000000000000000000000000000000
D11001106006720828360192536202402062024040600000005040000000NLIZARRAGA GONZALEZ MANUEL                         MXP000000000000000000000000000000000000000000000000000000000000000000000000000000
D11001116006720828360192537202402062024040600000007200000000NLOPEZ ALONSO PAULINO                              MXP000000000000000000000000000000000000000000000000000000000000000000000000000000
D11001126006720828360192538202402062024040600000007200000000NLOPEZ CARRASCO SIRIA GUADALUPE                    MXP000000000000000000000000000000000000000000000000000000000000000000000000000000
D11001136006720828360192539202402062024040600000007200000000NLOPEZ DOMINGUEZ ABEL ROSARIO                      MXP000000000000000000000000000000000000000000000000000000000000000000000000000000
D11001146006720828360192540202402062024040600000004320000000NLOPEZ GONZALEZ JOSE DE JESUS                      MXP000000000000000000000000000000000000000000000000000000000000000000000000000000
D11001156006720828360192541202402062024040600000007200000000NLOPEZ NAVA MARISOL                                MXP000000000000000000000000000000000000000000000000000000000000000000000000000000
D11001166006720828360192542202402062024040600000005904000000NLOZOYA RODRIGUEZ JOSE MANUEL                      MXP000000000000000000000000000000000000000000000000000000000000000000000000000000
D11001176006720828360192543202402062024040600000007200000000NLUGO CRUZ CRYSTHIAN ZENON                         MXP000000000000000000000000000000000000000000000000000000000000000000000000000000
D11001186006720828360192544202402062024040600000007200000000NLUNA RAMIREZ EMMANUEL                             MXP000000000000000000000000000000000000000000000000000000000000000000000000000000
D11001196006720828360192545202402062024040600000007200000000NMARTINEZ GOMEZ HILARIO JAVIER                     MXP000000000000000000000000000000000000000000000000000000000000000000000000000000
D11001206006720828360192546202402062024040600000007200000000NMARTINEZ PIMIENTA BELISARIO                       MXP000000000000000000000000000000000000000000000000000000000000000000000000000000
D11001216006720828360192547202402062024040600000007200000000NMARTINEZ QUEZADA LAURA PATRICIA                   MXP000000000000000000000000000000000000000000000000000000000000000000000000000000
D11001226006720828360192548202402062024040600000007200000000NMEDINA LOPEZ JOSE ANGEL                           MXP000000000000000000000000000000000000000000000000000000000000000000000000000000
D11001236006720828360192549202402062024040600000007200000000NMEDINA PENA MONICA BEATRIZ                        MXP000000000000000000000000000000000000000000000000000000000000000000000000000000
D11001246006720828360192550202402062024040600000012000000000NMOCTEZUMA AGUILAR HECTOR                          MXP000000000000000000000000000000000000000000000000000000000000000000000000000000
D11001256006720828360192551202402062024040600000014400000000NMOLINA MEZTA JOSE CRUZ                            MXP000000000000000000000000000000000000000000000000000000000000000000000000000000
D11001266006720828360192552202402062024040600000007200000000NMORENO MOLLAR MARIO RAFAEL                        MXP000000000000000000000000000000000000000000000000000000000000000000000000000000
D11001276006720828360192553202402062024040600000007200000000NMORAN RODRIGUEZ LUIS                              MXP000000000000000000000000000000000000000000000000000000000000000000000000000000
D11001286006720828360192554202402062024040600000007200000000NNORIEGA REYES ALEJANDRO                           MXP000000000000000000000000000000000000000000000000000000000000000000000000000000
D11001296006720828360192555202402062024040600000007200000000NOCHOA VERDUGO IRMA ANTONIETA                      MXP000000000000000000000000000000000000000000000000000000000000000000000000000000
D11001306006720828360192556202402062024040600000007200000000NPALAZUELOS AMARILLAS ELVA BEATRIZ                 MXP000000000000000000000000000000000000000000000000000000000000000000000000000000
D11001316006720828360192557202402062024040600000007200000000NPERALTA CUEVAS MARIO DAVID                        MXP000000000000000000000000000000000000000000000000000000000000000000000000000000
D11001326006720828360192558202402062024040600000010000000000NPEREZ GAMEZ FRANCISCO JAVIER                      MXP000000000000000000000000000000000000000000000000000000000000000000000000000000
D11001336006720828360192559202402062024040600000007200000000NPENUELAS HIGUERA WILFREDO                         MXP000000000000000000000000000000000000000000000000000000000000000000000000000000
D11001346006720828360192560202402062024040600000012000000000NPENA RUIZ SEBASTIAN                               MXP000000000000000000000000000000000000000000000000000000000000000000000000000000
D11001356006720828360192561202402062024040600000007200000000NPONCE GRACIA GREGORIA DE JESUS                    MXP000000000000000000000000000000000000000000000000000000000000000000000000000000
D11001366006720828360192562202402062024040600000007200000000NPONCE RIVERA NANCY ELENA                          MXP000000000000000000000000000000000000000000000000000000000000000000000000000000
D11001376006720828360192563202402062024040600000007200000000NPUENTE PUENTE ORALIA GUADALUPE                    MXP000000000000000000000000000000000000000000000000000000000000000000000000000000
D11001386006720828360192564202402062024040600000007200000000NQUIROZ FELIX ANTONIO ALEJANDRO                    MXP000000000000000000000000000000000000000000000000000000000000000000000000000000
D11001396006720828360192565202402062024040600000016000000000NRAMIREZ GRACIANO JUAN RAMON                       MXP000000000000000000000000000000000000000000000000000000000000000000000000000000
D11001406006720828360192566202402062024040600000012000000000NRANGEL HERRERA FELIX                              MXP000000000000000000000000000000000000000000000000000000000000000000000000000000
D11001416006720828360192567202402062024040600000020000000000NRAMOS JIMENEZ PROCES                              MXP000000000000000000000000000000000000000000000000000000000000000000000000000000
D11001426006720828360192568202402062024040600000012000000000NRAMIREZ PINEDA PAUL                               MXP000000000000000000000000000000000000000000000000000000000000000000000000000000
D11001436006720828360192569202402062024040600000006000000000NRETAMOZA GARCIA JORGE LUIS                        MXP000000000000000000000000000000000000000000000000000000000000000000000000000000
D11001446006720828360192570202402062024040600000025000000000NREYES TRASVINA JESUS ERNESTO                      MXP000000000000000000000000000000000000000000000000000000000000000000000000000000
D11001456006720828360192571202402062024040600000007200000000NRIVERA JUAREZ HECTOR OCTAVIO                      MXP000000000000000000000000000000000000000000000000000000000000000000000000000000
D11001466006720828360192572202402062024040600000007200000000NRIOS MENDOZA JUAN ANGEL                           MXP000000000000000000000000000000000000000000000000000000000000000000000000000000
D11001476006720828360192573202402062024040600000004464000000NRODRIGUEZ AVILES JORGE ARMANDO                    MXP000000000000000000000000000000000000000000000000000000000000000000000000000000
D11001486006720828360192574202402062024040600000012000000000NROCHIN LOPEZ RAUL                                 MXP000000000000000000000000000000000000000000000000000000000000000000000000000000
D11001496006720828360192575202402062024040600000007200000000NRUBIO TIRADO OSCAR CESAREO                        MXP000000000000000000000000000000000000000000000000000000000000000000000000000000
D11001506006720828360192576202402062024040600000007200000000NSARABIA GATICA OLIVIA                             MXP000000000000000000000000000000000000000000000000000000000000000000000000000000
D11001516006720828360192577202402062024040600000005400000000NSALAZAR TRUJILLO JOEL ERNESTO                     MXP000000000000000000000000000000000000000000000000000000000000000000000000000000
D11001526006720828360192578202402062024040600000007200000000NSOTO ALVAREZ BEATRIZ ELENA                        MXP000000000000000000000000000000000000000000000000000000000000000000000000000000
D11001536006720828360192579202402062024040600000007200000000NSOLORZANO ACEITUNO LUIS RAMON                     MXP000000000000000000000000000000000000000000000000000000000000000000000000000000
D11001546006720828360192580202402062024040600000007200000000NSOLANO ROSAS PATRICIA                             MXP000000000000000000000000000000000000000000000000000000000000000000000000000000
D11001556006720828360192581202402062024040600000007200000000NTERRAZAS GONZALEZ KARLA VICTORIA                  MXP000000000000000000000000000000000000000000000000000000000000000000000000000000
D11001566006720828360192582202402062024040600000007200000000N URETA JULIO CESAR                                MXP000000000000000000000000000000000000000000000000000000000000000000000000000000
D11001576006720828360192583202402062024040600000007200000000NURENA LOPEZ EFRAIN                                MXP000000000000000000000000000000000000000000000000000000000000000000000000000000
D11001586006720828360192584202402062024040600000007200000000NVALENZUELA GAXIOLA GABRIEL ANTONIO                MXP000000000000000000000000000000000000000000000000000000000000000000000000000000
D11001596006720828360192585202402062024040600000004350000000NVALENZUELA REYNAGA YADIRA LIZETH                  MXP000000000000000000000000000000000000000000000000000000000000000000000000000000
D11001606006720828360192586202402062024040600000012000000000NVALENZUELA VILLELAS JUAN JOSE                     MXP000000000000000000000000000000000000000000000000000000000000000000000000000000
D11001616006720828360192587202402062024040600000003960000000NVALENZUELA VILLELA RAFAEL                         MXP000000000000000000000000000000000000000000000000000000000000000000000000000000
D11001626006720828360192588202402062024040600000007200000000NVELAZQUEZ BUITIMEA CARMELO                        MXP000000000000000000000000000000000000000000000000000000000000000000000000000000
D11001636006720828360192589202402062024040600000007200000000NVELARDE CASTRO JORGE HIPOLITO                     MXP000000000000000000000000000000000000000000000000000000000000000000000000000000
D11001646006720828360192590202402062024040600000016000000000NVERASTICA MUNOZ FRANCISCO JAVIER                  MXP000000000000000000000000000000000000000000000000000000000000000000000000000000
D11001656006720828360192591202402062024040600000040000000000NVILLEGAS LOPEZ JOSE FRANCISCO                     MXP000000000000000000000000000000000000000000000000000000000000000000000000000000
D11001666006720828360192592202402062024040600000007200000000NVILLEGAS TABLON JESUS BENJAMIN                    MXP000000000000000000000000000000000000000000000000000000000000000000000000000000
D11001676006720828360192593202402062024040600000007200000000NWILSON MONGE JESUS ABEL                           MXP000000000000000000000000000000000000000000000000000000000000000000000000000000
D11001686006720828360192594202402062024040600000005760000000NZUNIGA MONTES LUIS FRANCISCO                      MXP000000000000000000000000000000000000000000000000000000000000000000000000000000
D11001696006720828360192595202402062024040600000007200000000NLEYVA LOPEZ SERGIO ANTONIO                        MXP000000000000000000000000000000000000000000000000000000000000000000000000000000
D11001706006720828360192596202402062024040600000008000000000NGUTIERREZ MEDINA CELSO                            MXP000000000000000000000000000000000000000000000000000000000000000000000000000000
D11001716006720828360192597202402062024040600000016000000000NTERRAZAS MEDINA EDRULFO                           MXP000000000000000000000000000000000000000000000000000000000000000000000000000000
D11001726006720828360192598202402062024040600000009600000000NTORRES LOZOYA DANIEL                              MXP000000000000000000000000000000000000000000000000000000000000000000000000000000
D11001736006720828360192599202402062024040600000012000000000NDIAZ GAMEZ LEOPOLDO                               MXP000000000000000000000000000000000000000000000000000000000000000000000000000000
D11001746006720828360192600202402062024040600000012000000000NGUERRERO FONG IVAN                                MXP000000000000000000000000000000000000000000000000000000000000000000000000000000
D11001756006720828360192601202402062024040600000007200000000NMARTINEZ ALTAMIRANO TANIA CRISTELL                MXP000000000000000000000000000000000000000000000000000000000000000000000000000000
D11001766006720828360192602202402062024040600000007200000000NBAEZ PEREZ ERNESTO ALONSO                         MXP000000000000000000000000000000000000000000000000000000000000000000000000000000
D11001776006720828360192603202402062024040600000014400000000NGARCIA URQUIDEZ GUADALUPE                         MXP000000000000000000000000000000000000000000000000000000000000000000000000000000
D11001786006720828360192604202402062024040600000007200000000NREYES RODRIGUEZ JOSE GUSTAVO                      MXP000000000000000000000000000000000000000000000000000000000000000000000000000000
D11001796006720828360192605202402062024040600000019200000000NCORRALES HERNANDEZ JOSE EVERARDO                  MXP000000000000000000000000000000000000000000000000000000000000000000000000000000
D11001806006720828360192606202402062024040600000012000000000NVALVERDE MERCADO LUCIO                            MXP000000000000000000000000000000000000000000000000000000000000000000000000000000
D11001816006720828360192607202402062024040600000008000000000NRUBIO HERNANDEZ MARTHA LORENA                     MXP000000000000000000000000000000000000000000000000000000000000000000000000000000
D11001826006720828360192608202402062024040600000016000000000NBETANCOURT VARGAS MARIANA                         MXP000000000000000000000000000000000000000000000000000000000000000000000000000000
D11001836006720828360192609202402062024040600000016000000000NHIDALGO MALERVA FERNANDO                          MXP000000000000000000000000000000000000000000000000000000000000000000000000000000
D11001846006720828360192610202402062024040600000009666640000NOCHOA ESCOBAR JESUS RICARDO                       MXP000000000000000000000000000000000000000000000000000000000000000000000000000000
D11001856006720828360192611202402062024040600000008000000000NRUIZ CHICUATE OSWALDO                             MXP000000000000000000000000000000000000000000000000000000000000000000000000000000
D11001866006720828360192612202402062024040600000010000000000NDOMINGUEZ PEREZ ROBERTO IVAN                      MXP000000000000000000000000000000000000000000000000000000000000000000000000000000
D11001876006720828360192613202402062024040600000008000000000NHERNANDEZ MEDRANO RODRIGO                         MXP000000000000000000000000000000000000000000000000000000000000000000000000000000
D11001886006720828360192614202402062024040600000012000000000NAMEZQUITA MACHADO NORMA ORALIA                    MXP000000000000000000000000000000000000000000000000000000000000000000000000000000
D11001896006720828360192615202402062024040600000008000000000NROBLES LEYVA PATRICIA OFELIA                      MXP000000000000000000000000000000000000000000000000000000000000000000000000000000
D11001906006720828360192616202402062024040600000060000000000NFELIX CUADRAS XOCHITL                             MXP000000000000000000000000000000000000000000000000000000000000000000000000000000
D11001916006720828360192617202402062024040600000016000000000NHERNANDEZ GARCIA  ELIZABETH                       MXP000000000000000000000000000000000000000000000000000000000000000000000000000000
D11001926006720828360192618202402062024040600000020000000000NLOPEZ ZAVALA JESUS MARTIN                         MXP000000000000000000000000000000000000000000000000000000000000000000000000000000
D11001936006720828360192619202402062024040600000008000000000NNUNEZ MADRIGAL CESAR EDUARDO                      MXP000000000000000000000000000000000000000000000000000000000000000000000000000000
D11001946006720828360192620202402062024040600000020000000000NROSILLO HERNANDEZ MANUELA                         MXP000000000000000000000000000000000000000000000000000000000000000000000000000000
D11001956006720828360192621202402062024040600000012000000000NMEZA MARQUEZ NADIA ANAHI                          MXP000000000000000000000000000000000000000000000000000000000000000000000000000000
D11001966006720828360192622202402062024040600000015000000000NCAMPOS GASCA OMAR GILBERTO                        MXP000000000000000000000000000000000000000000000000000000000000000000000000000000
D11001976006720828360192623202402062024040600000008000000000NCRUZ GUTIERREZ MAYDA VALERIA                      MXP000000000000000000000000000000000000000000000000000000000000000000000000000000
D11001986006720828360192624202402062024040600000012000000000NGUERRERO GARCIA MIGUEL IVAN                       MXP000000000000000000000000000000000000000000000000000000000000000000000000000000
D11001996006720828360192625202402062024040600000007700000000NTOSCANO ZAVALA MOISES                             MXP000000000000000000000000000000000000000000000000000000000000000000000000000000
D11002006006720828360192626202402062024040600000020000000000NMORALES HERNANDEZ FERNANDA ABIGAIL                MXP000000000000000000000000000000000000000000000000000000000000000000000000000000
D11002016006720828360192627202402062024040600000008000000000NPENUNURI REYES JARELLY JOSEFINA                   MXP000000000000000000000000000000000000000000000000000000000000000000000000000000
D11002026006720828360192628202402062024040600000006000000000NOCHOA SAINZ NORA GABRIELA                         MXP000000000000000000000000000000000000000000000000000000000000000000000000000000
D11002036006720828360192629202402062024040600000006400000000NHERNANDEZ ANGULO MARICELA                         MXP000000000000000000000000000000000000000000000000000000000000000000000000000000
D11002046006720828360192630202402062024040600000008000000000NMIRANDA ALVARADO JESUS ANTONIO                    MXP000000000000000000000000000000000000000000000000000000000000000000000000000000
D11002056006720828360192631202402062024040600000008000000000NLOPEZ RUELAS SANDRA LUZ                           MXP000000000000000000000000000000000000000000000000000000000000000000000000000000
D11002066006720828360192632202402062024040600000012000000000NFLORES CORRALES DALIA LUCERO                      MXP000000000000000000000000000000000000000000000000000000000000000000000000000000
D11002076006720828360192633202402062024040600000006000000000NCASTILLO RIVERA SERGIO                            MXP000000000000000000000000000000000000000000000000000000000000000000000000000000
D11002086006720828360192634202402062024040600000008000000000NALVAREZ MONTOYA JOSE TOMAS                        MXP000000000000000000000000000000000000000000000000000000000000000000000000000000
D11002096006720828360192635202402062024040600000004000000000NCHAIDEZ ORTEGA ALFREDO                            MXP000000000000000000000000000000000000000000000000000000000000000000000000000000
D11002106006720828360192636202402062024040600000012000000000NGUTIERREZ ANGULO ELIAZAR                          MXP000000000000000000000000000000000000000000000000000000000000000000000000000000
D11002116006720828360192637202402062024040600000004000000000NHERNANDEZ GONZALEZ ROSALBA                        MXP000000000000000000000000000000000000000000000000000000000000000000000000000000
D11002126006720828360192638202402062024040600000010400000000NMARTINEZ VIZCARRA ALEJANDRA                       MXP000000000000000000000000000000000000000000000000000000000000000000000000000000
D11002136006720828360192639202402062024040600000006000000000NMILLAN CRISTERNA CRISTO JOVANY                    MXP000000000000000000000000000000000000000000000000000000000000000000000000000000
D11002146006720828360192640202402062024040600000004000000000NOLGUIN LOPEZ JULIO CESAR                          MXP000000000000000000000000000000000000000000000000000000000000000000000000000000
D11002156006720828360192641202402062024040600000006000000000NDE LOS RIOS ALFARO LEOBARDO ENRIQUE               MXP000000000000000000000000000000000000000000000000000000000000000000000000000000
D11002166006720828360192642202402062024040600000008800000000NTIRADO LIZARRAGA GUADALUPE CARLOS                 MXP000000000000000000000000000000000000000000000000000000000000000000000000000000
D11002176006720828360192643202402062024040600000004000000000NTOSTADO FLORES GILDARDO                           MXP000000000000000000000000000000000000000000000000000000000000000000000000000000
D11002186006720828360192644202402062024040600000002000000000NURISTA MORALES RAQUEL                             MXP000000000000000000000000000000000000000000000000000000000000000000000000000000
D11002196006720828360192645202402062024040600000002000000000NVARELAS GONZALEZ ALEXIA CAROLINA                  MXP000000000000000000000000000000000000000000000000000000000000000000000000000000
D11002206006720828360192646202402062024040600000006000000000NHERNANDEZ MORACHIS MONSERRAT ALEJANDRA            MXP000000000000000000000000000000000000000000000000000000000000000000000000000000
D11002216006720828360192647202402062024040600000052000000000NACEVES VELAZQUEZ ISAURA                           MXP000000000000000000000000000000000000000000000000000000000000000000000000000000
D11002226006720828360192648202402062024040600000006000000000NBARRERAS COTA YANSI KRISBEL                       MXP000000000000000000000000000000000000000000000000000000000000000000000000000000
D11002236006720828360192649202402062024040600000012000000000NBELTRAN GARCIA MARIA FLORA                        MXP000000000000000000000000000000000000000000000000000000000000000000000000000000
D11002246006720828360192650202402062024040600000026000000000NFELIX CAMACHO ERIKA GUADALUPE                     MXP000000000000000000000000000000000000000000000000000000000000000000000000000000
D11002256006720828360192651202402062024040600000016000000000NFELIX MARTINEZ GLADYS AMELIA                      MXP000000000000000000000000000000000000000000000000000000000000000000000000000000
D11002266006720828360192652202402062024040600000012000000000NLANDEROS MORENO MIGUEL ANGEL                      MXP000000000000000000000000000000000000000000000000000000000000000000000000000000
D11002276006720828360192653202402062024040600000008000000000NLEYVA MENDOZA RUTH ELIZABETH                      MXP000000000000000000000000000000000000000000000000000000000000000000000000000000
D11002286006720828360192654202402062024040600000012000000000NMURILLO DUARTE DELIA                              MXP000000000000000000000000000000000000000000000000000000000000000000000000000000
D11002296006720828360192655202402062024040600000012000000000NMURILLO VIZCARRA FRANCIS CANDELARIA               MXP000000000000000000000000000000000000000000000000000000000000000000000000000000
D11002306006720828360192656202402062024040600000012000000000NNUNEZ MADRIGAL SERGIO OCTAVIO                     MXP000000000000000000000000000000000000000000000000000000000000000000000000000000
D11002316006720828360192657202402062024040600000008000000000NTORRES RIOS MARISELA                              MXP000000000000000000000000000000000000000000000000000000000000000000000000000000
D11002326006720828360192658202402062024040600000052000000000NURIARTE CHAVEZ IRACEMA                            MXP000000000000000000000000000000000000000000000000000000000000000000000000000000
D11002336006720828360192659202402062024040600000004000000000NURTUSUASTEGUI QUINTERO IRMA YESENIA               MXP000000000000000000000000000000000000000000000000000000000000000000000000000000
D11002346006720828360192660202402062024040600000012000000000NVALDEZ ALBISTRAIN MELIDA AIDA                     MXP000000000000000000000000000000000000000000000000000000000000000000000000000000
D11002356006720828360192661202402062024040600000008000000000NVIZCARRA PAEZ JULIA CECILIA                       MXP000000000000000000000000000000000000000000000000000000000000000000000000000000
D11002366006720828360192662202402062024040600000017708000000NBERRELLEZA ESPARZA CECILIA                        MXP000000000000000000000000000000000000000000000000000000000000000000000000000000
D11002376006720828360192663202402062024040600000020000000000NVALENZUELA BEJARANO FERNANDO ADOLFO               MXP000000000000000000000000000000000000000000000000000000000000000000000000000000
D11002386006720828360192664202402062024040600000012000000000NMARTINEZ MENDOZA MAYRA CECILIA                    MXP000000000000000000000000000000000000000000000000000000000000000000000000000000
D11002396006720828360192665202402062024040600000008000000000NBUENO TORRES MIRIAM YANETH                        MXP000000000000000000000000000000000000000000000000000000000000000000000000000000
D11002406006720828360192666202402062024040600000012000000000NCABANILLAS PUGA ROCIO FERNANDA                    MXP000000000000000000000000000000000000000000000000000000000000000000000000000000
D11002416006720828360192667202402062024040600000016000000000NESPINOZA CISNEROS SAUL                            MXP000000000000000000000000000000000000000000000000000000000000000000000000000000
D11002426006720828360192668202402062024040600000008000000000NHERRERA HITO JESUS ABRAHAM ANASTACIO              MXP000000000000000000000000000000000000000000000000000000000000000000000000000000
D11002436006720828360192669202402062024040600000012000000000NVEGA LOAIZA KATIA BEATRIZ                         MXP000000000000000000000000000000000000000000000000000000000000000000000000000000
D11002446006720828360192670202402062024040600000012000000000NGONZALEZ GASPAR FRANCISCA BEATRIZ                 MXP000000000000000000000000000000000000000000000000000000000000000000000000000000
D11002456006720828360192671202402062024040600000020000000000NHERRERA OCHOA JOSE DE JESUS                       MXP000000000000000000000000000000000000000000000000000000000000000000000000000000
D11002466006720828360192672202402062024040600000028000000000NLOPEZ PAYAN EFRAIN                                MXP000000000000000000000000000000000000000000000000000000000000000000000000000000
D11002476006720828360192673202402062024040600000016000000000NALVARADO RAMIREZ CARLOS DARWIN                    MXP000000000000000000000000000000000000000000000000000000000000000000000000000000
D11002486006720828360192674202402062024040600000040000000000NMANJARREZ GIL PABLO RAFAEL                        MXP000000000000000000000000000000000000000000000000000000000000000000000000000000
D11002496006720828360192675202402062024040600000016000000000NGONZALEZ BLANCO MARLA SUJEY                       MXP000000000000000000000000000000000000000000000000000000000000000000000000000000
D11002506006720828360192676202402062024040600000012000000000NPACHECO RUELAS MARIA JULIA                        MXP000000000000000000000000000000000000000000000000000000000000000000000000000000
D11002516006720828360192677202402062024040600000016000000000NCHAPARRO ANAYA JUANA MARINA                       MXP000000000000000000000000000000000000000000000000000000000000000000000000000000
D11002526006720828360192678202402062024040600000016000000000NURIBE ALMANZA LILIANA ROCIO                       MXP000000000000000000000000000000000000000000000000000000000000000000000000000000
D11002536006720828360192679202402062024040600000016000000000NVAZQUEZ GASTELUM JOSUE URIEL                      MXP000000000000000000000000000000000000000000000000000000000000000000000000000000
D11002546006720828360192680202402062024040600000058500000000NARIZMENDI OTANEZ FRANCISCO JAVIER                 MXP000000000000000000000000000000000000000000000000000000000000000000000000000000
D11002556006720828360192681202402062024040600000016000000000NGALINDO LARA WENDY CAROLINA                       MXP000000000000000000000000000000000000000000000000000000000000000000000000000000
D11002566006720828360192682202402062024040600000010000000000NGARCIA MARTINEZ RAMON                             MXP000000000000000000000000000000000000000000000000000000000000000000000000000000
D11002576006720828360192683202402062024040600000014000000000NMELENDEZ MARTINEZ ISABEL CRISTINA                 MXP000000000000000000000000000000000000000000000000000000000000000000000000000000
D11002586006720828360192684202402062024040600000007000000000NRETA ESPINOZA HUGO                                MXP000000000000000000000000000000000000000000000000000000000000000000000000000000
D11002596006720828360192685202402062024040600000024000000000NREED LUNA MARIANA                                 MXP000000000000000000000000000000000000000000000000000000000000000000000000000000
D11002606006720828360192686202402062024040600000014000000000NROSALES YANEZ EDDY NICOLASA                       MXP000000000000000000000000000000000000000000000000000000000000000000000000000000
D11002616006720828360192687202402062024040600000024000000000NRODRIGUEZ ZAMORA DAVID MANUEL                     MXP000000000000000000000000000000000000000000000000000000000000000000000000000000
D11002626006720828360192688202402062024040600000032000000000NRUIZ MEDINA RAMSES FERNANDO                       MXP000000000000000000000000000000000000000000000000000000000000000000000000000000
D11002636006720828360192689202402062024040600000021333320000NVALDEZ LOPEZ HAYDEE ARIBETH                       MXP000000000000000000000000000000000000000000000000000000000000000000000000000000
D11002646006720828360192690202402062024040600000021333320000NAMEZQUITA SALAZAR EMMA PATRICIA                   MXP000000000000000000000000000000000000000000000000000000000000000000000000000000
D11002656006720828360192691202402062024040600000048000000000NCERPA RODRIGUEZ EFREN                             MXP000000000000000000000000000000000000000000000000000000000000000000000000000000
D11002666006720828360192692202402062024040600000060000000000NLOPEZ GUTIERREZ CARLOS ESTEBAN                    MXP000000000000000000000000000000000000000000000000000000000000000000000000000000
D11002676006720828360192693202402062024040600000005333320000NMENDOZA SAMANO YARELI GUADALUPE                   MXP000000000000000000000000000000000000000000000000000000000000000000000000000000
D11002686006720828360192694202402062024040600000018333320000NBERNAL AGRAMON MARIA DEL REFUGIO                  MXP000000000000000000000000000000000000000000000000000000000000000000000000000000
D11002696006720828360192695202402062024040600000021333320000NBERNAL TAPIA MARIA DOLORES                        MXP000000000000000000000000000000000000000000000000000000000000000000000000000000
D11002706006720828360192696202402062024040600000016000000000NCABANILLAS PENA EDITH PAOLA                       MXP000000000000000000000000000000000000000000000000000000000000000000000000000000
D11002716006720828360192697202402062024040600000021333320000NMEDINA OSUNA AYRTON FRANCISCO                     MXP000000000000000000000000000000000000000000000000000000000000000000000000000000
D11002726006720828360192698202402062024040600000016000000000NALVAREZ NEGRETE LIS YOVANNA                       MXP000000000000000000000000000000000000000000000000000000000000000000000000000000
D11002736006720828360192699202402062024040600000045333320000NESCOBAR PALOS PAOLA NATALY                        MXP000000000000000000000000000000000000000000000000000000000000000000000000000000
D11002746006720828360192700202402062024040600000024000000000NBEJARANO DIAZ MARIA LORENA                        MXP000000000000000000000000000000000000000000000000000000000000000000000000000000
D11002756006720828360192701202402062024040600000016000000000NCASTRO GARCIA FELIX HORACIO                       MXP000000000000000000000000000000000000000000000000000000000000000000000000000000
D11002766006720828360192702202402062024040600000016000000000NCAZARES NIEBLA CARMEN MARIA                       MXP000000000000000000000000000000000000000000000000000000000000000000000000000000
D11002776006720828360192703202402062024040600000008000000000NGAMBOA MORALES REBECA                             MXP000000000000000000000000000000000000000000000000000000000000000000000000000000
D11002786006720828360192704202402062024040600000032000000000NLOREDO LOPEZ DIANA CAROLINA                       MXP000000000000000000000000000000000000000000000000000000000000000000000000000000
D11002796006720828360192705202402062024040600000022333320000NLOPEZ LARA JOSE HERIBERTO                         MXP000000000000000000000000000000000000000000000000000000000000000000000000000000
D11002806006720828360192706202402062024040600000016000000000NLUQUE RODRIGUEZ ADELA VIRIDIANA                   MXP000000000000000000000000000000000000000000000000000000000000000000000000000000
D11002816006720828360192707202402062024040600000024000000000NMARTINEZ NUNEZ MYRNA MIREYA                       MXP000000000000000000000000000000000000000000000000000000000000000000000000000000
D11002826006720828360192708202402062024040600000016000000000NMEZA  FERNANDO DE JESUS                           MXP000000000000000000000000000000000000000000000000000000000000000000000000000000
D11002836006720828360192709202402062024040600000016000000000NPARRA PICOS LUCELLY OTILIA                        MXP000000000000000000000000000000000000000000000000000000000000000000000000000000
D11002846006720828360192710202402062024040600000032000000000NBERRELLEZA CORONEL ARNOLDO                        MXP000000000000000000000000000000000000000000000000000000000000000000000000000000
D11002856006720828360192711202402062024040600000024000000000NGASTELUM SANCHEZ NOA GUADALUPE                    MXP000000000000000000000000000000000000000000000000000000000000000000000000000000
D11002866006720828360192712202402062024040600000008000000000NMONTES MORENO LUZ MARIA                           MXP000000000000000000000000000000000000000000000000000000000000000000000000000000
D11002876006720828360192713202402062024040600000060000000000NSOTO VEGA JESUS RAMON                             MXP000000000000000000000000000000000000000000000000000000000000000000000000000000
D11002886006720828360192714202402062024040600000032000000000NBUENO ZEPEDA MIRIAM ELIZABETH                     MXP000000000000000000000000000000000000000000000000000000000000000000000000000000
D11002896006720828360192715202402062024040600000060000000000NESPINOZA VERDUGO JUAN MANUEL                      MXP000000000000000000000000000000000000000000000000000000000000000000000000000000
D11002906006720828360192716202402062024040600000016000000000NGUZMAN MORALES JORGE                              MXP000000000000000000000000000000000000000000000000000000000000000000000000000000
D11002916006720828360192717202402062024040600000024000000000NVELAZCO SANTOS PABLO ANTONIO                      MXP000000000000000000000000000000000000000000000000000000000000000000000000000000
D11002926006720828360192718202402062024040600000032000000000NARELLANO MARTINEZ CLAUDIA CECILIA                 MXP000000000000000000000000000000000000000000000000000000000000000000000000000000
D11002936006720828360192719202402062024040600000024000000000NBUENO ZEPEDA ANGELICA MAGALY                      MXP000000000000000000000000000000000000000000000000000000000000000000000000000000
D11002946006720828360192720202402062024040600000020000000000NCORRALES BELTRAN LILIANA                          MXP000000000000000000000000000000000000000000000000000000000000000000000000000000
D11002956006720828360192721202402062024040600000008000000000NESPINOZA VILLEGAS ERIKA SUGEY                     MXP000000000000000000000000000000000000000000000000000000000000000000000000000000
D11002966006720828360192722202402062024040600000040000000000NGUTIERREZ FELIX CLARISSA LIZBETH                  MXP000000000000000000000000000000000000000000000000000000000000000000000000000000
D11002976006720828360192723202402062024040600000032000000000NGUZMAN LOPEZ ALBA NYDIA                           MXP000000000000000000000000000000000000000000000000000000000000000000000000000000
D11002986006720828360192724202402062024040600000100000000000NJENNY DEL RINCON RICARDO GUILLERMO                MXP000000000000000000000000000000000000000000000000000000000000000000000000000000
D11002996006720828360192725202402062024040600000060000000000NMEYER CASTANEDA LEANDRO                           MXP000000000000000000000000000000000000000000000000000000000000000000000000000000
D11003006006720828360192726202402062024040600000016000000000NMEDINA LOPEZ ABRAHAM CESAR                        MXP000000000000000000000000000000000000000000000000000000000000000000000000000000
D11003016006720828360192727202402062024040600000024000000000NOSUNA SANDOVAL MARIA GUADALUPE                    MXP000000000000000000000000000000000000000000000000000000000000000000000000000000
D11003026006720828360192728202402062024040600000015866680000NPENA GONZALEZ GABRIEL ROSARIO                     MXP000000000000000000000000000000000000000000000000000000000000000000000000000000
D11003036006720828360192729202402062024040600000008000000000NRAMIREZ VEGA MARIA ELVIRA                         MXP000000000000000000000000000000000000000000000000000000000000000000000000000000
D11003046006720828360192730202402062024040600000016000000000NSILVA CABRALES JORGE ERNESTO                      MXP000000000000000000000000000000000000000000000000000000000000000000000000000000
D11003056006720828360192731202402062024040600000021333320000NTRASLAVINA DIAZ HECTOR ALFONSO                    MXP000000000000000000000000000000000000000000000000000000000000000000000000000000
D11003066006720828360192732202402062024040600000048000000000N VELAZQUEZ MARIA ELIZABETH                        MXP000000000000000000000000000000000000000000000000000000000000000000000000000000
D11003076006720828360192733202402062024040600000040000000000NVEGA LUGO JUAN CARLOS                             MXP000000000000000000000000000000000000000000000000000000000000000000000000000000
D11003086006720828360192734202402062024040600000060000000000NVERDUGO MILLER JAVIER JOEL                        MXP000000000000000000000000000000000000000000000000000000000000000000000000000000
D11003096006720828360192735202402062024040600000048000000000NZAMUDIO URIAS BEATRIZ ELIZABHET                   MXP000000000000000000000000000000000000000000000000000000000000000000000000000000
D11003106006720828360192736202402062024040600000016000000000NALCARAZ HERNANDEZ CRUZ ARLETHE                    MXP000000000000000000000000000000000000000000000000000000000000000000000000000000
D11003116006720828360192737202402062024040600000016000000000NESQUIVEL CARDENAS ANA GABRIELA                    MXP000000000000000000000000000000000000000000000000000000000000000000000000000000
D11003126006720828360192738202402062024040600000016000000000NMEZA VALVERDE ANGEL DE JESUS                      MXP000000000000000000000000000000000000000000000000000000000000000000000000000000
D11003136006720828360192739202402062024040600000020000000000NIBARRA GASTELUM JUAN ENRIQUE                      MXP000000000000000000000000000000000000000000000000000000000000000000000000000000
D11003146006720828360192740202402062024040600000020000000000NPINA AGUILAR DANIEL                               MXP000000000000000000000000000000000000000000000000000000000000000000000000000000
D11003156006720828360192741202402062024040600000032000000000NALEJO FELIX HEIDY ANTONIA                         MXP000000000000000000000000000000000000000000000000000000000000000000000000000000
D11003166006720828360192742202402062024040600000021333320000NAISPURO DURAN DIANA JOSEFINA                      MXP000000000000000000000000000000000000000000000000000000000000000000000000000000
D11003176006720828360192743202402062024040600000032000000000NBERRELLEZA MARTINEZ IRLANDA                       MXP000000000000000000000000000000000000000000000000000000000000000000000000000000
D11003186006720828360192744202402062024040600000024000000000NCARDENAS MANJARREZ CANDY EDEN                     MXP000000000000000000000000000000000000000000000000000000000000000000000000000000
D11003196006720828360192745202402062024040600000021333320000NCAZAREZ VIZCARRA EDITH VERONICA                   MXP000000000000000000000000000000000000000000000000000000000000000000000000000000
D11003206006720828360192746202402062024040600000032000000000NGIL MIRANDA ANA KARINA                            MXP000000000000000000000000000000000000000000000000000000000000000000000000000000
D11003216006720828360192747202402062024040600000008000000000NLOPEZ ESPINOZA KEVIN ALEJANDRO                    MXP000000000000000000000000000000000000000000000000000000000000000000000000000000
D11003226006720828360192748202402062024040600000024000000000NMENDOZA ORTIZ JESUS EMILIO                        MXP000000000000000000000000000000000000000000000000000000000000000000000000000000
D11003236006720828360192749202402062024040600000060000000000NPARRA Y PARRA THANIA KARINA                       MXP000000000000000000000000000000000000000000000000000000000000000000000000000000
D11003246006720828360192750202402062024040600000032000000000NPEREZ SANDI ANGULO CARLOS                         MXP000000000000000000000000000000000000000000000000000000000000000000000000000000
D11003256006720828360192751202402062024040600000024000000000NROCHA ELENES MARBELY                              MXP000000000000000000000000000000000000000000000000000000000000000000000000000000
D11003266006720828360192752202402062024040600000016000000000NTORRES ANGULO EFIGENIA                            MXP000000000000000000000000000000000000000000000000000000000000000000000000000000
D11003276006720828360192753202402062024040600000032000000000NVILLARREAL AYALA MARIA CONCEPCION                 MXP000000000000000000000000000000000000000000000000000000000000000000000000000000
D11003286006720828360192754202402062024040600000032000000000NZAVALA ZAZUETA EMMA RAFAELA                       MXP000000000000000000000000000000000000000000000000000000000000000000000000000000
D11003296006720828360192755202402062024040600000016000000000NSALAZAR AVENDANO MELIDA ZULEMA                    MXP000000000000000000000000000000000000000000000000000000000000000000000000000000
D11003306006720828360192756202402062024040600000045333320000NAGUIRRE PABLOS JORGE ANTONIO                      MXP000000000000000000000000000000000000000000000000000000000000000000000000000000
D11003316006720828360192757202402062024040600000032000000000NDUARTE ATONDO PAOLA GUADALUPE                     MXP000000000000000000000000000000000000000000000000000000000000000000000000000000
D11003326006720828360192758202402062024040600000032000000000NLEYVA PEREA SARA                                  MXP000000000000000000000000000000000000000000000000000000000000000000000000000000
D11003336006720828360192759202402062024040600000055000000000NMILLER MENDOZA ELVIRA DEL CARMEN                  MXP000000000000000000000000000000000000000000000000000000000000000000000000000000
D11003346006720828360192760202402062024040600000013600000000NOBESO BAYLISS EDUARDO                             MXP000000000000000000000000000000000000000000000000000000000000000000000000000000
D11003356006720828360192761202402062024040600000040000000000NPICO AGUIRRE ELSA MARIA                           MXP000000000000000000000000000000000000000000000000000000000000000000000000000000
D11003366006720828360192762202402062024040600000040000000000NRODRIGUEZ COTA MARIA ESPERANZA                    MXP000000000000000000000000000000000000000000000000000000000000000000000000000000
D11003376006720828360192763202402062024040600000032000000000NSILVAS CAMACHO CELIA                              MXP000000000000000000000000000000000000000000000000000000000000000000000000000000
D11003386006720828360192764202402062024040600000040000000000NTISNADO ZAMORANO JUAN PABLO                       MXP000000000000000000000000000000000000000000000000000000000000000000000000000000
D11003396006720828360192765202402062024040600000032000000000NFLORES CASTRO FRANCISCO LENIN                     MXP000000000000000000000000000000000000000000000000000000000000000000000000000000
D11003406006720828360192766202402062024040600000008000000000NHIJAR CUEN ARELY MARIA                            MXP000000000000000000000000000000000000000000000000000000000000000000000000000000
D11003416006720828360192767202402062024040600000016000000000NARAUJO TOLEDO GLORIA ESTHER                       MXP000000000000000000000000000000000000000000000000000000000000000000000000000000
D11003426006720828360192768202402062024040600000037333320000NARMENTA ANGULO RAFAEL                             MXP000000000000000000000000000000000000000000000000000000000000000000000000000000
D11003436006720828360192769202402062024040600000032000000000NARMENTA VELAZQUEZ KATIA GUADALUPE                 MXP000000000000000000000000000000000000000000000000000000000000000000000000000000
D11003446006720828360192770202402062024040600000024000000000NDIAZ HERRERA EFRAIN                               MXP000000000000000000000000000000000000000000000000000000000000000000000000000000
D11003456006720828360192771202402062024040600000016000000000NHERNANDEZ FELIX YOSIRA DENISSE                    MXP000000000000000000000000000000000000000000000000000000000000000000000000000000
D11003466006720828360192772202402062024040600000014000000000NIBARRA PEREZ IRENE DE JESUS                       MXP000000000000000000000000000000000000000000000000000000000000000000000000000000
D11003476006720828360192773202402062024040600000060000000000NINIGUEZ LOPEZ MARIA PATRICIA                      MXP000000000000000000000000000000000000000000000000000000000000000000000000000000
D11003486006720828360192774202402062024040600000021333320000NLOPEZ FONG SU LIN                                 MXP000000000000000000000000000000000000000000000000000000000000000000000000000000
D11003496006720828360192775202402062024040600000016000000000NMAGANA ORDORICA JACKELINE                         MXP000000000000000000000000000000000000000000000000000000000000000000000000000000
D11003506006720828360192776202402062024040600000016000000000NMEDINA AGUILAR MARISELA                           MXP000000000000000000000000000000000000000000000000000000000000000000000000000000
D11003516006720828360192777202402062024040600000008000000000NNUNEZ LOPEZ CLAUDIA LIZETH                        MXP000000000000000000000000000000000000000000000000000000000000000000000000000000
D11003526006720828360192778202402062024040600000016000000000NOSUNA CASTANOS ANGELICA MARIA                     MXP000000000000000000000000000000000000000000000000000000000000000000000000000000
D11003536006720828360192779202402062024040600000016000000000NPEREZ GONZALEZ ANTONIO FERNANDO                   MXP000000000000000000000000000000000000000000000000000000000000000000000000000000
D11003546006720828360192780202402062024040600000012000000000NQUINONEZ NUNEZ SANDRA YANET                       MXP000000000000000000000000000000000000000000000000000000000000000000000000000000
D11003556006720828360192781202402062024040600000040000000000NROMERO BOJORQUEZ LUIS ENRIQUE                     MXP000000000000000000000000000000000000000000000000000000000000000000000000000000
D11003566006720828360192782202402062024040600000024000000000NRUIZ QUEVEDO DIEGO ALBERTO                        MXP000000000000000000000000000000000000000000000000000000000000000000000000000000
D11003576006720828360192783202402062024040600000008000000000NTORRES MOLINA MARCO ANIBAL                        MXP000000000000000000000000000000000000000000000000000000000000000000000000000000
D11003586006720828360192784202402062024040600000016000000000NTRUJILLO LUGO MAYRA ANGELICA                      MXP000000000000000000000000000000000000000000000000000000000000000000000000000000
D11003596006720828360192785202402062024040600000040000000000NVARGAS BALDENEBRO JAVIER                          MXP000000000000000000000000000000000000000000000000000000000000000000000000000000
D11003606006720828360192786202402062024040600000040000000000NVERDUGO MEJIA GRACIELA GEOVANNA                   MXP000000000000000000000000000000000000000000000000000000000000000000000000000000
D11003616006720828360192787202402062024040600000006000000000NMEDINA FELIX LIDIA KARINA                         MXP000000000000000000000000000000000000000000000000000000000000000000000000000000
D11003626006720828360192788202402062024040600000012000000000NVERDUGO SANCHEZ CLAUDIA LORENA                    MXP000000000000000000000000000000000000000000000000000000000000000000000000000000
D11003636006720828360192789202402062024040600000012000000000NMENDOZA BUSTAMANTE JESUS CANDELARIO               MXP000000000000000000000000000000000000000000000000000000000000000000000000000000
D11003646006720828360192790202402062024040600000024000000000NDUARTE CAMACHO YADIRA                             MXP000000000000000000000000000000000000000000000000000000000000000000000000000000
D11003656006720828360192791202402062024040600000012000000000NLOPEZ VEGA JULIO CESAR                            MXP000000000000000000000000000000000000000000000000000000000000000000000000000000
D11003666006720828360192792202402062024040600000008000000000NVERDUGO MEDINA JULIO CESAR                        MXP000000000000000000000000000000000000000000000000000000000000000000000000000000
D11003676006720828360192793202402062024040600000006000000000NCATANO PAREDES JESUS ALEJANDRO                    MXP000000000000000000000000000000000000000000000000000000000000000000000000000000
D11003686006720828360192794202402062024040600000008000000000NCOTA FIGUEROA DIANA TRINIDAD                      MXP000000000000000000000000000000000000000000000000000000000000000000000000000000
D11003696006720828360192795202402062024040600000008000000000NMAGANA AGUIRRE CARLOS JOEL                        MXP000000000000000000000000000000000000000000000000000000000000000000000000000000
D11003706006720828360192796202402062024040600000012000000000NMARTINEZ SOTO ANABELL                             MXP000000000000000000000000000000000000000000000000000000000000000000000000000000
D11003716006720828360192797202402062024040600000008000000000NMEZA VERDUGO KENIA JUDITH                         MXP000000000000000000000000000000000000000000000000000000000000000000000000000000
D11003726006720828360192798202402062024040600000008000000000NPACHECO ANGULO LUISA                              MXP000000000000000000000000000000000000000000000000000000000000000000000000000000
D11003736006720828360192799202402062024040600000008000000000NPEDROZA MONDACA REYNA ISABEL                      MXP000000000000000000000000000000000000000000000000000000000000000000000000000000
D11003746006720828360192800202402062024040600000006000000000NRUELAS ISLAS MIRNA ISELA                          MXP000000000000000000000000000000000000000000000000000000000000000000000000000000
D11003756006720828360192801202402062024040600000012000000000NRUBIO VALENZUELA ARIANA MARIA                     MXP000000000000000000000000000000000000000000000000000000000000000000000000000000
D11003766006720828360192802202402062024040600000008000000000NURIAS URIAS FABIOLA GUADALUPE                     MXP000000000000000000000000000000000000000000000000000000000000000000000000000000
D11003776006720828360192803202402062024040600000008000000000NARAMBURO PAREDES ALONDRA                          MXP000000000000000000000000000000000000000000000000000000000000000000000000000000
D11003786006720828360192804202402062024040600000006000000000NAVINA GUERRERO SAMBLE NERY YEANNETTE              MXP000000000000000000000000000000000000000000000000000000000000000000000000000000
D11003796006720828360192805202402062024040600000008000000000NCALDERON GONZALEZ FERNANDO LEOBARDO               MXP000000000000000000000000000000000000000000000000000000000000000000000000000000
D11003806006720828360192806202402062024040600000012000000000NCAZARES OSUNA ELISA                               MXP000000000000000000000000000000000000000000000000000000000000000000000000000000
D11003816006720828360192807202402062024040600000008000000000NCERVANTES MARTINEZ ENRIQUE DE JESUS               MXP000000000000000000000000000000000000000000000000000000000000000000000000000000
D11003826006720828360192808202402062024040600000012000000000NLOPEZ CAMACHO EMILIO                              MXP000000000000000000000000000000000000000000000000000000000000000000000000000000
D11003836006720828360192809202402062024040600000006000000000N LUGO MIGUEL JONATHAN                             MXP000000000000000000000000000000000000000000000000000000000000000000000000000000
D11003846006720828360192811202402062024040600000006000000000NGUZMAN VILLARREAL LUCIANO                         MXP000000000000000000000000000000000000000000000000000000000000000000000000000000
D11003856006720828360192812202402062024040600000020000000000NOCHOA MANJARREZ JOSE DESIDERIO                    MXP000000000000000000000000000000000000000000000000000000000000000000000000000000
D11003866006720828360192813202402062024040600000012000000000NALDABA GONZALEZ PERLA GUADALUPE                   MXP000000000000000000000000000000000000000000000000000000000000000000000000000000
D11003876006720828360192814202402062024040600000001800000000NZAMORA GAXIOLA MARIA GABRIELA                     MXP000000000000000000000000000000000000000000000000000000000000000000000000000000
D11003886006720828360192815202402062024040600000003600000000NLOPEZ ARCE SELENE                                 MXP000000000000000000000000000000000000000000000000000000000000000000000000000000
D11003896006720828360192816202402062024040600000001440000000NGARCIA GOMEZ ARCELIA                              MXP000000000000000000000000000000000000000000000000000000000000000000000000000000
D11003906006720828360192817202402062024040600000001080000000NMEDINA LOZADA BERTHA ALICIA                       MXP000000000000000000000000000000000000000000000000000000000000000000000000000000
D11003916006720828360192818202402062024040600000001800000000NALUDKI VALENZUELA CLARISA                         MXP000000000000000000000000000000000000000000000000000000000000000000000000000000
D11003926006720828360192819202402062024040600000002160000000NDELGADO ROS ROMELIA                              MXP000000000000000000000000000000000000000000000000000000000000000000000000000000
D11003936006720828360192820202402062024040600000002880000000NQUINTERO BELTRAN JOSEFA                           MXP000000000000000000000000000000000000000000000000000000000000000000000000000000
D11003946006720828360192821202402062024040600000000936000000NHERNANDEZ ALVARADO LETICIA GUADALUPE              MXP000000000000000000000000000000000000000000000000000000000000000000000000000000
D11003956006720828360192822202402062024040600000001800000000NHERNANDEZ ALVARADO LETICIA GUADALUPE              MXP000000000000000000000000000000000000000000000000000000000000000000000000000000
D11003966006720828360192823202402062024040600000001800000000NRIVERA URENA XOCHITL                              MXP000000000000000000000000000000000000000000000000000000000000000000000000000000
D11003976006720828360192824202402062024040600000002400000000NESPINOZA ROMERO PATRICIA                          MXP000000000000000000000000000000000000000000000000000000000000000000000000000000
D11003986006720828360192825202402062024040600000001296000000NZAZUETA CASILLAS SHELMA MELISSA                   MXP000000000000000000000000000000000000000000000000000000000000000000000000000000
D11003996006720828360192826202402062024040600000006000000000NLOPEZ ELENES MARGARITA                            MXP000000000000000000000000000000000000000000000000000000000000000000000000000000
D11004006006720828360192827202402062024040600000003240000000NQUEVEDO PLATA MARIA DEL ROSARIO                   MXP000000000000000000000000000000000000000000000000000000000000000000000000000000
D11004016006720828360192828202402062024040600000001440000000NSAINZ RUSSELL EVANGELINA                          MXP000000000000000000000000000000000000000000000000000000000000000000000000000000
D11004026006720828360192829202402062024040600000002000000000NGRAJEDA NIEBLA LUCILA                             MXP000000000000000000000000000000000000000000000000000000000000000000000000000000
D11004036006720828360192830202402062024040600000006300000000NCARDENAS CASTILLEJO MONICA                        MXP000000000000000000000000000000000000000000000000000000000000000000000000000000
D11004046006720828360192831202402062024040600000006800000000NBELTRAN MISQUES KARLA YADIRA                      MXP000000000000000000000000000000000000000000000000000000000000000000000000000000
D11004056006720828360192832202402062024040600000002400000000NANGULO MASCARENO GUADALUPE                        MXP000000000000000000000000000000000000000000000000000000000000000000000000000000
D11004066006720828360192833202402062024040600000020000000000NORTIZ SAUCEDO JUAN JOSE                           MXP000000000000000000000000000000000000000000000000000000000000000000000000000000
D11004076006720828360192834202402062024040600000012000000000NLICONA MARTINEZ LEOBEL                            MXP000000000000000000000000000000000000000000000000000000000000000000000000000000
D11004086006720828360192835202402062024040600000032000000000NRODRIGUEZ DELGADO JOSE SANTOS                     MXP000000000000000000000000000000000000000000000000000000000000000000000000000000
D11004096006720828360192836202402062024040600000008000000000NGAMEZ RIVERA LUZ NEREIDA                          MXP000000000000000000000000000000000000000000000000000000000000000000000000000000
D11004106006720828360192837202402062024040600000032000000000NAGUIRRE HERRAN BRAULIO ALBERTO                    MXP000000000000000000000000000000000000000000000000000000000000000000000000000000
D11004116006720828360192838202402062024040600000006994080000NLOPEZ LOPEZ SIDAR                                 MXP000000000000000000000000000000000000000000000000000000000000000000000000000000
D11004126006720828360192839202402062024040600000006994080000NMEDINA ROSAS MARIA TERESA                         MXP000000000000000000000000000000000000000000000000000000000000000000000000000000
D11004136006720828360192840202402062024040600000006994080000NMORALES AMAYA WILBERT HORACIO                     MXP000000000000000000000000000000000000000000000000000000000000000000000000000000
D11004146006720828360192841202402062024040600000004000000000NMEZA VALDEZ LORETO PEDRO                          MXP000000000000000000000000000000000000000000000000000000000000000000000000000000
D11004156006720828360192842202402062024040600000016000000000NCASTRO PAEZ JOSE MIGUEL                           MXP000000000000000000000000000000000000000000000000000000000000000000000000000000
D11004166006720828360192843202402062024040600000018000000000NROMERO VALENZUELA EDNA ELIZABETH                  MXP000000000000000000000000000000000000000000000000000000000000000000000000000000
D11004176006720828360192844202402062024040600000006994080000NURQUIDEZ LOPEZ RANULFO                            MXP000000000000000000000000000000000000000000000000000000000000000000000000000000
D11004186006720828360192845202402062024040600000020000000000NMARTINEZ ALVAREZ JOSE ALFREDO                     MXP000000000000000000000000000000000000000000000000000000000000000000000000000000
D11004196006720828360192846202402062024040600000012000000000NNORZAGARAY MORENO MARTINA MARISOL                 MXP000000000000000000000000000000000000000000000000000000000000000000000000000000
D11004206006720828360192847202402062024040600000006996000000NAISPURO RINCON MARIA DE LOS ANGELES               MXP000000000000000000000000000000000000000000000000000000000000000000000000000000
D11004216006720828360192848202402062024040600000006996000000NANGULO LOPEZ EMIGDIO                              MXP000000000000000000000000000000000000000000000000000000000000000000000000000000
D11004226006720828360192849202402062024040600000003847800000NQUEVEDO ANDRADE CRISTIAN ROBERTO                  MXP000000000000000000000000000000000000000000000000000000000000000000000000000000
D11004236006720828360192850202402062024040600000006996000000NRAMOS BELTRAN ANTEMIO                             MXP000000000000000000000000000000000000000000000000000000000000000000000000000000
D11004246006720828360192851202402062024040600000006996000000NRODELO OSUNA ROSENDO                              MXP000000000000000000000000000000000000000000000000000000000000000000000000000000
D11004256006720828360192852202402062024040600000004897200000NRODRIGUEZ SANCHEZ QUEHEN MARTIN                   MXP000000000000000000000000000000000000000000000000000000000000000000000000000000
D11004266006720828360192853202402062024040600000006996000000NRUBIO OSUNA MIGUEL HERIBERTO                      MXP000000000000000000000000000000000000000000000000000000000000000000000000000000
D11004276006720828360192854202402062024040600000016000000000NBAEZ MARTINEZ DULCE MARIA                         MXP000000000000000000000000000000000000000000000000000000000000000000000000000000
D11004286006720828360192855202402062024040600000010000000000NDELGADO PEINADO IRIS JAZMIN                       MXP000000000000000000000000000000000000000000000000000000000000000000000000000000
D11004296006720828360192856202402062024040600000008000000000NGASTELUM RIOS ISAURA                              MXP000000000000000000000000000000000000000000000000000000000000000000000000000000
D11004306006720828360192857202402062024040600000010000000000NLARES TORRECILLAS CHRISTIAN ANGELINA              MXP000000000000000000000000000000000000000000000000000000000000000000000000000000
D11004316006720828360192858202402062024040600000008000000000NVALLEJO ROSETE PAUL ALFONSO                       MXP000000000000000000000000000000000000000000000000000000000000000000000000000000
D11004326006720828360192859202402062024040600000012000000000NCARDENAS VALDEZ MAGDALENA SAYIL                   MXP000000000000000000000000000000000000000000000000000000000000000000000000000000
D11004336006720828360192860202402062024040600000004000000000NGARCIA SALAZAR MARTHA SELENE                      MXP000000000000000000000000000000000000000000000000000000000000000000000000000000
D11004346006720828360192861202402062024040600000026000000000NSANCHEZ LANDEROS JESSICA NALLELY                  MXP000000000000000000000000000000000000000000000000000000000000000000000000000000
D11004356006720828360192862202402062024040600000003152000000NMARTINEZ SOTO JOAQUIN FRANCISCO                   MXP000000000000000000000000000000000000000000000000000000000000000000000000000000
D11004366006720828360192863202402062024040600000020000000000NCANO ARREDONDO SALVADOR                           MXP000000000000000000000000000000000000000000000000000000000000000000000000000000
D11004376006720828360192864202402062024040600000008000000000NCARDENAS URIAS JUAN DIEGO                         MXP000000000000000000000000000000000000000000000000000000000000000000000000000000
D11004386006720828360192865202402062024040600000008000000000NMARTINEZ SOTO CRISTINA                            MXP000000000000000000000000000000000000000000000000000000000000000000000000000000
D11004396006720828360192866202402062024040600000006000000000NORDONEZ MANRIQUEZ RAMONA GUADALUPE                MXP000000000000000000000000000000000000000000000000000000000000000000000000000000
D11004406006720828360192867202402062024040600000008000000000NVERDUGO ZAZUETA CARLOS IVHER                      MXP000000000000000000000000000000000000000000000000000000000000000000000000000000
D11004416006720828360192868202402062024040600000012000000000NLOAIZA TIRADO GUADALUPE YAZMIN                    MXP000000000000000000000000000000000000000000000000000000000000000000000000000000
D11004426006720828360192869202402062024040600000008000000000NBOJORQUEZ GALVEZ AURELIO                          MXP000000000000000000000000000000000000000000000000000000000000000000000000000000
D11004436006720828360192870202402062024040600000016000000000NFLORES CASTRO JOSE ANGEL                          MXP000000000000000000000000000000000000000000000000000000000000000000000000000000
D11004446006720828360192871202402062024040600000016000000000NMARTINEZ BEJARANO GUADALUPE                       MXP000000000000000000000000000000000000000000000000000000000000000000000000000000
D11004456006720828360192872202402062024040600000005200000000NTORRES TORRES RICHARD HERNAN                      MXP000000000000000000000000000000000000000000000000000000000000000000000000000000
D11004466006720828360192873202402062024040600000028000000000NMILLAN CRISTERNA ERNESTO ALONSO                   MXP000000000000000000000000000000000000000000000000000000000000000000000000000000
D11004476006720828360192874202402062024040600000003148200000NVELAZQUEZ SANCHEZ CARLA VANESSA                   MXP000000000000000000000000000000000000000000000000000000000000000000000000000000
D11004486006720828360192875202402062024040600000002098800000NRUIZ VALENTIN ELIDA                               MXP000000000000000000000000000000000000000000000000000000000000000000000000000000
D11004496006720828360192876202402062024040600000000788000000NMILLN CRISTERNA MARA CONCEPCIN                 MXP000000000000000000000000000000000000000000000000000000000000000000000000000000
D11004506006720828360192877202402062024040600000002800000000NREYES BARRAZA YETZALETH SARAHI                    MXP000000000000000000000000000000000000000000000000000000000000000000000000000000
D11004516006720828360192879202402062024040600000006640000000NURIBE BELTRAN CARLOS                              MXP000000000000000000000000000000000000000000000000000000000000000000000000000000
D11004526006720828360192880202402062024040600000006640000000NCRESPO BASTIDAS MARIA DEL CARMEN                  MXP000000000000000000000000000000000000000000000000000000000000000000000000000000
D11004536006720828360192881202402062024040600000006640000000NHERNANDEZ GARZON ROCIO YARELI                     MXP000000000000000000000000000000000000000000000000000000000000000000000000000000
D11004546006720828360192882202402062024040600000008000000000NPARRA SANCHEZ CINDY VANESSA                       MXP000000000000000000000000000000000000000000000000000000000000000000000000000000
D11004556006720828360192883202402062024040600000020000000000NCASTILLO MEDINA ANNA GUADALUPE                    MXP000000000000000000000000000000000000000000000000000000000000000000000000000000
D11004566006720828360192884202402062024040600000010000000000NDE LA CRUZ GONZALEZ OSCAR                         MXP000000000000000000000000000000000000000000000000000000000000000000000000000000
D11004576006720828360192885202402062024040600000010640000000NBALDERRAMA RABAGO ESMERALDA                       MXP000000000000000000000000000000000000000000000000000000000000000000000000000000
D11004586006720828360192886202402062024040600000009560000000NBOJORQUEZ AYALA JESUS                             MXP000000000000000000000000000000000000000000000000000000000000000000000000000000
D11004596006720828360192887202402062024040600000012640000000NBOJORQUEZ HERNANDEZ CRISTIAN MARTIN               MXP000000000000000000000000000000000000000000000000000000000000000000000000000000
D11004606006720828360192888202402062024040600000021988000000NCAMPAS OBESO TERESITA                             MXP000000000000000000000000000000000000000000000000000000000000000000000000000000
D11004616006720828360192889202402062024040600000008000000000NCUADRAS HERRERA VERONICA                          MXP000000000000000000000000000000000000000000000000000000000000000000000000000000
D11004626006720828360192890202402062024040600000006640000000NFELIX PERALTA KARLA ISABEL                        MXP000000000000000000000000000000000000000000000000000000000000000000000000000000
D11004636006720828360192891202402062024040600000006640000000NFIGUEROA GUADARRAMA ROBERTO                       MXP000000000000000000000000000000000000000000000000000000000000000000000000000000
D11004646006720828360192892202402062024040600000009560000000NFIERRO MARTINEZ LAURA VIANEY                      MXP000000000000000000000000000000000000000000000000000000000000000000000000000000
D11004656006720828360192893202402062024040600000006640000000NJIMENEZ ALVAREZ BARTOLO                           MXP000000000000000000000000000000000000000000000000000000000000000000000000000000
D11004666006720828360192894202402062024040600000009560000000NLOPEZ CASTRO ELISABETH CLARISSA                   MXP000000000000000000000000000000000000000000000000000000000000000000000000000000
D11004676006720828360192895202402062024040600000004000000000NLOPEZ CASTRO MARIA LUISA                          MXP000000000000000000000000000000000000000000000000000000000000000000000000000000
D11004686006720828360192896202402062024040600000021988000000NLUNA VEGA JOSE NARCIZO                            MXP000000000000000000000000000000000000000000000000000000000000000000000000000000
D11004696006720828360192897202402062024040600000021988000000NMARTINEZ CEBALLOS ROSALVA                         MXP000000000000000000000000000000000000000000000000000000000000000000000000000000
D11004706006720828360192898202402062024040600000006640000000NMARTINEZ CEBALLOS YESENIA GUADALUPE               MXP000000000000000000000000000000000000000000000000000000000000000000000000000000
D11004716006720828360192899202402062024040600000006640000000NMERCADO CANTUA LUZ ESTHER                         MXP000000000000000000000000000000000000000000000000000000000000000000000000000000
D11004726006720828360192900202402062024040600000006640000000NMENDIVIL ZAZUETA MARIA GUADALUPE                  MXP000000000000000000000000000000000000000000000000000000000000000000000000000000
D11004736006720828360192901202402062024040600000008600000000NMORENO AHUMADA SUJEY ABILENE                      MXP000000000000000000000000000000000000000000000000000000000000000000000000000000
D11004746006720828360192902202402062024040600000021988000000NMONTOYA GALINDO IRELA                             MXP000000000000000000000000000000000000000000000000000000000000000000000000000000
D11004756006720828360192903202402062024040600000024324000000NNAFARRATE BERRELLEZA JESUS MANUEL                 MXP000000000000000000000000000000000000000000000000000000000000000000000000000000
D11004766006720828360192904202402062024040600000006640000000NOCHOA ROMAN ZENAIDA VIANEY                        MXP000000000000000000000000000000000000000000000000000000000000000000000000000000
D11004776006720828360192905202402062024040600000018348000000NRUIZ DIAZ LUZ ELENA                               MXP000000000000000000000000000000000000000000000000000000000000000000000000000000
D11004786006720828360192906202402062024040600000006640000000NRUIZ LOPEZ BALTAZAR                               MXP000000000000000000000000000000000000000000000000000000000000000000000000000000
D11004796006720828360192907202402062024040600000006640000000NSAMANIEGO GARCIA SUSANA JOSELYN                   MXP000000000000000000000000000000000000000000000000000000000000000000000000000000
D11004806006720828360192908202402062024040600000010264000000NTORRES GASTELUM BLANCA AIDA                       MXP000000000000000000000000000000000000000000000000000000000000000000000000000000
D11004816006720828360192909202402062024040600000006640000000NVALENZUELA LEYVA BRENDA                           MXP000000000000000000000000000000000000000000000000000000000000000000000000000000
D11004826006720828360192910202402062024040600000006640000000NVALDEZ LLANES ZULMA YADIRA                        MXP000000000000000000000000000000000000000000000000000000000000000000000000000000
D11004836006720828360192911202402062024040600000006640000000NABRAJAN AISPURO PERLA VERENICE                    MXP000000000000000000000000000000000000000000000000000000000000000000000000000000
D11004846006720828360192912202402062024040600000011144000000NALDANA VALENZUELA CELIA MARIA                     MXP000000000000000000000000000000000000000000000000000000000000000000000000000000
D11004856006720828360192913202402062024040600000062000000000NASTORGA RIOS JESUS                                MXP000000000000000000000000000000000000000000000000000000000000000000000000000000
D11004866006720828360192914202402062024040600000042400000000NANGULO BAEZ ANA MIRLA                             MXP000000000000000000000000000000000000000000000000000000000000000000000000000000
D11004876006720828360192915202402062024040600000029092000000NAGUILAR HERRERA MARIA DE LA LUZ                   MXP000000000000000000000000000000000000000000000000000000000000000000000000000000
D11004886006720828360192916202402062024040600000004640000000NAGUILAR PAEZ JESUS ANTONIO                        MXP000000000000000000000000000000000000000000000000000000000000000000000000000000
D11004896006720828360192917202402062024040600000008000000000NBARO REYES BRENDA ELIZABETH                       MXP000000000000000000000000000000000000000000000000000000000000000000000000000000
D11004906006720828360192918202402062024040600000027800000000NBOJORQUEZ MONTES JAMES DAVID                      MXP000000000000000000000000000000000000000000000000000000000000000000000000000000
D11004916006720828360192919202402062024040600000032000000000NCASTRO GARCIA JESUS ALEJANDRO                     MXP000000000000000000000000000000000000000000000000000000000000000000000000000000
D11004926006720828360192920202402062024040600000020688000000NCAZAREZ HICKS NOEL EDUARDO                        MXP000000000000000000000000000000000000000000000000000000000000000000000000000000
D11004936006720828360192921202402062024040600000015208000000NCASTRO INZUNZA CARLOS MARIO                       MXP000000000000000000000000000000000000000000000000000000000000000000000000000000
D11004946006720828360192922202402062024040600000014352000000NCARRILLO QUINTERO NISSETH JESUS                   MXP000000000000000000000000000000000000000000000000000000000000000000000000000000
D11004956006720828360192923202402062024040600000010264000000NCERVANTES JACOBO YESICA BERENICE                  MXP000000000000000000000000000000000000000000000000000000000000000000000000000000
D11004966006720828360192924202402062024040600000100000000000NCISNEROS DIAZ VICTOR ANTONIO                      MXP000000000000000000000000000000000000000000000000000000000000000000000000000000
D11004976006720828360192925202402062024040600000012240000000NCUADRAS CASTRUITA ALMA YANETH                     MXP000000000000000000000000000000000000000000000000000000000000000000000000000000
D11004986006720828360192926202402062024040600000023292000000NCUADRAS CASTRUITA GUADALUPE ISABEL                MXP000000000000000000000000000000000000000000000000000000000000000000000000000000
D11004996006720828360192927202402062024040600000038476000000NCUEN SANCHEZ ANA CRISTINA                         MXP000000000000000000000000000000000000000000000000000000000000000000000000000000
D11005006006720828360192928202402062024040600000062000000000NDIONISIO CORTEZ ERIK                              MXP000000000000000000000000000000000000000000000000000000000000000000000000000000
D11005016006720828360192929202402062024040600000012000000000NESQUERRA ARTEAGA SELENE                           MXP000000000000000000000000000000000000000000000000000000000000000000000000000000
D11005026006720828360192930202402062024040600000032000000000NFELIX AISPURO GENARO                              MXP000000000000000000000000000000000000000000000000000000000000000000000000000000
D11005036006720828360192931202402062024040600000004000000000NGASTELUM DURAN BEATRIZ ZUSETH                     MXP000000000000000000000000000000000000000000000000000000000000000000000000000000
D11005046006720828360192932202402062024040600000028100000000NGASTELUM MARTINEZ CARLOS ARMANDO                  MXP000000000000000000000000000000000000000000000000000000000000000000000000000000
D11005056006720828360192933202402062024040600000006640000000NGUTIERREZ TREJO SEBASTIAN                         MXP000000000000000000000000000000000000000000000000000000000000000000000000000000
D11005066006720828360192934202402062024040600000016640000000NHERNANDEZ GARCIA LUIS ALBERTO                     MXP000000000000000000000000000000000000000000000000000000000000000000000000000000
D11005076006720828360192935202402062024040600000028100000000NLEYVA SOLANO GABRIELA                             MXP000000000000000000000000000000000000000000000000000000000000000000000000000000
D11005086006720828360192936202402062024040600000006640000000NLOPEZ MONJARDIN IRINIA ELIZABETH                  MXP000000000000000000000000000000000000000000000000000000000000000000000000000000
D11005096006720828360192937202402062024040600000017340000000NLOPEZ NUNEZ MARIA GUADALUPE                       MXP000000000000000000000000000000000000000000000000000000000000000000000000000000
D11005106006720828360192938202402062024040600000008000000000NLOPEZ PLATA KARLA DARELINE                        MXP000000000000000000000000000000000000000000000000000000000000000000000000000000
D11005116006720828360192939202402062024040600000006640000000NMACHADO SANDOVAL KASSANDRA GUADALUPE              MXP000000000000000000000000000000000000000000000000000000000000000000000000000000
D11005126006720828360192940202402062024040600000021200000000NMONTES ARIAS OLGA LILIA                           MXP000000000000000000000000000000000000000000000000000000000000000000000000000000
D11005136006720828360192941202402062024040600000006640000000NMORALES INZUNZA MARIBEL DE MARIA                  MXP000000000000000000000000000000000000000000000000000000000000000000000000000000
D11005146006720828360192942202402062024040600000013280000000NMORALES INZUNZA SILVANIA MARIA                    MXP000000000000000000000000000000000000000000000000000000000000000000000000000000
D11005156006720828360192943202402062024040600000008000000000NNIEBLA ACOSTA AIDE YAMILETH                       MXP000000000000000000000000000000000000000000000000000000000000000000000000000000
D11005166006720828360192944202402062024040600000009560000000NORRANTE LARRETA LEOPOLDO                          MXP000000000000000000000000000000000000000000000000000000000000000000000000000000
D11005176006720828360192945202402062024040600000040000000000NPINA SILVA CARLOS ARMANDO                         MXP000000000000000000000000000000000000000000000000000000000000000000000000000000
